{"contracts/Strat2.sol":{"Strat2":{"abi":[{"inputs":[],"name":"STGLP_USDC","outputs":[{"internalType":"address","name":"","type":"address"}],"stateMutability":"view","type":"function"},{"inputs":[],"name":"STGLP_USDT","outputs":[{"internalType":"address","name":"","type":"address"}],"stateMutability":"view","type":"function"},{"inputs":[],"name":"USDC","outputs":[{"internalType":"address","name":"","type":"address"}],"stateMutability":"view","type":"function"},{"inputs":[],"name":"poolid","outputs":[{"internalType":"uint8","name":"","type":"uint8"}],"stateMutability":"view","type":"function"},{"inputs":[{"internalType":"uint256","name":"amount","type":"uint256"}],"name":"stargateDeposit","outputs":[],"stateMutability":"nonpayable","type":"function"},{"inputs":[],"name":"stargateLpStaking","outputs":[{"internalType":"contract IStargateLpStaking","name":"","type":"address"}],"stateMutability":"view","type":"function"},{"inputs":[],"name":"stargateLpStakingPoolId","outputs":[{"internalType":"uint8","name":"","type":"uint8"}],"stateMutability":"view","type":"function"},{"inputs":[],"name":"stargateLpStakingPoolid","outputs":[{"internalType":"uint8","name":"","type":"uint8"}],"stateMutability":"view","type":"function"},{"inputs":[],"name":"stargateLpToken","outputs":[{"internalType":"address","name":"","type":"address"}],"stateMutability":"view","type":"function"},{"inputs":[],"name":"stargateRouter","outputs":[{"internalType":"contract IStargateRouter","name":"","type":"address"}],"stateMutability":"view","type":"function"},{"inputs":[],"name":"stargateRouterPoolId","outputs":[{"internalType":"uint8","name":"","type":"uint8"}],"stateMutability":"view","type":"function"},{"inputs":[],"name":"stgToken","outputs":[{"internalType":"address","name":"","type":"address"}],"stateMutability":"view","type":"function"},{"inputs":[],"name":"token","outputs":[{"internalType":"address","name":"","type":"address"}],"stateMutability":"view","type":"function"}],"devdoc":{"kind":"dev","methods":{},"version":1},"evm":{"bytecode":{"linkReferences":{},"object":"6080604052600180546001600160a01b03199081167353bf833a5d6c4dda888f69c22c88c9f356a41614178255600480548216732f6f07cdcf3588944bf4c42ac74ff24bf56e759017905560058054821673ff970a61a04b1ca14834a43f5de4533ebddb5cc817905560068054821673892785f33cdee22a30aef750f285e18c18040c3e1790556007805490911673b6cfcf89a7b22988bfc96632ac2a9d6dab60d64117905560085560006009553480156100b957600080fd5b50610722806100c96000396000f3fe608060405234801561001057600080fd5b50600436106100bf5760003560e01c806389a302711161007c57806389a30271146101685780638fe14eec1461017b5780639afb25de1461018f5780639f591245146101a2578063a9e56f3c146101b6578063fc0c546a146101c9578063fefb191b146101dc57600080fd5b8063398d3a01146100c45780634f5ffd6a146100ef5780635f4f9e9e146101045780637588c7091461012f5780637b0259f7146101425780637e2d575914610155575b600080fd5b6004546100d890600160b81b900460ff1681565b60405160ff90911681526020015b60405180910390f35b6101026100fd36600461061e565b6101f0565b005b600654610117906001600160a01b031681565b6040516001600160a01b0390911681526020016100e6565b600754610117906001600160a01b031681565b600254610117906001600160a01b031681565b600054610117906001600160a01b031681565b600554610117906001600160a01b031681565b6004546100d890600160a81b900460ff1681565b600454610117906001600160a01b031681565b6004546100d890600160a01b900460ff1681565b600154610117906001600160a01b031681565b600354610117906001600160a01b031681565b6004546100d890600160b01b900460ff1681565b60015460055461020d916001600160a01b0391821691168361027b565b600180546040516321ec87bf60e21b81526004810192909252602482018390523060448301526001600160a01b0316906387b21efc90606401600060405180830381600087803b15801561026057600080fd5b505af1158015610274573d6000803e3d6000fd5b5050505050565b8015806102f55750604051636eb1769f60e11b81523060048201526001600160a01b03838116602483015284169063dd62ed3e90604401602060405180830381865afa1580156102cf573d6000803e3d6000fd5b505050506040513d601f19601f820116820180604052508101906102f39190610637565b155b6103655760405162461bcd60e51b815260206004820152603660248201527f5361666545524332303a20617070726f76652066726f6d206e6f6e2d7a65726f60448201527520746f206e6f6e2d7a65726f20616c6c6f77616e636560501b60648201526084015b60405180910390fd5b604080516001600160a01b038416602482015260448082018490528251808303909101815260649091019091526020810180516001600160e01b031663095ea7b360e01b1790526103b79084906103bc565b505050565b6000610411826040518060400160405280602081526020017f5361666545524332303a206c6f772d6c6576656c2063616c6c206661696c6564815250856001600160a01b031661048e9092919063ffffffff16565b8051909150156103b7578080602001905181019061042f9190610650565b6103b75760405162461bcd60e51b815260206004820152602a60248201527f5361666545524332303a204552433230206f7065726174696f6e20646964206e6044820152691bdd081cdd58d8d9595960b21b606482015260840161035c565b606061049d84846000856104a5565b949350505050565b6060824710156105065760405162461bcd60e51b815260206004820152602660248201527f416464726573733a20696e73756666696369656e742062616c616e636520666f6044820152651c8818d85b1b60d21b606482015260840161035c565b600080866001600160a01b03168587604051610522919061069d565b60006040518083038185875af1925050503d806000811461055f576040519150601f19603f3d011682016040523d82523d6000602084013e610564565b606091505b509150915061057587838387610580565b979650505050505050565b606083156105ef5782516000036105e8576001600160a01b0385163b6105e85760405162461bcd60e51b815260206004820152601d60248201527f416464726573733a2063616c6c20746f206e6f6e2d636f6e7472616374000000604482015260640161035c565b508161049d565b61049d83838151156106045781518083602001fd5b8060405162461bcd60e51b815260040161035c91906106b9565b60006020828403121561063057600080fd5b5035919050565b60006020828403121561064957600080fd5b5051919050565b60006020828403121561066257600080fd5b8151801515811461067257600080fd5b9392505050565b60005b8381101561069457818101518382015260200161067c565b50506000910152565b600082516106af818460208701610679565b9190910192915050565b60208152600082518060208401526106d8816040850160208701610679565b601f01601f1916919091016040019291505056fea264697066735822122083047def5c93cbf815eeff919abd028db4d7865c628c4cb9b837e2f814cad81064736f6c63430008110033","opcodes":"PUSH1 0x80 PUSH1 0x40 MSTORE PUSH1 0x1 DUP1 SLOAD PUSH1 0x1 PUSH1 0x1 PUSH1 0xA0 SHL SUB NOT SWAP1 DUP2 AND PUSH20 0x53BF833A5D6C4DDA888F69C22C88C9F356A41614 OR DUP3 SSTORE PUSH1 0x4 DUP1 SLOAD DUP3 AND PUSH20 0x2F6F07CDCF3588944BF4C42AC74FF24BF56E7590 OR SWAP1 SSTORE PUSH1 0x5 DUP1 SLOAD DUP3 AND PUSH20 0xFF970A61A04B1CA14834A43F5DE4533EBDDB5CC8 OR SWAP1 SSTORE PUSH1 0x6 DUP1 SLOAD DUP3 AND PUSH20 0x892785F33CDEE22A30AEF750F285E18C18040C3E OR SWAP1 SSTORE PUSH1 0x7 DUP1 SLOAD SWAP1 SWAP2 AND PUSH20 0xB6CFCF89A7B22988BFC96632AC2A9D6DAB60D641 OR SWAP1 SSTORE PUSH1 0x8 SSTORE PUSH1 0x0 PUSH1 0x9 SSTORE CALLVALUE DUP1 ISZERO PUSH2 0xB9 JUMPI PUSH1 0x0 DUP1 REVERT JUMPDEST POP PUSH2 0x722 DUP1 PUSH2 0xC9 PUSH1 0x0 CODECOPY PUSH1 0x0 RETURN INVALID PUSH1 0x80 PUSH1 0x40 MSTORE CALLVALUE DUP1 ISZERO PUSH2 0x10 JUMPI PUSH1 0x0 DUP1 REVERT JUMPDEST POP PUSH1 0x4 CALLDATASIZE LT PUSH2 0xBF JUMPI PUSH1 0x0 CALLDATALOAD PUSH1 0xE0 SHR DUP1 PUSH4 0x89A30271 GT PUSH2 0x7C JUMPI DUP1 PUSH4 0x89A30271 EQ PUSH2 0x168 JUMPI DUP1 PUSH4 0x8FE14EEC EQ PUSH2 0x17B JUMPI DUP1 PUSH4 0x9AFB25DE EQ PUSH2 0x18F JUMPI DUP1 PUSH4 0x9F591245 EQ PUSH2 0x1A2 JUMPI DUP1 PUSH4 0xA9E56F3C EQ PUSH2 0x1B6 JUMPI DUP1 PUSH4 0xFC0C546A EQ PUSH2 0x1C9 JUMPI DUP1 PUSH4 0xFEFB191B EQ PUSH2 0x1DC JUMPI PUSH1 0x0 DUP1 REVERT JUMPDEST DUP1 PUSH4 0x398D3A01 EQ PUSH2 0xC4 JUMPI DUP1 PUSH4 0x4F5FFD6A EQ PUSH2 0xEF JUMPI DUP1 PUSH4 0x5F4F9E9E EQ PUSH2 0x104 JUMPI DUP1 PUSH4 0x7588C709 EQ PUSH2 0x12F JUMPI DUP1 PUSH4 0x7B0259F7 EQ PUSH2 0x142 JUMPI DUP1 PUSH4 0x7E2D5759 EQ PUSH2 0x155 JUMPI JUMPDEST PUSH1 0x0 DUP1 REVERT JUMPDEST PUSH1 0x4 SLOAD PUSH2 0xD8 SWAP1 PUSH1 0x1 PUSH1 0xB8 SHL SWAP1 DIV PUSH1 0xFF AND DUP2 JUMP JUMPDEST PUSH1 0x40 MLOAD PUSH1 0xFF SWAP1 SWAP2 AND DUP2 MSTORE PUSH1 0x20 ADD JUMPDEST PUSH1 0x40 MLOAD DUP1 SWAP2 SUB SWAP1 RETURN JUMPDEST PUSH2 0x102 PUSH2 0xFD CALLDATASIZE PUSH1 0x4 PUSH2 0x61E JUMP JUMPDEST PUSH2 0x1F0 JUMP JUMPDEST STOP JUMPDEST PUSH1 0x6 SLOAD PUSH2 0x117 SWAP1 PUSH1 0x1 PUSH1 0x1 PUSH1 0xA0 SHL SUB AND DUP2 JUMP JUMPDEST PUSH1 0x40 MLOAD PUSH1 0x1 PUSH1 0x1 PUSH1 0xA0 SHL SUB SWAP1 SWAP2 AND DUP2 MSTORE PUSH1 0x20 ADD PUSH2 0xE6 JUMP JUMPDEST PUSH1 0x7 SLOAD PUSH2 0x117 SWAP1 PUSH1 0x1 PUSH1 0x1 PUSH1 0xA0 SHL SUB AND DUP2 JUMP JUMPDEST PUSH1 0x2 SLOAD PUSH2 0x117 SWAP1 PUSH1 0x1 PUSH1 0x1 PUSH1 0xA0 SHL SUB AND DUP2 JUMP JUMPDEST PUSH1 0x0 SLOAD PUSH2 0x117 SWAP1 PUSH1 0x1 PUSH1 0x1 PUSH1 0xA0 SHL SUB AND DUP2 JUMP JUMPDEST PUSH1 0x5 SLOAD PUSH2 0x117 SWAP1 PUSH1 0x1 PUSH1 0x1 PUSH1 0xA0 SHL SUB AND DUP2 JUMP JUMPDEST PUSH1 0x4 SLOAD PUSH2 0xD8 SWAP1 PUSH1 0x1 PUSH1 0xA8 SHL SWAP1 DIV PUSH1 0xFF AND DUP2 JUMP JUMPDEST PUSH1 0x4 SLOAD PUSH2 0x117 SWAP1 PUSH1 0x1 PUSH1 0x1 PUSH1 0xA0 SHL SUB AND DUP2 JUMP JUMPDEST PUSH1 0x4 SLOAD PUSH2 0xD8 SWAP1 PUSH1 0x1 PUSH1 0xA0 SHL SWAP1 DIV PUSH1 0xFF AND DUP2 JUMP JUMPDEST PUSH1 0x1 SLOAD PUSH2 0x117 SWAP1 PUSH1 0x1 PUSH1 0x1 PUSH1 0xA0 SHL SUB AND DUP2 JUMP JUMPDEST PUSH1 0x3 SLOAD PUSH2 0x117 SWAP1 PUSH1 0x1 PUSH1 0x1 PUSH1 0xA0 SHL SUB AND DUP2 JUMP JUMPDEST PUSH1 0x4 SLOAD PUSH2 0xD8 SWAP1 PUSH1 0x1 PUSH1 0xB0 SHL SWAP1 DIV PUSH1 0xFF AND DUP2 JUMP JUMPDEST PUSH1 0x1 SLOAD PUSH1 0x5 SLOAD PUSH2 0x20D SWAP2 PUSH1 0x1 PUSH1 0x1 PUSH1 0xA0 SHL SUB SWAP2 DUP3 AND SWAP2 AND DUP4 PUSH2 0x27B JUMP JUMPDEST PUSH1 0x1 DUP1 SLOAD PUSH1 0x40 MLOAD PUSH4 0x21EC87BF PUSH1 0xE2 SHL DUP2 MSTORE PUSH1 0x4 DUP2 ADD SWAP3 SWAP1 SWAP3 MSTORE PUSH1 0x24 DUP3 ADD DUP4 SWAP1 MSTORE ADDRESS PUSH1 0x44 DUP4 ADD MSTORE PUSH1 0x1 PUSH1 0x1 PUSH1 0xA0 SHL SUB AND SWAP1 PUSH4 0x87B21EFC SWAP1 PUSH1 0x64 ADD PUSH1 0x0 PUSH1 0x40 MLOAD DUP1 DUP4 SUB DUP2 PUSH1 0x0 DUP8 DUP1 EXTCODESIZE ISZERO DUP1 ISZERO PUSH2 0x260 JUMPI PUSH1 0x0 DUP1 REVERT JUMPDEST POP GAS CALL ISZERO DUP1 ISZERO PUSH2 0x274 JUMPI RETURNDATASIZE PUSH1 0x0 DUP1 RETURNDATACOPY RETURNDATASIZE PUSH1 0x0 REVERT JUMPDEST POP POP POP POP POP JUMP JUMPDEST DUP1 ISZERO DUP1 PUSH2 0x2F5 JUMPI POP PUSH1 0x40 MLOAD PUSH4 0x6EB1769F PUSH1 0xE1 SHL DUP2 MSTORE ADDRESS PUSH1 0x4 DUP3 ADD MSTORE PUSH1 0x1 PUSH1 0x1 PUSH1 0xA0 SHL SUB DUP4 DUP2 AND PUSH1 0x24 DUP4 ADD MSTORE DUP5 AND SWAP1 PUSH4 0xDD62ED3E SWAP1 PUSH1 0x44 ADD PUSH1 0x20 PUSH1 0x40 MLOAD DUP1 DUP4 SUB DUP2 DUP7 GAS STATICCALL ISZERO DUP1 ISZERO PUSH2 0x2CF JUMPI RETURNDATASIZE PUSH1 0x0 DUP1 RETURNDATACOPY RETURNDATASIZE PUSH1 0x0 REVERT JUMPDEST POP POP POP POP PUSH1 0x40 MLOAD RETURNDATASIZE PUSH1 0x1F NOT PUSH1 0x1F DUP3 ADD AND DUP3 ADD DUP1 PUSH1 0x40 MSTORE POP DUP2 ADD SWAP1 PUSH2 0x2F3 SWAP2 SWAP1 PUSH2 0x637 JUMP JUMPDEST ISZERO JUMPDEST PUSH2 0x365 JUMPI PUSH1 0x40 MLOAD PUSH3 0x461BCD PUSH1 0xE5 SHL DUP2 MSTORE PUSH1 0x20 PUSH1 0x4 DUP3 ADD MSTORE PUSH1 0x36 PUSH1 0x24 DUP3 ADD MSTORE PUSH32 0x5361666545524332303A20617070726F76652066726F6D206E6F6E2D7A65726F PUSH1 0x44 DUP3 ADD MSTORE PUSH22 0x20746F206E6F6E2D7A65726F20616C6C6F77616E6365 PUSH1 0x50 SHL PUSH1 0x64 DUP3 ADD MSTORE PUSH1 0x84 ADD JUMPDEST PUSH1 0x40 MLOAD DUP1 SWAP2 SUB SWAP1 REVERT JUMPDEST PUSH1 0x40 DUP1 MLOAD PUSH1 0x1 PUSH1 0x1 PUSH1 0xA0 SHL SUB DUP5 AND PUSH1 0x24 DUP3 ADD MSTORE PUSH1 0x44 DUP1 DUP3 ADD DUP5 SWAP1 MSTORE DUP3 MLOAD DUP1 DUP4 SUB SWAP1 SWAP2 ADD DUP2 MSTORE PUSH1 0x64 SWAP1 SWAP2 ADD SWAP1 SWAP2 MSTORE PUSH1 0x20 DUP2 ADD DUP1 MLOAD PUSH1 0x1 PUSH1 0x1 PUSH1 0xE0 SHL SUB AND PUSH4 0x95EA7B3 PUSH1 0xE0 SHL OR SWAP1 MSTORE PUSH2 0x3B7 SWAP1 DUP5 SWAP1 PUSH2 0x3BC JUMP JUMPDEST POP POP POP JUMP JUMPDEST PUSH1 0x0 PUSH2 0x411 DUP3 PUSH1 0x40 MLOAD DUP1 PUSH1 0x40 ADD PUSH1 0x40 MSTORE DUP1 PUSH1 0x20 DUP2 MSTORE PUSH1 0x20 ADD PUSH32 0x5361666545524332303A206C6F772D6C6576656C2063616C6C206661696C6564 DUP2 MSTORE POP DUP6 PUSH1 0x1 PUSH1 0x1 PUSH1 0xA0 SHL SUB AND PUSH2 0x48E SWAP1 SWAP3 SWAP2 SWAP1 PUSH4 0xFFFFFFFF AND JUMP JUMPDEST DUP1 MLOAD SWAP1 SWAP2 POP ISZERO PUSH2 0x3B7 JUMPI DUP1 DUP1 PUSH1 0x20 ADD SWAP1 MLOAD DUP2 ADD SWAP1 PUSH2 0x42F SWAP2 SWAP1 PUSH2 0x650 JUMP JUMPDEST PUSH2 0x3B7 JUMPI PUSH1 0x40 MLOAD PUSH3 0x461BCD PUSH1 0xE5 SHL DUP2 MSTORE PUSH1 0x20 PUSH1 0x4 DUP3 ADD MSTORE PUSH1 0x2A PUSH1 0x24 DUP3 ADD MSTORE PUSH32 0x5361666545524332303A204552433230206F7065726174696F6E20646964206E PUSH1 0x44 DUP3 ADD MSTORE PUSH10 0x1BDD081CDD58D8D95959 PUSH1 0xB2 SHL PUSH1 0x64 DUP3 ADD MSTORE PUSH1 0x84 ADD PUSH2 0x35C JUMP JUMPDEST PUSH1 0x60 PUSH2 0x49D DUP5 DUP5 PUSH1 0x0 DUP6 PUSH2 0x4A5 JUMP JUMPDEST SWAP5 SWAP4 POP POP POP POP JUMP JUMPDEST PUSH1 0x60 DUP3 SELFBALANCE LT ISZERO PUSH2 0x506 JUMPI PUSH1 0x40 MLOAD PUSH3 0x461BCD PUSH1 0xE5 SHL DUP2 MSTORE PUSH1 0x20 PUSH1 0x4 DUP3 ADD MSTORE PUSH1 0x26 PUSH1 0x24 DUP3 ADD MSTORE PUSH32 0x416464726573733A20696E73756666696369656E742062616C616E636520666F PUSH1 0x44 DUP3 ADD MSTORE PUSH6 0x1C8818D85B1B PUSH1 0xD2 SHL PUSH1 0x64 DUP3 ADD MSTORE PUSH1 0x84 ADD PUSH2 0x35C JUMP JUMPDEST PUSH1 0x0 DUP1 DUP7 PUSH1 0x1 PUSH1 0x1 PUSH1 0xA0 SHL SUB AND DUP6 DUP8 PUSH1 0x40 MLOAD PUSH2 0x522 SWAP2 SWAP1 PUSH2 0x69D JUMP JUMPDEST PUSH1 0x0 PUSH1 0x40 MLOAD DUP1 DUP4 SUB DUP2 DUP6 DUP8 GAS CALL SWAP3 POP POP POP RETURNDATASIZE DUP1 PUSH1 0x0 DUP2 EQ PUSH2 0x55F JUMPI PUSH1 0x40 MLOAD SWAP2 POP PUSH1 0x1F NOT PUSH1 0x3F RETURNDATASIZE ADD AND DUP3 ADD PUSH1 0x40 MSTORE RETURNDATASIZE DUP3 MSTORE RETURNDATASIZE PUSH1 0x0 PUSH1 0x20 DUP5 ADD RETURNDATACOPY PUSH2 0x564 JUMP JUMPDEST PUSH1 0x60 SWAP2 POP JUMPDEST POP SWAP2 POP SWAP2 POP PUSH2 0x575 DUP8 DUP4 DUP4 DUP8 PUSH2 0x580 JUMP JUMPDEST SWAP8 SWAP7 POP POP POP POP POP POP POP JUMP JUMPDEST PUSH1 0x60 DUP4 ISZERO PUSH2 0x5EF JUMPI DUP3 MLOAD PUSH1 0x0 SUB PUSH2 0x5E8 JUMPI PUSH1 0x1 PUSH1 0x1 PUSH1 0xA0 SHL SUB DUP6 AND EXTCODESIZE PUSH2 0x5E8 JUMPI PUSH1 0x40 MLOAD PUSH3 0x461BCD PUSH1 0xE5 SHL DUP2 MSTORE PUSH1 0x20 PUSH1 0x4 DUP3 ADD MSTORE PUSH1 0x1D PUSH1 0x24 DUP3 ADD MSTORE PUSH32 0x416464726573733A2063616C6C20746F206E6F6E2D636F6E7472616374000000 PUSH1 0x44 DUP3 ADD MSTORE PUSH1 0x64 ADD PUSH2 0x35C JUMP JUMPDEST POP DUP2 PUSH2 0x49D JUMP JUMPDEST PUSH2 0x49D DUP4 DUP4 DUP2 MLOAD ISZERO PUSH2 0x604 JUMPI DUP2 MLOAD DUP1 DUP4 PUSH1 0x20 ADD REVERT JUMPDEST DUP1 PUSH1 0x40 MLOAD PUSH3 0x461BCD PUSH1 0xE5 SHL DUP2 MSTORE PUSH1 0x4 ADD PUSH2 0x35C SWAP2 SWAP1 PUSH2 0x6B9 JUMP JUMPDEST PUSH1 0x0 PUSH1 0x20 DUP3 DUP5 SUB SLT ISZERO PUSH2 0x630 JUMPI PUSH1 0x0 DUP1 REVERT JUMPDEST POP CALLDATALOAD SWAP2 SWAP1 POP JUMP JUMPDEST PUSH1 0x0 PUSH1 0x20 DUP3 DUP5 SUB SLT ISZERO PUSH2 0x649 JUMPI PUSH1 0x0 DUP1 REVERT JUMPDEST POP MLOAD SWAP2 SWAP1 POP JUMP JUMPDEST PUSH1 0x0 PUSH1 0x20 DUP3 DUP5 SUB SLT ISZERO PUSH2 0x662 JUMPI PUSH1 0x0 DUP1 REVERT JUMPDEST DUP2 MLOAD DUP1 ISZERO ISZERO DUP2 EQ PUSH2 0x672 JUMPI PUSH1 0x0 DUP1 REVERT JUMPDEST SWAP4 SWAP3 POP POP POP JUMP JUMPDEST PUSH1 0x0 JUMPDEST DUP4 DUP2 LT ISZERO PUSH2 0x694 JUMPI DUP2 DUP2 ADD MLOAD DUP4 DUP3 ADD MSTORE PUSH1 0x20 ADD PUSH2 0x67C JUMP JUMPDEST POP POP PUSH1 0x0 SWAP2 ADD MSTORE JUMP JUMPDEST PUSH1 0x0 DUP3 MLOAD PUSH2 0x6AF DUP2 DUP5 PUSH1 0x20 DUP8 ADD PUSH2 0x679 JUMP JUMPDEST SWAP2 SWAP1 SWAP2 ADD SWAP3 SWAP2 POP POP JUMP JUMPDEST PUSH1 0x20 DUP2 MSTORE PUSH1 0x0 DUP3 MLOAD DUP1 PUSH1 0x20 DUP5 ADD MSTORE PUSH2 0x6D8 DUP2 PUSH1 0x40 DUP6 ADD PUSH1 0x20 DUP8 ADD PUSH2 0x679 JUMP JUMPDEST PUSH1 0x1F ADD PUSH1 0x1F NOT AND SWAP2 SWAP1 SWAP2 ADD PUSH1 0x40 ADD SWAP3 SWAP2 POP POP JUMP INVALID LOG2 PUSH5 0x6970667358 0x22 SLT KECCAK256 DUP4 DIV PUSH30 0xEF5C93CBF815EEFF919ABD028DB4D7865C628C4CB9B837E2F814CAD81064 PUSH20 0x6F6C634300081100330000000000000000000000 "},"gasEstimates":{"creation":{"codeDepositCost":"365200","executionCost":"148643","totalCost":"513843"},"external":{"STGLP_USDC()":"2382","STGLP_USDT()":"2404","USDC()":"2337","poolid()":"2451","stargateDeposit(uint256)":"infinite","stargateLpStaking()":"2448","stargateLpStakingPoolId()":"2341","stargateLpStakingPoolid()":"2320","stargateLpToken()":"2426","stargateRouter()":"2425","stargateRouterPoolId()":"2385","stgToken()":"2381","token()":"2447"}},"methodIdentifiers":{"STGLP_USDC()":"5f4f9e9e","STGLP_USDT()":"7588c709","USDC()":"89a30271","poolid()":"fefb191b","stargateDeposit(uint256)":"4f5ffd6a","stargateLpStaking()":"7e2d5759","stargateLpStakingPoolId()":"8fe14eec","stargateLpStakingPoolid()":"398d3a01","stargateLpToken()":"7b0259f7","stargateRouter()":"a9e56f3c","stargateRouterPoolId()":"9f591245","stgToken()":"9afb25de","token()":"fc0c546a"}},"storageLayout":{"storage":[{"astId":739,"contract":"contracts/Strat2.sol:Strat2","label":"stargateLpStaking","offset":0,"slot":"0","type":"t_contract(IStargateLpStaking)857"},{"astId":745,"contract":"contracts/Strat2.sol:Strat2","label":"stargateRouter","offset":0,"slot":"1","type":"t_contract(IStargateRouter)930"},{"astId":747,"contract":"contracts/Strat2.sol:Strat2","label":"stargateLpToken","offset":0,"slot":"2","type":"t_address"},{"astId":749,"contract":"contracts/Strat2.sol:Strat2","label":"token","offset":0,"slot":"3","type":"t_address"},{"astId":755,"contract":"contracts/Strat2.sol:Strat2","label":"stgToken","offset":0,"slot":"4","type":"t_address"},{"astId":757,"contract":"contracts/Strat2.sol:Strat2","label":"stargateRouterPoolId","offset":20,"slot":"4","type":"t_uint8"},{"astId":759,"contract":"contracts/Strat2.sol:Strat2","label":"stargateLpStakingPoolId","offset":21,"slot":"4","type":"t_uint8"},{"astId":761,"contract":"contracts/Strat2.sol:Strat2","label":"poolid","offset":22,"slot":"4","type":"t_uint8"},{"astId":763,"contract":"contracts/Strat2.sol:Strat2","label":"stargateLpStakingPoolid","offset":23,"slot":"4","type":"t_uint8"},{"astId":766,"contract":"contracts/Strat2.sol:Strat2","label":"USDC","offset":0,"slot":"5","type":"t_address"},{"astId":769,"contract":"contracts/Strat2.sol:Strat2","label":"STGLP_USDC","offset":0,"slot":"6","type":"t_address"},{"astId":772,"contract":"contracts/Strat2.sol:Strat2","label":"STGLP_USDT","offset":0,"slot":"7","type":"t_address"},{"astId":775,"contract":"contracts/Strat2.sol:Strat2","label":"USDC_stargateRouterPoolId","offset":0,"slot":"8","type":"t_uint256"},{"astId":778,"contract":"contracts/Strat2.sol:Strat2","label":"USDCstargateLpStakingPoolId","offset":0,"slot":"9","type":"t_uint256"}],"types":{"t_address":{"encoding":"inplace","label":"address","numberOfBytes":"20"},"t_contract(IStargateLpStaking)857":{"encoding":"inplace","label":"contract IStargateLpStaking","numberOfBytes":"20"},"t_contract(IStargateRouter)930":{"encoding":"inplace","label":"contract IStargateRouter","numberOfBytes":"20"},"t_uint256":{"encoding":"inplace","label":"uint256","numberOfBytes":"32"},"t_uint8":{"encoding":"inplace","label":"uint8","numberOfBytes":"1"}}},"userdoc":{"kind":"user","methods":{},"version":1}}}}