{"contracts/GMX_controller.sol":{"GMX_controller":{"abi":[{"inputs":[],"stateMutability":"nonpayable","type":"constructor"},{"anonymous":false,"inputs":[{"indexed":true,"internalType":"address","name":"previousOwner","type":"address"},{"indexed":true,"internalType":"address","name":"newOwner","type":"address"}],"name":"OwnershipTransferred","type":"event"},{"inputs":[],"name":"GMXexecutionFee","outputs":[{"internalType":"uint256","name":"","type":"uint256"}],"stateMutability":"view","type":"function"},{"inputs":[],"name":"USDC","outputs":[{"internalType":"address","name":"","type":"address"}],"stateMutability":"view","type":"function"},{"inputs":[],"name":"WETH","outputs":[{"internalType":"address","name":"","type":"address"}],"stateMutability":"view","type":"function"},{"inputs":[{"internalType":"uint256","name":"tokenAmount","type":"uint256"},{"internalType":"bool","name":"isLong","type":"bool"}],"name":"decreasePosition","outputs":[],"stateMutability":"payable","type":"function"},{"inputs":[],"name":"gmxPositionRouter","outputs":[{"internalType":"address","name":"","type":"address"}],"stateMutability":"view","type":"function"},{"inputs":[],"name":"gmxReader","outputs":[{"internalType":"address","name":"","type":"address"}],"stateMutability":"view","type":"function"},{"inputs":[],"name":"gmxRouter","outputs":[{"internalType":"address","name":"","type":"address"}],"stateMutability":"view","type":"function"},{"inputs":[],"name":"gmxVault","outputs":[{"internalType":"address","name":"","type":"address"}],"stateMutability":"view","type":"function"},{"inputs":[{"internalType":"uint256","name":"tokenAmount","type":"uint256"},{"internalType":"bool","name":"isLong","type":"bool"}],"name":"increasePosition","outputs":[],"stateMutability":"payable","type":"function"},{"inputs":[{"internalType":"bool","name":"isLong","type":"bool"}],"name":"liquidatePosition","outputs":[],"stateMutability":"payable","type":"function"},{"inputs":[],"name":"owner","outputs":[{"internalType":"address","name":"","type":"address"}],"stateMutability":"view","type":"function"},{"inputs":[],"name":"renounceOwnership","outputs":[],"stateMutability":"nonpayable","type":"function"},{"inputs":[{"internalType":"uint256","name":"_fee","type":"uint256"}],"name":"setUpdateExecFees","outputs":[],"stateMutability":"nonpayable","type":"function"},{"inputs":[{"internalType":"address","name":"newOwner","type":"address"}],"name":"transferOwnership","outputs":[],"stateMutability":"nonpayable","type":"function"}],"devdoc":{"kind":"dev","methods":{"owner()":{"details":"Returns the address of the current owner."},"renounceOwnership()":{"details":"Leaves the contract without owner. It will not be possible to call `onlyOwner` functions anymore. Can only be called by the current owner. NOTE: Renouncing ownership will leave the contract without an owner, thereby removing any functionality that is only available to the owner."},"transferOwnership(address)":{"details":"Transfers ownership of the contract to a new account (`newOwner`). Can only be called by the current owner."}},"version":1},"evm":{"bytecode":{"linkReferences":{},"object":"6080604052600180546001600160a01b031990811673489ee077994b6658eafa855c308275ead8097c4a1790915560028054821673abbc5f99639c9b6bcb58544ddf04efa6802f406417905560038054821673b87a436b93ffe9d75c5cfa7bacfff96430b098681790556004805482167322199a49a999c351ef7927602cfb187ec3cae4891790556005805482167382af49447d8a07e3bd95bd0d56f35241523fbab11790556006805490911673ff970a61a04b1ca14834a43f5de4533ebddb5cc81790553480156100d057600080fd5b506100da336101ba565b6002546003546040516338c74dd960e01b81526001600160a01b0391821660048201529116906338c74dd990602401600060405180830381600087803b15801561012357600080fd5b505af1158015610137573d6000803e3d6000fd5b50505050600360009054906101000a90046001600160a01b03166001600160a01b03166363ae21036040518163ffffffff1660e01b8152600401602060405180830381865afa15801561018e573d6000803e3d6000fd5b505050506040513d601f19601f820116820180604052508101906101b2919061020a565b600755610223565b600080546001600160a01b038381166001600160a01b0319831681178455604051919092169283917f8be0079c531659141344cd1fd0a4f28419497f9722a3daafe3b4186f6b6457e09190a35050565b60006020828403121561021c57600080fd5b5051919050565b6111ef806102326000396000f3fe6080604052600436106100bd5760003560e01c806389a302711161006f57806389a30271146101885780638da5cb5b146101a8578063ad5c4648146101c6578063b3b3453e146101e6578063be77cd3214610206578063c657e7c214610226578063f2fde38b1461024657600080fd5b806316aabb3e146100c25780631c5ecc06146100d7578063391687b5146100ea578063434c0c751461010a578063634e318014610133578063715018a6146101605780637cb1759714610175575b600080fd5b6100d56100d0366004610ec0565b610266565b005b6100d56100e5366004610ec0565b6105f8565b3480156100f657600080fd5b506100d5610105366004610ef0565b610a01565b34801561011657600080fd5b5061012060075481565b6040519081526020015b60405180910390f35b34801561013f57600080fd5b50600254610153906001600160a01b031681565b60405161012a9190610f09565b34801561016c57600080fd5b506100d5610a0e565b6100d5610183366004610f1d565b610a22565b34801561019457600080fd5b50600654610153906001600160a01b031681565b3480156101b457600080fd5b506000546001600160a01b0316610153565b3480156101d257600080fd5b50600554610153906001600160a01b031681565b3480156101f257600080fd5b50600154610153906001600160a01b031681565b34801561021257600080fd5b50600454610153906001600160a01b031681565b34801561023257600080fd5b50600354610153906001600160a01b031681565b34801561025257600080fd5b506100d5610261366004610f41565b610d8a565b61026e610e08565b6000811561046357604080516002808252606082018352600092602083019080368337505060055482519293506001600160a01b0316918391506000906102b7576102b7610f6a565b6001600160a01b0392831660209182029290920101526006548251911690829060019081106102e8576102e8610f6a565b6001600160a01b03909216602092830291909101909101526000606461030f86606e610f80565b6103199190610fab565b61032d9069d3c21bcecceda1000000610f80565b6001546005546040516340d3096b60e11b8152929350612710926001600160a01b03928316926381a612d69261036892911690600401610f09565b602060405180830381865afa158015610385573d6000803e3d6000fd5b505050506040513d601f19601f820116820180604052508101906103a99190610fcd565b6103b5906126f2610f80565b6103bf9190610fab565b6003546005549194506001600160a01b0390811691637be7d141913491869116856103f48b69d3c21bcecceda1000000610f80565b8a338b6000662386f26fc100006000806040518d63ffffffff1660e01b815260040161042a9b9a9998979695949392919061102a565b6000604051808303818588803b15801561044357600080fd5b505af1158015610457573d6000803e3d6000fd5b50505050505050505050565b60408051600180825281830190925260009160208083019080368337505060065482519293506001600160a01b0316918391506000906104a5576104a5610f6a565b6001600160a01b039283166020918202929092010152600154600554604051637092736960e11b8152612710939283169263e124e6d2926104eb92911690600401610f09565b602060405180830381865afa158015610508573d6000803e3d6000fd5b505050506040513d601f19601f8201168201806040525081019061052c9190610fcd565b6105389061272e610f80565b6105429190610fab565b6003546005549193506001600160a01b0390811691637be7d1419134918591166105768969d3c21bcecceda1000000610f80565b61058a8a69d3c21bcecceda1000000610f80565b89338a6000662386f26fc100006000806040518d63ffffffff1660e01b81526004016105c09b9a9998979695949392919061102a565b6000604051808303818588803b1580156105d957600080fd5b505af11580156105ed573d6000803e3d6000fd5b505050505050505050565b610600610e08565b6006546040516323b872dd60e01b8152336004820152306024820152604481018490526001600160a01b03909116906323b872dd906064016020604051808303816000875af1158015610657573d6000803e3d6000fd5b505050506040513d601f19601f8201168201806040525081019061067b919061109d565b5060065460025460405163095ea7b360e01b81526001600160a01b0391821660048201526024810185905291169063095ea7b3906044016020604051808303816000875af11580156106d1573d6000803e3d6000fd5b505050506040513d601f19601f820116820180604052508101906106f5919061109d565b506000606461070584606e610f80565b61070f9190610fab565b6107239069d3c21bcecceda1000000610f80565b9050600082156108c857604080516002808252606082018352600092602083019080368337505060065482519293506001600160a01b03169183915060009061076e5761076e610f6a565b6001600160a01b03928316602091820292909201015260055482519116908290600190811061079f5761079f610f6a565b6001600160a01b039283166020918202929092010152600154600554604051637092736960e11b8152612710939283169263e124e6d2926107e592911690600401610f09565b602060405180830381865afa158015610802573d6000803e3d6000fd5b505050506040513d601f19601f820116820180604052508101906108269190610fcd565b6108329061272e610f80565b61083c9190610fab565b60035460055460405163f2ae372f60e01b81529294506001600160a01b039182169263f2ae372f923492610890928792909116908b906000908b908d908c90662386f26fc1000090859081906004016110ba565b6000604051808303818588803b1580156108a957600080fd5b505af11580156108bd573d6000803e3d6000fd5b5050505050506109fb565b60408051600180825281830190925260009160208083019080368337505060065482519293506001600160a01b03169183915060009061090a5761090a610f6a565b6001600160a01b0392831660209182029290920101526001546005546040516340d3096b60e11b815261271093928316926381a612d69261095092911690600401610f09565b602060405180830381865afa15801561096d573d6000803e3d6000fd5b505050506040513d601f19601f820116820180604052508101906109919190610fcd565b61099d906126f2610f80565b6109a79190610fab565b60035460055460405163f2ae372f60e01b81529294506001600160a01b039182169263f2ae372f92349261042a928792909116908b906000908b908d908c90662386f26fc1000090859081906004016110ba565b50505050565b610a09610e08565b600755565b610a16610e08565b610a206000610e62565b565b610a2a610e08565b60008115610c2557604080516002808252606082018352600092602083019080368337505060055482519293506001600160a01b031691839150600090610a7357610a73610f6a565b6001600160a01b039283166020918202929092010152600654825191169082906001908110610aa457610aa4610f6a565b6001600160a01b039283166020918202929092010152600154600554604051634a3f088d60e01b815260009392831692634a3f088d92610af1923092919091169081908a90600401611125565b610100604051808303816000875af1158015610b11573d6000803e3d6000fd5b505050506040513d601f19601f82011682018060405250810190610b35919061114f565b50506001546005546040516340d3096b60e11b8152979850612710976001600160a01b0392831697506381a612d69650610b789550911692506004019050610f09565b602060405180830381865afa158015610b95573d6000803e3d6000fd5b505050506040513d601f19601f82011682018060405250810190610bb99190610fcd565b610bc5906126f2610f80565b610bcf9190610fab565b600354600554604051637be7d14160e01b81529295506001600160a01b0391821692637be7d1419234926105c09288929091169060009088908c9033908d908590662386f26fc10000908290819060040161102a565b60408051600180825281830190925260009160208083019080368337505060065482519293506001600160a01b031691839150600090610c6757610c67610f6a565b6001600160a01b039283166020918202929092010152600154600654600554604051634a3f088d60e01b815260009493841693634a3f088d93610cb69330939183169216908a90600401611125565b610100604051808303816000875af1158015610cd6573d6000803e3d6000fd5b505050506040513d601f19601f82011682018060405250810190610cfa919061114f565b5050600154600554604051637092736960e11b8152979850612710976001600160a01b03928316975063e124e6d29650610d3d9550911692506004019050610f09565b602060405180830381865afa158015610d5a573d6000803e3d6000fd5b505050506040513d601f19601f82011682018060405250810190610d7e9190610fcd565b610bc59061272e610f80565b610d92610e08565b6001600160a01b038116610dfc5760405162461bcd60e51b815260206004820152602660248201527f4f776e61626c653a206e6577206f776e657220697320746865207a65726f206160448201526564647265737360d01b60648201526084015b60405180910390fd5b610e0581610e62565b50565b6000546001600160a01b03163314610a205760405162461bcd60e51b815260206004820181905260248201527f4f776e61626c653a2063616c6c6572206973206e6f7420746865206f776e65726044820152606401610df3565b600080546001600160a01b038381166001600160a01b0319831681178455604051919092169283917f8be0079c531659141344cd1fd0a4f28419497f9722a3daafe3b4186f6b6457e09190a35050565b8015158114610e0557600080fd5b60008060408385031215610ed357600080fd5b823591506020830135610ee581610eb2565b809150509250929050565b600060208284031215610f0257600080fd5b5035919050565b6001600160a01b0391909116815260200190565b600060208284031215610f2f57600080fd5b8135610f3a81610eb2565b9392505050565b600060208284031215610f5357600080fd5b81356001600160a01b0381168114610f3a57600080fd5b634e487b7160e01b600052603260045260246000fd5b8082028115828204841417610fa557634e487b7160e01b600052601160045260246000fd5b92915050565b600082610fc857634e487b7160e01b600052601260045260246000fd5b500490565b600060208284031215610fdf57600080fd5b5051919050565b600081518084526020808501945080840160005b8381101561101f5781516001600160a01b031687529582019590820190600101610ffa565b509495945050505050565b600061016080835261103e8184018f610fe6565b6001600160a01b039d8e166020850152604084019c909c5250506060810198909852951515608088015293881660a087015260c086019290925260e0850152610100840152151561012083015290921661014090920191909152919050565b6000602082840312156110af57600080fd5b8151610f3a81610eb2565b60006101408083526110ce8184018e610fe6565b6001600160a01b039c8d166020850152604084019b909b5250506060810197909752608087019590955292151560a086015260c085019190915260e084015261010083015290921661012090920191909152919050565b6001600160a01b039485168152928416602084015292166040820152901515606082015260800190565b600080600080600080600080610100898b03121561116c57600080fd5b885197506020890151965060408901519550606089015194506080890151935060a0890151925060c08901516111a181610eb2565b8092505060e08901519050929598509295989093965056fea2646970667358221220411cc56ecc9de5d619c54a1c3f345d7d439a1a3da21e200609978d5ff8c48ab164736f6c63430008110033","opcodes":"PUSH1 0x80 PUSH1 0x40 MSTORE PUSH1 0x1 DUP1 SLOAD PUSH1 0x1 PUSH1 0x1 PUSH1 0xA0 SHL SUB NOT SWAP1 DUP2 AND PUSH20 0x489EE077994B6658EAFA855C308275EAD8097C4A OR SWAP1 SWAP2 SSTORE PUSH1 0x2 DUP1 SLOAD DUP3 AND PUSH20 0xABBC5F99639C9B6BCB58544DDF04EFA6802F4064 OR SWAP1 SSTORE PUSH1 0x3 DUP1 SLOAD DUP3 AND PUSH20 0xB87A436B93FFE9D75C5CFA7BACFFF96430B09868 OR SWAP1 SSTORE PUSH1 0x4 DUP1 SLOAD DUP3 AND PUSH20 0x22199A49A999C351EF7927602CFB187EC3CAE489 OR SWAP1 SSTORE PUSH1 0x5 DUP1 SLOAD DUP3 AND PUSH20 0x82AF49447D8A07E3BD95BD0D56F35241523FBAB1 OR SWAP1 SSTORE PUSH1 0x6 DUP1 SLOAD SWAP1 SWAP2 AND PUSH20 0xFF970A61A04B1CA14834A43F5DE4533EBDDB5CC8 OR SWAP1 SSTORE CALLVALUE DUP1 ISZERO PUSH2 0xD0 JUMPI PUSH1 0x0 DUP1 REVERT JUMPDEST POP PUSH2 0xDA CALLER PUSH2 0x1BA JUMP JUMPDEST PUSH1 0x2 SLOAD PUSH1 0x3 SLOAD PUSH1 0x40 MLOAD PUSH4 0x38C74DD9 PUSH1 0xE0 SHL DUP2 MSTORE PUSH1 0x1 PUSH1 0x1 PUSH1 0xA0 SHL SUB SWAP2 DUP3 AND PUSH1 0x4 DUP3 ADD MSTORE SWAP2 AND SWAP1 PUSH4 0x38C74DD9 SWAP1 PUSH1 0x24 ADD PUSH1 0x0 PUSH1 0x40 MLOAD DUP1 DUP4 SUB DUP2 PUSH1 0x0 DUP8 DUP1 EXTCODESIZE ISZERO DUP1 ISZERO PUSH2 0x123 JUMPI PUSH1 0x0 DUP1 REVERT JUMPDEST POP GAS CALL ISZERO DUP1 ISZERO PUSH2 0x137 JUMPI RETURNDATASIZE PUSH1 0x0 DUP1 RETURNDATACOPY RETURNDATASIZE PUSH1 0x0 REVERT JUMPDEST POP POP POP POP PUSH1 0x3 PUSH1 0x0 SWAP1 SLOAD SWAP1 PUSH2 0x100 EXP SWAP1 DIV PUSH1 0x1 PUSH1 0x1 PUSH1 0xA0 SHL SUB AND PUSH1 0x1 PUSH1 0x1 PUSH1 0xA0 SHL SUB AND PUSH4 0x63AE2103 PUSH1 0x40 MLOAD DUP2 PUSH4 0xFFFFFFFF AND PUSH1 0xE0 SHL DUP2 MSTORE PUSH1 0x4 ADD PUSH1 0x20 PUSH1 0x40 MLOAD DUP1 DUP4 SUB DUP2 DUP7 GAS STATICCALL ISZERO DUP1 ISZERO PUSH2 0x18E JUMPI RETURNDATASIZE PUSH1 0x0 DUP1 RETURNDATACOPY RETURNDATASIZE PUSH1 0x0 REVERT JUMPDEST POP POP POP POP PUSH1 0x40 MLOAD RETURNDATASIZE PUSH1 0x1F NOT PUSH1 0x1F DUP3 ADD AND DUP3 ADD DUP1 PUSH1 0x40 MSTORE POP DUP2 ADD SWAP1 PUSH2 0x1B2 SWAP2 SWAP1 PUSH2 0x20A JUMP JUMPDEST PUSH1 0x7 SSTORE PUSH2 0x223 JUMP JUMPDEST PUSH1 0x0 DUP1 SLOAD PUSH1 0x1 PUSH1 0x1 PUSH1 0xA0 SHL SUB DUP4 DUP2 AND PUSH1 0x1 PUSH1 0x1 PUSH1 0xA0 SHL SUB NOT DUP4 AND DUP2 OR DUP5 SSTORE PUSH1 0x40 MLOAD SWAP2 SWAP1 SWAP3 AND SWAP3 DUP4 SWAP2 PUSH32 0x8BE0079C531659141344CD1FD0A4F28419497F9722A3DAAFE3B4186F6B6457E0 SWAP2 SWAP1 LOG3 POP POP JUMP JUMPDEST PUSH1 0x0 PUSH1 0x20 DUP3 DUP5 SUB SLT ISZERO PUSH2 0x21C JUMPI PUSH1 0x0 DUP1 REVERT JUMPDEST POP MLOAD SWAP2 SWAP1 POP JUMP JUMPDEST PUSH2 0x11EF DUP1 PUSH2 0x232 PUSH1 0x0 CODECOPY PUSH1 0x0 RETURN INVALID PUSH1 0x80 PUSH1 0x40 MSTORE PUSH1 0x4 CALLDATASIZE LT PUSH2 0xBD JUMPI PUSH1 0x0 CALLDATALOAD PUSH1 0xE0 SHR DUP1 PUSH4 0x89A30271 GT PUSH2 0x6F JUMPI DUP1 PUSH4 0x89A30271 EQ PUSH2 0x188 JUMPI DUP1 PUSH4 0x8DA5CB5B EQ PUSH2 0x1A8 JUMPI DUP1 PUSH4 0xAD5C4648 EQ PUSH2 0x1C6 JUMPI DUP1 PUSH4 0xB3B3453E EQ PUSH2 0x1E6 JUMPI DUP1 PUSH4 0xBE77CD32 EQ PUSH2 0x206 JUMPI DUP1 PUSH4 0xC657E7C2 EQ PUSH2 0x226 JUMPI DUP1 PUSH4 0xF2FDE38B EQ PUSH2 0x246 JUMPI PUSH1 0x0 DUP1 REVERT JUMPDEST DUP1 PUSH4 0x16AABB3E EQ PUSH2 0xC2 JUMPI DUP1 PUSH4 0x1C5ECC06 EQ PUSH2 0xD7 JUMPI DUP1 PUSH4 0x391687B5 EQ PUSH2 0xEA JUMPI DUP1 PUSH4 0x434C0C75 EQ PUSH2 0x10A JUMPI DUP1 PUSH4 0x634E3180 EQ PUSH2 0x133 JUMPI DUP1 PUSH4 0x715018A6 EQ PUSH2 0x160 JUMPI DUP1 PUSH4 0x7CB17597 EQ PUSH2 0x175 JUMPI JUMPDEST PUSH1 0x0 DUP1 REVERT JUMPDEST PUSH2 0xD5 PUSH2 0xD0 CALLDATASIZE PUSH1 0x4 PUSH2 0xEC0 JUMP JUMPDEST PUSH2 0x266 JUMP JUMPDEST STOP JUMPDEST PUSH2 0xD5 PUSH2 0xE5 CALLDATASIZE PUSH1 0x4 PUSH2 0xEC0 JUMP JUMPDEST PUSH2 0x5F8 JUMP JUMPDEST CALLVALUE DUP1 ISZERO PUSH2 0xF6 JUMPI PUSH1 0x0 DUP1 REVERT JUMPDEST POP PUSH2 0xD5 PUSH2 0x105 CALLDATASIZE PUSH1 0x4 PUSH2 0xEF0 JUMP JUMPDEST PUSH2 0xA01 JUMP JUMPDEST CALLVALUE DUP1 ISZERO PUSH2 0x116 JUMPI PUSH1 0x0 DUP1 REVERT JUMPDEST POP PUSH2 0x120 PUSH1 0x7 SLOAD DUP2 JUMP JUMPDEST PUSH1 0x40 MLOAD SWAP1 DUP2 MSTORE PUSH1 0x20 ADD JUMPDEST PUSH1 0x40 MLOAD DUP1 SWAP2 SUB SWAP1 RETURN JUMPDEST CALLVALUE DUP1 ISZERO PUSH2 0x13F JUMPI PUSH1 0x0 DUP1 REVERT JUMPDEST POP PUSH1 0x2 SLOAD PUSH2 0x153 SWAP1 PUSH1 0x1 PUSH1 0x1 PUSH1 0xA0 SHL SUB AND DUP2 JUMP JUMPDEST PUSH1 0x40 MLOAD PUSH2 0x12A SWAP2 SWAP1 PUSH2 0xF09 JUMP JUMPDEST CALLVALUE DUP1 ISZERO PUSH2 0x16C JUMPI PUSH1 0x0 DUP1 REVERT JUMPDEST POP PUSH2 0xD5 PUSH2 0xA0E JUMP JUMPDEST PUSH2 0xD5 PUSH2 0x183 CALLDATASIZE PUSH1 0x4 PUSH2 0xF1D JUMP JUMPDEST PUSH2 0xA22 JUMP JUMPDEST CALLVALUE DUP1 ISZERO PUSH2 0x194 JUMPI PUSH1 0x0 DUP1 REVERT JUMPDEST POP PUSH1 0x6 SLOAD PUSH2 0x153 SWAP1 PUSH1 0x1 PUSH1 0x1 PUSH1 0xA0 SHL SUB AND DUP2 JUMP JUMPDEST CALLVALUE DUP1 ISZERO PUSH2 0x1B4 JUMPI PUSH1 0x0 DUP1 REVERT JUMPDEST POP PUSH1 0x0 SLOAD PUSH1 0x1 PUSH1 0x1 PUSH1 0xA0 SHL SUB AND PUSH2 0x153 JUMP JUMPDEST CALLVALUE DUP1 ISZERO PUSH2 0x1D2 JUMPI PUSH1 0x0 DUP1 REVERT JUMPDEST POP PUSH1 0x5 SLOAD PUSH2 0x153 SWAP1 PUSH1 0x1 PUSH1 0x1 PUSH1 0xA0 SHL SUB AND DUP2 JUMP JUMPDEST CALLVALUE DUP1 ISZERO PUSH2 0x1F2 JUMPI PUSH1 0x0 DUP1 REVERT JUMPDEST POP PUSH1 0x1 SLOAD PUSH2 0x153 SWAP1 PUSH1 0x1 PUSH1 0x1 PUSH1 0xA0 SHL SUB AND DUP2 JUMP JUMPDEST CALLVALUE DUP1 ISZERO PUSH2 0x212 JUMPI PUSH1 0x0 DUP1 REVERT JUMPDEST POP PUSH1 0x4 SLOAD PUSH2 0x153 SWAP1 PUSH1 0x1 PUSH1 0x1 PUSH1 0xA0 SHL SUB AND DUP2 JUMP JUMPDEST CALLVALUE DUP1 ISZERO PUSH2 0x232 JUMPI PUSH1 0x0 DUP1 REVERT JUMPDEST POP PUSH1 0x3 SLOAD PUSH2 0x153 SWAP1 PUSH1 0x1 PUSH1 0x1 PUSH1 0xA0 SHL SUB AND DUP2 JUMP JUMPDEST CALLVALUE DUP1 ISZERO PUSH2 0x252 JUMPI PUSH1 0x0 DUP1 REVERT JUMPDEST POP PUSH2 0xD5 PUSH2 0x261 CALLDATASIZE PUSH1 0x4 PUSH2 0xF41 JUMP JUMPDEST PUSH2 0xD8A JUMP JUMPDEST PUSH2 0x26E PUSH2 0xE08 JUMP JUMPDEST PUSH1 0x0 DUP2 ISZERO PUSH2 0x463 JUMPI PUSH1 0x40 DUP1 MLOAD PUSH1 0x2 DUP1 DUP3 MSTORE PUSH1 0x60 DUP3 ADD DUP4 MSTORE PUSH1 0x0 SWAP3 PUSH1 0x20 DUP4 ADD SWAP1 DUP1 CALLDATASIZE DUP4 CALLDATACOPY POP POP PUSH1 0x5 SLOAD DUP3 MLOAD SWAP3 SWAP4 POP PUSH1 0x1 PUSH1 0x1 PUSH1 0xA0 SHL SUB AND SWAP2 DUP4 SWAP2 POP PUSH1 0x0 SWAP1 PUSH2 0x2B7 JUMPI PUSH2 0x2B7 PUSH2 0xF6A JUMP JUMPDEST PUSH1 0x1 PUSH1 0x1 PUSH1 0xA0 SHL SUB SWAP3 DUP4 AND PUSH1 0x20 SWAP2 DUP3 MUL SWAP3 SWAP1 SWAP3 ADD ADD MSTORE PUSH1 0x6 SLOAD DUP3 MLOAD SWAP2 AND SWAP1 DUP3 SWAP1 PUSH1 0x1 SWAP1 DUP2 LT PUSH2 0x2E8 JUMPI PUSH2 0x2E8 PUSH2 0xF6A JUMP JUMPDEST PUSH1 0x1 PUSH1 0x1 PUSH1 0xA0 SHL SUB SWAP1 SWAP3 AND PUSH1 0x20 SWAP3 DUP4 MUL SWAP2 SWAP1 SWAP2 ADD SWAP1 SWAP2 ADD MSTORE PUSH1 0x0 PUSH1 0x64 PUSH2 0x30F DUP7 PUSH1 0x6E PUSH2 0xF80 JUMP JUMPDEST PUSH2 0x319 SWAP2 SWAP1 PUSH2 0xFAB JUMP JUMPDEST PUSH2 0x32D SWAP1 PUSH10 0xD3C21BCECCEDA1000000 PUSH2 0xF80 JUMP JUMPDEST PUSH1 0x1 SLOAD PUSH1 0x5 SLOAD PUSH1 0x40 MLOAD PUSH4 0x40D3096B PUSH1 0xE1 SHL DUP2 MSTORE SWAP3 SWAP4 POP PUSH2 0x2710 SWAP3 PUSH1 0x1 PUSH1 0x1 PUSH1 0xA0 SHL SUB SWAP3 DUP4 AND SWAP3 PUSH4 0x81A612D6 SWAP3 PUSH2 0x368 SWAP3 SWAP2 AND SWAP1 PUSH1 0x4 ADD PUSH2 0xF09 JUMP JUMPDEST PUSH1 0x20 PUSH1 0x40 MLOAD DUP1 DUP4 SUB DUP2 DUP7 GAS STATICCALL ISZERO DUP1 ISZERO PUSH2 0x385 JUMPI RETURNDATASIZE PUSH1 0x0 DUP1 RETURNDATACOPY RETURNDATASIZE PUSH1 0x0 REVERT JUMPDEST POP POP POP POP PUSH1 0x40 MLOAD RETURNDATASIZE PUSH1 0x1F NOT PUSH1 0x1F DUP3 ADD AND DUP3 ADD DUP1 PUSH1 0x40 MSTORE POP DUP2 ADD SWAP1 PUSH2 0x3A9 SWAP2 SWAP1 PUSH2 0xFCD JUMP JUMPDEST PUSH2 0x3B5 SWAP1 PUSH2 0x26F2 PUSH2 0xF80 JUMP JUMPDEST PUSH2 0x3BF SWAP2 SWAP1 PUSH2 0xFAB JUMP JUMPDEST PUSH1 0x3 SLOAD PUSH1 0x5 SLOAD SWAP2 SWAP5 POP PUSH1 0x1 PUSH1 0x1 PUSH1 0xA0 SHL SUB SWAP1 DUP2 AND SWAP2 PUSH4 0x7BE7D141 SWAP2 CALLVALUE SWAP2 DUP7 SWAP2 AND DUP6 PUSH2 0x3F4 DUP12 PUSH10 0xD3C21BCECCEDA1000000 PUSH2 0xF80 JUMP JUMPDEST DUP11 CALLER DUP12 PUSH1 0x0 PUSH7 0x2386F26FC10000 PUSH1 0x0 DUP1 PUSH1 0x40 MLOAD DUP14 PUSH4 0xFFFFFFFF AND PUSH1 0xE0 SHL DUP2 MSTORE PUSH1 0x4 ADD PUSH2 0x42A SWAP12 SWAP11 SWAP10 SWAP9 SWAP8 SWAP7 SWAP6 SWAP5 SWAP4 SWAP3 SWAP2 SWAP1 PUSH2 0x102A JUMP JUMPDEST PUSH1 0x0 PUSH1 0x40 MLOAD DUP1 DUP4 SUB DUP2 DUP6 DUP9 DUP1 EXTCODESIZE ISZERO DUP1 ISZERO PUSH2 0x443 JUMPI PUSH1 0x0 DUP1 REVERT JUMPDEST POP GAS CALL ISZERO DUP1 ISZERO PUSH2 0x457 JUMPI RETURNDATASIZE PUSH1 0x0 DUP1 RETURNDATACOPY RETURNDATASIZE PUSH1 0x0 REVERT JUMPDEST POP POP POP POP POP POP POP POP POP POP JUMP JUMPDEST PUSH1 0x40 DUP1 MLOAD PUSH1 0x1 DUP1 DUP3 MSTORE DUP2 DUP4 ADD SWAP1 SWAP3 MSTORE PUSH1 0x0 SWAP2 PUSH1 0x20 DUP1 DUP4 ADD SWAP1 DUP1 CALLDATASIZE DUP4 CALLDATACOPY POP POP PUSH1 0x6 SLOAD DUP3 MLOAD SWAP3 SWAP4 POP PUSH1 0x1 PUSH1 0x1 PUSH1 0xA0 SHL SUB AND SWAP2 DUP4 SWAP2 POP PUSH1 0x0 SWAP1 PUSH2 0x4A5 JUMPI PUSH2 0x4A5 PUSH2 0xF6A JUMP JUMPDEST PUSH1 0x1 PUSH1 0x1 PUSH1 0xA0 SHL SUB SWAP3 DUP4 AND PUSH1 0x20 SWAP2 DUP3 MUL SWAP3 SWAP1 SWAP3 ADD ADD MSTORE PUSH1 0x1 SLOAD PUSH1 0x5 SLOAD PUSH1 0x40 MLOAD PUSH4 0x70927369 PUSH1 0xE1 SHL DUP2 MSTORE PUSH2 0x2710 SWAP4 SWAP3 DUP4 AND SWAP3 PUSH4 0xE124E6D2 SWAP3 PUSH2 0x4EB SWAP3 SWAP2 AND SWAP1 PUSH1 0x4 ADD PUSH2 0xF09 JUMP JUMPDEST PUSH1 0x20 PUSH1 0x40 MLOAD DUP1 DUP4 SUB DUP2 DUP7 GAS STATICCALL ISZERO DUP1 ISZERO PUSH2 0x508 JUMPI RETURNDATASIZE PUSH1 0x0 DUP1 RETURNDATACOPY RETURNDATASIZE PUSH1 0x0 REVERT JUMPDEST POP POP POP POP PUSH1 0x40 MLOAD RETURNDATASIZE PUSH1 0x1F NOT PUSH1 0x1F DUP3 ADD AND DUP3 ADD DUP1 PUSH1 0x40 MSTORE POP DUP2 ADD SWAP1 PUSH2 0x52C SWAP2 SWAP1 PUSH2 0xFCD JUMP JUMPDEST PUSH2 0x538 SWAP1 PUSH2 0x272E PUSH2 0xF80 JUMP JUMPDEST PUSH2 0x542 SWAP2 SWAP1 PUSH2 0xFAB JUMP JUMPDEST PUSH1 0x3 SLOAD PUSH1 0x5 SLOAD SWAP2 SWAP4 POP PUSH1 0x1 PUSH1 0x1 PUSH1 0xA0 SHL SUB SWAP1 DUP2 AND SWAP2 PUSH4 0x7BE7D141 SWAP2 CALLVALUE SWAP2 DUP6 SWAP2 AND PUSH2 0x576 DUP10 PUSH10 0xD3C21BCECCEDA1000000 PUSH2 0xF80 JUMP JUMPDEST PUSH2 0x58A DUP11 PUSH10 0xD3C21BCECCEDA1000000 PUSH2 0xF80 JUMP JUMPDEST DUP10 CALLER DUP11 PUSH1 0x0 PUSH7 0x2386F26FC10000 PUSH1 0x0 DUP1 PUSH1 0x40 MLOAD DUP14 PUSH4 0xFFFFFFFF AND PUSH1 0xE0 SHL DUP2 MSTORE PUSH1 0x4 ADD PUSH2 0x5C0 SWAP12 SWAP11 SWAP10 SWAP9 SWAP8 SWAP7 SWAP6 SWAP5 SWAP4 SWAP3 SWAP2 SWAP1 PUSH2 0x102A JUMP JUMPDEST PUSH1 0x0 PUSH1 0x40 MLOAD DUP1 DUP4 SUB DUP2 DUP6 DUP9 DUP1 EXTCODESIZE ISZERO DUP1 ISZERO PUSH2 0x5D9 JUMPI PUSH1 0x0 DUP1 REVERT JUMPDEST POP GAS CALL ISZERO DUP1 ISZERO PUSH2 0x5ED JUMPI RETURNDATASIZE PUSH1 0x0 DUP1 RETURNDATACOPY RETURNDATASIZE PUSH1 0x0 REVERT JUMPDEST POP POP POP POP POP POP POP POP POP JUMP JUMPDEST PUSH2 0x600 PUSH2 0xE08 JUMP JUMPDEST PUSH1 0x6 SLOAD PUSH1 0x40 MLOAD PUSH4 0x23B872DD PUSH1 0xE0 SHL DUP2 MSTORE CALLER PUSH1 0x4 DUP3 ADD MSTORE ADDRESS PUSH1 0x24 DUP3 ADD MSTORE PUSH1 0x44 DUP2 ADD DUP5 SWAP1 MSTORE PUSH1 0x1 PUSH1 0x1 PUSH1 0xA0 SHL SUB SWAP1 SWAP2 AND SWAP1 PUSH4 0x23B872DD SWAP1 PUSH1 0x64 ADD PUSH1 0x20 PUSH1 0x40 MLOAD DUP1 DUP4 SUB DUP2 PUSH1 0x0 DUP8 GAS CALL ISZERO DUP1 ISZERO PUSH2 0x657 JUMPI RETURNDATASIZE PUSH1 0x0 DUP1 RETURNDATACOPY RETURNDATASIZE PUSH1 0x0 REVERT JUMPDEST POP POP POP POP PUSH1 0x40 MLOAD RETURNDATASIZE PUSH1 0x1F NOT PUSH1 0x1F DUP3 ADD AND DUP3 ADD DUP1 PUSH1 0x40 MSTORE POP DUP2 ADD SWAP1 PUSH2 0x67B SWAP2 SWAP1 PUSH2 0x109D JUMP JUMPDEST POP PUSH1 0x6 SLOAD PUSH1 0x2 SLOAD PUSH1 0x40 MLOAD PUSH4 0x95EA7B3 PUSH1 0xE0 SHL DUP2 MSTORE PUSH1 0x1 PUSH1 0x1 PUSH1 0xA0 SHL SUB SWAP2 DUP3 AND PUSH1 0x4 DUP3 ADD MSTORE PUSH1 0x24 DUP2 ADD DUP6 SWAP1 MSTORE SWAP2 AND SWAP1 PUSH4 0x95EA7B3 SWAP1 PUSH1 0x44 ADD PUSH1 0x20 PUSH1 0x40 MLOAD DUP1 DUP4 SUB DUP2 PUSH1 0x0 DUP8 GAS CALL ISZERO DUP1 ISZERO PUSH2 0x6D1 JUMPI RETURNDATASIZE PUSH1 0x0 DUP1 RETURNDATACOPY RETURNDATASIZE PUSH1 0x0 REVERT JUMPDEST POP POP POP POP PUSH1 0x40 MLOAD RETURNDATASIZE PUSH1 0x1F NOT PUSH1 0x1F DUP3 ADD AND DUP3 ADD DUP1 PUSH1 0x40 MSTORE POP DUP2 ADD SWAP1 PUSH2 0x6F5 SWAP2 SWAP1 PUSH2 0x109D JUMP JUMPDEST POP PUSH1 0x0 PUSH1 0x64 PUSH2 0x705 DUP5 PUSH1 0x6E PUSH2 0xF80 JUMP JUMPDEST PUSH2 0x70F SWAP2 SWAP1 PUSH2 0xFAB JUMP JUMPDEST PUSH2 0x723 SWAP1 PUSH10 0xD3C21BCECCEDA1000000 PUSH2 0xF80 JUMP JUMPDEST SWAP1 POP PUSH1 0x0 DUP3 ISZERO PUSH2 0x8C8 JUMPI PUSH1 0x40 DUP1 MLOAD PUSH1 0x2 DUP1 DUP3 MSTORE PUSH1 0x60 DUP3 ADD DUP4 MSTORE PUSH1 0x0 SWAP3 PUSH1 0x20 DUP4 ADD SWAP1 DUP1 CALLDATASIZE DUP4 CALLDATACOPY POP POP PUSH1 0x6 SLOAD DUP3 MLOAD SWAP3 SWAP4 POP PUSH1 0x1 PUSH1 0x1 PUSH1 0xA0 SHL SUB AND SWAP2 DUP4 SWAP2 POP PUSH1 0x0 SWAP1 PUSH2 0x76E JUMPI PUSH2 0x76E PUSH2 0xF6A JUMP JUMPDEST PUSH1 0x1 PUSH1 0x1 PUSH1 0xA0 SHL SUB SWAP3 DUP4 AND PUSH1 0x20 SWAP2 DUP3 MUL SWAP3 SWAP1 SWAP3 ADD ADD MSTORE PUSH1 0x5 SLOAD DUP3 MLOAD SWAP2 AND SWAP1 DUP3 SWAP1 PUSH1 0x1 SWAP1 DUP2 LT PUSH2 0x79F JUMPI PUSH2 0x79F PUSH2 0xF6A JUMP JUMPDEST PUSH1 0x1 PUSH1 0x1 PUSH1 0xA0 SHL SUB SWAP3 DUP4 AND PUSH1 0x20 SWAP2 DUP3 MUL SWAP3 SWAP1 SWAP3 ADD ADD MSTORE PUSH1 0x1 SLOAD PUSH1 0x5 SLOAD PUSH1 0x40 MLOAD PUSH4 0x70927369 PUSH1 0xE1 SHL DUP2 MSTORE PUSH2 0x2710 SWAP4 SWAP3 DUP4 AND SWAP3 PUSH4 0xE124E6D2 SWAP3 PUSH2 0x7E5 SWAP3 SWAP2 AND SWAP1 PUSH1 0x4 ADD PUSH2 0xF09 JUMP JUMPDEST PUSH1 0x20 PUSH1 0x40 MLOAD DUP1 DUP4 SUB DUP2 DUP7 GAS STATICCALL ISZERO DUP1 ISZERO PUSH2 0x802 JUMPI RETURNDATASIZE PUSH1 0x0 DUP1 RETURNDATACOPY RETURNDATASIZE PUSH1 0x0 REVERT JUMPDEST POP POP POP POP PUSH1 0x40 MLOAD RETURNDATASIZE PUSH1 0x1F NOT PUSH1 0x1F DUP3 ADD AND DUP3 ADD DUP1 PUSH1 0x40 MSTORE POP DUP2 ADD SWAP1 PUSH2 0x826 SWAP2 SWAP1 PUSH2 0xFCD JUMP JUMPDEST PUSH2 0x832 SWAP1 PUSH2 0x272E PUSH2 0xF80 JUMP JUMPDEST PUSH2 0x83C SWAP2 SWAP1 PUSH2 0xFAB JUMP JUMPDEST PUSH1 0x3 SLOAD PUSH1 0x5 SLOAD PUSH1 0x40 MLOAD PUSH4 0xF2AE372F PUSH1 0xE0 SHL DUP2 MSTORE SWAP3 SWAP5 POP PUSH1 0x1 PUSH1 0x1 PUSH1 0xA0 SHL SUB SWAP2 DUP3 AND SWAP3 PUSH4 0xF2AE372F SWAP3 CALLVALUE SWAP3 PUSH2 0x890 SWAP3 DUP8 SWAP3 SWAP1 SWAP2 AND SWAP1 DUP12 SWAP1 PUSH1 0x0 SWAP1 DUP12 SWAP1 DUP14 SWAP1 DUP13 SWAP1 PUSH7 0x2386F26FC10000 SWAP1 DUP6 SWAP1 DUP2 SWAP1 PUSH1 0x4 ADD PUSH2 0x10BA JUMP JUMPDEST PUSH1 0x0 PUSH1 0x40 MLOAD DUP1 DUP4 SUB DUP2 DUP6 DUP9 DUP1 EXTCODESIZE ISZERO DUP1 ISZERO PUSH2 0x8A9 JUMPI PUSH1 0x0 DUP1 REVERT JUMPDEST POP GAS CALL ISZERO DUP1 ISZERO PUSH2 0x8BD JUMPI RETURNDATASIZE PUSH1 0x0 DUP1 RETURNDATACOPY RETURNDATASIZE PUSH1 0x0 REVERT JUMPDEST POP POP POP POP POP POP PUSH2 0x9FB JUMP JUMPDEST PUSH1 0x40 DUP1 MLOAD PUSH1 0x1 DUP1 DUP3 MSTORE DUP2 DUP4 ADD SWAP1 SWAP3 MSTORE PUSH1 0x0 SWAP2 PUSH1 0x20 DUP1 DUP4 ADD SWAP1 DUP1 CALLDATASIZE DUP4 CALLDATACOPY POP POP PUSH1 0x6 SLOAD DUP3 MLOAD SWAP3 SWAP4 POP PUSH1 0x1 PUSH1 0x1 PUSH1 0xA0 SHL SUB AND SWAP2 DUP4 SWAP2 POP PUSH1 0x0 SWAP1 PUSH2 0x90A JUMPI PUSH2 0x90A PUSH2 0xF6A JUMP JUMPDEST PUSH1 0x1 PUSH1 0x1 PUSH1 0xA0 SHL SUB SWAP3 DUP4 AND PUSH1 0x20 SWAP2 DUP3 MUL SWAP3 SWAP1 SWAP3 ADD ADD MSTORE PUSH1 0x1 SLOAD PUSH1 0x5 SLOAD PUSH1 0x40 MLOAD PUSH4 0x40D3096B PUSH1 0xE1 SHL DUP2 MSTORE PUSH2 0x2710 SWAP4 SWAP3 DUP4 AND SWAP3 PUSH4 0x81A612D6 SWAP3 PUSH2 0x950 SWAP3 SWAP2 AND SWAP1 PUSH1 0x4 ADD PUSH2 0xF09 JUMP JUMPDEST PUSH1 0x20 PUSH1 0x40 MLOAD DUP1 DUP4 SUB DUP2 DUP7 GAS STATICCALL ISZERO DUP1 ISZERO PUSH2 0x96D JUMPI RETURNDATASIZE PUSH1 0x0 DUP1 RETURNDATACOPY RETURNDATASIZE PUSH1 0x0 REVERT JUMPDEST POP POP POP POP PUSH1 0x40 MLOAD RETURNDATASIZE PUSH1 0x1F NOT PUSH1 0x1F DUP3 ADD AND DUP3 ADD DUP1 PUSH1 0x40 MSTORE POP DUP2 ADD SWAP1 PUSH2 0x991 SWAP2 SWAP1 PUSH2 0xFCD JUMP JUMPDEST PUSH2 0x99D SWAP1 PUSH2 0x26F2 PUSH2 0xF80 JUMP JUMPDEST PUSH2 0x9A7 SWAP2 SWAP1 PUSH2 0xFAB JUMP JUMPDEST PUSH1 0x3 SLOAD PUSH1 0x5 SLOAD PUSH1 0x40 MLOAD PUSH4 0xF2AE372F PUSH1 0xE0 SHL DUP2 MSTORE SWAP3 SWAP5 POP PUSH1 0x1 PUSH1 0x1 PUSH1 0xA0 SHL SUB SWAP2 DUP3 AND SWAP3 PUSH4 0xF2AE372F SWAP3 CALLVALUE SWAP3 PUSH2 0x42A SWAP3 DUP8 SWAP3 SWAP1 SWAP2 AND SWAP1 DUP12 SWAP1 PUSH1 0x0 SWAP1 DUP12 SWAP1 DUP14 SWAP1 DUP13 SWAP1 PUSH7 0x2386F26FC10000 SWAP1 DUP6 SWAP1 DUP2 SWAP1 PUSH1 0x4 ADD PUSH2 0x10BA JUMP JUMPDEST POP POP POP POP JUMP JUMPDEST PUSH2 0xA09 PUSH2 0xE08 JUMP JUMPDEST PUSH1 0x7 SSTORE JUMP JUMPDEST PUSH2 0xA16 PUSH2 0xE08 JUMP JUMPDEST PUSH2 0xA20 PUSH1 0x0 PUSH2 0xE62 JUMP JUMPDEST JUMP JUMPDEST PUSH2 0xA2A PUSH2 0xE08 JUMP JUMPDEST PUSH1 0x0 DUP2 ISZERO PUSH2 0xC25 JUMPI PUSH1 0x40 DUP1 MLOAD PUSH1 0x2 DUP1 DUP3 MSTORE PUSH1 0x60 DUP3 ADD DUP4 MSTORE PUSH1 0x0 SWAP3 PUSH1 0x20 DUP4 ADD SWAP1 DUP1 CALLDATASIZE DUP4 CALLDATACOPY POP POP PUSH1 0x5 SLOAD DUP3 MLOAD SWAP3 SWAP4 POP PUSH1 0x1 PUSH1 0x1 PUSH1 0xA0 SHL SUB AND SWAP2 DUP4 SWAP2 POP PUSH1 0x0 SWAP1 PUSH2 0xA73 JUMPI PUSH2 0xA73 PUSH2 0xF6A JUMP JUMPDEST PUSH1 0x1 PUSH1 0x1 PUSH1 0xA0 SHL SUB SWAP3 DUP4 AND PUSH1 0x20 SWAP2 DUP3 MUL SWAP3 SWAP1 SWAP3 ADD ADD MSTORE PUSH1 0x6 SLOAD DUP3 MLOAD SWAP2 AND SWAP1 DUP3 SWAP1 PUSH1 0x1 SWAP1 DUP2 LT PUSH2 0xAA4 JUMPI PUSH2 0xAA4 PUSH2 0xF6A JUMP JUMPDEST PUSH1 0x1 PUSH1 0x1 PUSH1 0xA0 SHL SUB SWAP3 DUP4 AND PUSH1 0x20 SWAP2 DUP3 MUL SWAP3 SWAP1 SWAP3 ADD ADD MSTORE PUSH1 0x1 SLOAD PUSH1 0x5 SLOAD PUSH1 0x40 MLOAD PUSH4 0x4A3F088D PUSH1 0xE0 SHL DUP2 MSTORE PUSH1 0x0 SWAP4 SWAP3 DUP4 AND SWAP3 PUSH4 0x4A3F088D SWAP3 PUSH2 0xAF1 SWAP3 ADDRESS SWAP3 SWAP2 SWAP1 SWAP2 AND SWAP1 DUP2 SWAP1 DUP11 SWAP1 PUSH1 0x4 ADD PUSH2 0x1125 JUMP JUMPDEST PUSH2 0x100 PUSH1 0x40 MLOAD DUP1 DUP4 SUB DUP2 PUSH1 0x0 DUP8 GAS CALL ISZERO DUP1 ISZERO PUSH2 0xB11 JUMPI RETURNDATASIZE PUSH1 0x0 DUP1 RETURNDATACOPY RETURNDATASIZE PUSH1 0x0 REVERT JUMPDEST POP POP POP POP PUSH1 0x40 MLOAD RETURNDATASIZE PUSH1 0x1F NOT PUSH1 0x1F DUP3 ADD AND DUP3 ADD DUP1 PUSH1 0x40 MSTORE POP DUP2 ADD SWAP1 PUSH2 0xB35 SWAP2 SWAP1 PUSH2 0x114F JUMP JUMPDEST POP POP PUSH1 0x1 SLOAD PUSH1 0x5 SLOAD PUSH1 0x40 MLOAD PUSH4 0x40D3096B PUSH1 0xE1 SHL DUP2 MSTORE SWAP8 SWAP9 POP PUSH2 0x2710 SWAP8 PUSH1 0x1 PUSH1 0x1 PUSH1 0xA0 SHL SUB SWAP3 DUP4 AND SWAP8 POP PUSH4 0x81A612D6 SWAP7 POP PUSH2 0xB78 SWAP6 POP SWAP2 AND SWAP3 POP PUSH1 0x4 ADD SWAP1 POP PUSH2 0xF09 JUMP JUMPDEST PUSH1 0x20 PUSH1 0x40 MLOAD DUP1 DUP4 SUB DUP2 DUP7 GAS STATICCALL ISZERO DUP1 ISZERO PUSH2 0xB95 JUMPI RETURNDATASIZE PUSH1 0x0 DUP1 RETURNDATACOPY RETURNDATASIZE PUSH1 0x0 REVERT JUMPDEST POP POP POP POP PUSH1 0x40 MLOAD RETURNDATASIZE PUSH1 0x1F NOT PUSH1 0x1F DUP3 ADD AND DUP3 ADD DUP1 PUSH1 0x40 MSTORE POP DUP2 ADD SWAP1 PUSH2 0xBB9 SWAP2 SWAP1 PUSH2 0xFCD JUMP JUMPDEST PUSH2 0xBC5 SWAP1 PUSH2 0x26F2 PUSH2 0xF80 JUMP JUMPDEST PUSH2 0xBCF SWAP2 SWAP1 PUSH2 0xFAB JUMP JUMPDEST PUSH1 0x3 SLOAD PUSH1 0x5 SLOAD PUSH1 0x40 MLOAD PUSH4 0x7BE7D141 PUSH1 0xE0 SHL DUP2 MSTORE SWAP3 SWAP6 POP PUSH1 0x1 PUSH1 0x1 PUSH1 0xA0 SHL SUB SWAP2 DUP3 AND SWAP3 PUSH4 0x7BE7D141 SWAP3 CALLVALUE SWAP3 PUSH2 0x5C0 SWAP3 DUP9 SWAP3 SWAP1 SWAP2 AND SWAP1 PUSH1 0x0 SWAP1 DUP9 SWAP1 DUP13 SWAP1 CALLER SWAP1 DUP14 SWAP1 DUP6 SWAP1 PUSH7 0x2386F26FC10000 SWAP1 DUP3 SWAP1 DUP2 SWAP1 PUSH1 0x4 ADD PUSH2 0x102A JUMP JUMPDEST PUSH1 0x40 DUP1 MLOAD PUSH1 0x1 DUP1 DUP3 MSTORE DUP2 DUP4 ADD SWAP1 SWAP3 MSTORE PUSH1 0x0 SWAP2 PUSH1 0x20 DUP1 DUP4 ADD SWAP1 DUP1 CALLDATASIZE DUP4 CALLDATACOPY POP POP PUSH1 0x6 SLOAD DUP3 MLOAD SWAP3 SWAP4 POP PUSH1 0x1 PUSH1 0x1 PUSH1 0xA0 SHL SUB AND SWAP2 DUP4 SWAP2 POP PUSH1 0x0 SWAP1 PUSH2 0xC67 JUMPI PUSH2 0xC67 PUSH2 0xF6A JUMP JUMPDEST PUSH1 0x1 PUSH1 0x1 PUSH1 0xA0 SHL SUB SWAP3 DUP4 AND PUSH1 0x20 SWAP2 DUP3 MUL SWAP3 SWAP1 SWAP3 ADD ADD MSTORE PUSH1 0x1 SLOAD PUSH1 0x6 SLOAD PUSH1 0x5 SLOAD PUSH1 0x40 MLOAD PUSH4 0x4A3F088D PUSH1 0xE0 SHL DUP2 MSTORE PUSH1 0x0 SWAP5 SWAP4 DUP5 AND SWAP4 PUSH4 0x4A3F088D SWAP4 PUSH2 0xCB6 SWAP4 ADDRESS SWAP4 SWAP2 DUP4 AND SWAP3 AND SWAP1 DUP11 SWAP1 PUSH1 0x4 ADD PUSH2 0x1125 JUMP JUMPDEST PUSH2 0x100 PUSH1 0x40 MLOAD DUP1 DUP4 SUB DUP2 PUSH1 0x0 DUP8 GAS CALL ISZERO DUP1 ISZERO PUSH2 0xCD6 JUMPI RETURNDATASIZE PUSH1 0x0 DUP1 RETURNDATACOPY RETURNDATASIZE PUSH1 0x0 REVERT JUMPDEST POP POP POP POP PUSH1 0x40 MLOAD RETURNDATASIZE PUSH1 0x1F NOT PUSH1 0x1F DUP3 ADD AND DUP3 ADD DUP1 PUSH1 0x40 MSTORE POP DUP2 ADD SWAP1 PUSH2 0xCFA SWAP2 SWAP1 PUSH2 0x114F JUMP JUMPDEST POP POP PUSH1 0x1 SLOAD PUSH1 0x5 SLOAD PUSH1 0x40 MLOAD PUSH4 0x70927369 PUSH1 0xE1 SHL DUP2 MSTORE SWAP8 SWAP9 POP PUSH2 0x2710 SWAP8 PUSH1 0x1 PUSH1 0x1 PUSH1 0xA0 SHL SUB SWAP3 DUP4 AND SWAP8 POP PUSH4 0xE124E6D2 SWAP7 POP PUSH2 0xD3D SWAP6 POP SWAP2 AND SWAP3 POP PUSH1 0x4 ADD SWAP1 POP PUSH2 0xF09 JUMP JUMPDEST PUSH1 0x20 PUSH1 0x40 MLOAD DUP1 DUP4 SUB DUP2 DUP7 GAS STATICCALL ISZERO DUP1 ISZERO PUSH2 0xD5A JUMPI RETURNDATASIZE PUSH1 0x0 DUP1 RETURNDATACOPY RETURNDATASIZE PUSH1 0x0 REVERT JUMPDEST POP POP POP POP PUSH1 0x40 MLOAD RETURNDATASIZE PUSH1 0x1F NOT PUSH1 0x1F DUP3 ADD AND DUP3 ADD DUP1 PUSH1 0x40 MSTORE POP DUP2 ADD SWAP1 PUSH2 0xD7E SWAP2 SWAP1 PUSH2 0xFCD JUMP JUMPDEST PUSH2 0xBC5 SWAP1 PUSH2 0x272E PUSH2 0xF80 JUMP JUMPDEST PUSH2 0xD92 PUSH2 0xE08 JUMP JUMPDEST PUSH1 0x1 PUSH1 0x1 PUSH1 0xA0 SHL SUB DUP2 AND PUSH2 0xDFC JUMPI PUSH1 0x40 MLOAD PUSH3 0x461BCD PUSH1 0xE5 SHL DUP2 MSTORE PUSH1 0x20 PUSH1 0x4 DUP3 ADD MSTORE PUSH1 0x26 PUSH1 0x24 DUP3 ADD MSTORE PUSH32 0x4F776E61626C653A206E6577206F776E657220697320746865207A65726F2061 PUSH1 0x44 DUP3 ADD MSTORE PUSH6 0x646472657373 PUSH1 0xD0 SHL PUSH1 0x64 DUP3 ADD MSTORE PUSH1 0x84 ADD JUMPDEST PUSH1 0x40 MLOAD DUP1 SWAP2 SUB SWAP1 REVERT JUMPDEST PUSH2 0xE05 DUP2 PUSH2 0xE62 JUMP JUMPDEST POP JUMP JUMPDEST PUSH1 0x0 SLOAD PUSH1 0x1 PUSH1 0x1 PUSH1 0xA0 SHL SUB AND CALLER EQ PUSH2 0xA20 JUMPI PUSH1 0x40 MLOAD PUSH3 0x461BCD PUSH1 0xE5 SHL DUP2 MSTORE PUSH1 0x20 PUSH1 0x4 DUP3 ADD DUP2 SWAP1 MSTORE PUSH1 0x24 DUP3 ADD MSTORE PUSH32 0x4F776E61626C653A2063616C6C6572206973206E6F7420746865206F776E6572 PUSH1 0x44 DUP3 ADD MSTORE PUSH1 0x64 ADD PUSH2 0xDF3 JUMP JUMPDEST PUSH1 0x0 DUP1 SLOAD PUSH1 0x1 PUSH1 0x1 PUSH1 0xA0 SHL SUB DUP4 DUP2 AND PUSH1 0x1 PUSH1 0x1 PUSH1 0xA0 SHL SUB NOT DUP4 AND DUP2 OR DUP5 SSTORE PUSH1 0x40 MLOAD SWAP2 SWAP1 SWAP3 AND SWAP3 DUP4 SWAP2 PUSH32 0x8BE0079C531659141344CD1FD0A4F28419497F9722A3DAAFE3B4186F6B6457E0 SWAP2 SWAP1 LOG3 POP POP JUMP JUMPDEST DUP1 ISZERO ISZERO DUP2 EQ PUSH2 0xE05 JUMPI PUSH1 0x0 DUP1 REVERT JUMPDEST PUSH1 0x0 DUP1 PUSH1 0x40 DUP4 DUP6 SUB SLT ISZERO PUSH2 0xED3 JUMPI PUSH1 0x0 DUP1 REVERT JUMPDEST DUP3 CALLDATALOAD SWAP2 POP PUSH1 0x20 DUP4 ADD CALLDATALOAD PUSH2 0xEE5 DUP2 PUSH2 0xEB2 JUMP JUMPDEST DUP1 SWAP2 POP POP SWAP3 POP SWAP3 SWAP1 POP JUMP JUMPDEST PUSH1 0x0 PUSH1 0x20 DUP3 DUP5 SUB SLT ISZERO PUSH2 0xF02 JUMPI PUSH1 0x0 DUP1 REVERT JUMPDEST POP CALLDATALOAD SWAP2 SWAP1 POP JUMP JUMPDEST PUSH1 0x1 PUSH1 0x1 PUSH1 0xA0 SHL SUB SWAP2 SWAP1 SWAP2 AND DUP2 MSTORE PUSH1 0x20 ADD SWAP1 JUMP JUMPDEST PUSH1 0x0 PUSH1 0x20 DUP3 DUP5 SUB SLT ISZERO PUSH2 0xF2F JUMPI PUSH1 0x0 DUP1 REVERT JUMPDEST DUP2 CALLDATALOAD PUSH2 0xF3A DUP2 PUSH2 0xEB2 JUMP JUMPDEST SWAP4 SWAP3 POP POP POP JUMP JUMPDEST PUSH1 0x0 PUSH1 0x20 DUP3 DUP5 SUB SLT ISZERO PUSH2 0xF53 JUMPI PUSH1 0x0 DUP1 REVERT JUMPDEST DUP2 CALLDATALOAD PUSH1 0x1 PUSH1 0x1 PUSH1 0xA0 SHL SUB DUP2 AND DUP2 EQ PUSH2 0xF3A JUMPI PUSH1 0x0 DUP1 REVERT JUMPDEST PUSH4 0x4E487B71 PUSH1 0xE0 SHL PUSH1 0x0 MSTORE PUSH1 0x32 PUSH1 0x4 MSTORE PUSH1 0x24 PUSH1 0x0 REVERT JUMPDEST DUP1 DUP3 MUL DUP2 ISZERO DUP3 DUP3 DIV DUP5 EQ OR PUSH2 0xFA5 JUMPI PUSH4 0x4E487B71 PUSH1 0xE0 SHL PUSH1 0x0 MSTORE PUSH1 0x11 PUSH1 0x4 MSTORE PUSH1 0x24 PUSH1 0x0 REVERT JUMPDEST SWAP3 SWAP2 POP POP JUMP JUMPDEST PUSH1 0x0 DUP3 PUSH2 0xFC8 JUMPI PUSH4 0x4E487B71 PUSH1 0xE0 SHL PUSH1 0x0 MSTORE PUSH1 0x12 PUSH1 0x4 MSTORE PUSH1 0x24 PUSH1 0x0 REVERT JUMPDEST POP DIV SWAP1 JUMP JUMPDEST PUSH1 0x0 PUSH1 0x20 DUP3 DUP5 SUB SLT ISZERO PUSH2 0xFDF JUMPI PUSH1 0x0 DUP1 REVERT JUMPDEST POP MLOAD SWAP2 SWAP1 POP JUMP JUMPDEST PUSH1 0x0 DUP2 MLOAD DUP1 DUP5 MSTORE PUSH1 0x20 DUP1 DUP6 ADD SWAP5 POP DUP1 DUP5 ADD PUSH1 0x0 JUMPDEST DUP4 DUP2 LT ISZERO PUSH2 0x101F JUMPI DUP2 MLOAD PUSH1 0x1 PUSH1 0x1 PUSH1 0xA0 SHL SUB AND DUP8 MSTORE SWAP6 DUP3 ADD SWAP6 SWAP1 DUP3 ADD SWAP1 PUSH1 0x1 ADD PUSH2 0xFFA JUMP JUMPDEST POP SWAP5 SWAP6 SWAP5 POP POP POP POP POP JUMP JUMPDEST PUSH1 0x0 PUSH2 0x160 DUP1 DUP4 MSTORE PUSH2 0x103E DUP2 DUP5 ADD DUP16 PUSH2 0xFE6 JUMP JUMPDEST PUSH1 0x1 PUSH1 0x1 PUSH1 0xA0 SHL SUB SWAP14 DUP15 AND PUSH1 0x20 DUP6 ADD MSTORE PUSH1 0x40 DUP5 ADD SWAP13 SWAP1 SWAP13 MSTORE POP POP PUSH1 0x60 DUP2 ADD SWAP9 SWAP1 SWAP9 MSTORE SWAP6 ISZERO ISZERO PUSH1 0x80 DUP9 ADD MSTORE SWAP4 DUP9 AND PUSH1 0xA0 DUP8 ADD MSTORE PUSH1 0xC0 DUP7 ADD SWAP3 SWAP1 SWAP3 MSTORE PUSH1 0xE0 DUP6 ADD MSTORE PUSH2 0x100 DUP5 ADD MSTORE ISZERO ISZERO PUSH2 0x120 DUP4 ADD MSTORE SWAP1 SWAP3 AND PUSH2 0x140 SWAP1 SWAP3 ADD SWAP2 SWAP1 SWAP2 MSTORE SWAP2 SWAP1 POP JUMP JUMPDEST PUSH1 0x0 PUSH1 0x20 DUP3 DUP5 SUB SLT ISZERO PUSH2 0x10AF JUMPI PUSH1 0x0 DUP1 REVERT JUMPDEST DUP2 MLOAD PUSH2 0xF3A DUP2 PUSH2 0xEB2 JUMP JUMPDEST PUSH1 0x0 PUSH2 0x140 DUP1 DUP4 MSTORE PUSH2 0x10CE DUP2 DUP5 ADD DUP15 PUSH2 0xFE6 JUMP JUMPDEST PUSH1 0x1 PUSH1 0x1 PUSH1 0xA0 SHL SUB SWAP13 DUP14 AND PUSH1 0x20 DUP6 ADD MSTORE PUSH1 0x40 DUP5 ADD SWAP12 SWAP1 SWAP12 MSTORE POP POP PUSH1 0x60 DUP2 ADD SWAP8 SWAP1 SWAP8 MSTORE PUSH1 0x80 DUP8 ADD SWAP6 SWAP1 SWAP6 MSTORE SWAP3 ISZERO ISZERO PUSH1 0xA0 DUP7 ADD MSTORE PUSH1 0xC0 DUP6 ADD SWAP2 SWAP1 SWAP2 MSTORE PUSH1 0xE0 DUP5 ADD MSTORE PUSH2 0x100 DUP4 ADD MSTORE SWAP1 SWAP3 AND PUSH2 0x120 SWAP1 SWAP3 ADD SWAP2 SWAP1 SWAP2 MSTORE SWAP2 SWAP1 POP JUMP JUMPDEST PUSH1 0x1 PUSH1 0x1 PUSH1 0xA0 SHL SUB SWAP5 DUP6 AND DUP2 MSTORE SWAP3 DUP5 AND PUSH1 0x20 DUP5 ADD MSTORE SWAP3 AND PUSH1 0x40 DUP3 ADD MSTORE SWAP1 ISZERO ISZERO PUSH1 0x60 DUP3 ADD MSTORE PUSH1 0x80 ADD SWAP1 JUMP JUMPDEST PUSH1 0x0 DUP1 PUSH1 0x0 DUP1 PUSH1 0x0 DUP1 PUSH1 0x0 DUP1 PUSH2 0x100 DUP10 DUP12 SUB SLT ISZERO PUSH2 0x116C JUMPI PUSH1 0x0 DUP1 REVERT JUMPDEST DUP9 MLOAD SWAP8 POP PUSH1 0x20 DUP10 ADD MLOAD SWAP7 POP PUSH1 0x40 DUP10 ADD MLOAD SWAP6 POP PUSH1 0x60 DUP10 ADD MLOAD SWAP5 POP PUSH1 0x80 DUP10 ADD MLOAD SWAP4 POP PUSH1 0xA0 DUP10 ADD MLOAD SWAP3 POP PUSH1 0xC0 DUP10 ADD MLOAD PUSH2 0x11A1 DUP2 PUSH2 0xEB2 JUMP JUMPDEST DUP1 SWAP3 POP POP PUSH1 0xE0 DUP10 ADD MLOAD SWAP1 POP SWAP3 SWAP6 SWAP9 POP SWAP3 SWAP6 SWAP9 SWAP1 SWAP4 SWAP7 POP JUMP INVALID LOG2 PUSH5 0x6970667358 0x22 SLT KECCAK256 COINBASE SHR 0xC5 PUSH15 0xCC9DE5D619C54A1C3F345D7D439A1A RETURNDATASIZE LOG2 0x1E KECCAK256 MOD MULMOD SWAP8 DUP14 0x5F 0xF8 0xC4 DUP11 0xB1 PUSH5 0x736F6C6343 STOP ADDMOD GT STOP CALLER "},"gasEstimates":{"creation":{"codeDepositCost":"918200","executionCost":"infinite","totalCost":"infinite"},"external":{"GMXexecutionFee()":"2351","USDC()":"2361","WETH()":"2405","decreasePosition(uint256,bool)":"infinite","gmxPositionRouter()":"2471","gmxReader()":"2449","gmxRouter()":"2450","gmxVault()":"2427","increasePosition(uint256,bool)":"infinite","liquidatePosition(bool)":"infinite","owner()":"2377","renounceOwnership()":"infinite","setUpdateExecFees(uint256)":"24533","transferOwnership(address)":"28430"}},"methodIdentifiers":{"GMXexecutionFee()":"434c0c75","USDC()":"89a30271","WETH()":"ad5c4648","decreasePosition(uint256,bool)":"16aabb3e","gmxPositionRouter()":"c657e7c2","gmxReader()":"be77cd32","gmxRouter()":"634e3180","gmxVault()":"b3b3453e","increasePosition(uint256,bool)":"1c5ecc06","liquidatePosition(bool)":"7cb17597","owner()":"8da5cb5b","renounceOwnership()":"715018a6","setUpdateExecFees(uint256)":"391687b5","transferOwnership(address)":"f2fde38b"}},"storageLayout":{"storage":[{"astId":8969,"contract":"contracts/GMX_controller.sol:GMX_controller","label":"_owner","offset":0,"slot":"0","type":"t_address"},{"astId":229,"contract":"contracts/GMX_controller.sol:GMX_controller","label":"gmxVault","offset":0,"slot":"1","type":"t_address"},{"astId":235,"contract":"contracts/GMX_controller.sol:GMX_controller","label":"gmxRouter","offset":0,"slot":"2","type":"t_address"},{"astId":241,"contract":"contracts/GMX_controller.sol:GMX_controller","label":"gmxPositionRouter","offset":0,"slot":"3","type":"t_address"},{"astId":247,"contract":"contracts/GMX_controller.sol:GMX_controller","label":"gmxReader","offset":0,"slot":"4","type":"t_address"},{"astId":250,"contract":"contracts/GMX_controller.sol:GMX_controller","label":"WETH","offset":0,"slot":"5","type":"t_address"},{"astId":253,"contract":"contracts/GMX_controller.sol:GMX_controller","label":"USDC","offset":0,"slot":"6","type":"t_address"},{"astId":255,"contract":"contracts/GMX_controller.sol:GMX_controller","label":"GMXexecutionFee","offset":0,"slot":"7","type":"t_uint256"}],"types":{"t_address":{"encoding":"inplace","label":"address","numberOfBytes":"20"},"t_uint256":{"encoding":"inplace","label":"uint256","numberOfBytes":"32"}}},"userdoc":{"kind":"user","methods":{},"version":1}}}}