{"contracts/Strat1.sol":{"Strat1":{"abi":[{"inputs":[],"stateMutability":"nonpayable","type":"constructor"},{"anonymous":false,"inputs":[{"indexed":false,"internalType":"string","name":"message","type":"string"}],"name":"Log","type":"event"},{"anonymous":false,"inputs":[{"indexed":true,"internalType":"address","name":"previousOwner","type":"address"},{"indexed":true,"internalType":"address","name":"newOwner","type":"address"}],"name":"OwnershipTransferred","type":"event"},{"inputs":[],"name":"USDC","outputs":[{"internalType":"address","name":"","type":"address"}],"stateMutability":"view","type":"function"},{"inputs":[{"internalType":"bool","name":"isLong","type":"bool"}],"name":"closePosition","outputs":[],"stateMutability":"payable","type":"function"},{"inputs":[],"name":"gmxPositionRouter","outputs":[{"internalType":"address","name":"","type":"address"}],"stateMutability":"view","type":"function"},{"inputs":[],"name":"gmxReader","outputs":[{"internalType":"address","name":"","type":"address"}],"stateMutability":"view","type":"function"},{"inputs":[],"name":"gmxRouter","outputs":[{"internalType":"address","name":"","type":"address"}],"stateMutability":"view","type":"function"},{"inputs":[],"name":"gmxVault","outputs":[{"internalType":"address","name":"","type":"address"}],"stateMutability":"view","type":"function"},{"inputs":[{"internalType":"uint256","name":"tokenAmount","type":"uint256"},{"internalType":"bool","name":"isLong","type":"bool"}],"name":"openPosition","outputs":[],"stateMutability":"payable","type":"function"},{"inputs":[{"internalType":"address","name":"","type":"address"}],"name":"oracles","outputs":[{"internalType":"address","name":"","type":"address"}],"stateMutability":"view","type":"function"},{"inputs":[],"name":"owner","outputs":[{"internalType":"address","name":"","type":"address"}],"stateMutability":"view","type":"function"},{"inputs":[],"name":"renounceOwnership","outputs":[],"stateMutability":"nonpayable","type":"function"},{"inputs":[{"internalType":"address","name":"newOwner","type":"address"}],"name":"transferOwnership","outputs":[],"stateMutability":"nonpayable","type":"function"},{"inputs":[],"name":"vault","outputs":[{"internalType":"address","name":"","type":"address"}],"stateMutability":"view","type":"function"}],"devdoc":{"kind":"dev","methods":{"owner()":{"details":"Returns the address of the current owner."},"renounceOwnership()":{"details":"Leaves the contract without owner. It will not be possible to call `onlyOwner` functions anymore. Can only be called by the current owner. NOTE: Renouncing ownership will leave the contract without an owner, thereby removing any functionality that is only available to the owner."},"transferOwnership(address)":{"details":"Transfers ownership of the contract to a new account (`newOwner`). Can only be called by the current owner."}},"version":1},"evm":{"bytecode":{"linkReferences":{},"object":"6080604052600180546001600160a01b031990811673ff970a61a04b1ca14834a43f5de4533ebddb5cc81790915560038054821673489ee077994b6658eafa855c308275ead8097c4a17905560048054821673abbc5f99639c9b6bcb58544ddf04efa6802f406417905560058054821673b87a436b93ffe9d75c5cfa7bacfff96430b09868179055600680549091167322199a49a999c351ef7927602cfb187ec3cae4891790553480156100b257600080fd5b506100bc33610123565b7382af49447d8a07e3bd95bd0d56f35241523fbab160005260086020527fce09d406285d0d98f8d7856cf5337fcbd8f91b9d4e3f0ab0ea2741da37b2c6fb80546001600160a01b03191673639fe6ab55c921f74e7fac1ee960c0b6293ba612179055610173565b600080546001600160a01b038381166001600160a01b0319831681178455604051919092169283917f8be0079c531659141344cd1fd0a4f28419497f9722a3daafe3b4186f6b6457e09190a35050565b611123806101826000396000f3fe6080604052600436106100a75760003560e01c8063addd509911610064578063addd509914610163578063b3b3453e14610199578063be77cd32146101b9578063c657e7c2146101d9578063f2fde38b146101f9578063fbfa77cf1461021957600080fd5b80635d9ce673146100ac578063634e3180146100c15780636671b6da146100fd578063715018a61461011057806389a30271146101255780638da5cb5b14610145575b600080fd5b6100bf6100ba366004610d2c565b610239565b005b3480156100cd57600080fd5b506004546100e1906001600160a01b031681565b6040516001600160a01b03909116815260200160405180910390f35b6100bf61010b366004610d5c565b6107d0565b34801561011c57600080fd5b506100bf610a66565b34801561013157600080fd5b506001546100e1906001600160a01b031681565b34801561015157600080fd5b506000546001600160a01b03166100e1565b34801561016f57600080fd5b506100e161017e366004610d80565b6008602052600090815260409020546001600160a01b031681565b3480156101a557600080fd5b506003546100e1906001600160a01b031681565b3480156101c557600080fd5b506006546100e1906001600160a01b031681565b3480156101e557600080fd5b506005546100e1906001600160a01b031681565b34801561020557600080fd5b506100bf610214366004610d80565b610a7a565b34801561022557600080fd5b506002546100e1906001600160a01b031681565b610241610af8565b600480546005546040516338c74dd960e01b81526001600160a01b039182169381019390935216906338c74dd990602401600060405180830381600087803b15801561028c57600080fd5b505af11580156102a0573d6000803e3d6000fd5b50506001546040516323b872dd60e01b8152336004820152306024820152604481018690526001600160a01b0390911692506323b872dd91506064016020604051808303816000875af11580156102fb573d6000803e3d6000fd5b505050506040513d601f19601f8201168201806040525081019061031f9190610da9565b506001546004805460405163095ea7b360e01b81526001600160a01b0391821692810192909252602482018590529091169063095ea7b3906044016020604051808303816000875af1158015610379573d6000803e3d6000fd5b505050506040513d601f19601f8201168201806040525081019061039d9190610da9565b507382af49447d8a07e3bd95bd0d56f35241523fbab1600090815260086020527fce09d406285d0d98f8d7856cf5337fcbd8f91b9d4e3f0ab0ea2741da37b2c6fb5460408051633fabe5a360e21b815290516001600160a01b039092169163feaf968c9160048082019260a0929091908290030181865afa158015610426573d6000803e3d6000fd5b505050506040513d601f19601f8201168201806040525081019061044a9190610de5565b5050509150506000606484606e6104619190610e35565b61046b9190610e60565b61047f9069d3c21bcecceda1000000610e35565b905060006104ab604051806040016040528060078152602001666275672069636960c81b815250610b52565b83156107c957604080516002808252606082018352600092602083019080368337505060015482519293506001600160a01b0316918391506000906104f2576104f2610e82565b60200260200101906001600160a01b031690816001600160a01b0316815250507382af49447d8a07e3bd95bd0d56f35241523fbab18160018151811061053a5761053a610e82565b6001600160a01b03909216602092830291909101909101526127106105618561272e610e35565b61056b9190610e60565b61057f9069021e19e0c9bab2400000610e35565b91506105aa604051806040016040528060088152602001672830b930b6b9901d60c11b815250610b52565b6105ed604051806040016040528060078152602001663830ba3418101d60c91b815250826000815181106105e0576105e0610e82565b6020026020010151610b95565b610623604051806040016040528060078152602001663830ba3418901d60c91b815250826001815181106105e0576105e0610e82565b6106656040518060400160405280600c81526020016b34b73232bc2a37b5b2b7101d60a11b8152507382af49447d8a07e3bd95bd0d56f35241523fbab1610b95565b6106946040518060400160405280600d81526020016c3a37b5b2b720b6b7bab73a101d60991b81525087610bde565b6106c46040518060400160405280600e81526020016d3837b9b4ba34b7b739b4bd32901d60911b81525084610bde565b6106ee6040518060400160405280600881526020016734b9a637b733901d60c11b81525086610c23565b6107216040518060400160405280601181526020017030b1b1b2b83a30b13632a83934b1b2901d60791b81525083610bde565b60055460405163f2ae372f60e01b81526001600160a01b039091169063f2ae372f9034906107959085907382af49447d8a07e3bd95bd0d56f35241523fbab1908c906000908b908e908c9066470de4df82000090859073f39fd6e51aad88f6f4ce6ab8827279cfffb9226690600401610edc565b6000604051808303818588803b1580156107ae57600080fd5b505af11580156107c2573d6000803e3d6000fd5b5050505050505b5050505050565b6107d8610af8565b7382af49447d8a07e3bd95bd0d56f35241523fbab1600090815260086020527fce09d406285d0d98f8d7856cf5337fcbd8f91b9d4e3f0ab0ea2741da37b2c6fb5460408051633fabe5a360e21b815290516001600160a01b039092169163feaf968c9160048082019260a0929091908290030181865afa158015610860573d6000803e3d6000fd5b505050506040513d601f19601f820116820180604052508101906108849190610de5565b50505091505060008215610a6157600354604051634a3f088d60e01b81523060048201527382af49447d8a07e3bd95bd0d56f35241523fbab1602482018190526044820152841515606482015260009182916001600160a01b0390911690634a3f088d90608401610100604051808303816000875af115801561090b573d6000803e3d6000fd5b505050506040513d601f19601f8201168201806040525081019061092f9190610f47565b505050505050915091506109666040518060400160405280600c81526020016b636c6f73696e67206c6f6e6760a01b815250610b52565b61096f82610c68565b604080516001808252818301909252600091602080830190803683370190505090507382af49447d8a07e3bd95bd0d56f35241523fbab1816000815181106109b9576109b9610e82565b6001600160a01b03909216602092830291909101909101526127106109e0866126f2610e35565b6109ea9190610e60565b6109fe9069021e19e0c9bab2400000610e35565b600554604051637be7d14160e01b81529195506001600160a01b031690637be7d1419034906107959085907382af49447d8a07e3bd95bd0d56f35241523fbab19088908a908e9030908e9060009066470de4df8200009082908190600401610fb1565b505050565b610a6e610af8565b610a786000610cad565b565b610a82610af8565b6001600160a01b038116610aec5760405162461bcd60e51b815260206004820152602660248201527f4f776e61626c653a206e6577206f776e657220697320746865207a65726f206160448201526564647265737360d01b60648201526084015b60405180910390fd5b610af581610cad565b50565b6000546001600160a01b03163314610a785760405162461bcd60e51b815260206004820181905260248201527f4f776e61626c653a2063616c6c6572206973206e6f7420746865206f776e65726044820152606401610ae3565b610af581604051602401610b66919061106a565b60408051601f198184030181529190526020810180516001600160e01b031663104c13eb60e21b179052610cfd565b610bda8282604051602401610bab92919061107d565b60408051601f198184030181529190526020810180516001600160e01b031663319af33360e01b179052610cfd565b5050565b610bda8282604051602401610bf49291906110a7565b60408051601f198184030181529190526020810180516001600160e01b0316632d839cb360e21b179052610cfd565b610bda8282604051602401610c399291906110c9565b60408051601f198184030181529190526020810180516001600160e01b031663c3b5563560e01b179052610cfd565b610af581604051602401610c7e91815260200190565b60408051601f198184030181529190526020810180516001600160e01b031663f82c50f160e01b179052610cfd565b600080546001600160a01b038381166001600160a01b0319831681178455604051919092169283917f8be0079c531659141344cd1fd0a4f28419497f9722a3daafe3b4186f6b6457e09190a35050565b80516a636f6e736f6c652e6c6f67602083016000808483855afa5050505050565b8015158114610af557600080fd5b60008060408385031215610d3f57600080fd5b823591506020830135610d5181610d1e565b809150509250929050565b600060208284031215610d6e57600080fd5b8135610d7981610d1e565b9392505050565b600060208284031215610d9257600080fd5b81356001600160a01b0381168114610d7957600080fd5b600060208284031215610dbb57600080fd5b8151610d7981610d1e565b805169ffffffffffffffffffff81168114610de057600080fd5b919050565b600080600080600060a08688031215610dfd57600080fd5b610e0686610dc6565b9450602086015193506040860151925060608601519150610e2960808701610dc6565b90509295509295909350565b8082028115828204841417610e5a57634e487b7160e01b600052601160045260246000fd5b92915050565b600082610e7d57634e487b7160e01b600052601260045260246000fd5b500490565b634e487b7160e01b600052603260045260246000fd5b600081518084526020808501945080840160005b83811015610ed15781516001600160a01b031687529582019590820190600101610eac565b509495945050505050565b6000610140808352610ef08184018e610e98565b6001600160a01b039c8d166020850152604084019b909b5250506060810197909752608087019590955292151560a086015260c085019190915260e084015261010083015290921661012090920191909152919050565b600080600080600080600080610100898b031215610f6457600080fd5b885197506020890151965060408901519550606089015194506080890151935060a0890151925060c0890151610f9981610d1e565b8092505060e089015190509295985092959890939650565b6000610160808352610fc58184018f610e98565b6001600160a01b039d8e166020850152604084019c909c5250506060810198909852951515608088015293881660a087015260c086019290925260e0850152610100840152151561012083015290921661014090920191909152919050565b6000815180845260005b8181101561104a5760208185018101518683018201520161102e565b506000602082860101526020601f19601f83011685010191505092915050565b602081526000610d796020830184611024565b6040815260006110906040830185611024565b905060018060a01b03831660208301529392505050565b6040815260006110ba6040830185611024565b90508260208301529392505050565b6040815260006110dc6040830185611024565b90508215156020830152939250505056fea2646970667358221220a33964f1bdf738d86ac9f200e4ab4742a79bf296d39949f9563491c41a1dab7f64736f6c63430008110033","opcodes":"PUSH1 0x80 PUSH1 0x40 MSTORE PUSH1 0x1 DUP1 SLOAD PUSH1 0x1 PUSH1 0x1 PUSH1 0xA0 SHL SUB NOT SWAP1 DUP2 AND PUSH20 0xFF970A61A04B1CA14834A43F5DE4533EBDDB5CC8 OR SWAP1 SWAP2 SSTORE PUSH1 0x3 DUP1 SLOAD DUP3 AND PUSH20 0x489EE077994B6658EAFA855C308275EAD8097C4A OR SWAP1 SSTORE PUSH1 0x4 DUP1 SLOAD DUP3 AND PUSH20 0xABBC5F99639C9B6BCB58544DDF04EFA6802F4064 OR SWAP1 SSTORE PUSH1 0x5 DUP1 SLOAD DUP3 AND PUSH20 0xB87A436B93FFE9D75C5CFA7BACFFF96430B09868 OR SWAP1 SSTORE PUSH1 0x6 DUP1 SLOAD SWAP1 SWAP2 AND PUSH20 0x22199A49A999C351EF7927602CFB187EC3CAE489 OR SWAP1 SSTORE CALLVALUE DUP1 ISZERO PUSH2 0xB2 JUMPI PUSH1 0x0 DUP1 REVERT JUMPDEST POP PUSH2 0xBC CALLER PUSH2 0x123 JUMP JUMPDEST PUSH20 0x82AF49447D8A07E3BD95BD0D56F35241523FBAB1 PUSH1 0x0 MSTORE PUSH1 0x8 PUSH1 0x20 MSTORE PUSH32 0xCE09D406285D0D98F8D7856CF5337FCBD8F91B9D4E3F0AB0EA2741DA37B2C6FB DUP1 SLOAD PUSH1 0x1 PUSH1 0x1 PUSH1 0xA0 SHL SUB NOT AND PUSH20 0x639FE6AB55C921F74E7FAC1EE960C0B6293BA612 OR SWAP1 SSTORE PUSH2 0x173 JUMP JUMPDEST PUSH1 0x0 DUP1 SLOAD PUSH1 0x1 PUSH1 0x1 PUSH1 0xA0 SHL SUB DUP4 DUP2 AND PUSH1 0x1 PUSH1 0x1 PUSH1 0xA0 SHL SUB NOT DUP4 AND DUP2 OR DUP5 SSTORE PUSH1 0x40 MLOAD SWAP2 SWAP1 SWAP3 AND SWAP3 DUP4 SWAP2 PUSH32 0x8BE0079C531659141344CD1FD0A4F28419497F9722A3DAAFE3B4186F6B6457E0 SWAP2 SWAP1 LOG3 POP POP JUMP JUMPDEST PUSH2 0x1123 DUP1 PUSH2 0x182 PUSH1 0x0 CODECOPY PUSH1 0x0 RETURN INVALID PUSH1 0x80 PUSH1 0x40 MSTORE PUSH1 0x4 CALLDATASIZE LT PUSH2 0xA7 JUMPI PUSH1 0x0 CALLDATALOAD PUSH1 0xE0 SHR DUP1 PUSH4 0xADDD5099 GT PUSH2 0x64 JUMPI DUP1 PUSH4 0xADDD5099 EQ PUSH2 0x163 JUMPI DUP1 PUSH4 0xB3B3453E EQ PUSH2 0x199 JUMPI DUP1 PUSH4 0xBE77CD32 EQ PUSH2 0x1B9 JUMPI DUP1 PUSH4 0xC657E7C2 EQ PUSH2 0x1D9 JUMPI DUP1 PUSH4 0xF2FDE38B EQ PUSH2 0x1F9 JUMPI DUP1 PUSH4 0xFBFA77CF EQ PUSH2 0x219 JUMPI PUSH1 0x0 DUP1 REVERT JUMPDEST DUP1 PUSH4 0x5D9CE673 EQ PUSH2 0xAC JUMPI DUP1 PUSH4 0x634E3180 EQ PUSH2 0xC1 JUMPI DUP1 PUSH4 0x6671B6DA EQ PUSH2 0xFD JUMPI DUP1 PUSH4 0x715018A6 EQ PUSH2 0x110 JUMPI DUP1 PUSH4 0x89A30271 EQ PUSH2 0x125 JUMPI DUP1 PUSH4 0x8DA5CB5B EQ PUSH2 0x145 JUMPI JUMPDEST PUSH1 0x0 DUP1 REVERT JUMPDEST PUSH2 0xBF PUSH2 0xBA CALLDATASIZE PUSH1 0x4 PUSH2 0xD2C JUMP JUMPDEST PUSH2 0x239 JUMP JUMPDEST STOP JUMPDEST CALLVALUE DUP1 ISZERO PUSH2 0xCD JUMPI PUSH1 0x0 DUP1 REVERT JUMPDEST POP PUSH1 0x4 SLOAD PUSH2 0xE1 SWAP1 PUSH1 0x1 PUSH1 0x1 PUSH1 0xA0 SHL SUB AND DUP2 JUMP JUMPDEST PUSH1 0x40 MLOAD PUSH1 0x1 PUSH1 0x1 PUSH1 0xA0 SHL SUB SWAP1 SWAP2 AND DUP2 MSTORE PUSH1 0x20 ADD PUSH1 0x40 MLOAD DUP1 SWAP2 SUB SWAP1 RETURN JUMPDEST PUSH2 0xBF PUSH2 0x10B CALLDATASIZE PUSH1 0x4 PUSH2 0xD5C JUMP JUMPDEST PUSH2 0x7D0 JUMP JUMPDEST CALLVALUE DUP1 ISZERO PUSH2 0x11C JUMPI PUSH1 0x0 DUP1 REVERT JUMPDEST POP PUSH2 0xBF PUSH2 0xA66 JUMP JUMPDEST CALLVALUE DUP1 ISZERO PUSH2 0x131 JUMPI PUSH1 0x0 DUP1 REVERT JUMPDEST POP PUSH1 0x1 SLOAD PUSH2 0xE1 SWAP1 PUSH1 0x1 PUSH1 0x1 PUSH1 0xA0 SHL SUB AND DUP2 JUMP JUMPDEST CALLVALUE DUP1 ISZERO PUSH2 0x151 JUMPI PUSH1 0x0 DUP1 REVERT JUMPDEST POP PUSH1 0x0 SLOAD PUSH1 0x1 PUSH1 0x1 PUSH1 0xA0 SHL SUB AND PUSH2 0xE1 JUMP JUMPDEST CALLVALUE DUP1 ISZERO PUSH2 0x16F JUMPI PUSH1 0x0 DUP1 REVERT JUMPDEST POP PUSH2 0xE1 PUSH2 0x17E CALLDATASIZE PUSH1 0x4 PUSH2 0xD80 JUMP JUMPDEST PUSH1 0x8 PUSH1 0x20 MSTORE PUSH1 0x0 SWAP1 DUP2 MSTORE PUSH1 0x40 SWAP1 KECCAK256 SLOAD PUSH1 0x1 PUSH1 0x1 PUSH1 0xA0 SHL SUB AND DUP2 JUMP JUMPDEST CALLVALUE DUP1 ISZERO PUSH2 0x1A5 JUMPI PUSH1 0x0 DUP1 REVERT JUMPDEST POP PUSH1 0x3 SLOAD PUSH2 0xE1 SWAP1 PUSH1 0x1 PUSH1 0x1 PUSH1 0xA0 SHL SUB AND DUP2 JUMP JUMPDEST CALLVALUE DUP1 ISZERO PUSH2 0x1C5 JUMPI PUSH1 0x0 DUP1 REVERT JUMPDEST POP PUSH1 0x6 SLOAD PUSH2 0xE1 SWAP1 PUSH1 0x1 PUSH1 0x1 PUSH1 0xA0 SHL SUB AND DUP2 JUMP JUMPDEST CALLVALUE DUP1 ISZERO PUSH2 0x1E5 JUMPI PUSH1 0x0 DUP1 REVERT JUMPDEST POP PUSH1 0x5 SLOAD PUSH2 0xE1 SWAP1 PUSH1 0x1 PUSH1 0x1 PUSH1 0xA0 SHL SUB AND DUP2 JUMP JUMPDEST CALLVALUE DUP1 ISZERO PUSH2 0x205 JUMPI PUSH1 0x0 DUP1 REVERT JUMPDEST POP PUSH2 0xBF PUSH2 0x214 CALLDATASIZE PUSH1 0x4 PUSH2 0xD80 JUMP JUMPDEST PUSH2 0xA7A JUMP JUMPDEST CALLVALUE DUP1 ISZERO PUSH2 0x225 JUMPI PUSH1 0x0 DUP1 REVERT JUMPDEST POP PUSH1 0x2 SLOAD PUSH2 0xE1 SWAP1 PUSH1 0x1 PUSH1 0x1 PUSH1 0xA0 SHL SUB AND DUP2 JUMP JUMPDEST PUSH2 0x241 PUSH2 0xAF8 JUMP JUMPDEST PUSH1 0x4 DUP1 SLOAD PUSH1 0x5 SLOAD PUSH1 0x40 MLOAD PUSH4 0x38C74DD9 PUSH1 0xE0 SHL DUP2 MSTORE PUSH1 0x1 PUSH1 0x1 PUSH1 0xA0 SHL SUB SWAP2 DUP3 AND SWAP4 DUP2 ADD SWAP4 SWAP1 SWAP4 MSTORE AND SWAP1 PUSH4 0x38C74DD9 SWAP1 PUSH1 0x24 ADD PUSH1 0x0 PUSH1 0x40 MLOAD DUP1 DUP4 SUB DUP2 PUSH1 0x0 DUP8 DUP1 EXTCODESIZE ISZERO DUP1 ISZERO PUSH2 0x28C JUMPI PUSH1 0x0 DUP1 REVERT JUMPDEST POP GAS CALL ISZERO DUP1 ISZERO PUSH2 0x2A0 JUMPI RETURNDATASIZE PUSH1 0x0 DUP1 RETURNDATACOPY RETURNDATASIZE PUSH1 0x0 REVERT JUMPDEST POP POP PUSH1 0x1 SLOAD PUSH1 0x40 MLOAD PUSH4 0x23B872DD PUSH1 0xE0 SHL DUP2 MSTORE CALLER PUSH1 0x4 DUP3 ADD MSTORE ADDRESS PUSH1 0x24 DUP3 ADD MSTORE PUSH1 0x44 DUP2 ADD DUP7 SWAP1 MSTORE PUSH1 0x1 PUSH1 0x1 PUSH1 0xA0 SHL SUB SWAP1 SWAP2 AND SWAP3 POP PUSH4 0x23B872DD SWAP2 POP PUSH1 0x64 ADD PUSH1 0x20 PUSH1 0x40 MLOAD DUP1 DUP4 SUB DUP2 PUSH1 0x0 DUP8 GAS CALL ISZERO DUP1 ISZERO PUSH2 0x2FB JUMPI RETURNDATASIZE PUSH1 0x0 DUP1 RETURNDATACOPY RETURNDATASIZE PUSH1 0x0 REVERT JUMPDEST POP POP POP POP PUSH1 0x40 MLOAD RETURNDATASIZE PUSH1 0x1F NOT PUSH1 0x1F DUP3 ADD AND DUP3 ADD DUP1 PUSH1 0x40 MSTORE POP DUP2 ADD SWAP1 PUSH2 0x31F SWAP2 SWAP1 PUSH2 0xDA9 JUMP JUMPDEST POP PUSH1 0x1 SLOAD PUSH1 0x4 DUP1 SLOAD PUSH1 0x40 MLOAD PUSH4 0x95EA7B3 PUSH1 0xE0 SHL DUP2 MSTORE PUSH1 0x1 PUSH1 0x1 PUSH1 0xA0 SHL SUB SWAP2 DUP3 AND SWAP3 DUP2 ADD SWAP3 SWAP1 SWAP3 MSTORE PUSH1 0x24 DUP3 ADD DUP6 SWAP1 MSTORE SWAP1 SWAP2 AND SWAP1 PUSH4 0x95EA7B3 SWAP1 PUSH1 0x44 ADD PUSH1 0x20 PUSH1 0x40 MLOAD DUP1 DUP4 SUB DUP2 PUSH1 0x0 DUP8 GAS CALL ISZERO DUP1 ISZERO PUSH2 0x379 JUMPI RETURNDATASIZE PUSH1 0x0 DUP1 RETURNDATACOPY RETURNDATASIZE PUSH1 0x0 REVERT JUMPDEST POP POP POP POP PUSH1 0x40 MLOAD RETURNDATASIZE PUSH1 0x1F NOT PUSH1 0x1F DUP3 ADD AND DUP3 ADD DUP1 PUSH1 0x40 MSTORE POP DUP2 ADD SWAP1 PUSH2 0x39D SWAP2 SWAP1 PUSH2 0xDA9 JUMP JUMPDEST POP PUSH20 0x82AF49447D8A07E3BD95BD0D56F35241523FBAB1 PUSH1 0x0 SWAP1 DUP2 MSTORE PUSH1 0x8 PUSH1 0x20 MSTORE PUSH32 0xCE09D406285D0D98F8D7856CF5337FCBD8F91B9D4E3F0AB0EA2741DA37B2C6FB SLOAD PUSH1 0x40 DUP1 MLOAD PUSH4 0x3FABE5A3 PUSH1 0xE2 SHL DUP2 MSTORE SWAP1 MLOAD PUSH1 0x1 PUSH1 0x1 PUSH1 0xA0 SHL SUB SWAP1 SWAP3 AND SWAP2 PUSH4 0xFEAF968C SWAP2 PUSH1 0x4 DUP1 DUP3 ADD SWAP3 PUSH1 0xA0 SWAP3 SWAP1 SWAP2 SWAP1 DUP3 SWAP1 SUB ADD DUP2 DUP7 GAS STATICCALL ISZERO DUP1 ISZERO PUSH2 0x426 JUMPI RETURNDATASIZE PUSH1 0x0 DUP1 RETURNDATACOPY RETURNDATASIZE PUSH1 0x0 REVERT JUMPDEST POP POP POP POP PUSH1 0x40 MLOAD RETURNDATASIZE PUSH1 0x1F NOT PUSH1 0x1F DUP3 ADD AND DUP3 ADD DUP1 PUSH1 0x40 MSTORE POP DUP2 ADD SWAP1 PUSH2 0x44A SWAP2 SWAP1 PUSH2 0xDE5 JUMP JUMPDEST POP POP POP SWAP2 POP POP PUSH1 0x0 PUSH1 0x64 DUP5 PUSH1 0x6E PUSH2 0x461 SWAP2 SWAP1 PUSH2 0xE35 JUMP JUMPDEST PUSH2 0x46B SWAP2 SWAP1 PUSH2 0xE60 JUMP JUMPDEST PUSH2 0x47F SWAP1 PUSH10 0xD3C21BCECCEDA1000000 PUSH2 0xE35 JUMP JUMPDEST SWAP1 POP PUSH1 0x0 PUSH2 0x4AB PUSH1 0x40 MLOAD DUP1 PUSH1 0x40 ADD PUSH1 0x40 MSTORE DUP1 PUSH1 0x7 DUP2 MSTORE PUSH1 0x20 ADD PUSH7 0x62756720696369 PUSH1 0xC8 SHL DUP2 MSTORE POP PUSH2 0xB52 JUMP JUMPDEST DUP4 ISZERO PUSH2 0x7C9 JUMPI PUSH1 0x40 DUP1 MLOAD PUSH1 0x2 DUP1 DUP3 MSTORE PUSH1 0x60 DUP3 ADD DUP4 MSTORE PUSH1 0x0 SWAP3 PUSH1 0x20 DUP4 ADD SWAP1 DUP1 CALLDATASIZE DUP4 CALLDATACOPY POP POP PUSH1 0x1 SLOAD DUP3 MLOAD SWAP3 SWAP4 POP PUSH1 0x1 PUSH1 0x1 PUSH1 0xA0 SHL SUB AND SWAP2 DUP4 SWAP2 POP PUSH1 0x0 SWAP1 PUSH2 0x4F2 JUMPI PUSH2 0x4F2 PUSH2 0xE82 JUMP JUMPDEST PUSH1 0x20 MUL PUSH1 0x20 ADD ADD SWAP1 PUSH1 0x1 PUSH1 0x1 PUSH1 0xA0 SHL SUB AND SWAP1 DUP2 PUSH1 0x1 PUSH1 0x1 PUSH1 0xA0 SHL SUB AND DUP2 MSTORE POP POP PUSH20 0x82AF49447D8A07E3BD95BD0D56F35241523FBAB1 DUP2 PUSH1 0x1 DUP2 MLOAD DUP2 LT PUSH2 0x53A JUMPI PUSH2 0x53A PUSH2 0xE82 JUMP JUMPDEST PUSH1 0x1 PUSH1 0x1 PUSH1 0xA0 SHL SUB SWAP1 SWAP3 AND PUSH1 0x20 SWAP3 DUP4 MUL SWAP2 SWAP1 SWAP2 ADD SWAP1 SWAP2 ADD MSTORE PUSH2 0x2710 PUSH2 0x561 DUP6 PUSH2 0x272E PUSH2 0xE35 JUMP JUMPDEST PUSH2 0x56B SWAP2 SWAP1 PUSH2 0xE60 JUMP JUMPDEST PUSH2 0x57F SWAP1 PUSH10 0x21E19E0C9BAB2400000 PUSH2 0xE35 JUMP JUMPDEST SWAP2 POP PUSH2 0x5AA PUSH1 0x40 MLOAD DUP1 PUSH1 0x40 ADD PUSH1 0x40 MSTORE DUP1 PUSH1 0x8 DUP2 MSTORE PUSH1 0x20 ADD PUSH8 0x2830B930B6B9901D PUSH1 0xC1 SHL DUP2 MSTORE POP PUSH2 0xB52 JUMP JUMPDEST PUSH2 0x5ED PUSH1 0x40 MLOAD DUP1 PUSH1 0x40 ADD PUSH1 0x40 MSTORE DUP1 PUSH1 0x7 DUP2 MSTORE PUSH1 0x20 ADD PUSH7 0x3830BA3418101D PUSH1 0xC9 SHL DUP2 MSTORE POP DUP3 PUSH1 0x0 DUP2 MLOAD DUP2 LT PUSH2 0x5E0 JUMPI PUSH2 0x5E0 PUSH2 0xE82 JUMP JUMPDEST PUSH1 0x20 MUL PUSH1 0x20 ADD ADD MLOAD PUSH2 0xB95 JUMP JUMPDEST PUSH2 0x623 PUSH1 0x40 MLOAD DUP1 PUSH1 0x40 ADD PUSH1 0x40 MSTORE DUP1 PUSH1 0x7 DUP2 MSTORE PUSH1 0x20 ADD PUSH7 0x3830BA3418901D PUSH1 0xC9 SHL DUP2 MSTORE POP DUP3 PUSH1 0x1 DUP2 MLOAD DUP2 LT PUSH2 0x5E0 JUMPI PUSH2 0x5E0 PUSH2 0xE82 JUMP JUMPDEST PUSH2 0x665 PUSH1 0x40 MLOAD DUP1 PUSH1 0x40 ADD PUSH1 0x40 MSTORE DUP1 PUSH1 0xC DUP2 MSTORE PUSH1 0x20 ADD PUSH12 0x34B73232BC2A37B5B2B7101D PUSH1 0xA1 SHL DUP2 MSTORE POP PUSH20 0x82AF49447D8A07E3BD95BD0D56F35241523FBAB1 PUSH2 0xB95 JUMP JUMPDEST PUSH2 0x694 PUSH1 0x40 MLOAD DUP1 PUSH1 0x40 ADD PUSH1 0x40 MSTORE DUP1 PUSH1 0xD DUP2 MSTORE PUSH1 0x20 ADD PUSH13 0x3A37B5B2B720B6B7BAB73A101D PUSH1 0x99 SHL DUP2 MSTORE POP DUP8 PUSH2 0xBDE JUMP JUMPDEST PUSH2 0x6C4 PUSH1 0x40 MLOAD DUP1 PUSH1 0x40 ADD PUSH1 0x40 MSTORE DUP1 PUSH1 0xE DUP2 MSTORE PUSH1 0x20 ADD PUSH14 0x3837B9B4BA34B7B739B4BD32901D PUSH1 0x91 SHL DUP2 MSTORE POP DUP5 PUSH2 0xBDE JUMP JUMPDEST PUSH2 0x6EE PUSH1 0x40 MLOAD DUP1 PUSH1 0x40 ADD PUSH1 0x40 MSTORE DUP1 PUSH1 0x8 DUP2 MSTORE PUSH1 0x20 ADD PUSH8 0x34B9A637B733901D PUSH1 0xC1 SHL DUP2 MSTORE POP DUP7 PUSH2 0xC23 JUMP JUMPDEST PUSH2 0x721 PUSH1 0x40 MLOAD DUP1 PUSH1 0x40 ADD PUSH1 0x40 MSTORE DUP1 PUSH1 0x11 DUP2 MSTORE PUSH1 0x20 ADD PUSH17 0x30B1B1B2B83A30B13632A83934B1B2901D PUSH1 0x79 SHL DUP2 MSTORE POP DUP4 PUSH2 0xBDE JUMP JUMPDEST PUSH1 0x5 SLOAD PUSH1 0x40 MLOAD PUSH4 0xF2AE372F PUSH1 0xE0 SHL DUP2 MSTORE PUSH1 0x1 PUSH1 0x1 PUSH1 0xA0 SHL SUB SWAP1 SWAP2 AND SWAP1 PUSH4 0xF2AE372F SWAP1 CALLVALUE SWAP1 PUSH2 0x795 SWAP1 DUP6 SWAP1 PUSH20 0x82AF49447D8A07E3BD95BD0D56F35241523FBAB1 SWAP1 DUP13 SWAP1 PUSH1 0x0 SWAP1 DUP12 SWAP1 DUP15 SWAP1 DUP13 SWAP1 PUSH7 0x470DE4DF820000 SWAP1 DUP6 SWAP1 PUSH20 0xF39FD6E51AAD88F6F4CE6AB8827279CFFFB92266 SWAP1 PUSH1 0x4 ADD PUSH2 0xEDC JUMP JUMPDEST PUSH1 0x0 PUSH1 0x40 MLOAD DUP1 DUP4 SUB DUP2 DUP6 DUP9 DUP1 EXTCODESIZE ISZERO DUP1 ISZERO PUSH2 0x7AE JUMPI PUSH1 0x0 DUP1 REVERT JUMPDEST POP GAS CALL ISZERO DUP1 ISZERO PUSH2 0x7C2 JUMPI RETURNDATASIZE PUSH1 0x0 DUP1 RETURNDATACOPY RETURNDATASIZE PUSH1 0x0 REVERT JUMPDEST POP POP POP POP POP POP JUMPDEST POP POP POP POP POP JUMP JUMPDEST PUSH2 0x7D8 PUSH2 0xAF8 JUMP JUMPDEST PUSH20 0x82AF49447D8A07E3BD95BD0D56F35241523FBAB1 PUSH1 0x0 SWAP1 DUP2 MSTORE PUSH1 0x8 PUSH1 0x20 MSTORE PUSH32 0xCE09D406285D0D98F8D7856CF5337FCBD8F91B9D4E3F0AB0EA2741DA37B2C6FB SLOAD PUSH1 0x40 DUP1 MLOAD PUSH4 0x3FABE5A3 PUSH1 0xE2 SHL DUP2 MSTORE SWAP1 MLOAD PUSH1 0x1 PUSH1 0x1 PUSH1 0xA0 SHL SUB SWAP1 SWAP3 AND SWAP2 PUSH4 0xFEAF968C SWAP2 PUSH1 0x4 DUP1 DUP3 ADD SWAP3 PUSH1 0xA0 SWAP3 SWAP1 SWAP2 SWAP1 DUP3 SWAP1 SUB ADD DUP2 DUP7 GAS STATICCALL ISZERO DUP1 ISZERO PUSH2 0x860 JUMPI RETURNDATASIZE PUSH1 0x0 DUP1 RETURNDATACOPY RETURNDATASIZE PUSH1 0x0 REVERT JUMPDEST POP POP POP POP PUSH1 0x40 MLOAD RETURNDATASIZE PUSH1 0x1F NOT PUSH1 0x1F DUP3 ADD AND DUP3 ADD DUP1 PUSH1 0x40 MSTORE POP DUP2 ADD SWAP1 PUSH2 0x884 SWAP2 SWAP1 PUSH2 0xDE5 JUMP JUMPDEST POP POP POP SWAP2 POP POP PUSH1 0x0 DUP3 ISZERO PUSH2 0xA61 JUMPI PUSH1 0x3 SLOAD PUSH1 0x40 MLOAD PUSH4 0x4A3F088D PUSH1 0xE0 SHL DUP2 MSTORE ADDRESS PUSH1 0x4 DUP3 ADD MSTORE PUSH20 0x82AF49447D8A07E3BD95BD0D56F35241523FBAB1 PUSH1 0x24 DUP3 ADD DUP2 SWAP1 MSTORE PUSH1 0x44 DUP3 ADD MSTORE DUP5 ISZERO ISZERO PUSH1 0x64 DUP3 ADD MSTORE PUSH1 0x0 SWAP2 DUP3 SWAP2 PUSH1 0x1 PUSH1 0x1 PUSH1 0xA0 SHL SUB SWAP1 SWAP2 AND SWAP1 PUSH4 0x4A3F088D SWAP1 PUSH1 0x84 ADD PUSH2 0x100 PUSH1 0x40 MLOAD DUP1 DUP4 SUB DUP2 PUSH1 0x0 DUP8 GAS CALL ISZERO DUP1 ISZERO PUSH2 0x90B JUMPI RETURNDATASIZE PUSH1 0x0 DUP1 RETURNDATACOPY RETURNDATASIZE PUSH1 0x0 REVERT JUMPDEST POP POP POP POP PUSH1 0x40 MLOAD RETURNDATASIZE PUSH1 0x1F NOT PUSH1 0x1F DUP3 ADD AND DUP3 ADD DUP1 PUSH1 0x40 MSTORE POP DUP2 ADD SWAP1 PUSH2 0x92F SWAP2 SWAP1 PUSH2 0xF47 JUMP JUMPDEST POP POP POP POP POP POP SWAP2 POP SWAP2 POP PUSH2 0x966 PUSH1 0x40 MLOAD DUP1 PUSH1 0x40 ADD PUSH1 0x40 MSTORE DUP1 PUSH1 0xC DUP2 MSTORE PUSH1 0x20 ADD PUSH12 0x636C6F73696E67206C6F6E67 PUSH1 0xA0 SHL DUP2 MSTORE POP PUSH2 0xB52 JUMP JUMPDEST PUSH2 0x96F DUP3 PUSH2 0xC68 JUMP JUMPDEST PUSH1 0x40 DUP1 MLOAD PUSH1 0x1 DUP1 DUP3 MSTORE DUP2 DUP4 ADD SWAP1 SWAP3 MSTORE PUSH1 0x0 SWAP2 PUSH1 0x20 DUP1 DUP4 ADD SWAP1 DUP1 CALLDATASIZE DUP4 CALLDATACOPY ADD SWAP1 POP POP SWAP1 POP PUSH20 0x82AF49447D8A07E3BD95BD0D56F35241523FBAB1 DUP2 PUSH1 0x0 DUP2 MLOAD DUP2 LT PUSH2 0x9B9 JUMPI PUSH2 0x9B9 PUSH2 0xE82 JUMP JUMPDEST PUSH1 0x1 PUSH1 0x1 PUSH1 0xA0 SHL SUB SWAP1 SWAP3 AND PUSH1 0x20 SWAP3 DUP4 MUL SWAP2 SWAP1 SWAP2 ADD SWAP1 SWAP2 ADD MSTORE PUSH2 0x2710 PUSH2 0x9E0 DUP7 PUSH2 0x26F2 PUSH2 0xE35 JUMP JUMPDEST PUSH2 0x9EA SWAP2 SWAP1 PUSH2 0xE60 JUMP JUMPDEST PUSH2 0x9FE SWAP1 PUSH10 0x21E19E0C9BAB2400000 PUSH2 0xE35 JUMP JUMPDEST PUSH1 0x5 SLOAD PUSH1 0x40 MLOAD PUSH4 0x7BE7D141 PUSH1 0xE0 SHL DUP2 MSTORE SWAP2 SWAP6 POP PUSH1 0x1 PUSH1 0x1 PUSH1 0xA0 SHL SUB AND SWAP1 PUSH4 0x7BE7D141 SWAP1 CALLVALUE SWAP1 PUSH2 0x795 SWAP1 DUP6 SWAP1 PUSH20 0x82AF49447D8A07E3BD95BD0D56F35241523FBAB1 SWAP1 DUP9 SWAP1 DUP11 SWAP1 DUP15 SWAP1 ADDRESS SWAP1 DUP15 SWAP1 PUSH1 0x0 SWAP1 PUSH7 0x470DE4DF820000 SWAP1 DUP3 SWAP1 DUP2 SWAP1 PUSH1 0x4 ADD PUSH2 0xFB1 JUMP JUMPDEST POP POP POP JUMP JUMPDEST PUSH2 0xA6E PUSH2 0xAF8 JUMP JUMPDEST PUSH2 0xA78 PUSH1 0x0 PUSH2 0xCAD JUMP JUMPDEST JUMP JUMPDEST PUSH2 0xA82 PUSH2 0xAF8 JUMP JUMPDEST PUSH1 0x1 PUSH1 0x1 PUSH1 0xA0 SHL SUB DUP2 AND PUSH2 0xAEC JUMPI PUSH1 0x40 MLOAD PUSH3 0x461BCD PUSH1 0xE5 SHL DUP2 MSTORE PUSH1 0x20 PUSH1 0x4 DUP3 ADD MSTORE PUSH1 0x26 PUSH1 0x24 DUP3 ADD MSTORE PUSH32 0x4F776E61626C653A206E6577206F776E657220697320746865207A65726F2061 PUSH1 0x44 DUP3 ADD MSTORE PUSH6 0x646472657373 PUSH1 0xD0 SHL PUSH1 0x64 DUP3 ADD MSTORE PUSH1 0x84 ADD JUMPDEST PUSH1 0x40 MLOAD DUP1 SWAP2 SUB SWAP1 REVERT JUMPDEST PUSH2 0xAF5 DUP2 PUSH2 0xCAD JUMP JUMPDEST POP JUMP JUMPDEST PUSH1 0x0 SLOAD PUSH1 0x1 PUSH1 0x1 PUSH1 0xA0 SHL SUB AND CALLER EQ PUSH2 0xA78 JUMPI PUSH1 0x40 MLOAD PUSH3 0x461BCD PUSH1 0xE5 SHL DUP2 MSTORE PUSH1 0x20 PUSH1 0x4 DUP3 ADD DUP2 SWAP1 MSTORE PUSH1 0x24 DUP3 ADD MSTORE PUSH32 0x4F776E61626C653A2063616C6C6572206973206E6F7420746865206F776E6572 PUSH1 0x44 DUP3 ADD MSTORE PUSH1 0x64 ADD PUSH2 0xAE3 JUMP JUMPDEST PUSH2 0xAF5 DUP2 PUSH1 0x40 MLOAD PUSH1 0x24 ADD PUSH2 0xB66 SWAP2 SWAP1 PUSH2 0x106A JUMP JUMPDEST PUSH1 0x40 DUP1 MLOAD PUSH1 0x1F NOT DUP2 DUP5 SUB ADD DUP2 MSTORE SWAP2 SWAP1 MSTORE PUSH1 0x20 DUP2 ADD DUP1 MLOAD PUSH1 0x1 PUSH1 0x1 PUSH1 0xE0 SHL SUB AND PUSH4 0x104C13EB PUSH1 0xE2 SHL OR SWAP1 MSTORE PUSH2 0xCFD JUMP JUMPDEST PUSH2 0xBDA DUP3 DUP3 PUSH1 0x40 MLOAD PUSH1 0x24 ADD PUSH2 0xBAB SWAP3 SWAP2 SWAP1 PUSH2 0x107D JUMP JUMPDEST PUSH1 0x40 DUP1 MLOAD PUSH1 0x1F NOT DUP2 DUP5 SUB ADD DUP2 MSTORE SWAP2 SWAP1 MSTORE PUSH1 0x20 DUP2 ADD DUP1 MLOAD PUSH1 0x1 PUSH1 0x1 PUSH1 0xE0 SHL SUB AND PUSH4 0x319AF333 PUSH1 0xE0 SHL OR SWAP1 MSTORE PUSH2 0xCFD JUMP JUMPDEST POP POP JUMP JUMPDEST PUSH2 0xBDA DUP3 DUP3 PUSH1 0x40 MLOAD PUSH1 0x24 ADD PUSH2 0xBF4 SWAP3 SWAP2 SWAP1 PUSH2 0x10A7 JUMP JUMPDEST PUSH1 0x40 DUP1 MLOAD PUSH1 0x1F NOT DUP2 DUP5 SUB ADD DUP2 MSTORE SWAP2 SWAP1 MSTORE PUSH1 0x20 DUP2 ADD DUP1 MLOAD PUSH1 0x1 PUSH1 0x1 PUSH1 0xE0 SHL SUB AND PUSH4 0x2D839CB3 PUSH1 0xE2 SHL OR SWAP1 MSTORE PUSH2 0xCFD JUMP JUMPDEST PUSH2 0xBDA DUP3 DUP3 PUSH1 0x40 MLOAD PUSH1 0x24 ADD PUSH2 0xC39 SWAP3 SWAP2 SWAP1 PUSH2 0x10C9 JUMP JUMPDEST PUSH1 0x40 DUP1 MLOAD PUSH1 0x1F NOT DUP2 DUP5 SUB ADD DUP2 MSTORE SWAP2 SWAP1 MSTORE PUSH1 0x20 DUP2 ADD DUP1 MLOAD PUSH1 0x1 PUSH1 0x1 PUSH1 0xE0 SHL SUB AND PUSH4 0xC3B55635 PUSH1 0xE0 SHL OR SWAP1 MSTORE PUSH2 0xCFD JUMP JUMPDEST PUSH2 0xAF5 DUP2 PUSH1 0x40 MLOAD PUSH1 0x24 ADD PUSH2 0xC7E SWAP2 DUP2 MSTORE PUSH1 0x20 ADD SWAP1 JUMP JUMPDEST PUSH1 0x40 DUP1 MLOAD PUSH1 0x1F NOT DUP2 DUP5 SUB ADD DUP2 MSTORE SWAP2 SWAP1 MSTORE PUSH1 0x20 DUP2 ADD DUP1 MLOAD PUSH1 0x1 PUSH1 0x1 PUSH1 0xE0 SHL SUB AND PUSH4 0xF82C50F1 PUSH1 0xE0 SHL OR SWAP1 MSTORE PUSH2 0xCFD JUMP JUMPDEST PUSH1 0x0 DUP1 SLOAD PUSH1 0x1 PUSH1 0x1 PUSH1 0xA0 SHL SUB DUP4 DUP2 AND PUSH1 0x1 PUSH1 0x1 PUSH1 0xA0 SHL SUB NOT DUP4 AND DUP2 OR DUP5 SSTORE PUSH1 0x40 MLOAD SWAP2 SWAP1 SWAP3 AND SWAP3 DUP4 SWAP2 PUSH32 0x8BE0079C531659141344CD1FD0A4F28419497F9722A3DAAFE3B4186F6B6457E0 SWAP2 SWAP1 LOG3 POP POP JUMP JUMPDEST DUP1 MLOAD PUSH11 0x636F6E736F6C652E6C6F67 PUSH1 0x20 DUP4 ADD PUSH1 0x0 DUP1 DUP5 DUP4 DUP6 GAS STATICCALL POP POP POP POP POP JUMP JUMPDEST DUP1 ISZERO ISZERO DUP2 EQ PUSH2 0xAF5 JUMPI PUSH1 0x0 DUP1 REVERT JUMPDEST PUSH1 0x0 DUP1 PUSH1 0x40 DUP4 DUP6 SUB SLT ISZERO PUSH2 0xD3F JUMPI PUSH1 0x0 DUP1 REVERT JUMPDEST DUP3 CALLDATALOAD SWAP2 POP PUSH1 0x20 DUP4 ADD CALLDATALOAD PUSH2 0xD51 DUP2 PUSH2 0xD1E JUMP JUMPDEST DUP1 SWAP2 POP POP SWAP3 POP SWAP3 SWAP1 POP JUMP JUMPDEST PUSH1 0x0 PUSH1 0x20 DUP3 DUP5 SUB SLT ISZERO PUSH2 0xD6E JUMPI PUSH1 0x0 DUP1 REVERT JUMPDEST DUP2 CALLDATALOAD PUSH2 0xD79 DUP2 PUSH2 0xD1E JUMP JUMPDEST SWAP4 SWAP3 POP POP POP JUMP JUMPDEST PUSH1 0x0 PUSH1 0x20 DUP3 DUP5 SUB SLT ISZERO PUSH2 0xD92 JUMPI PUSH1 0x0 DUP1 REVERT JUMPDEST DUP2 CALLDATALOAD PUSH1 0x1 PUSH1 0x1 PUSH1 0xA0 SHL SUB DUP2 AND DUP2 EQ PUSH2 0xD79 JUMPI PUSH1 0x0 DUP1 REVERT JUMPDEST PUSH1 0x0 PUSH1 0x20 DUP3 DUP5 SUB SLT ISZERO PUSH2 0xDBB JUMPI PUSH1 0x0 DUP1 REVERT JUMPDEST DUP2 MLOAD PUSH2 0xD79 DUP2 PUSH2 0xD1E JUMP JUMPDEST DUP1 MLOAD PUSH10 0xFFFFFFFFFFFFFFFFFFFF DUP2 AND DUP2 EQ PUSH2 0xDE0 JUMPI PUSH1 0x0 DUP1 REVERT JUMPDEST SWAP2 SWAP1 POP JUMP JUMPDEST PUSH1 0x0 DUP1 PUSH1 0x0 DUP1 PUSH1 0x0 PUSH1 0xA0 DUP7 DUP9 SUB SLT ISZERO PUSH2 0xDFD JUMPI PUSH1 0x0 DUP1 REVERT JUMPDEST PUSH2 0xE06 DUP7 PUSH2 0xDC6 JUMP JUMPDEST SWAP5 POP PUSH1 0x20 DUP7 ADD MLOAD SWAP4 POP PUSH1 0x40 DUP7 ADD MLOAD SWAP3 POP PUSH1 0x60 DUP7 ADD MLOAD SWAP2 POP PUSH2 0xE29 PUSH1 0x80 DUP8 ADD PUSH2 0xDC6 JUMP JUMPDEST SWAP1 POP SWAP3 SWAP6 POP SWAP3 SWAP6 SWAP1 SWAP4 POP JUMP JUMPDEST DUP1 DUP3 MUL DUP2 ISZERO DUP3 DUP3 DIV DUP5 EQ OR PUSH2 0xE5A JUMPI PUSH4 0x4E487B71 PUSH1 0xE0 SHL PUSH1 0x0 MSTORE PUSH1 0x11 PUSH1 0x4 MSTORE PUSH1 0x24 PUSH1 0x0 REVERT JUMPDEST SWAP3 SWAP2 POP POP JUMP JUMPDEST PUSH1 0x0 DUP3 PUSH2 0xE7D JUMPI PUSH4 0x4E487B71 PUSH1 0xE0 SHL PUSH1 0x0 MSTORE PUSH1 0x12 PUSH1 0x4 MSTORE PUSH1 0x24 PUSH1 0x0 REVERT JUMPDEST POP DIV SWAP1 JUMP JUMPDEST PUSH4 0x4E487B71 PUSH1 0xE0 SHL PUSH1 0x0 MSTORE PUSH1 0x32 PUSH1 0x4 MSTORE PUSH1 0x24 PUSH1 0x0 REVERT JUMPDEST PUSH1 0x0 DUP2 MLOAD DUP1 DUP5 MSTORE PUSH1 0x20 DUP1 DUP6 ADD SWAP5 POP DUP1 DUP5 ADD PUSH1 0x0 JUMPDEST DUP4 DUP2 LT ISZERO PUSH2 0xED1 JUMPI DUP2 MLOAD PUSH1 0x1 PUSH1 0x1 PUSH1 0xA0 SHL SUB AND DUP8 MSTORE SWAP6 DUP3 ADD SWAP6 SWAP1 DUP3 ADD SWAP1 PUSH1 0x1 ADD PUSH2 0xEAC JUMP JUMPDEST POP SWAP5 SWAP6 SWAP5 POP POP POP POP POP JUMP JUMPDEST PUSH1 0x0 PUSH2 0x140 DUP1 DUP4 MSTORE PUSH2 0xEF0 DUP2 DUP5 ADD DUP15 PUSH2 0xE98 JUMP JUMPDEST PUSH1 0x1 PUSH1 0x1 PUSH1 0xA0 SHL SUB SWAP13 DUP14 AND PUSH1 0x20 DUP6 ADD MSTORE PUSH1 0x40 DUP5 ADD SWAP12 SWAP1 SWAP12 MSTORE POP POP PUSH1 0x60 DUP2 ADD SWAP8 SWAP1 SWAP8 MSTORE PUSH1 0x80 DUP8 ADD SWAP6 SWAP1 SWAP6 MSTORE SWAP3 ISZERO ISZERO PUSH1 0xA0 DUP7 ADD MSTORE PUSH1 0xC0 DUP6 ADD SWAP2 SWAP1 SWAP2 MSTORE PUSH1 0xE0 DUP5 ADD MSTORE PUSH2 0x100 DUP4 ADD MSTORE SWAP1 SWAP3 AND PUSH2 0x120 SWAP1 SWAP3 ADD SWAP2 SWAP1 SWAP2 MSTORE SWAP2 SWAP1 POP JUMP JUMPDEST PUSH1 0x0 DUP1 PUSH1 0x0 DUP1 PUSH1 0x0 DUP1 PUSH1 0x0 DUP1 PUSH2 0x100 DUP10 DUP12 SUB SLT ISZERO PUSH2 0xF64 JUMPI PUSH1 0x0 DUP1 REVERT JUMPDEST DUP9 MLOAD SWAP8 POP PUSH1 0x20 DUP10 ADD MLOAD SWAP7 POP PUSH1 0x40 DUP10 ADD MLOAD SWAP6 POP PUSH1 0x60 DUP10 ADD MLOAD SWAP5 POP PUSH1 0x80 DUP10 ADD MLOAD SWAP4 POP PUSH1 0xA0 DUP10 ADD MLOAD SWAP3 POP PUSH1 0xC0 DUP10 ADD MLOAD PUSH2 0xF99 DUP2 PUSH2 0xD1E JUMP JUMPDEST DUP1 SWAP3 POP POP PUSH1 0xE0 DUP10 ADD MLOAD SWAP1 POP SWAP3 SWAP6 SWAP9 POP SWAP3 SWAP6 SWAP9 SWAP1 SWAP4 SWAP7 POP JUMP JUMPDEST PUSH1 0x0 PUSH2 0x160 DUP1 DUP4 MSTORE PUSH2 0xFC5 DUP2 DUP5 ADD DUP16 PUSH2 0xE98 JUMP JUMPDEST PUSH1 0x1 PUSH1 0x1 PUSH1 0xA0 SHL SUB SWAP14 DUP15 AND PUSH1 0x20 DUP6 ADD MSTORE PUSH1 0x40 DUP5 ADD SWAP13 SWAP1 SWAP13 MSTORE POP POP PUSH1 0x60 DUP2 ADD SWAP9 SWAP1 SWAP9 MSTORE SWAP6 ISZERO ISZERO PUSH1 0x80 DUP9 ADD MSTORE SWAP4 DUP9 AND PUSH1 0xA0 DUP8 ADD MSTORE PUSH1 0xC0 DUP7 ADD SWAP3 SWAP1 SWAP3 MSTORE PUSH1 0xE0 DUP6 ADD MSTORE PUSH2 0x100 DUP5 ADD MSTORE ISZERO ISZERO PUSH2 0x120 DUP4 ADD MSTORE SWAP1 SWAP3 AND PUSH2 0x140 SWAP1 SWAP3 ADD SWAP2 SWAP1 SWAP2 MSTORE SWAP2 SWAP1 POP JUMP JUMPDEST PUSH1 0x0 DUP2 MLOAD DUP1 DUP5 MSTORE PUSH1 0x0 JUMPDEST DUP2 DUP2 LT ISZERO PUSH2 0x104A JUMPI PUSH1 0x20 DUP2 DUP6 ADD DUP2 ADD MLOAD DUP7 DUP4 ADD DUP3 ADD MSTORE ADD PUSH2 0x102E JUMP JUMPDEST POP PUSH1 0x0 PUSH1 0x20 DUP3 DUP7 ADD ADD MSTORE PUSH1 0x20 PUSH1 0x1F NOT PUSH1 0x1F DUP4 ADD AND DUP6 ADD ADD SWAP2 POP POP SWAP3 SWAP2 POP POP JUMP JUMPDEST PUSH1 0x20 DUP2 MSTORE PUSH1 0x0 PUSH2 0xD79 PUSH1 0x20 DUP4 ADD DUP5 PUSH2 0x1024 JUMP JUMPDEST PUSH1 0x40 DUP2 MSTORE PUSH1 0x0 PUSH2 0x1090 PUSH1 0x40 DUP4 ADD DUP6 PUSH2 0x1024 JUMP JUMPDEST SWAP1 POP PUSH1 0x1 DUP1 PUSH1 0xA0 SHL SUB DUP4 AND PUSH1 0x20 DUP4 ADD MSTORE SWAP4 SWAP3 POP POP POP JUMP JUMPDEST PUSH1 0x40 DUP2 MSTORE PUSH1 0x0 PUSH2 0x10BA PUSH1 0x40 DUP4 ADD DUP6 PUSH2 0x1024 JUMP JUMPDEST SWAP1 POP DUP3 PUSH1 0x20 DUP4 ADD MSTORE SWAP4 SWAP3 POP POP POP JUMP JUMPDEST PUSH1 0x40 DUP2 MSTORE PUSH1 0x0 PUSH2 0x10DC PUSH1 0x40 DUP4 ADD DUP6 PUSH2 0x1024 JUMP JUMPDEST SWAP1 POP DUP3 ISZERO ISZERO PUSH1 0x20 DUP4 ADD MSTORE SWAP4 SWAP3 POP POP POP JUMP INVALID LOG2 PUSH5 0x6970667358 0x22 SLT KECCAK256 LOG3 CODECOPY PUSH5 0xF1BDF738D8 PUSH11 0xC9F200E4AB4742A79BF296 0xD3 SWAP10 0x49 0xF9 JUMP CALLVALUE SWAP2 0xC4 BYTE SAR 0xAB PUSH32 0x64736F6C63430008110033000000000000000000000000000000000000000000 "},"gasEstimates":{"creation":{"codeDepositCost":"877400","executionCost":"172143","totalCost":"1049543"},"external":{"USDC()":"2414","closePosition(bool)":"infinite","gmxPositionRouter()":"2391","gmxReader()":"2369","gmxRouter()":"2348","gmxVault()":"2347","openPosition(uint256,bool)":"infinite","oracles(address)":"2511","owner()":"2430","renounceOwnership()":"infinite","transferOwnership(address)":"28386","vault()":"2435"}},"methodIdentifiers":{"USDC()":"89a30271","closePosition(bool)":"6671b6da","gmxPositionRouter()":"c657e7c2","gmxReader()":"be77cd32","gmxRouter()":"634e3180","gmxVault()":"b3b3453e","openPosition(uint256,bool)":"5d9ce673","oracles(address)":"addd5099","owner()":"8da5cb5b","renounceOwnership()":"715018a6","transferOwnership(address)":"f2fde38b","vault()":"fbfa77cf"}},"storageLayout":{"storage":[{"astId":8863,"contract":"contracts/Strat1.sol:Strat1","label":"_owner","offset":0,"slot":"0","type":"t_address"},{"astId":273,"contract":"contracts/Strat1.sol:Strat1","label":"USDC","offset":0,"slot":"1","type":"t_address"},{"astId":275,"contract":"contracts/Strat1.sol:Strat1","label":"vault","offset":0,"slot":"2","type":"t_address"},{"astId":281,"contract":"contracts/Strat1.sol:Strat1","label":"gmxVault","offset":0,"slot":"3","type":"t_address"},{"astId":287,"contract":"contracts/Strat1.sol:Strat1","label":"gmxRouter","offset":0,"slot":"4","type":"t_address"},{"astId":293,"contract":"contracts/Strat1.sol:Strat1","label":"gmxPositionRouter","offset":0,"slot":"5","type":"t_address"},{"astId":299,"contract":"contracts/Strat1.sol:Strat1","label":"gmxReader","offset":0,"slot":"6","type":"t_address"},{"astId":304,"contract":"contracts/Strat1.sol:Strat1","label":"exposition","offset":0,"slot":"7","type":"t_uint256"},{"astId":312,"contract":"contracts/Strat1.sol:Strat1","label":"oracles","offset":0,"slot":"8","type":"t_mapping(t_address,t_address)"}],"types":{"t_address":{"encoding":"inplace","label":"address","numberOfBytes":"20"},"t_mapping(t_address,t_address)":{"encoding":"mapping","key":"t_address","label":"mapping(address => address)","numberOfBytes":"32","value":"t_address"},"t_uint256":{"encoding":"inplace","label":"uint256","numberOfBytes":"32"}}},"userdoc":{"kind":"user","methods":{},"version":1}}}}