{
  "_format": "hh-sol-artifact-1",
  "contractName": "Strat1",
  "sourceName": "contracts/Strat1.sol",
  "abi": [
    {
      "inputs": [],
      "stateMutability": "nonpayable",
      "type": "constructor"
    },
    {
      "anonymous": false,
      "inputs": [
        {
          "indexed": false,
          "internalType": "string",
          "name": "message",
          "type": "string"
        }
      ],
      "name": "Log",
      "type": "event"
    },
    {
      "anonymous": false,
      "inputs": [
        {
          "indexed": true,
          "internalType": "address",
          "name": "previousOwner",
          "type": "address"
        },
        {
          "indexed": true,
          "internalType": "address",
          "name": "newOwner",
          "type": "address"
        }
      ],
      "name": "OwnershipTransferred",
      "type": "event"
    },
    {
      "inputs": [],
      "name": "USDC",
      "outputs": [
        {
          "internalType": "address",
          "name": "",
          "type": "address"
        }
      ],
      "stateMutability": "view",
      "type": "function"
    },
    {
      "inputs": [
        {
          "internalType": "bool",
          "name": "isLong",
          "type": "bool"
        }
      ],
      "name": "closePosition",
      "outputs": [],
      "stateMutability": "payable",
      "type": "function"
    },
    {
      "inputs": [],
      "name": "gmxPositionRouter",
      "outputs": [
        {
          "internalType": "address",
          "name": "",
          "type": "address"
        }
      ],
      "stateMutability": "view",
      "type": "function"
    },
    {
      "inputs": [],
      "name": "gmxReader",
      "outputs": [
        {
          "internalType": "address",
          "name": "",
          "type": "address"
        }
      ],
      "stateMutability": "view",
      "type": "function"
    },
    {
      "inputs": [],
      "name": "gmxRouter",
      "outputs": [
        {
          "internalType": "address",
          "name": "",
          "type": "address"
        }
      ],
      "stateMutability": "view",
      "type": "function"
    },
    {
      "inputs": [],
      "name": "gmxVault",
      "outputs": [
        {
          "internalType": "address",
          "name": "",
          "type": "address"
        }
      ],
      "stateMutability": "view",
      "type": "function"
    },
    {
      "inputs": [
        {
          "internalType": "uint256",
          "name": "tokenAmount",
          "type": "uint256"
        },
        {
          "internalType": "bool",
          "name": "isLong",
          "type": "bool"
        }
      ],
      "name": "openPosition",
      "outputs": [],
      "stateMutability": "payable",
      "type": "function"
    },
    {
      "inputs": [
        {
          "internalType": "address",
          "name": "",
          "type": "address"
        }
      ],
      "name": "oracles",
      "outputs": [
        {
          "internalType": "address",
          "name": "",
          "type": "address"
        }
      ],
      "stateMutability": "view",
      "type": "function"
    },
    {
      "inputs": [],
      "name": "owner",
      "outputs": [
        {
          "internalType": "address",
          "name": "",
          "type": "address"
        }
      ],
      "stateMutability": "view",
      "type": "function"
    },
    {
      "inputs": [],
      "name": "renounceOwnership",
      "outputs": [],
      "stateMutability": "nonpayable",
      "type": "function"
    },
    {
      "inputs": [
        {
          "internalType": "address",
          "name": "newOwner",
          "type": "address"
        }
      ],
      "name": "transferOwnership",
      "outputs": [],
      "stateMutability": "nonpayable",
      "type": "function"
    },
    {
      "inputs": [],
      "name": "vault",
      "outputs": [
        {
          "internalType": "address",
          "name": "",
          "type": "address"
        }
      ],
      "stateMutability": "view",
      "type": "function"
    }
  ],
  "bytecode": "0x6080604052600180546001600160a01b031990811673ff970a61a04b1ca14834a43f5de4533ebddb5cc81790915560038054821673489ee077994b6658eafa855c308275ead8097c4a17905560048054821673abbc5f99639c9b6bcb58544ddf04efa6802f406417905560058054821673b87a436b93ffe9d75c5cfa7bacfff96430b09868179055600680549091167322199a49a999c351ef7927602cfb187ec3cae4891790553480156100b257600080fd5b506100bc33610186565b600480546005546040516338c74dd960e01b81526001600160a01b039182169381019390935216906338c74dd990602401600060405180830381600087803b15801561010757600080fd5b505af115801561011b573d6000803e3d6000fd5b50507382af49447d8a07e3bd95bd0d56f35241523fbab1600052505060086020527fce09d406285d0d98f8d7856cf5337fcbd8f91b9d4e3f0ab0ea2741da37b2c6fb80546001600160a01b03191673639fe6ab55c921f74e7fac1ee960c0b6293ba6121790556101d6565b600080546001600160a01b038381166001600160a01b0319831681178455604051919092169283917f8be0079c531659141344cd1fd0a4f28419497f9722a3daafe3b4186f6b6457e09190a35050565b61109c806101e56000396000f3fe6080604052600436106100a75760003560e01c8063addd509911610064578063addd509914610163578063b3b3453e14610199578063be77cd32146101b9578063c657e7c2146101d9578063f2fde38b146101f9578063fbfa77cf1461021957600080fd5b80635d9ce673146100ac578063634e3180146100c15780636671b6da146100fd578063715018a61461011057806389a30271146101255780638da5cb5b14610145575b600080fd5b6100bf6100ba366004610ca5565b610239565b005b3480156100cd57600080fd5b506004546100e1906001600160a01b031681565b6040516001600160a01b03909116815260200160405180910390f35b6100bf61010b366004610cd5565b610751565b34801561011c57600080fd5b506100bf6109df565b34801561013157600080fd5b506001546100e1906001600160a01b031681565b34801561015157600080fd5b506000546001600160a01b03166100e1565b34801561016f57600080fd5b506100e161017e366004610cf9565b6008602052600090815260409020546001600160a01b031681565b3480156101a557600080fd5b506003546100e1906001600160a01b031681565b3480156101c557600080fd5b506006546100e1906001600160a01b031681565b3480156101e557600080fd5b506005546100e1906001600160a01b031681565b34801561020557600080fd5b506100bf610214366004610cf9565b6109f3565b34801561022557600080fd5b506002546100e1906001600160a01b031681565b6001546040516323b872dd60e01b8152336004820152306024820152604481018490526001600160a01b03909116906323b872dd906064016020604051808303816000875af1158015610290573d6000803e3d6000fd5b505050506040513d601f19601f820116820180604052508101906102b49190610d22565b506001546004805460405163095ea7b360e01b81526001600160a01b0391821692810192909252602482018590529091169063095ea7b3906044016020604051808303816000875af115801561030e573d6000803e3d6000fd5b505050506040513d601f19601f820116820180604052508101906103329190610d22565b507382af49447d8a07e3bd95bd0d56f35241523fbab1600090815260086020527fce09d406285d0d98f8d7856cf5337fcbd8f91b9d4e3f0ab0ea2741da37b2c6fb5460408051633fabe5a360e21b815290516001600160a01b039092169163feaf968c9160048082019260a0929091908290030181865afa1580156103bb573d6000803e3d6000fd5b505050506040513d601f19601f820116820180604052508101906103df9190610d5e565b5050509150506000606484606e6103f69190610dae565b6104009190610dd9565b6104149069d3c21bcecceda1000000610dae565b90506000610440604051806040016040528060078152602001666275672069636960c81b815250610a71565b831561074a57604080516002808252606082018352600092602083019080368337505060015482519293506001600160a01b03169183915060009061048757610487610dfb565b60200260200101906001600160a01b031690816001600160a01b0316815250507382af49447d8a07e3bd95bd0d56f35241523fbab1816001815181106104cf576104cf610dfb565b6001600160a01b03909216602092830291909101909101526127106104f685613ab6610dae565b6105009190610dd9565b6105149069021e19e0c9bab2400000610dae565b915061053f604051806040016040528060088152602001672830b930b6b9901d60c11b815250610a71565b610582604051806040016040528060078152602001663830ba3418101d60c91b8152508260008151811061057557610575610dfb565b6020026020010151610ab4565b6105b8604051806040016040528060078152602001663830ba3418901d60c91b8152508260018151811061057557610575610dfb565b6105fa6040518060400160405280600c81526020016b34b73232bc2a37b5b2b7101d60a11b8152507382af49447d8a07e3bd95bd0d56f35241523fbab1610ab4565b6106296040518060400160405280600d81526020016c3a37b5b2b720b6b7bab73a101d60991b81525087610afd565b6106596040518060400160405280600e81526020016d3837b9b4ba34b7b739b4bd32901d60911b81525084610afd565b6106836040518060400160405280600881526020016734b9a637b733901d60c11b81525086610b42565b6106b66040518060400160405280601181526020017030b1b1b2b83a30b13632a83934b1b2901d60791b81525083610afd565b60055460405163f2ae372f60e01b81526001600160a01b039091169063f2ae372f9034906107169085907382af49447d8a07e3bd95bd0d56f35241523fbab1908c906000908b908e908c9066470de4df8200009085908190600401610e55565b6000604051808303818588803b15801561072f57600080fd5b505af1158015610743573d6000803e3d6000fd5b5050505050505b5050505050565b7382af49447d8a07e3bd95bd0d56f35241523fbab1600090815260086020527fce09d406285d0d98f8d7856cf5337fcbd8f91b9d4e3f0ab0ea2741da37b2c6fb5460408051633fabe5a360e21b815290516001600160a01b039092169163feaf968c9160048082019260a0929091908290030181865afa1580156107d9573d6000803e3d6000fd5b505050506040513d601f19601f820116820180604052508101906107fd9190610d5e565b505050915050600082156109da57600354604051634a3f088d60e01b81523060048201527382af49447d8a07e3bd95bd0d56f35241523fbab1602482018190526044820152841515606482015260009182916001600160a01b0390911690634a3f088d90608401610100604051808303816000875af1158015610884573d6000803e3d6000fd5b505050506040513d601f19601f820116820180604052508101906108a89190610ec0565b505050505050915091506108df6040518060400160405280600c81526020016b636c6f73696e67206c6f6e6760a01b815250610a71565b6108e882610b87565b604080516001808252818301909252600091602080830190803683370190505090507382af49447d8a07e3bd95bd0d56f35241523fbab18160008151811061093257610932610dfb565b6001600160a01b0390921660209283029190910190910152612710610959866126f2610dae565b6109639190610dd9565b6109779069021e19e0c9bab2400000610dae565b600554604051637be7d14160e01b81529195506001600160a01b031690637be7d1419034906107169085907382af49447d8a07e3bd95bd0d56f35241523fbab19088908a908e9030908e9060009066470de4df8200009082908190600401610f2a565b505050565b6109e7610bcc565b6109f16000610c26565b565b6109fb610bcc565b6001600160a01b038116610a655760405162461bcd60e51b815260206004820152602660248201527f4f776e61626c653a206e6577206f776e657220697320746865207a65726f206160448201526564647265737360d01b60648201526084015b60405180910390fd5b610a6e81610c26565b50565b610a6e81604051602401610a859190610fe3565b60408051601f198184030181529190526020810180516001600160e01b031663104c13eb60e21b179052610c76565b610af98282604051602401610aca929190610ff6565b60408051601f198184030181529190526020810180516001600160e01b031663319af33360e01b179052610c76565b5050565b610af98282604051602401610b13929190611020565b60408051601f198184030181529190526020810180516001600160e01b0316632d839cb360e21b179052610c76565b610af98282604051602401610b58929190611042565b60408051601f198184030181529190526020810180516001600160e01b031663c3b5563560e01b179052610c76565b610a6e81604051602401610b9d91815260200190565b60408051601f198184030181529190526020810180516001600160e01b031663f82c50f160e01b179052610c76565b6000546001600160a01b031633146109f15760405162461bcd60e51b815260206004820181905260248201527f4f776e61626c653a2063616c6c6572206973206e6f7420746865206f776e65726044820152606401610a5c565b600080546001600160a01b038381166001600160a01b0319831681178455604051919092169283917f8be0079c531659141344cd1fd0a4f28419497f9722a3daafe3b4186f6b6457e09190a35050565b80516a636f6e736f6c652e6c6f67602083016000808483855afa5050505050565b8015158114610a6e57600080fd5b60008060408385031215610cb857600080fd5b823591506020830135610cca81610c97565b809150509250929050565b600060208284031215610ce757600080fd5b8135610cf281610c97565b9392505050565b600060208284031215610d0b57600080fd5b81356001600160a01b0381168114610cf257600080fd5b600060208284031215610d3457600080fd5b8151610cf281610c97565b805169ffffffffffffffffffff81168114610d5957600080fd5b919050565b600080600080600060a08688031215610d7657600080fd5b610d7f86610d3f565b9450602086015193506040860151925060608601519150610da260808701610d3f565b90509295509295909350565b8082028115828204841417610dd357634e487b7160e01b600052601160045260246000fd5b92915050565b600082610df657634e487b7160e01b600052601260045260246000fd5b500490565b634e487b7160e01b600052603260045260246000fd5b600081518084526020808501945080840160005b83811015610e4a5781516001600160a01b031687529582019590820190600101610e25565b509495945050505050565b6000610140808352610e698184018e610e11565b6001600160a01b039c8d166020850152604084019b909b5250506060810197909752608087019590955292151560a086015260c085019190915260e084015261010083015290921661012090920191909152919050565b600080600080600080600080610100898b031215610edd57600080fd5b885197506020890151965060408901519550606089015194506080890151935060a0890151925060c0890151610f1281610c97565b8092505060e089015190509295985092959890939650565b6000610160808352610f3e8184018f610e11565b6001600160a01b039d8e166020850152604084019c909c5250506060810198909852951515608088015293881660a087015260c086019290925260e0850152610100840152151561012083015290921661014090920191909152919050565b6000815180845260005b81811015610fc357602081850181015186830182015201610fa7565b506000602082860101526020601f19601f83011685010191505092915050565b602081526000610cf26020830184610f9d565b6040815260006110096040830185610f9d565b905060018060a01b03831660208301529392505050565b6040815260006110336040830185610f9d565b90508260208301529392505050565b6040815260006110556040830185610f9d565b90508215156020830152939250505056fea2646970667358221220ced29fce1a87d56e83f810c497289363f745b865c63ec52058399eb9154b41b964736f6c63430008110033",
  "linkReferences": {},
  "deployedLinkReferences": {}
}