{
  "address": "0x998abeb3E57409262aE5b751f60747921B33613E",
  "abi": [
    {
      "inputs": [
        {
          "internalType": "address",
          "name": "_vault",
          "type": "address"
        }
      ],
      "stateMutability": "nonpayable",
      "type": "constructor"
    },
    {
      "anonymous": false,
      "inputs": [
        {
          "indexed": true,
          "internalType": "address",
          "name": "previousOwner",
          "type": "address"
        },
        {
          "indexed": true,
          "internalType": "address",
          "name": "newOwner",
          "type": "address"
        }
      ],
      "name": "OwnershipTransferred",
      "type": "event"
    },
    {
      "inputs": [],
      "name": "GMXexecutionFee",
      "outputs": [
        {
          "internalType": "uint256",
          "name": "",
          "type": "uint256"
        }
      ],
      "stateMutability": "view",
      "type": "function"
    },
    {
      "inputs": [],
      "name": "USDC",
      "outputs": [
        {
          "internalType": "address",
          "name": "",
          "type": "address"
        }
      ],
      "stateMutability": "view",
      "type": "function"
    },
    {
      "inputs": [],
      "name": "WETH",
      "outputs": [
        {
          "internalType": "address",
          "name": "",
          "type": "address"
        }
      ],
      "stateMutability": "view",
      "type": "function"
    },
    {
      "inputs": [
        {
          "internalType": "address",
          "name": "_to",
          "type": "address"
        },
        {
          "internalType": "uint256",
          "name": "tokenAmount",
          "type": "uint256"
        },
        {
          "internalType": "bool",
          "name": "isLong",
          "type": "bool"
        }
      ],
      "name": "decreasePosition",
      "outputs": [],
      "stateMutability": "payable",
      "type": "function"
    },
    {
      "inputs": [],
      "name": "getVaultOwner",
      "outputs": [
        {
          "internalType": "address",
          "name": "",
          "type": "address"
        }
      ],
      "stateMutability": "view",
      "type": "function"
    },
    {
      "inputs": [],
      "name": "gmxPositionRouter",
      "outputs": [
        {
          "internalType": "address",
          "name": "",
          "type": "address"
        }
      ],
      "stateMutability": "view",
      "type": "function"
    },
    {
      "inputs": [],
      "name": "gmxReader",
      "outputs": [
        {
          "internalType": "address",
          "name": "",
          "type": "address"
        }
      ],
      "stateMutability": "view",
      "type": "function"
    },
    {
      "inputs": [],
      "name": "gmxRouter",
      "outputs": [
        {
          "internalType": "address",
          "name": "",
          "type": "address"
        }
      ],
      "stateMutability": "view",
      "type": "function"
    },
    {
      "inputs": [],
      "name": "gmxVault",
      "outputs": [
        {
          "internalType": "address",
          "name": "",
          "type": "address"
        }
      ],
      "stateMutability": "view",
      "type": "function"
    },
    {
      "inputs": [
        {
          "internalType": "uint256",
          "name": "tokenAmount",
          "type": "uint256"
        },
        {
          "internalType": "bool",
          "name": "isLong",
          "type": "bool"
        }
      ],
      "name": "increasePosition",
      "outputs": [],
      "stateMutability": "payable",
      "type": "function"
    },
    {
      "inputs": [
        {
          "internalType": "bool",
          "name": "isLong",
          "type": "bool"
        }
      ],
      "name": "liquidatePosition",
      "outputs": [],
      "stateMutability": "payable",
      "type": "function"
    },
    {
      "inputs": [],
      "name": "owner",
      "outputs": [
        {
          "internalType": "address",
          "name": "",
          "type": "address"
        }
      ],
      "stateMutability": "view",
      "type": "function"
    },
    {
      "inputs": [],
      "name": "renounceOwnership",
      "outputs": [],
      "stateMutability": "nonpayable",
      "type": "function"
    },
    {
      "inputs": [
        {
          "internalType": "address",
          "name": "_addr",
          "type": "address"
        }
      ],
      "name": "setVaultOwner",
      "outputs": [],
      "stateMutability": "nonpayable",
      "type": "function"
    },
    {
      "inputs": [
        {
          "internalType": "address",
          "name": "newOwner",
          "type": "address"
        }
      ],
      "name": "transferOwnership",
      "outputs": [],
      "stateMutability": "nonpayable",
      "type": "function"
    },
    {
      "inputs": [],
      "name": "vault",
      "outputs": [
        {
          "internalType": "address",
          "name": "",
          "type": "address"
        }
      ],
      "stateMutability": "view",
      "type": "function"
    }
  ],
  "transactionHash": "0x60acd2422f558921a9369b970cf92506090f8e7d00225996be0bc0ccc99c2a9c",
  "args": [
    "0x95401dc811bb5740090279Ba06cfA8fcF6113778"
  ],
  "numDeployments": 1,
  "solcInputHash": "ba903af614d201091cebabfa728bbb24",
  "bytecode": "0x6080604052600180546001600160a01b031990811673489ee077994b6658eafa855c308275ead8097c4a1790915560028054821673abbc5f99639c9b6bcb58544ddf04efa6802f406417905560038054821673b87a436b93ffe9d75c5cfa7bacfff96430b098681790556004805482167322199a49a999c351ef7927602cfb187ec3cae4891790556005805482167382af49447d8a07e3bd95bd0d56f35241523fbab11790556006805490911673ff970a61a04b1ca14834a43f5de4533ebddb5cc8179055348015620000d157600080fd5b506040516200163438038062001634833981016040819052620000f4916200024e565b620000ff33620001fe565b600880546001600160a01b0319166001600160a01b03838116919091179091556002546003546040516338c74dd960e01b815290831660048201529116906338c74dd990602401600060405180830381600087803b1580156200016157600080fd5b505af115801562000176573d6000803e3d6000fd5b50505050600360009054906101000a90046001600160a01b03166001600160a01b03166363ae21036040518163ffffffff1660e01b8152600401602060405180830381865afa158015620001ce573d6000803e3d6000fd5b505050506040513d601f19601f82011682018060405250810190620001f4919062000280565b600755506200029a565b600080546001600160a01b038381166001600160a01b0319831681178455604051919092169283917f8be0079c531659141344cd1fd0a4f28419497f9722a3daafe3b4186f6b6457e09190a35050565b6000602082840312156200026157600080fd5b81516001600160a01b03811681146200027957600080fd5b9392505050565b6000602082840312156200029357600080fd5b5051919050565b61138a80620002aa6000396000f3fe6080604052600436106100d35760003560e01c8063a44ca3461161007a578063a44ca346146101c9578063ad5c4648146101e7578063b3b3453e14610207578063be77cd3214610227578063c5dac33b14610247578063c657e7c21461025a578063f2fde38b1461027a578063fbfa77cf1461029a57600080fd5b80631c5ecc06146100d8578063434c0c75146100ed578063634e318014610116578063715018a6146101435780637cb175971461015857806380b3631c1461016b57806389a302711461018b5780638da5cb5b146101ab575b600080fd5b6100eb6100e6366004611003565b6102ba565b005b3480156100f957600080fd5b5061010360075481565b6040519081526020015b60405180910390f35b34801561012257600080fd5b50600254610136906001600160a01b031681565b60405161010d9190611033565b34801561014f57600080fd5b506100eb61073b565b6100eb610166366004611047565b61074f565b34801561017757600080fd5b506100eb610186366004611087565b610b11565b34801561019757600080fd5b50600654610136906001600160a01b031681565b3480156101b757600080fd5b506000546001600160a01b0316610136565b3480156101d557600080fd5b506008546001600160a01b0316610136565b3480156101f357600080fd5b50600554610136906001600160a01b031681565b34801561021357600080fd5b50600154610136906001600160a01b031681565b34801561023357600080fd5b50600454610136906001600160a01b031681565b6100eb6102553660046110a2565b610b3b565b34801561026657600080fd5b50600354610136906001600160a01b031681565b34801561028657600080fd5b506100eb610295366004611087565b610ed2565b3480156102a657600080fd5b50600854610136906001600160a01b031681565b6008546001600160a01b031633146102ed5760405162461bcd60e51b81526004016102e4906110e2565b60405180910390fd5b6006546008546040516323b872dd60e01b81526001600160a01b039182166004820152306024820152604481018590529116906323b872dd906064016020604051808303816000875af1158015610348573d6000803e3d6000fd5b505050506040513d601f19601f8201168201806040525081019061036c9190611105565b5060065460025460405163095ea7b360e01b81526001600160a01b0391821660048201526024810185905291169063095ea7b3906044016020604051808303816000875af11580156103c2573d6000803e3d6000fd5b505050506040513d601f19601f820116820180604052508101906103e69190611105565b50600060646103f684606e611122565b610400919061114d565b6104149069d3c21bcecceda1000000611122565b9050600082156105ce57604080516002808252606082018352600092602083019080368337505060065482519293506001600160a01b03169183915060009061045f5761045f61116f565b6001600160a01b0392831660209182029290920101526005548251911690829060019081106104905761049061116f565b6001600160a01b039283166020918202929092010152600154600554604051637092736960e11b8152612710939283169263e124e6d2926104d692911690600401611033565b602060405180830381865afa1580156104f3573d6000803e3d6000fd5b505050506040513d601f19601f820116820180604052508101906105179190611185565b6105239061272e611122565b61052d919061114d565b60035460055460405163f2ae372f60e01b81529294506001600160a01b039182169263f2ae372f923492610596928792909116908b906000908b908d908c90662386f26fc1000090716d79726566657272616c4d6176696e69676960701b9086906004016111e2565b6000604051808303818588803b1580156105af57600080fd5b505af11580156105c3573d6000803e3d6000fd5b505050505050610735565b60408051600180825281830190925260009160208083019080368337505060065482519293506001600160a01b0316918391506000906106105761061061116f565b6001600160a01b0392831660209182029290920101526001546005546040516340d3096b60e11b815261271093928316926381a612d69261065692911690600401611033565b602060405180830381865afa158015610673573d6000803e3d6000fd5b505050506040513d601f19601f820116820180604052508101906106979190611185565b6106a3906126f2611122565b6106ad919061114d565b60035460055460405163f2ae372f60e01b81529294506001600160a01b039182169263f2ae372f923492610701928792909116908b906000908b908d908c90662386f26fc1000090859081906004016111e2565b6000604051808303818588803b15801561071a57600080fd5b505af115801561072e573d6000803e3d6000fd5b5050505050505b50505050565b610743610f4b565b61074d6000610fa5565b565b6008546001600160a01b031633146107795760405162461bcd60e51b81526004016102e4906110e2565b600081156109ac57604080516002808252606082018352600092602083019080368337505060055482519293506001600160a01b0316918391506000906107c2576107c261116f565b6001600160a01b0392831660209182029290920101526006548251911690829060019081106107f3576107f361116f565b6001600160a01b039283166020918202929092010152600154600554604051634a3f088d60e01b815260009392831692634a3f088d92610840923092919091169081908a9060040161124d565b610100604051808303816000875af1158015610860573d6000803e3d6000fd5b505050506040513d601f19601f820116820180604052508101906108849190611277565b50506001546005546040516340d3096b60e11b8152979850612710976001600160a01b0392831697506381a612d696506108c79550911692506004019050611033565b602060405180830381865afa1580156108e4573d6000803e3d6000fd5b505050506040513d601f19601f820116820180604052508101906109089190611185565b610914906126f2611122565b61091e919061114d565b600354600554604051637be7d14160e01b81529295506001600160a01b0391821692637be7d1419234926109749288929091169060009088908c9033908d908590662386f26fc1000090829081906004016112e1565b6000604051808303818588803b15801561098d57600080fd5b505af11580156109a1573d6000803e3d6000fd5b505050505050505050565b60408051600180825281830190925260009160208083019080368337505060065482519293506001600160a01b0316918391506000906109ee576109ee61116f565b6001600160a01b039283166020918202929092010152600154600654600554604051634a3f088d60e01b815260009493841693634a3f088d93610a3d9330939183169216908a9060040161124d565b610100604051808303816000875af1158015610a5d573d6000803e3d6000fd5b505050506040513d601f19601f82011682018060405250810190610a819190611277565b5050600154600554604051637092736960e11b8152979850612710976001600160a01b03928316975063e124e6d29650610ac49550911692506004019050611033565b602060405180830381865afa158015610ae1573d6000803e3d6000fd5b505050506040513d601f19601f82011682018060405250810190610b059190611185565b6109149061272e611122565b610b19610f4b565b600880546001600160a01b0319166001600160a01b0392909216919091179055565b6008546001600160a01b03163314610b655760405162461bcd60e51b81526004016102e4906110e2565b6000806064610b7585606e611122565b610b7f919061114d565b610b939069d3c21bcecceda1000000611122565b90508215610d4d57604080516002808252606082018352600092602083019080368337505060055482519293506001600160a01b031691839150600090610bdc57610bdc61116f565b6001600160a01b039283166020918202929092010152600654825191169082906001908110610c0d57610c0d61116f565b6001600160a01b0392831660209182029290920101526001546005546040516340d3096b60e11b815261271093928316926381a612d692610c5392911690600401611033565b602060405180830381865afa158015610c70573d6000803e3d6000fd5b505050506040513d601f19601f82011682018060405250810190610c949190611185565b610ca0906126f2611122565b610caa919061114d565b6003546005549194506001600160a01b0390811691637be7d141913491859116610cde8a69d3c21bcecceda1000000611122565b878a8d8b6000662386f26fc100006000806040518d63ffffffff1660e01b8152600401610d159b9a999897969594939291906112e1565b6000604051808303818588803b158015610d2e57600080fd5b505af1158015610d42573d6000803e3d6000fd5b505050505050610ecb565b60408051600180825281830190925260009160208083019080368337505060065482519293506001600160a01b031691839150600090610d8f57610d8f61116f565b6001600160a01b039283166020918202929092010152600154600554604051637092736960e11b8152612710939283169263e124e6d292610dd592911690600401611033565b602060405180830381865afa158015610df2573d6000803e3d6000fd5b505050506040513d601f19601f82011682018060405250810190610e169190611185565b610e229061272e611122565b610e2c919061114d565b6003546005549194506001600160a01b0390811691637be7d141913491859116610e608a69d3c21bcecceda1000000611122565b878a8d8b6000662386f26fc100006000806040518d63ffffffff1660e01b8152600401610e979b9a999897969594939291906112e1565b6000604051808303818588803b158015610eb057600080fd5b505af1158015610ec4573d6000803e3d6000fd5b5050505050505b5050505050565b610eda610f4b565b6001600160a01b038116610f3f5760405162461bcd60e51b815260206004820152602660248201527f4f776e61626c653a206e6577206f776e657220697320746865207a65726f206160448201526564647265737360d01b60648201526084016102e4565b610f4881610fa5565b50565b6000546001600160a01b0316331461074d5760405162461bcd60e51b815260206004820181905260248201527f4f776e61626c653a2063616c6c6572206973206e6f7420746865206f776e657260448201526064016102e4565b600080546001600160a01b038381166001600160a01b0319831681178455604051919092169283917f8be0079c531659141344cd1fd0a4f28419497f9722a3daafe3b4186f6b6457e09190a35050565b8015158114610f4857600080fd5b6000806040838503121561101657600080fd5b82359150602083013561102881610ff5565b809150509250929050565b6001600160a01b0391909116815260200190565b60006020828403121561105957600080fd5b813561106481610ff5565b9392505050565b80356001600160a01b038116811461108257600080fd5b919050565b60006020828403121561109957600080fd5b6110648261106b565b6000806000606084860312156110b757600080fd5b6110c08461106b565b92506020840135915060408401356110d781610ff5565b809150509250925092565b602080825260099082015268139bdd081d985d5b1d60ba1b604082015260600190565b60006020828403121561111757600080fd5b815161106481610ff5565b808202811582820484141761114757634e487b7160e01b600052601160045260246000fd5b92915050565b60008261116a57634e487b7160e01b600052601260045260246000fd5b500490565b634e487b7160e01b600052603260045260246000fd5b60006020828403121561119757600080fd5b5051919050565b600081518084526020808501945080840160005b838110156111d75781516001600160a01b0316875295820195908201906001016111b2565b509495945050505050565b60006101408083526111f68184018e61119e565b6001600160a01b039c8d166020850152604084019b909b5250506060810197909752608087019590955292151560a086015260c085019190915260e084015261010083015290921661012090920191909152919050565b6001600160a01b039485168152928416602084015292166040820152901515606082015260800190565b600080600080600080600080610100898b03121561129457600080fd5b885197506020890151965060408901519550606089015194506080890151935060a0890151925060c08901516112c981610ff5565b8092505060e089015190509295985092959890939650565b60006101608083526112f58184018f61119e565b6001600160a01b039d8e166020850152604084019c909c5250506060810198909852951515608088015293881660a087015260c086019290925260e085015261010084015215156101208301529092166101409092019190915291905056fea2646970667358221220e149aa8e8a84670c6705c899183b5f47dd1b2ca6d77eeb02c65fe393c15e1faa64736f6c63430008110033",
  "devdoc": {
    "kind": "dev",
    "methods": {
      "owner()": {
        "details": "Returns the address of the current owner."
      },
      "renounceOwnership()": {
        "details": "Leaves the contract without owner. It will not be possible to call `onlyOwner` functions anymore. Can only be called by the current owner. NOTE: Renouncing ownership will leave the contract without an owner, thereby removing any functionality that is only available to the owner."
      },
      "transferOwnership(address)": {
        "details": "Transfers ownership of the contract to a new account (`newOwner`). Can only be called by the current owner."
      }
    },
    "version": 1
  },
  "userdoc": {
    "kind": "user",
    "methods": {},
    "version": 1
  },
  "storageLayout": {
    "storage": [
      {
        "astId": 11278,
        "contract": "contracts/GMX_controller.sol:GMX_controller",
        "label": "_owner",
        "offset": 0,
        "slot": "0",
        "type": "t_address"
      },
      {
        "astId": 1705,
        "contract": "contracts/GMX_controller.sol:GMX_controller",
        "label": "gmxVault",
        "offset": 0,
        "slot": "1",
        "type": "t_address"
      },
      {
        "astId": 1711,
        "contract": "contracts/GMX_controller.sol:GMX_controller",
        "label": "gmxRouter",
        "offset": 0,
        "slot": "2",
        "type": "t_address"
      },
      {
        "astId": 1717,
        "contract": "contracts/GMX_controller.sol:GMX_controller",
        "label": "gmxPositionRouter",
        "offset": 0,
        "slot": "3",
        "type": "t_address"
      },
      {
        "astId": 1723,
        "contract": "contracts/GMX_controller.sol:GMX_controller",
        "label": "gmxReader",
        "offset": 0,
        "slot": "4",
        "type": "t_address"
      },
      {
        "astId": 1726,
        "contract": "contracts/GMX_controller.sol:GMX_controller",
        "label": "WETH",
        "offset": 0,
        "slot": "5",
        "type": "t_address"
      },
      {
        "astId": 1729,
        "contract": "contracts/GMX_controller.sol:GMX_controller",
        "label": "USDC",
        "offset": 0,
        "slot": "6",
        "type": "t_address"
      },
      {
        "astId": 1731,
        "contract": "contracts/GMX_controller.sol:GMX_controller",
        "label": "GMXexecutionFee",
        "offset": 0,
        "slot": "7",
        "type": "t_uint256"
      },
      {
        "astId": 1733,
        "contract": "contracts/GMX_controller.sol:GMX_controller",
        "label": "vault",
        "offset": 0,
        "slot": "8",
        "type": "t_address"
      }
    ],
    "types": {
      "t_address": {
        "encoding": "inplace",
        "label": "address",
        "numberOfBytes": "20"
      },
      "t_uint256": {
        "encoding": "inplace",
        "label": "uint256",
        "numberOfBytes": "32"
      }
    }
  }
}