{
  "address": "0x95401dc811bb5740090279Ba06cfA8fcF6113778",
  "abi": [
    {
      "inputs": [],
      "stateMutability": "nonpayable",
      "type": "constructor"
    },
    {
      "anonymous": false,
      "inputs": [
        {
          "indexed": true,
          "internalType": "address",
          "name": "owner",
          "type": "address"
        },
        {
          "indexed": true,
          "internalType": "address",
          "name": "spender",
          "type": "address"
        },
        {
          "indexed": false,
          "internalType": "uint256",
          "name": "value",
          "type": "uint256"
        }
      ],
      "name": "Approval",
      "type": "event"
    },
    {
      "anonymous": false,
      "inputs": [
        {
          "indexed": false,
          "internalType": "address",
          "name": "tokenAddress",
          "type": "address"
        }
      ],
      "name": "NewTokenAdded",
      "type": "event"
    },
    {
      "anonymous": false,
      "inputs": [
        {
          "indexed": true,
          "internalType": "address",
          "name": "previousOwner",
          "type": "address"
        },
        {
          "indexed": true,
          "internalType": "address",
          "name": "newOwner",
          "type": "address"
        }
      ],
      "name": "OwnershipTransferred",
      "type": "event"
    },
    {
      "anonymous": false,
      "inputs": [
        {
          "indexed": false,
          "internalType": "address",
          "name": "tokenAddress",
          "type": "address"
        }
      ],
      "name": "TokenRemoved",
      "type": "event"
    },
    {
      "anonymous": false,
      "inputs": [
        {
          "indexed": true,
          "internalType": "address",
          "name": "from",
          "type": "address"
        },
        {
          "indexed": true,
          "internalType": "address",
          "name": "to",
          "type": "address"
        },
        {
          "indexed": false,
          "internalType": "uint256",
          "name": "value",
          "type": "uint256"
        }
      ],
      "name": "Transfer",
      "type": "event"
    },
    {
      "anonymous": false,
      "inputs": [
        {
          "indexed": true,
          "internalType": "address",
          "name": "account",
          "type": "address"
        },
        {
          "indexed": false,
          "internalType": "uint256",
          "name": "when",
          "type": "uint256"
        },
        {
          "indexed": false,
          "internalType": "address",
          "name": "token_deposited",
          "type": "address"
        },
        {
          "indexed": false,
          "internalType": "uint256",
          "name": "amount",
          "type": "uint256"
        },
        {
          "indexed": false,
          "internalType": "uint256",
          "name": "PLPissued",
          "type": "uint256"
        }
      ],
      "name": "depositEvent",
      "type": "event"
    },
    {
      "anonymous": false,
      "inputs": [
        {
          "indexed": false,
          "internalType": "uint256",
          "name": "when",
          "type": "uint256"
        },
        {
          "indexed": false,
          "internalType": "uint8",
          "name": "oldexpo",
          "type": "uint8"
        },
        {
          "indexed": false,
          "internalType": "uint8",
          "name": "newexpo",
          "type": "uint8"
        }
      ],
      "name": "expoEvent",
      "type": "event"
    },
    {
      "anonymous": false,
      "inputs": [
        {
          "indexed": false,
          "internalType": "uint256",
          "name": "when",
          "type": "uint256"
        },
        {
          "indexed": false,
          "internalType": "uint8",
          "name": "exposition",
          "type": "uint8"
        },
        {
          "indexed": false,
          "internalType": "uint256",
          "name": "oldNAV",
          "type": "uint256"
        },
        {
          "indexed": false,
          "internalType": "uint256",
          "name": "NAV",
          "type": "uint256"
        },
        {
          "indexed": false,
          "internalType": "uint256",
          "name": "usdcNAV",
          "type": "uint256"
        },
        {
          "indexed": false,
          "internalType": "uint256",
          "name": "longNAV",
          "type": "uint256"
        },
        {
          "indexed": false,
          "internalType": "uint256",
          "name": "shortNAV",
          "type": "uint256"
        },
        {
          "indexed": false,
          "internalType": "uint256",
          "name": "totalsupply",
          "type": "uint256"
        }
      ],
      "name": "navEvent",
      "type": "event"
    },
    {
      "anonymous": false,
      "inputs": [
        {
          "indexed": true,
          "internalType": "address",
          "name": "account",
          "type": "address"
        },
        {
          "indexed": false,
          "internalType": "uint256",
          "name": "when",
          "type": "uint256"
        },
        {
          "indexed": false,
          "internalType": "uint256",
          "name": "amount",
          "type": "uint256"
        },
        {
          "indexed": false,
          "internalType": "uint256",
          "name": "unitprice",
          "type": "uint256"
        }
      ],
      "name": "withdrawEvent",
      "type": "event"
    },
    {
      "inputs": [],
      "name": "GMX_controller",
      "outputs": [
        {
          "internalType": "address",
          "name": "",
          "type": "address"
        }
      ],
      "stateMutability": "view",
      "type": "function"
    },
    {
      "inputs": [],
      "name": "USDC",
      "outputs": [
        {
          "internalType": "address",
          "name": "",
          "type": "address"
        }
      ],
      "stateMutability": "view",
      "type": "function"
    },
    {
      "inputs": [],
      "name": "WETH",
      "outputs": [
        {
          "internalType": "address",
          "name": "",
          "type": "address"
        }
      ],
      "stateMutability": "view",
      "type": "function"
    },
    {
      "inputs": [
        {
          "internalType": "address",
          "name": "tokenAddress",
          "type": "address"
        }
      ],
      "name": "acceptToken",
      "outputs": [],
      "stateMutability": "nonpayable",
      "type": "function"
    },
    {
      "inputs": [
        {
          "internalType": "address",
          "name": "owner",
          "type": "address"
        },
        {
          "internalType": "address",
          "name": "spender",
          "type": "address"
        }
      ],
      "name": "allowance",
      "outputs": [
        {
          "internalType": "uint256",
          "name": "",
          "type": "uint256"
        }
      ],
      "stateMutability": "view",
      "type": "function"
    },
    {
      "inputs": [
        {
          "internalType": "address",
          "name": "spender",
          "type": "address"
        },
        {
          "internalType": "uint256",
          "name": "amount",
          "type": "uint256"
        }
      ],
      "name": "approve",
      "outputs": [
        {
          "internalType": "bool",
          "name": "",
          "type": "bool"
        }
      ],
      "stateMutability": "nonpayable",
      "type": "function"
    },
    {
      "inputs": [
        {
          "internalType": "address",
          "name": "account",
          "type": "address"
        }
      ],
      "name": "balanceOf",
      "outputs": [
        {
          "internalType": "uint256",
          "name": "",
          "type": "uint256"
        }
      ],
      "stateMutability": "view",
      "type": "function"
    },
    {
      "inputs": [],
      "name": "decimals",
      "outputs": [
        {
          "internalType": "uint8",
          "name": "",
          "type": "uint8"
        }
      ],
      "stateMutability": "view",
      "type": "function"
    },
    {
      "inputs": [
        {
          "internalType": "address",
          "name": "spender",
          "type": "address"
        },
        {
          "internalType": "uint256",
          "name": "subtractedValue",
          "type": "uint256"
        }
      ],
      "name": "decreaseAllowance",
      "outputs": [
        {
          "internalType": "bool",
          "name": "",
          "type": "bool"
        }
      ],
      "stateMutability": "nonpayable",
      "type": "function"
    },
    {
      "inputs": [
        {
          "internalType": "address",
          "name": "tokenAddress",
          "type": "address"
        },
        {
          "internalType": "uint256",
          "name": "_amount",
          "type": "uint256"
        }
      ],
      "name": "deposit",
      "outputs": [],
      "stateMutability": "payable",
      "type": "function"
    },
    {
      "inputs": [],
      "name": "exposition",
      "outputs": [
        {
          "internalType": "uint8",
          "name": "",
          "type": "uint8"
        }
      ],
      "stateMutability": "view",
      "type": "function"
    },
    {
      "inputs": [],
      "name": "fees",
      "outputs": [
        {
          "internalType": "uint8",
          "name": "",
          "type": "uint8"
        }
      ],
      "stateMutability": "view",
      "type": "function"
    },
    {
      "inputs": [],
      "name": "getExposition",
      "outputs": [
        {
          "internalType": "uint8",
          "name": "",
          "type": "uint8"
        }
      ],
      "stateMutability": "view",
      "type": "function"
    },
    {
      "inputs": [],
      "name": "getFees",
      "outputs": [
        {
          "internalType": "uint8",
          "name": "",
          "type": "uint8"
        }
      ],
      "stateMutability": "nonpayable",
      "type": "function"
    },
    {
      "inputs": [],
      "name": "getGMX_controller",
      "outputs": [
        {
          "internalType": "address",
          "name": "",
          "type": "address"
        }
      ],
      "stateMutability": "view",
      "type": "function"
    },
    {
      "inputs": [],
      "name": "getNetAssetValue",
      "outputs": [
        {
          "internalType": "uint256",
          "name": "",
          "type": "uint256"
        }
      ],
      "stateMutability": "view",
      "type": "function"
    },
    {
      "inputs": [],
      "name": "gmxVault",
      "outputs": [
        {
          "internalType": "address",
          "name": "",
          "type": "address"
        }
      ],
      "stateMutability": "view",
      "type": "function"
    },
    {
      "inputs": [
        {
          "internalType": "address",
          "name": "spender",
          "type": "address"
        },
        {
          "internalType": "uint256",
          "name": "addedValue",
          "type": "uint256"
        }
      ],
      "name": "increaseAllowance",
      "outputs": [
        {
          "internalType": "bool",
          "name": "",
          "type": "bool"
        }
      ],
      "stateMutability": "nonpayable",
      "type": "function"
    },
    {
      "inputs": [
        {
          "internalType": "address",
          "name": "tokenAddress",
          "type": "address"
        }
      ],
      "name": "isAccepted",
      "outputs": [
        {
          "internalType": "bool",
          "name": "",
          "type": "bool"
        }
      ],
      "stateMutability": "view",
      "type": "function"
    },
    {
      "inputs": [],
      "name": "liquidatePositions",
      "outputs": [],
      "stateMutability": "payable",
      "type": "function"
    },
    {
      "inputs": [],
      "name": "name",
      "outputs": [
        {
          "internalType": "string",
          "name": "",
          "type": "string"
        }
      ],
      "stateMutability": "view",
      "type": "function"
    },
    {
      "inputs": [],
      "name": "netAssetValue",
      "outputs": [
        {
          "internalType": "uint256",
          "name": "",
          "type": "uint256"
        }
      ],
      "stateMutability": "view",
      "type": "function"
    },
    {
      "inputs": [],
      "name": "openPosition",
      "outputs": [],
      "stateMutability": "payable",
      "type": "function"
    },
    {
      "inputs": [],
      "name": "owner",
      "outputs": [
        {
          "internalType": "address",
          "name": "",
          "type": "address"
        }
      ],
      "stateMutability": "view",
      "type": "function"
    },
    {
      "inputs": [
        {
          "internalType": "address",
          "name": "tokenAddress",
          "type": "address"
        }
      ],
      "name": "removeToken",
      "outputs": [],
      "stateMutability": "nonpayable",
      "type": "function"
    },
    {
      "inputs": [],
      "name": "renounceOwnership",
      "outputs": [],
      "stateMutability": "nonpayable",
      "type": "function"
    },
    {
      "inputs": [
        {
          "internalType": "uint8",
          "name": "_exposition",
          "type": "uint8"
        }
      ],
      "name": "setExposition",
      "outputs": [],
      "stateMutability": "nonpayable",
      "type": "function"
    },
    {
      "inputs": [
        {
          "internalType": "uint8",
          "name": "_fees",
          "type": "uint8"
        }
      ],
      "name": "setFees",
      "outputs": [],
      "stateMutability": "nonpayable",
      "type": "function"
    },
    {
      "inputs": [
        {
          "internalType": "address",
          "name": "_addr",
          "type": "address"
        }
      ],
      "name": "setGMX_controller",
      "outputs": [],
      "stateMutability": "nonpayable",
      "type": "function"
    },
    {
      "inputs": [],
      "name": "symbol",
      "outputs": [
        {
          "internalType": "string",
          "name": "",
          "type": "string"
        }
      ],
      "stateMutability": "view",
      "type": "function"
    },
    {
      "inputs": [
        {
          "internalType": "address",
          "name": "",
          "type": "address"
        }
      ],
      "name": "tokenAccepted",
      "outputs": [
        {
          "internalType": "bool",
          "name": "",
          "type": "bool"
        }
      ],
      "stateMutability": "view",
      "type": "function"
    },
    {
      "inputs": [],
      "name": "totalSupply",
      "outputs": [
        {
          "internalType": "uint256",
          "name": "",
          "type": "uint256"
        }
      ],
      "stateMutability": "view",
      "type": "function"
    },
    {
      "inputs": [
        {
          "internalType": "address",
          "name": "to",
          "type": "address"
        },
        {
          "internalType": "uint256",
          "name": "amount",
          "type": "uint256"
        }
      ],
      "name": "transfer",
      "outputs": [
        {
          "internalType": "bool",
          "name": "",
          "type": "bool"
        }
      ],
      "stateMutability": "nonpayable",
      "type": "function"
    },
    {
      "inputs": [
        {
          "internalType": "address",
          "name": "from",
          "type": "address"
        },
        {
          "internalType": "address",
          "name": "to",
          "type": "address"
        },
        {
          "internalType": "uint256",
          "name": "amount",
          "type": "uint256"
        }
      ],
      "name": "transferFrom",
      "outputs": [
        {
          "internalType": "bool",
          "name": "",
          "type": "bool"
        }
      ],
      "stateMutability": "nonpayable",
      "type": "function"
    },
    {
      "inputs": [
        {
          "internalType": "address",
          "name": "newOwner",
          "type": "address"
        }
      ],
      "name": "transferOwnership",
      "outputs": [],
      "stateMutability": "nonpayable",
      "type": "function"
    },
    {
      "inputs": [],
      "name": "updateNetAssetValue",
      "outputs": [],
      "stateMutability": "nonpayable",
      "type": "function"
    },
    {
      "inputs": [
        {
          "internalType": "uint256",
          "name": "_amount",
          "type": "uint256"
        }
      ],
      "name": "withdraw",
      "outputs": [],
      "stateMutability": "payable",
      "type": "function"
    }
  ],
  "transactionHash": "0x27672ef9dbfabbcdc4194989cb0f89574eb928049bbdd1c53d8753bd29ef80b0",
  "args": [],
  "numDeployments": 1,
  "solcInputHash": "5f1e37465eb649c31ee6ad39a7462c03",
  "bytecode": "0x6080604052600780546001600160a01b03199081167382af49447d8a07e3bd95bd0d56f35241523fbab11790915560088054821673ff970a61a04b1ca14834a43f5de4533ebddb5cc81790556009805490911673489ee077994b6658eafa855c308275ead8097c4a1790553480156200007757600080fd5b5060405180604001604052806008815260200167506f6c79706c757360c01b815250604051806040016040528060038152602001620504c560ec1b815250620000cf620000c96200010660201b60201c565b6200010a565b6004620000dd8382620001ff565b506005620000ec8282620001ff565b5050600b80546001600a5562ff00ff1916905550620002cb565b3390565b600080546001600160a01b038381166001600160a01b0319831681178455604051919092169283917f8be0079c531659141344cd1fd0a4f28419497f9722a3daafe3b4186f6b6457e09190a35050565b634e487b7160e01b600052604160045260246000fd5b600181811c908216806200018557607f821691505b602082108103620001a657634e487b7160e01b600052602260045260246000fd5b50919050565b601f821115620001fa57600081815260208120601f850160051c81016020861015620001d55750805b601f850160051c820191505b81811015620001f657828155600101620001e1565b5050505b505050565b81516001600160401b038111156200021b576200021b6200015a565b62000233816200022c845462000170565b84620001ac565b602080601f8311600181146200026b5760008415620002525750858301515b600019600386901b1c1916600185901b178555620001f6565b600085815260208120601f198616915b828110156200029c578886015182559484019460019091019084016200027b565b5085821015620002bb5787850151600019600388901b60f8161c191681555b5050505050600190811b01905550565b6123cc80620002db6000396000f3fe6080604052600436106101ea5760003560e01c8063715018a611610113578063a9059cbb116100ab578063dd62ed3e1161006f578063dd62ed3e146105bd578063de9257cd146105dd578063e6f091f9146105f5578063ed61f4a11461062e578063f2fde38b1461064357600080fd5b8063a9059cbb14610510578063ad5c464814610530578063aedf795e14610550578063b3b3453e14610580578063db8d55f1146105a057600080fd5b8063715018a61461041357806389a30271146104285780638cd3f064146104485780638da5cb5b1461046857806395d89b41146104865780639af1d35a1461049b5780639ecbfa42146104ba578063a3673b38146104da578063a457c2d7146104f057600080fd5b8063350245c211610186578063350245c214610325578063395093511461032d57806347e7ef241461034d578063481d6ee9146103605780635fa7b584146103805780636639a81d146103a05780636780a7d4146103b5578063701812a7146103bd57806370a08231146103dd57600080fd5b80630677a2a5146101ef57806306fdde031461021f578063095ea7b31461024157806311af7d951461027157806318160ddd146102935780631cd2f7c8146102b257806323b872dd146102de5780632e1a7d4d146102fe578063313ce56714610311575b600080fd5b3480156101fb57600080fd5b506006546001600160a01b03165b6040516102169190611fc1565b60405180910390f35b34801561022b57600080fd5b50610234610663565b6040516102169190611fd5565b34801561024d57600080fd5b5061026161025c36600461203f565b6106f5565b6040519015158152602001610216565b34801561027d57600080fd5b5061029161028c366004612069565b61070f565b005b34801561029f57600080fd5b506003545b604051908152602001610216565b3480156102be57600080fd5b50600b546102cc9060ff1681565b60405160ff9091168152602001610216565b3480156102ea57600080fd5b506102616102f936600461208b565b61074b565b61029161030c3660046120c7565b61076f565b34801561031d57600080fd5b5060126102cc565b610291610acf565b34801561033957600080fd5b5061026161034836600461203f565b610cde565b61029161035b36600461203f565b610d00565b34801561036c57600080fd5b5061029161037b3660046120e0565b611101565b34801561038c57600080fd5b5061029161039b366004612069565b61125c565b3480156103ac57600080fd5b50600a546102a4565b61029161131d565b3480156103c957600080fd5b506102916103d83660046120e0565b6113a1565b3480156103e957600080fd5b506102a46103f8366004612069565b6001600160a01b031660009081526001602052604090205490565b34801561041f57600080fd5b506102916113c5565b34801561043457600080fd5b50600854610209906001600160a01b031681565b34801561045457600080fd5b50610291610463366004612069565b6113d9565b34801561047457600080fd5b506000546001600160a01b0316610209565b34801561049257600080fd5b50610234611493565b3480156104a757600080fd5b50600b546102cc90610100900460ff1681565b3480156104c657600080fd5b50600654610209906001600160a01b031681565b3480156104e657600080fd5b506102a4600a5481565b3480156104fc57600080fd5b5061026161050b36600461203f565b6114a2565b34801561051c57600080fd5b5061026161052b36600461203f565b61151d565b34801561053c57600080fd5b50600754610209906001600160a01b031681565b34801561055c57600080fd5b5061026161056b366004612069565b600c6020526000908152604090205460ff1681565b34801561058c57600080fd5b50600954610209906001600160a01b031681565b3480156105ac57600080fd5b50600b54610100900460ff166102cc565b3480156105c957600080fd5b506102a46105d8366004612103565b61152b565b3480156105e957600080fd5b50600b5460ff166102cc565b34801561060157600080fd5b50610261610610366004612069565b6001600160a01b03166000908152600c602052604090205460ff1690565b34801561063a57600080fd5b50610291611556565b34801561064f57600080fd5b5061029161065e366004612069565b611593565b60606004805461067290612136565b80601f016020809104026020016040519081016040528092919081815260200182805461069e90612136565b80156106eb5780601f106106c0576101008083540402835291602001916106eb565b820191906000526020600020905b8154815290600101906020018083116106ce57829003601f168201915b5050505050905090565b60003361070381858561160c565b60019150505b92915050565b610717611731565b600680546001600160a01b039092166001600160a01b0319909216919091179055600b805462ff0000191662010000179055565b60003361075985828561178b565b610764858585611805565b506001949350505050565b6000811161077c57600080fd5b6040516370a0823160e01b8152819030906370a08231906107a1903390600401611fc1565b602060405180830381865afa1580156107be573d6000803e3d6000fd5b505050506040513d601f19601f820116820180604052508101906107e29190612170565b101561085b5760405162461bcd60e51b815260206004820152603a60248201527f53757270726973696e676c7920796f752063616e6e6f7420776974686472617760448201527f20746f6b656e20796f752068617665206e6f7420626f7567687400000000000060648201526084015b60405180910390fd5b61086361199e565b6000306001600160a01b03166318160ddd6040518163ffffffff1660e01b8152600401602060405180830381865afa1580156108a3573d6000803e3d6000fd5b505050506040513d601f19601f820116820180604052508101906108c79190612170565b600a546108d4919061219f565b90506108e03383611da8565b60006108ed60648461219f565b6108f790846121c1565b600b5490915060ff16600003610989576008546001600160a01b031663a9059cbb3361092385876121d4565b6040518363ffffffff1660e01b81526004016109409291906121eb565b6020604051808303816000875af115801561095f573d6000803e3d6000fd5b505050506040513d601f19601f820116820180604052508101906109839190612214565b50610a87565b600b5460ff16600103610a0a576006546001600160a01b031663c5dac33b34336109b386866121d4565b60016040518563ffffffff1660e01b81526004016109d39392919061222f565b6000604051808303818588803b1580156109ec57600080fd5b505af1158015610a00573d6000803e3d6000fd5b5050505050610a87565b600b5460ff16600203610a87576006546001600160a01b031663c5dac33b3433610a3486866121d4565b60006040518563ffffffff1660e01b8152600401610a549392919061222f565b6000604051808303818588803b158015610a6d57600080fd5b505af1158015610a81573d6000803e3d6000fd5b50505050505b604080514281526020810185905290810183905233907f55b6b6c484caa4fe51b6b82b0531afe069b1c2d151713cc6d9746b6db96986419060600160405180910390a2505050565b610ad7611731565b600b5462010000900460ff161515600114610b045760405162461bcd60e51b815260040161085290612252565b600b5460009060ff16600114610b1b576000610b1e565b60015b6008546006546040516370a0823160e01b81529293506001600160a01b039182169263095ea7b3929091169083906370a0823190610b60903090600401611fc1565b602060405180830381865afa158015610b7d573d6000803e3d6000fd5b505050506040513d601f19601f82011682018060405250810190610ba19190612170565b6040518363ffffffff1660e01b8152600401610bbe9291906121eb565b6020604051808303816000875af1158015610bdd573d6000803e3d6000fd5b505050506040513d601f19601f82011682018060405250810190610c019190612214565b506006546008546040516370a0823160e01b81526001600160a01b0392831692631c5ecc069234929116906370a0823190610c40903090600401611fc1565b602060405180830381865afa158015610c5d573d6000803e3d6000fd5b505050506040513d601f19601f82011682018060405250810190610c819190612170565b6040516001600160e01b031960e085901b168152600481019190915284151560248201526044015b6000604051808303818588803b158015610cc257600080fd5b505af1158015610cd6573d6000803e3d6000fd5b505050505050565b600033610703818585610cf1838361152b565b610cfb91906122a7565b61160c565b6001600160a01b0382166000908152600c602052604090205460ff16610d625760405162461bcd60e51b8152602060048201526017602482015276151bdad95b881b9bdd081e595d081cdd5c1c1bdc9d1959604a1b6044820152606401610852565b60008111610db25760405162461bcd60e51b815260206004820152601e60248201527f416d6f756e7420746f206465706f736974206973206d616e6461746f727900006044820152606401610852565b6000610dbf60648361219f565b610dc990836121c1565b90506000306001600160a01b03166318160ddd6040518163ffffffff1660e01b8152600401602060405180830381865afa158015610e0b573d6000803e3d6000fd5b505050506040513d601f19601f82011682018060405250810190610e2f9190612170565b600003610e3d575081610ec1565b610e4561199e565b600a54306001600160a01b03166318160ddd6040518163ffffffff1660e01b8152600401602060405180830381865afa158015610e86573d6000803e3d6000fd5b505050506040513d601f19601f82011682018060405250810190610eaa9190612170565b610eb490846121d4565b610ebe919061219f565b90505b610ecb3382611ec2565b6040516323b872dd60e01b8152336004820152306024820152604481018490526001600160a01b038516906323b872dd906064016020604051808303816000875af1158015610f1e573d6000803e3d6000fd5b505050506040513d601f19601f82011682018060405250810190610f429190612214565b5060065460405163095ea7b360e01b81526001600160a01b038681169263095ea7b392610f77929091169087906004016121eb565b6020604051808303816000875af1158015610f96573d6000803e3d6000fd5b505050506040513d601f19601f82011682018060405250810190610fba9190612214565b50600b5460ff1660010361103457600654604051630e2f660360e11b815260048101859052600160248201526001600160a01b0390911690631c5ecc069034906044016000604051808303818588803b15801561101657600080fd5b505af115801561102a573d6000803e3d6000fd5b50505050506110a9565b600b5460ff166002036110a957600654604051630e2f660360e11b815260048101859052600060248201526001600160a01b0390911690631c5ecc069034906044016000604051808303818588803b15801561108f57600080fd5b505af11580156110a3573d6000803e3d6000fd5b50505050505b604080514281526001600160a01b03861660208201529081018490526060810182905233907fc43285a6e98e6524bf49b1c1bdda72f38b968b31d2861d4422c0716e89b131819060800160405180910390a250505050565b611109611731565b60ff8116158061111c57508060ff166001145b8061112a57508060ff166002145b6111955760405162461bcd60e51b815260206004820152603660248201527f56616c7565206d757374206265203020666f72206e65757472616c2c203120666044820152751bdc88131bdb99c81bdc880c88199bdc8814da1bdc9d60521b6064820152608401610852565b600b5460ff8083169116036112005760405162461bcd60e51b815260206004820152602b60248201527f52657665727465642062656361757365206578706f736974696f6e206861732060448201526a1b9bdd0818da185b99d95960aa1b6064820152608401610852565b600b805460ff19811660ff84811691821790935560408051428152939092166020840181905291830152907ffa0731d6f72a8f51cd2381cdd6778ccea1323c89d9b49a780eb07d809e4ce1699060600160405180910390a15050565b611264611731565b6001600160a01b0381166000908152600c602052604090205460ff166112c25760405162461bcd60e51b8152602060048201526013602482015272151bdad95b881b9bdd081e595d081859191959606a1b6044820152606401610852565b6001600160a01b0381166000908152600c602052604090819020805460ff19169055517f4c910b69fe65a61f7531b9c5042b2329ca7179c77290aa7e2eb3afa3c8511fd390611312908390611fc1565b60405180910390a150565b611325611731565b600b5462010000900460ff1615156001146113525760405162461bcd60e51b815260040161085290612252565b600b5460009060ff1660011461136957600061136c565b60015b600654604051637cb1759760e01b815282151560048201529192506001600160a01b031690637cb17597903490602401610ca9565b6113a9611731565b600b805460ff9092166101000261ff0019909216919091179055565b6113cd611731565b6113d76000611f71565b565b6113e1611731565b6001600160a01b0381166000908152600c602052604090205460ff16156114405760405162461bcd60e51b8152602060048201526013602482015272151bdad95b88185b1c9958591e481859191959606a1b6044820152606401610852565b6001600160a01b0381166000908152600c602052604090819020805460ff19166001179055517fae340411f33c346ae24187433a8df6e508be40cf0deb3949d51cea12df7fa02190611312908390611fc1565b60606005805461067290612136565b600033816114b0828661152b565b9050838110156115105760405162461bcd60e51b815260206004820152602560248201527f45524332303a2064656372656173656420616c6c6f77616e63652062656c6f77604482015264207a65726f60d81b6064820152608401610852565b610764828686840361160c565b600033610703818585611805565b6001600160a01b03918216600090815260026020908152604080832093909416825291909152205490565b61155e611731565b600b5462010000900460ff16151560011461158b5760405162461bcd60e51b815260040161085290612252565b6113d761199e565b61159b611731565b6001600160a01b0381166116005760405162461bcd60e51b815260206004820152602660248201527f4f776e61626c653a206e6577206f776e657220697320746865207a65726f206160448201526564647265737360d01b6064820152608401610852565b61160981611f71565b50565b6001600160a01b03831661166e5760405162461bcd60e51b8152602060048201526024808201527f45524332303a20617070726f76652066726f6d20746865207a65726f206164646044820152637265737360e01b6064820152608401610852565b6001600160a01b0382166116cf5760405162461bcd60e51b815260206004820152602260248201527f45524332303a20617070726f766520746f20746865207a65726f206164647265604482015261737360f01b6064820152608401610852565b6001600160a01b0383811660008181526002602090815260408083209487168084529482529182902085905590518481527f8c5be1e5ebec7d5bd14f71427d1e84f3dd0314c0f7b2291e5b200ac8c7c3b92591015b60405180910390a3505050565b6000546001600160a01b031633146113d75760405162461bcd60e51b815260206004820181905260248201527f4f776e61626c653a2063616c6c6572206973206e6f7420746865206f776e65726044820152606401610852565b6000611797848461152b565b905060001981146117ff57818110156117f25760405162461bcd60e51b815260206004820152601d60248201527f45524332303a20696e73756666696369656e7420616c6c6f77616e63650000006044820152606401610852565b6117ff848484840361160c565b50505050565b6001600160a01b0383166118695760405162461bcd60e51b815260206004820152602560248201527f45524332303a207472616e736665722066726f6d20746865207a65726f206164604482015264647265737360d81b6064820152608401610852565b6001600160a01b0382166118cb5760405162461bcd60e51b815260206004820152602360248201527f45524332303a207472616e7366657220746f20746865207a65726f206164647260448201526265737360e81b6064820152608401610852565b6001600160a01b038316600090815260016020526040902054818110156119435760405162461bcd60e51b815260206004820152602660248201527f45524332303a207472616e7366657220616d6f756e7420657863656564732062604482015265616c616e636560d01b6064820152608401610852565b6001600160a01b038085166000818152600160205260408082208686039055928616808252908390208054860190559151600080516020612377833981519152906119919086815260200190565b60405180910390a36117ff565b600a546008546040516370a0823160e01b8152600091829182916001600160a01b0316906370a08231906119d6903090600401611fc1565b602060405180830381865afa1580156119f3573d6000803e3d6000fd5b505050506040513d601f19601f82011682018060405250810190611a179190612170565b600954600654600754604051634a3f088d60e01b81529394506000936001600160a01b0393841693634a3f088d93611a5d939082169291169081906001906004016122ba565b610100604051808303816000875af1158015611a7d573d6000803e3d6000fd5b505050506040513d601f19601f82011682018060405250810190611aa191906122e4565b5050505050509150506000811115611b395760095460065460075460405163045a6f3760e41b81526001600160a01b03938416936345a6f37093611af3939082169291169081906001906004016122ba565b60408051808303816000875af1158015611b11573d6000803e3d6000fd5b505050506040513d601f19601f82011682018060405250810190611b35919061234a565b9450505b600069d3c21bcecceda1000000611b5086846122a7565b611b5a919061219f565b600954600654600854600754604051634a3f088d60e01b81529495506000946001600160a01b0394851694634a3f088d94611ba494908216939082169291169087906004016122ba565b610100604051808303816000875af1158015611bc4573d6000803e3d6000fd5b505050506040513d601f19601f82011682018060405250810190611be891906122e4565b5050505050509150506000811115611c855760095460065460085460075460405163045a6f3760e41b81526001600160a01b03948516946345a6f37094611c3f9490821693908216929116906000906004016122ba565b60408051808303816000875af1158015611c5d573d6000803e3d6000fd5b505050506040513d601f19601f82011682018060405250810190611c81919061234a565b9550505b600069d3c21bcecceda1000000611c9c87846121c1565b611ca6919061219f565b905080611cb384876122a7565b611cbd91906122a7565b600a819055507f059d0701380a5813cc605b68bc8aae0c943d3aecbfa3d35e11f8396e056eb6cc42600b60009054906101000a900460ff168a600a54898887306001600160a01b03166318160ddd6040518163ffffffff1660e01b8152600401602060405180830381865afa158015611d3a573d6000803e3d6000fd5b505050506040513d601f19601f82011682018060405250810190611d5e9190612170565b6040805198895260ff9097166020890152958701949094526060860192909252608085015260a084015260c083015260e08201526101000160405180910390a15050505050505050565b6001600160a01b038216611e085760405162461bcd60e51b815260206004820152602160248201527f45524332303a206275726e2066726f6d20746865207a65726f206164647265736044820152607360f81b6064820152608401610852565b6001600160a01b03821660009081526001602052604090205481811015611e7c5760405162461bcd60e51b815260206004820152602260248201527f45524332303a206275726e20616d6f756e7420657863656564732062616c616e604482015261636560f01b6064820152608401610852565b6001600160a01b03831660008181526001602090815260408083208686039055600380548790039055518581529192916000805160206123778339815191529101611724565b6001600160a01b038216611f185760405162461bcd60e51b815260206004820152601f60248201527f45524332303a206d696e7420746f20746865207a65726f2061646472657373006044820152606401610852565b8060036000828254611f2a91906122a7565b90915550506001600160a01b038216600081815260016020908152604080832080548601905551848152600080516020612377833981519152910160405180910390a35050565b600080546001600160a01b038381166001600160a01b0319831681178455604051919092169283917f8be0079c531659141344cd1fd0a4f28419497f9722a3daafe3b4186f6b6457e09190a35050565b6001600160a01b0391909116815260200190565b600060208083528351808285015260005b8181101561200257858101830151858201604001528201611fe6565b506000604082860101526040601f19601f8301168501019250505092915050565b80356001600160a01b038116811461203a57600080fd5b919050565b6000806040838503121561205257600080fd5b61205b83612023565b946020939093013593505050565b60006020828403121561207b57600080fd5b61208482612023565b9392505050565b6000806000606084860312156120a057600080fd5b6120a984612023565b92506120b760208501612023565b9150604084013590509250925092565b6000602082840312156120d957600080fd5b5035919050565b6000602082840312156120f257600080fd5b813560ff8116811461208457600080fd5b6000806040838503121561211657600080fd5b61211f83612023565b915061212d60208401612023565b90509250929050565b600181811c9082168061214a57607f821691505b60208210810361216a57634e487b7160e01b600052602260045260246000fd5b50919050565b60006020828403121561218257600080fd5b5051919050565b634e487b7160e01b600052601160045260246000fd5b6000826121bc57634e487b7160e01b600052601260045260246000fd5b500490565b8181038181111561070957610709612189565b808202811582820484141761070957610709612189565b6001600160a01b03929092168252602082015260400190565b8051801515811461203a57600080fd5b60006020828403121561222657600080fd5b61208482612204565b6001600160a01b0393909316835260208301919091521515604082015260600190565b60208082526035908201527f4e6f7420696e697469616c697a65642c20666972737420796f752068617665206040820152743a379039b2ba1023a6ac1031b7b73a3937b63632b960591b606082015260800190565b8082018082111561070957610709612189565b6001600160a01b039485168152928416602084015292166040820152901515606082015260800190565b600080600080600080600080610100898b03121561230157600080fd5b885197506020890151965060408901519550606089015194506080890151935060a0890151925061233460c08a01612204565b915060e089015190509295985092959890939650565b6000806040838503121561235d57600080fd5b61236683612204565b915060208301519050925092905056feddf252ad1be2c89b69c2b068fc378daa952ba7f163c4a11628f55a4df523b3efa2646970667358221220dc945bb2a7efbcf0ceabd76dcb95349e999682519eca18f1004b3b0212c40ac464736f6c63430008110033",
  "devdoc": {
    "kind": "dev",
    "methods": {
      "acceptToken(address)": {
        "details": "until now, only USDC deposit are handled",
        "params": {
          "tokenAddress": "arbitrum address of the ERC20 token"
        }
      },
      "allowance(address,address)": {
        "details": "See {IERC20-allowance}."
      },
      "approve(address,uint256)": {
        "details": "See {IERC20-approve}. NOTE: If `amount` is the maximum `uint256`, the allowance is not updated on `transferFrom`. This is semantically equivalent to an infinite approval. Requirements: - `spender` cannot be the zero address."
      },
      "balanceOf(address)": {
        "details": "See {IERC20-balanceOf}."
      },
      "decimals()": {
        "details": "Returns the number of decimals used to get its user representation. For example, if `decimals` equals `2`, a balance of `505` tokens should be displayed to a user as `5.05` (`505 / 10 ** 2`). Tokens usually opt for a value of 18, imitating the relationship between Ether and Wei. This is the value {ERC20} uses, unless this function is overridden; NOTE: This information is only used for _display_ purposes: it in no way affects any of the arithmetic of the contract, including {IERC20-balanceOf} and {IERC20-transfer}."
      },
      "decreaseAllowance(address,uint256)": {
        "details": "Atomically decreases the allowance granted to `spender` by the caller. This is an alternative to {approve} that can be used as a mitigation for problems described in {IERC20-approve}. Emits an {Approval} event indicating the updated allowance. Requirements: - `spender` cannot be the zero address. - `spender` must have allowance for the caller of at least `subtractedValue`."
      },
      "increaseAllowance(address,uint256)": {
        "details": "Atomically increases the allowance granted to `spender` by the caller. This is an alternative to {approve} that can be used as a mitigation for problems described in {IERC20-approve}. Emits an {Approval} event indicating the updated allowance. Requirements: - `spender` cannot be the zero address."
      },
      "name()": {
        "details": "Returns the name of the token."
      },
      "owner()": {
        "details": "Returns the address of the current owner."
      },
      "renounceOwnership()": {
        "details": "Leaves the contract without owner. It will not be possible to call `onlyOwner` functions anymore. Can only be called by the current owner. NOTE: Renouncing ownership will leave the contract without an owner, thereby removing any functionality that is only available to the owner."
      },
      "setExposition(uint8)": {
        "details": "only the owner can call this function",
        "params": {
          "_exposition": "0 for neutral | 1 Long | 2 Short"
        }
      },
      "setGMX_controller(address)": {
        "details": "only the owner can call this function",
        "params": {
          "_addr": "address of the controller to add"
        }
      },
      "symbol()": {
        "details": "Returns the symbol of the token, usually a shorter version of the name."
      },
      "totalSupply()": {
        "details": "See {IERC20-totalSupply}."
      },
      "transfer(address,uint256)": {
        "details": "See {IERC20-transfer}. Requirements: - `to` cannot be the zero address. - the caller must have a balance of at least `amount`."
      },
      "transferFrom(address,address,uint256)": {
        "details": "See {IERC20-transferFrom}. Emits an {Approval} event indicating the updated allowance. This is not required by the EIP. See the note at the beginning of {ERC20}. NOTE: Does not update the allowance if the current allowance is the maximum `uint256`. Requirements: - `from` and `to` cannot be the zero address. - `from` must have a balance of at least `amount`. - the caller must have allowance for ``from``'s tokens of at least `amount`."
      },
      "transferOwnership(address)": {
        "details": "Transfers ownership of the contract to a new account (`newOwner`). Can only be called by the current owner."
      }
    },
    "version": 1
  },
  "userdoc": {
    "kind": "user",
    "methods": {
      "acceptToken(address)": {
        "notice": "whitelist the token accepted in the vault, allow a better control"
      },
      "deposit(address,uint256)": {
        "notice": "function for depositing ana ccepted token on the vault token address to deposit [to implement later]"
      },
      "setExposition(uint8)": {
        "notice": "function that sets the exposition of the contract (Long Short or Neutral and rebalance assets accordingly)"
      },
      "setGMX_controller(address)": {
        "notice": "function that sets the exposition of the contract (Long Short or Neutral and rebalance assets accordingly)"
      }
    },
    "notice": "Arbitrum project",
    "version": 1
  },
  "storageLayout": {
    "storage": [
      {
        "astId": 10658,
        "contract": "contracts/MyVault.sol:MyVault",
        "label": "_owner",
        "offset": 0,
        "slot": "0",
        "type": "t_address"
      },
      {
        "astId": 10779,
        "contract": "contracts/MyVault.sol:MyVault",
        "label": "_balances",
        "offset": 0,
        "slot": "1",
        "type": "t_mapping(t_address,t_uint256)"
      },
      {
        "astId": 10785,
        "contract": "contracts/MyVault.sol:MyVault",
        "label": "_allowances",
        "offset": 0,
        "slot": "2",
        "type": "t_mapping(t_address,t_mapping(t_address,t_uint256))"
      },
      {
        "astId": 10787,
        "contract": "contracts/MyVault.sol:MyVault",
        "label": "_totalSupply",
        "offset": 0,
        "slot": "3",
        "type": "t_uint256"
      },
      {
        "astId": 10789,
        "contract": "contracts/MyVault.sol:MyVault",
        "label": "_name",
        "offset": 0,
        "slot": "4",
        "type": "t_string_storage"
      },
      {
        "astId": 10791,
        "contract": "contracts/MyVault.sol:MyVault",
        "label": "_symbol",
        "offset": 0,
        "slot": "5",
        "type": "t_string_storage"
      },
      {
        "astId": 1707,
        "contract": "contracts/MyVault.sol:MyVault",
        "label": "GMX_controller",
        "offset": 0,
        "slot": "6",
        "type": "t_address"
      },
      {
        "astId": 1710,
        "contract": "contracts/MyVault.sol:MyVault",
        "label": "WETH",
        "offset": 0,
        "slot": "7",
        "type": "t_address"
      },
      {
        "astId": 1713,
        "contract": "contracts/MyVault.sol:MyVault",
        "label": "USDC",
        "offset": 0,
        "slot": "8",
        "type": "t_address"
      },
      {
        "astId": 1716,
        "contract": "contracts/MyVault.sol:MyVault",
        "label": "gmxVault",
        "offset": 0,
        "slot": "9",
        "type": "t_address"
      },
      {
        "astId": 1718,
        "contract": "contracts/MyVault.sol:MyVault",
        "label": "netAssetValue",
        "offset": 0,
        "slot": "10",
        "type": "t_uint256"
      },
      {
        "astId": 1720,
        "contract": "contracts/MyVault.sol:MyVault",
        "label": "exposition",
        "offset": 0,
        "slot": "11",
        "type": "t_uint8"
      },
      {
        "astId": 1722,
        "contract": "contracts/MyVault.sol:MyVault",
        "label": "fees",
        "offset": 1,
        "slot": "11",
        "type": "t_uint8"
      },
      {
        "astId": 1724,
        "contract": "contracts/MyVault.sol:MyVault",
        "label": "isInit",
        "offset": 2,
        "slot": "11",
        "type": "t_bool"
      },
      {
        "astId": 1728,
        "contract": "contracts/MyVault.sol:MyVault",
        "label": "tokenAccepted",
        "offset": 0,
        "slot": "12",
        "type": "t_mapping(t_address,t_bool)"
      }
    ],
    "types": {
      "t_address": {
        "encoding": "inplace",
        "label": "address",
        "numberOfBytes": "20"
      },
      "t_bool": {
        "encoding": "inplace",
        "label": "bool",
        "numberOfBytes": "1"
      },
      "t_mapping(t_address,t_bool)": {
        "encoding": "mapping",
        "key": "t_address",
        "label": "mapping(address => bool)",
        "numberOfBytes": "32",
        "value": "t_bool"
      },
      "t_mapping(t_address,t_mapping(t_address,t_uint256))": {
        "encoding": "mapping",
        "key": "t_address",
        "label": "mapping(address => mapping(address => uint256))",
        "numberOfBytes": "32",
        "value": "t_mapping(t_address,t_uint256)"
      },
      "t_mapping(t_address,t_uint256)": {
        "encoding": "mapping",
        "key": "t_address",
        "label": "mapping(address => uint256)",
        "numberOfBytes": "32",
        "value": "t_uint256"
      },
      "t_string_storage": {
        "encoding": "bytes",
        "label": "string",
        "numberOfBytes": "32"
      },
      "t_uint256": {
        "encoding": "inplace",
        "label": "uint256",
        "numberOfBytes": "32"
      },
      "t_uint8": {
        "encoding": "inplace",
        "label": "uint8",
        "numberOfBytes": "1"
      }
    }
  }
}