{
  "address": "0x95401dc811bb5740090279Ba06cfA8fcF6113778",
  "abi": [
    {
      "inputs": [],
      "stateMutability": "nonpayable",
      "type": "constructor"
    },
    {
      "anonymous": false,
      "inputs": [
        {
          "indexed": true,
          "internalType": "address",
          "name": "owner",
          "type": "address"
        },
        {
          "indexed": true,
          "internalType": "address",
          "name": "spender",
          "type": "address"
        },
        {
          "indexed": false,
          "internalType": "uint256",
          "name": "value",
          "type": "uint256"
        }
      ],
      "name": "Approval",
      "type": "event"
    },
    {
      "anonymous": false,
      "inputs": [
        {
          "indexed": false,
          "internalType": "address",
          "name": "tokenAddress",
          "type": "address"
        }
      ],
      "name": "NewTokenAdded",
      "type": "event"
    },
    {
      "anonymous": false,
      "inputs": [
        {
          "indexed": true,
          "internalType": "address",
          "name": "previousOwner",
          "type": "address"
        },
        {
          "indexed": true,
          "internalType": "address",
          "name": "newOwner",
          "type": "address"
        }
      ],
      "name": "OwnershipTransferred",
      "type": "event"
    },
    {
      "anonymous": false,
      "inputs": [
        {
          "indexed": false,
          "internalType": "address",
          "name": "tokenAddress",
          "type": "address"
        }
      ],
      "name": "TokenRemoved",
      "type": "event"
    },
    {
      "anonymous": false,
      "inputs": [
        {
          "indexed": true,
          "internalType": "address",
          "name": "from",
          "type": "address"
        },
        {
          "indexed": true,
          "internalType": "address",
          "name": "to",
          "type": "address"
        },
        {
          "indexed": false,
          "internalType": "uint256",
          "name": "value",
          "type": "uint256"
        }
      ],
      "name": "Transfer",
      "type": "event"
    },
    {
      "inputs": [],
      "name": "GMX_controller",
      "outputs": [
        {
          "internalType": "address",
          "name": "",
          "type": "address"
        }
      ],
      "stateMutability": "view",
      "type": "function"
    },
    {
      "inputs": [],
      "name": "USDC",
      "outputs": [
        {
          "internalType": "address",
          "name": "",
          "type": "address"
        }
      ],
      "stateMutability": "view",
      "type": "function"
    },
    {
      "inputs": [],
      "name": "WETH",
      "outputs": [
        {
          "internalType": "address",
          "name": "",
          "type": "address"
        }
      ],
      "stateMutability": "view",
      "type": "function"
    },
    {
      "inputs": [
        {
          "internalType": "address",
          "name": "tokenAddress",
          "type": "address"
        }
      ],
      "name": "acceptToken",
      "outputs": [],
      "stateMutability": "nonpayable",
      "type": "function"
    },
    {
      "inputs": [
        {
          "internalType": "address",
          "name": "owner",
          "type": "address"
        },
        {
          "internalType": "address",
          "name": "spender",
          "type": "address"
        }
      ],
      "name": "allowance",
      "outputs": [
        {
          "internalType": "uint256",
          "name": "",
          "type": "uint256"
        }
      ],
      "stateMutability": "view",
      "type": "function"
    },
    {
      "inputs": [
        {
          "internalType": "address",
          "name": "spender",
          "type": "address"
        },
        {
          "internalType": "uint256",
          "name": "amount",
          "type": "uint256"
        }
      ],
      "name": "approve",
      "outputs": [
        {
          "internalType": "bool",
          "name": "",
          "type": "bool"
        }
      ],
      "stateMutability": "nonpayable",
      "type": "function"
    },
    {
      "inputs": [
        {
          "internalType": "address",
          "name": "account",
          "type": "address"
        }
      ],
      "name": "balanceOf",
      "outputs": [
        {
          "internalType": "uint256",
          "name": "",
          "type": "uint256"
        }
      ],
      "stateMutability": "view",
      "type": "function"
    },
    {
      "inputs": [],
      "name": "collateral",
      "outputs": [
        {
          "internalType": "uint256",
          "name": "",
          "type": "uint256"
        }
      ],
      "stateMutability": "view",
      "type": "function"
    },
    {
      "inputs": [],
      "name": "decimals",
      "outputs": [
        {
          "internalType": "uint8",
          "name": "",
          "type": "uint8"
        }
      ],
      "stateMutability": "view",
      "type": "function"
    },
    {
      "inputs": [
        {
          "internalType": "address",
          "name": "spender",
          "type": "address"
        },
        {
          "internalType": "uint256",
          "name": "subtractedValue",
          "type": "uint256"
        }
      ],
      "name": "decreaseAllowance",
      "outputs": [
        {
          "internalType": "bool",
          "name": "",
          "type": "bool"
        }
      ],
      "stateMutability": "nonpayable",
      "type": "function"
    },
    {
      "inputs": [],
      "name": "deltavalue",
      "outputs": [
        {
          "internalType": "uint256",
          "name": "",
          "type": "uint256"
        }
      ],
      "stateMutability": "view",
      "type": "function"
    },
    {
      "inputs": [
        {
          "internalType": "address",
          "name": "tokenAddress",
          "type": "address"
        },
        {
          "internalType": "uint256",
          "name": "_amount",
          "type": "uint256"
        }
      ],
      "name": "deposit",
      "outputs": [],
      "stateMutability": "payable",
      "type": "function"
    },
    {
      "inputs": [],
      "name": "exposition",
      "outputs": [
        {
          "internalType": "uint8",
          "name": "",
          "type": "uint8"
        }
      ],
      "stateMutability": "view",
      "type": "function"
    },
    {
      "inputs": [],
      "name": "getExposition",
      "outputs": [
        {
          "internalType": "uint8",
          "name": "",
          "type": "uint8"
        }
      ],
      "stateMutability": "view",
      "type": "function"
    },
    {
      "inputs": [],
      "name": "getGMX_controller",
      "outputs": [
        {
          "internalType": "address",
          "name": "",
          "type": "address"
        }
      ],
      "stateMutability": "view",
      "type": "function"
    },
    {
      "inputs": [],
      "name": "getNetAssetValue",
      "outputs": [
        {
          "internalType": "uint256",
          "name": "",
          "type": "uint256"
        }
      ],
      "stateMutability": "nonpayable",
      "type": "function"
    },
    {
      "inputs": [],
      "name": "gmxVault",
      "outputs": [
        {
          "internalType": "address",
          "name": "",
          "type": "address"
        }
      ],
      "stateMutability": "view",
      "type": "function"
    },
    {
      "inputs": [
        {
          "internalType": "address",
          "name": "spender",
          "type": "address"
        },
        {
          "internalType": "uint256",
          "name": "addedValue",
          "type": "uint256"
        }
      ],
      "name": "increaseAllowance",
      "outputs": [
        {
          "internalType": "bool",
          "name": "",
          "type": "bool"
        }
      ],
      "stateMutability": "nonpayable",
      "type": "function"
    },
    {
      "inputs": [
        {
          "internalType": "address",
          "name": "tokenAddress",
          "type": "address"
        }
      ],
      "name": "isAccepted",
      "outputs": [
        {
          "internalType": "bool",
          "name": "",
          "type": "bool"
        }
      ],
      "stateMutability": "view",
      "type": "function"
    },
    {
      "inputs": [],
      "name": "name",
      "outputs": [
        {
          "internalType": "string",
          "name": "",
          "type": "string"
        }
      ],
      "stateMutability": "view",
      "type": "function"
    },
    {
      "inputs": [],
      "name": "netAssetValue",
      "outputs": [
        {
          "internalType": "uint256",
          "name": "",
          "type": "uint256"
        }
      ],
      "stateMutability": "view",
      "type": "function"
    },
    {
      "inputs": [],
      "name": "owner",
      "outputs": [
        {
          "internalType": "address",
          "name": "",
          "type": "address"
        }
      ],
      "stateMutability": "view",
      "type": "function"
    },
    {
      "inputs": [
        {
          "internalType": "address",
          "name": "tokenAddress",
          "type": "address"
        }
      ],
      "name": "removeToken",
      "outputs": [],
      "stateMutability": "nonpayable",
      "type": "function"
    },
    {
      "inputs": [],
      "name": "renounceOwnership",
      "outputs": [],
      "stateMutability": "nonpayable",
      "type": "function"
    },
    {
      "inputs": [
        {
          "internalType": "uint8",
          "name": "_exposition",
          "type": "uint8"
        }
      ],
      "name": "setExposition",
      "outputs": [],
      "stateMutability": "payable",
      "type": "function"
    },
    {
      "inputs": [
        {
          "internalType": "address",
          "name": "_addr",
          "type": "address"
        }
      ],
      "name": "setGMX_controller",
      "outputs": [],
      "stateMutability": "nonpayable",
      "type": "function"
    },
    {
      "inputs": [],
      "name": "setNetAssetValue",
      "outputs": [],
      "stateMutability": "nonpayable",
      "type": "function"
    },
    {
      "inputs": [],
      "name": "symbol",
      "outputs": [
        {
          "internalType": "string",
          "name": "",
          "type": "string"
        }
      ],
      "stateMutability": "view",
      "type": "function"
    },
    {
      "inputs": [
        {
          "internalType": "address",
          "name": "",
          "type": "address"
        }
      ],
      "name": "tokenAccepted",
      "outputs": [
        {
          "internalType": "bool",
          "name": "",
          "type": "bool"
        }
      ],
      "stateMutability": "view",
      "type": "function"
    },
    {
      "inputs": [],
      "name": "totalSupply",
      "outputs": [
        {
          "internalType": "uint256",
          "name": "",
          "type": "uint256"
        }
      ],
      "stateMutability": "view",
      "type": "function"
    },
    {
      "inputs": [
        {
          "internalType": "address",
          "name": "to",
          "type": "address"
        },
        {
          "internalType": "uint256",
          "name": "amount",
          "type": "uint256"
        }
      ],
      "name": "transfer",
      "outputs": [
        {
          "internalType": "bool",
          "name": "",
          "type": "bool"
        }
      ],
      "stateMutability": "nonpayable",
      "type": "function"
    },
    {
      "inputs": [
        {
          "internalType": "address",
          "name": "from",
          "type": "address"
        },
        {
          "internalType": "address",
          "name": "to",
          "type": "address"
        },
        {
          "internalType": "uint256",
          "name": "amount",
          "type": "uint256"
        }
      ],
      "name": "transferFrom",
      "outputs": [
        {
          "internalType": "bool",
          "name": "",
          "type": "bool"
        }
      ],
      "stateMutability": "nonpayable",
      "type": "function"
    },
    {
      "inputs": [
        {
          "internalType": "address",
          "name": "newOwner",
          "type": "address"
        }
      ],
      "name": "transferOwnership",
      "outputs": [],
      "stateMutability": "nonpayable",
      "type": "function"
    },
    {
      "inputs": [],
      "name": "vaultValue",
      "outputs": [
        {
          "internalType": "uint256",
          "name": "",
          "type": "uint256"
        }
      ],
      "stateMutability": "view",
      "type": "function"
    }
  ],
  "transactionHash": "0x9eab3af220a8c37fb9eac18e6a1f900dde3479779ef3e1b5e07d31113cb8ed6e",
  "args": [],
  "numDeployments": 1,
  "solcInputHash": "8593ee2056452f6c7ffe0203b9dd3704",
  "bytecode": "0x6080604052600b80547482af49447d8a07e3bd95bd0d56f35241523fbab100610100600160a81b0319909116179055600c80546001600160a01b031990811673ff970a61a04b1ca14834a43f5de4533ebddb5cc817909155600d805490911673489ee077994b6658eafa855c308275ead8097c4a1790553480156200008357600080fd5b5060405180604001604052806008815260200167506f6c79706c757360c01b815250604051806040016040528060038152602001620504c560ec1b815250620000db620000d56200015060201b60201c565b62000154565b6004620000e983826200031a565b506005620000f882826200031a565b505050620001333362000110620001a460201b60201c565b620001209060ff16600a620004fb565b6200012d90606462000510565b620001a9565b6007805460ff60a01b19169055600b805460ff1916905562000540565b3390565b600080546001600160a01b038381166001600160a01b0319831681178455604051919092169283917f8be0079c531659141344cd1fd0a4f28419497f9722a3daafe3b4186f6b6457e09190a35050565b601290565b6001600160a01b038216620002045760405162461bcd60e51b815260206004820152601f60248201527f45524332303a206d696e7420746f20746865207a65726f206164647265737300604482015260640160405180910390fd5b80600360008282546200021891906200052a565b90915550506001600160a01b0382166000818152600160209081526040808320805486019055518481527fddf252ad1be2c89b69c2b068fc378daa952ba7f163c4a11628f55a4df523b3ef910160405180910390a35050565b505050565b634e487b7160e01b600052604160045260246000fd5b600181811c90821680620002a157607f821691505b602082108103620002c257634e487b7160e01b600052602260045260246000fd5b50919050565b601f8211156200027157600081815260208120601f850160051c81016020861015620002f15750805b601f850160051c820191505b818110156200031257828155600101620002fd565b505050505050565b81516001600160401b0381111562000336576200033662000276565b6200034e816200034784546200028c565b84620002c8565b602080601f8311600181146200038657600084156200036d5750858301515b600019600386901b1c1916600185901b17855562000312565b600085815260208120601f198616915b82811015620003b75788860151825594840194600190910190840162000396565b5085821015620003d65787850151600019600388901b60f8161c191681555b5050505050600190811b01905550565b634e487b7160e01b600052601160045260246000fd5b600181815b808511156200043d578160001904821115620004215762000421620003e6565b808516156200042f57918102915b93841c939080029062000401565b509250929050565b6000826200045657506001620004f5565b816200046557506000620004f5565b81600181146200047e57600281146200048957620004a9565b6001915050620004f5565b60ff8411156200049d576200049d620003e6565b50506001821b620004f5565b5060208310610133831016604e8410600b8410161715620004ce575081810a620004f5565b620004da8383620003fc565b8060001904821115620004f157620004f1620003e6565b0290505b92915050565b600062000509838362000445565b9392505050565b8082028115828204841417620004f557620004f5620003e6565b80820180821115620004f557620004f5620003e6565b611c2f80620005506000396000f3fe6080604052600436106101b95760003560e01c80638c21c9e1116100ed578063ad5c464811610090578063ad5c4648146104c3578063aedf795e146104e8578063b3b3453e14610518578063d6e4521214610538578063d8dfeb451461054d578063dd62ed3e14610563578063de9257cd14610583578063e6f091f9146105a2578063f2fde38b146105db57600080fd5b80638c21c9e1146103e45780638cd3f064146103fa5780638da5cb5b1461041a57806395d89b41146104385780639ecbfa421461044d578063a3673b381461046d578063a457c2d714610483578063a9059cbb146104a357600080fd5b8063313ce56711610160578063313ce567146102ea57806339509351146102fe57806347e7ef241461031e578063481d6ee9146103315780635fa7b584146103445780636639a81d1461036457806370a0823114610379578063715018a6146103af57806389a30271146103c457600080fd5b80630677a2a5146101be57806306fdde03146101ee578063095ea7b31461021057806311af7d951461024057806318160ddd146102625780631b2b573c146102815780631cd2f7c81461029757806323b872dd146102ca575b600080fd5b3480156101ca57600080fd5b506007546001600160a01b03165b6040516101e5919061191a565b60405180910390f35b3480156101fa57600080fd5b506102036105fb565b6040516101e5919061192e565b34801561021c57600080fd5b5061023061022b366004611998565b61068d565b60405190151581526020016101e5565b34801561024c57600080fd5b5061026061025b3660046119c2565b6106a7565b005b34801561026e57600080fd5b506003545b6040519081526020016101e5565b34801561028d57600080fd5b5061027360095481565b3480156102a357600080fd5b506007546102b890600160a01b900460ff1681565b60405160ff90911681526020016101e5565b3480156102d657600080fd5b506102306102e53660046119e4565b6106de565b3480156102f657600080fd5b5060126102b8565b34801561030a57600080fd5b50610230610319366004611998565b610702565b61026061032c366004611998565b610724565b61026061033f366004611a20565b610a79565b34801561035057600080fd5b5061026061035f3660046119c2565b610e6f565b34801561037057600080fd5b50600a54610273565b34801561038557600080fd5b506102736103943660046119c2565b6001600160a01b031660009081526001602052604090205490565b3480156103bb57600080fd5b50610260610f30565b3480156103d057600080fd5b50600c546101d8906001600160a01b031681565b3480156103f057600080fd5b5061027360065481565b34801561040657600080fd5b506102606104153660046119c2565b610f44565b34801561042657600080fd5b506000546001600160a01b03166101d8565b34801561044457600080fd5b50610203610ffe565b34801561045957600080fd5b506007546101d8906001600160a01b031681565b34801561047957600080fd5b50610273600a5481565b34801561048f57600080fd5b5061023061049e366004611998565b61100d565b3480156104af57600080fd5b506102306104be366004611998565b611088565b3480156104cf57600080fd5b50600b546101d89061010090046001600160a01b031681565b3480156104f457600080fd5b506102306105033660046119c2565b600e6020526000908152604090205460ff1681565b34801561052457600080fd5b50600d546101d8906001600160a01b031681565b34801561054457600080fd5b50610260611096565b34801561055957600080fd5b5061027360085481565b34801561056f57600080fd5b5061027361057e366004611a43565b61135f565b34801561058f57600080fd5b50600754600160a01b900460ff166102b8565b3480156105ae57600080fd5b506102306105bd3660046119c2565b6001600160a01b03166000908152600e602052604090205460ff1690565b3480156105e757600080fd5b506102606105f63660046119c2565b61138a565b60606004805461060a90611a76565b80601f016020809104026020016040519081016040528092919081815260200182805461063690611a76565b80156106835780601f1061065857610100808354040283529160200191610683565b820191906000526020600020905b81548152906001019060200180831161066657829003601f168201915b5050505050905090565b60003361069b818585611400565b60019150505b92915050565b6106af611524565b600780546001600160a01b0319166001600160a01b0392909216919091179055600b805460ff19166001179055565b6000336106ec85828561157e565b6106f78585856115f8565b506001949350505050565b60003361069b818585610715838361135f565b61071f9190611ac6565b611400565b6001600160a01b0382166000908152600e602052604090205460ff1661078b5760405162461bcd60e51b8152602060048201526017602482015276151bdad95b881b9bdd081e595d081cdd5c1c1bdc9d1959604a1b60448201526064015b60405180910390fd5b600081116107db5760405162461bcd60e51b815260206004820152601e60248201527f416d6f756e7420746f206465706f736974206973206d616e6461746f727900006044820152606401610782565b60008190506000306001600160a01b03166318160ddd6040518163ffffffff1660e01b8152600401602060405180830381865afa158015610820573d6000803e3d6000fd5b505050506040513d601f19601f820116820180604052508101906108449190611ad9565b905060008160000361085757508161087c565b670de0b6b3a7640000600681905561086f8385611af2565b6108799190611b09565b90505b61088633826117a3565b6040516323b872dd60e01b8152336004820152306024820152604481018490526001600160a01b038616906323b872dd906064016020604051808303816000875af11580156108d9573d6000803e3d6000fd5b505050506040513d601f19601f820116820180604052508101906108fd9190611b3b565b5060075460405163095ea7b360e01b81526001600160a01b039182166004820152602481018690529086169063095ea7b3906044016020604051808303816000875af1158015610951573d6000803e3d6000fd5b505050506040513d601f19601f820116820180604052508101906109759190611b3b565b50600754600160a01b900460ff166001036109f657600754604051630e2f660360e11b815260048101869052600160248201526001600160a01b0390911690631c5ecc069034906044016000604051808303818588803b1580156109d857600080fd5b505af11580156109ec573d6000803e3d6000fd5b5050505050610a72565b600754600160a01b900460ff16600203610a7257600754604051630e2f660360e11b815260048101869052600060248201526001600160a01b0390911690631c5ecc069034906044016000604051808303818588803b158015610a5857600080fd5b505af1158015610a6c573d6000803e3d6000fd5b50505050505b5050505050565b610a81611524565b60ff81161580610a9457508060ff166001145b80610aa257508060ff166002145b610b0d5760405162461bcd60e51b815260206004820152603660248201527f56616c7565206d757374206265203020666f72206e65757472616c2c203120666044820152751bdc88131bdb99c81bdc880c88199bdc8814da1bdc9d60521b6064820152608401610782565b60075460ff808316600160a01b9092041603610b7f5760405162461bcd60e51b815260206004820152602b60248201527f52657665727465642062656361757365206578706f736974696f6e206861732060448201526a1b9bdd0818da185b99d95960aa1b6064820152608401610782565b600754600090600160a01b900460ff16600114610b9d576000610ba0565b60015b905060008260ff16600114610bb6576000610bb9565b60015b600754909150600160a01b900460ff16600003610cae57600754600c546040516370a0823160e01b81526001600160a01b0392831692631c5ecc069234929116906370a0823190610c0e90309060040161191a565b602060405180830381865afa158015610c2b573d6000803e3d6000fd5b505050506040513d601f19601f82011682018060405250810190610c4f9190611ad9565b6040516001600160e01b031960e085901b168152600481019190915284151560248201526044015b6000604051808303818588803b158015610c9057600080fd5b505af1158015610ca4573d6000803e3d6000fd5b5050505050610e4d565b8260ff16600003610cf657610cc234611864565b600754604051637cb1759760e01b815283151560048201526001600160a01b0390911690637cb17597903490602401610c77565b6007546001600160a01b0316637cb17597610d12600234611b09565b6040516001600160e01b031960e084901b16815285151560048201526024016000604051808303818588803b158015610d4a57600080fd5b505af1158015610d5e573d6000803e3d6000fd5b50506007546001600160a01b03169250631c5ecc069150610d829050600234611b09565b600c546040516370a0823160e01b81526001600160a01b03909116906370a0823190610db290309060040161191a565b602060405180830381865afa158015610dcf573d6000803e3d6000fd5b505050506040513d601f19601f82011682018060405250810190610df39190611ad9565b6040516001600160e01b031960e085901b168152600481019190915284151560248201526044016000604051808303818588803b158015610e3357600080fd5b505af1158015610e47573d6000803e3d6000fd5b50505050505b50506007805460ff909216600160a01b0260ff60a01b19909216919091179055565b610e77611524565b6001600160a01b0381166000908152600e602052604090205460ff16610ed55760405162461bcd60e51b8152602060048201526013602482015272151bdad95b881b9bdd081e595d081859191959606a1b6044820152606401610782565b6001600160a01b0381166000908152600e602052604090819020805460ff19169055517f4c910b69fe65a61f7531b9c5042b2329ca7179c77290aa7e2eb3afa3c8511fd390610f2590839061191a565b60405180910390a150565b610f38611524565b610f4260006118a9565b565b610f4c611524565b6001600160a01b0381166000908152600e602052604090205460ff1615610fab5760405162461bcd60e51b8152602060048201526013602482015272151bdad95b88185b1c9958591e481859191959606a1b6044820152606401610782565b6001600160a01b0381166000908152600e602052604090819020805460ff19166001179055517fae340411f33c346ae24187433a8df6e508be40cf0deb3949d51cea12df7fa02190610f2590839061191a565b60606005805461060a90611a76565b6000338161101b828661135f565b90508381101561107b5760405162461bcd60e51b815260206004820152602560248201527f45524332303a2064656372656173656420616c6c6f77616e63652062656c6f77604482015264207a65726f60d81b6064820152608401610782565b6106f78286868403611400565b60003361069b8185856115f8565b61109e611524565b600b5460ff1615156001146111135760405162461bcd60e51b815260206004820152603560248201527f4e6f7420696e697469616c697a65642c20666972737420796f752068617665206044820152743a379039b2ba1023a6ac1031b7b73a3937b63632b960591b6064820152608401610782565b600754600090600160a01b900460ff16600114611131576000611134565b60015b600754909150600160a01b900460ff166000036111cc5760006008819055600955600c546040516370a0823160e01b81526001600160a01b03909116906370a082319061118590309060040161191a565b602060405180830381865afa1580156111a2573d6000803e3d6000fd5b505050506040513d601f19601f820116820180604052508101906111c69190611ad9565b600a5550565b600754600160a01b900460ff1660010361129e57600d54600754600b54604051634a3f088d60e01b815260009384936001600160a01b0391821693634a3f088d9361122b93928316926101009092049091169081908990600401611b56565b610100604051808303816000875af115801561124b573d6000803e3d6000fd5b505050506040513d601f19601f8201168201806040525081019061126f9190611b80565b97505050505050925050816008819055508060098190555080826112939190611ac6565b600a555061135c9050565b600d54600754600c54600b54604051634a3f088d60e01b815260009485946001600160a01b0391821694634a3f088d946112ee949284169391821692610100909104909116908990600401611b56565b610100604051808303816000875af115801561130e573d6000803e3d6000fd5b505050506040513d601f19601f820116820180604052508101906113329190611b80565b97505050505050925050816008819055508060098190555080826113569190611be6565b600a5550505b50565b6001600160a01b03918216600090815260026020908152604080832093909416825291909152205490565b611392611524565b6001600160a01b0381166113f75760405162461bcd60e51b815260206004820152602660248201527f4f776e61626c653a206e6577206f776e657220697320746865207a65726f206160448201526564647265737360d01b6064820152608401610782565b61135c816118a9565b6001600160a01b0383166114625760405162461bcd60e51b8152602060048201526024808201527f45524332303a20617070726f76652066726f6d20746865207a65726f206164646044820152637265737360e01b6064820152608401610782565b6001600160a01b0382166114c35760405162461bcd60e51b815260206004820152602260248201527f45524332303a20617070726f766520746f20746865207a65726f206164647265604482015261737360f01b6064820152608401610782565b6001600160a01b0383811660008181526002602090815260408083209487168084529482529182902085905590518481527f8c5be1e5ebec7d5bd14f71427d1e84f3dd0314c0f7b2291e5b200ac8c7c3b925910160405180910390a3505050565b6000546001600160a01b03163314610f425760405162461bcd60e51b815260206004820181905260248201527f4f776e61626c653a2063616c6c6572206973206e6f7420746865206f776e65726044820152606401610782565b600061158a848461135f565b905060001981146115f257818110156115e55760405162461bcd60e51b815260206004820152601d60248201527f45524332303a20696e73756666696369656e7420616c6c6f77616e63650000006044820152606401610782565b6115f28484848403611400565b50505050565b6001600160a01b03831661165c5760405162461bcd60e51b815260206004820152602560248201527f45524332303a207472616e736665722066726f6d20746865207a65726f206164604482015264647265737360d81b6064820152608401610782565b6001600160a01b0382166116be5760405162461bcd60e51b815260206004820152602360248201527f45524332303a207472616e7366657220746f20746865207a65726f206164647260448201526265737360e81b6064820152608401610782565b6001600160a01b038316600090815260016020526040902054818110156117365760405162461bcd60e51b815260206004820152602660248201527f45524332303a207472616e7366657220616d6f756e7420657863656564732062604482015265616c616e636560d01b6064820152608401610782565b6001600160a01b0380851660008181526001602052604080822086860390559286168082529083902080548601905591517fddf252ad1be2c89b69c2b068fc378daa952ba7f163c4a11628f55a4df523b3ef906117969086815260200190565b60405180910390a36115f2565b6001600160a01b0382166117f95760405162461bcd60e51b815260206004820152601f60248201527f45524332303a206d696e7420746f20746865207a65726f2061646472657373006044820152606401610782565b806003600082825461180b9190611ac6565b90915550506001600160a01b0382166000818152600160209081526040808320805486019055518481527fddf252ad1be2c89b69c2b068fc378daa952ba7f163c4a11628f55a4df523b3ef910160405180910390a35050565b61135c8160405160240161187a91815260200190565b60408051601f198184030181529190526020810180516001600160e01b031663f82c50f160e01b1790526118f9565b600080546001600160a01b038381166001600160a01b0319831681178455604051919092169283917f8be0079c531659141344cd1fd0a4f28419497f9722a3daafe3b4186f6b6457e09190a35050565b80516a636f6e736f6c652e6c6f67602083016000808483855afa5050505050565b6001600160a01b0391909116815260200190565b600060208083528351808285015260005b8181101561195b5785810183015185820160400152820161193f565b506000604082860101526040601f19601f8301168501019250505092915050565b80356001600160a01b038116811461199357600080fd5b919050565b600080604083850312156119ab57600080fd5b6119b48361197c565b946020939093013593505050565b6000602082840312156119d457600080fd5b6119dd8261197c565b9392505050565b6000806000606084860312156119f957600080fd5b611a028461197c565b9250611a106020850161197c565b9150604084013590509250925092565b600060208284031215611a3257600080fd5b813560ff811681146119dd57600080fd5b60008060408385031215611a5657600080fd5b611a5f8361197c565b9150611a6d6020840161197c565b90509250929050565b600181811c90821680611a8a57607f821691505b602082108103611aaa57634e487b7160e01b600052602260045260246000fd5b50919050565b634e487b7160e01b600052601160045260246000fd5b808201808211156106a1576106a1611ab0565b600060208284031215611aeb57600080fd5b5051919050565b80820281158282048414176106a1576106a1611ab0565b600082611b2657634e487b7160e01b600052601260045260246000fd5b500490565b8051801515811461199357600080fd5b600060208284031215611b4d57600080fd5b6119dd82611b2b565b6001600160a01b039485168152928416602084015292166040820152901515606082015260800190565b600080600080600080600080610100898b031215611b9d57600080fd5b885197506020890151965060408901519550606089015194506080890151935060a08901519250611bd060c08a01611b2b565b915060e089015190509295985092959890939650565b818103818111156106a1576106a1611ab056fea264697066735822122039b804303ef3b694f1d05dd8f87ae9e470096f79895b401252fec71eeac77dba64736f6c63430008110033",
  "devdoc": {
    "kind": "dev",
    "methods": {
      "acceptToken(address)": {
        "details": "until now, only USDC deposit are handled",
        "params": {
          "tokenAddress": "arbitrum address of the ERC20 token"
        }
      },
      "allowance(address,address)": {
        "details": "See {IERC20-allowance}."
      },
      "approve(address,uint256)": {
        "details": "See {IERC20-approve}. NOTE: If `amount` is the maximum `uint256`, the allowance is not updated on `transferFrom`. This is semantically equivalent to an infinite approval. Requirements: - `spender` cannot be the zero address."
      },
      "balanceOf(address)": {
        "details": "See {IERC20-balanceOf}."
      },
      "decimals()": {
        "details": "Returns the number of decimals used to get its user representation. For example, if `decimals` equals `2`, a balance of `505` tokens should be displayed to a user as `5.05` (`505 / 10 ** 2`). Tokens usually opt for a value of 18, imitating the relationship between Ether and Wei. This is the value {ERC20} uses, unless this function is overridden; NOTE: This information is only used for _display_ purposes: it in no way affects any of the arithmetic of the contract, including {IERC20-balanceOf} and {IERC20-transfer}."
      },
      "decreaseAllowance(address,uint256)": {
        "details": "Atomically decreases the allowance granted to `spender` by the caller. This is an alternative to {approve} that can be used as a mitigation for problems described in {IERC20-approve}. Emits an {Approval} event indicating the updated allowance. Requirements: - `spender` cannot be the zero address. - `spender` must have allowance for the caller of at least `subtractedValue`."
      },
      "increaseAllowance(address,uint256)": {
        "details": "Atomically increases the allowance granted to `spender` by the caller. This is an alternative to {approve} that can be used as a mitigation for problems described in {IERC20-approve}. Emits an {Approval} event indicating the updated allowance. Requirements: - `spender` cannot be the zero address."
      },
      "name()": {
        "details": "Returns the name of the token."
      },
      "owner()": {
        "details": "Returns the address of the current owner."
      },
      "renounceOwnership()": {
        "details": "Leaves the contract without owner. It will not be possible to call `onlyOwner` functions anymore. Can only be called by the current owner. NOTE: Renouncing ownership will leave the contract without an owner, thereby removing any functionality that is only available to the owner."
      },
      "setExposition(uint8)": {
        "details": "only the owner can call this function ",
        "params": {
          "_exposition": "0 for neutral | 1 Long | 2 Short"
        }
      },
      "setGMX_controller(address)": {
        "details": "only the owner can call this function ",
        "params": {
          "_addr": "address of the controller to add"
        }
      },
      "symbol()": {
        "details": "Returns the symbol of the token, usually a shorter version of the name."
      },
      "totalSupply()": {
        "details": "See {IERC20-totalSupply}."
      },
      "transfer(address,uint256)": {
        "details": "See {IERC20-transfer}. Requirements: - `to` cannot be the zero address. - the caller must have a balance of at least `amount`."
      },
      "transferFrom(address,address,uint256)": {
        "details": "See {IERC20-transferFrom}. Emits an {Approval} event indicating the updated allowance. This is not required by the EIP. See the note at the beginning of {ERC20}. NOTE: Does not update the allowance if the current allowance is the maximum `uint256`. Requirements: - `from` and `to` cannot be the zero address. - `from` must have a balance of at least `amount`. - the caller must have allowance for ``from``'s tokens of at least `amount`."
      },
      "transferOwnership(address)": {
        "details": "Transfers ownership of the contract to a new account (`newOwner`). Can only be called by the current owner."
      }
    },
    "version": 1
  },
  "userdoc": {
    "kind": "user",
    "methods": {
      "acceptToken(address)": {
        "notice": "whitelist the token accepted in the vault, allow a better control"
      },
      "deposit(address,uint256)": {
        "notice": "function for depositing ana ccepted token on the vault token address to deposit [to implement later]"
      },
      "setExposition(uint8)": {
        "notice": "function that sets the exposition of the contract (Long Short or Neutral and rebalance assets accordingly)"
      },
      "setGMX_controller(address)": {
        "notice": "function that sets the exposition of the contract (Long Short or Neutral and rebalance assets accordingly)"
      }
    },
    "notice": "Arbitrum project",
    "version": 1
  },
  "storageLayout": {
    "storage": [
      {
        "astId": 10431,
        "contract": "contracts/MyVault.sol:MyVault",
        "label": "_owner",
        "offset": 0,
        "slot": "0",
        "type": "t_address"
      },
      {
        "astId": 10552,
        "contract": "contracts/MyVault.sol:MyVault",
        "label": "_balances",
        "offset": 0,
        "slot": "1",
        "type": "t_mapping(t_address,t_uint256)"
      },
      {
        "astId": 10558,
        "contract": "contracts/MyVault.sol:MyVault",
        "label": "_allowances",
        "offset": 0,
        "slot": "2",
        "type": "t_mapping(t_address,t_mapping(t_address,t_uint256))"
      },
      {
        "astId": 10560,
        "contract": "contracts/MyVault.sol:MyVault",
        "label": "_totalSupply",
        "offset": 0,
        "slot": "3",
        "type": "t_uint256"
      },
      {
        "astId": 10562,
        "contract": "contracts/MyVault.sol:MyVault",
        "label": "_name",
        "offset": 0,
        "slot": "4",
        "type": "t_string_storage"
      },
      {
        "astId": 10564,
        "contract": "contracts/MyVault.sol:MyVault",
        "label": "_symbol",
        "offset": 0,
        "slot": "5",
        "type": "t_string_storage"
      },
      {
        "astId": 1707,
        "contract": "contracts/MyVault.sol:MyVault",
        "label": "vaultValue",
        "offset": 0,
        "slot": "6",
        "type": "t_uint256"
      },
      {
        "astId": 1709,
        "contract": "contracts/MyVault.sol:MyVault",
        "label": "GMX_controller",
        "offset": 0,
        "slot": "7",
        "type": "t_address"
      },
      {
        "astId": 1711,
        "contract": "contracts/MyVault.sol:MyVault",
        "label": "exposition",
        "offset": 20,
        "slot": "7",
        "type": "t_uint8"
      },
      {
        "astId": 1713,
        "contract": "contracts/MyVault.sol:MyVault",
        "label": "collateral",
        "offset": 0,
        "slot": "8",
        "type": "t_uint256"
      },
      {
        "astId": 1715,
        "contract": "contracts/MyVault.sol:MyVault",
        "label": "deltavalue",
        "offset": 0,
        "slot": "9",
        "type": "t_uint256"
      },
      {
        "astId": 1717,
        "contract": "contracts/MyVault.sol:MyVault",
        "label": "netAssetValue",
        "offset": 0,
        "slot": "10",
        "type": "t_uint256"
      },
      {
        "astId": 1719,
        "contract": "contracts/MyVault.sol:MyVault",
        "label": "isInit",
        "offset": 0,
        "slot": "11",
        "type": "t_bool"
      },
      {
        "astId": 1722,
        "contract": "contracts/MyVault.sol:MyVault",
        "label": "WETH",
        "offset": 1,
        "slot": "11",
        "type": "t_address"
      },
      {
        "astId": 1725,
        "contract": "contracts/MyVault.sol:MyVault",
        "label": "USDC",
        "offset": 0,
        "slot": "12",
        "type": "t_address"
      },
      {
        "astId": 1728,
        "contract": "contracts/MyVault.sol:MyVault",
        "label": "gmxVault",
        "offset": 0,
        "slot": "13",
        "type": "t_address"
      },
      {
        "astId": 1732,
        "contract": "contracts/MyVault.sol:MyVault",
        "label": "tokenAccepted",
        "offset": 0,
        "slot": "14",
        "type": "t_mapping(t_address,t_bool)"
      }
    ],
    "types": {
      "t_address": {
        "encoding": "inplace",
        "label": "address",
        "numberOfBytes": "20"
      },
      "t_bool": {
        "encoding": "inplace",
        "label": "bool",
        "numberOfBytes": "1"
      },
      "t_mapping(t_address,t_bool)": {
        "encoding": "mapping",
        "key": "t_address",
        "label": "mapping(address => bool)",
        "numberOfBytes": "32",
        "value": "t_bool"
      },
      "t_mapping(t_address,t_mapping(t_address,t_uint256))": {
        "encoding": "mapping",
        "key": "t_address",
        "label": "mapping(address => mapping(address => uint256))",
        "numberOfBytes": "32",
        "value": "t_mapping(t_address,t_uint256)"
      },
      "t_mapping(t_address,t_uint256)": {
        "encoding": "mapping",
        "key": "t_address",
        "label": "mapping(address => uint256)",
        "numberOfBytes": "32",
        "value": "t_uint256"
      },
      "t_string_storage": {
        "encoding": "bytes",
        "label": "string",
        "numberOfBytes": "32"
      },
      "t_uint256": {
        "encoding": "inplace",
        "label": "uint256",
        "numberOfBytes": "32"
      },
      "t_uint8": {
        "encoding": "inplace",
        "label": "uint8",
        "numberOfBytes": "1"
      }
    }
  }
}