{
  "_format": "hh-sol-artifact-1",
  "contractName": "SignatureVerification",
  "sourceName": "contracts/libraries/SignatureVerification.sol",
  "abi": [
    {
      "inputs": [
        {
          "internalType": "bytes32",
          "name": "_ethSignedMessageHash",
          "type": "bytes32"
        },
        {
          "internalType": "bytes",
          "name": "_signature",
          "type": "bytes"
        }
      ],
      "name": "recoverSigner",
      "outputs": [
        {
          "internalType": "address",
          "name": "",
          "type": "address"
        }
      ],
      "stateMutability": "pure",
      "type": "function"
    },
    {
      "inputs": [
        {
          "internalType": "bytes",
          "name": "sig",
          "type": "bytes"
        }
      ],
      "name": "splitSignature",
      "outputs": [
        {
          "internalType": "bytes32",
          "name": "r",
          "type": "bytes32"
        },
        {
          "internalType": "bytes32",
          "name": "s",
          "type": "bytes32"
        },
        {
          "internalType": "uint8",
          "name": "v",
          "type": "uint8"
        }
      ],
      "stateMutability": "pure",
      "type": "function"
    },
    {
      "inputs": [
        {
          "internalType": "bytes32",
          "name": "hash",
          "type": "bytes32"
        },
        {
          "internalType": "bytes",
          "name": "signature",
          "type": "bytes"
        },
        {
          "internalType": "address",
          "name": "signer",
          "type": "address"
        }
      ],
      "name": "verify",
      "outputs": [
        {
          "internalType": "bool",
          "name": "",
          "type": "bool"
        }
      ],
      "stateMutability": "pure",
      "type": "function"
    }
  ],
  "bytecode": "0x6103b261003a600b82828239805160001a60731461002d57634e487b7160e01b600052600060045260246000fd5b30600052607381538281f3fe730000000000000000000000000000000000000000301460806040526004361061004b5760003560e01c8063823ac3731461005057806397aba7f914610078578063a7bb5803146100a3575b600080fd5b61006361005e366004610291565b6100d4565b60405190151581526020015b60405180910390f35b61008b6100863660046102f8565b6100fc565b6040516001600160a01b03909116815260200161006f565b6100b66100b136600461033f565b61017b565b60408051938452602084019290925260ff169082015260600161006f565b6000816001600160a01b03166100ea85856100fc565b6001600160a01b031614949350505050565b60008060008061010b8561017b565b6040805160008152602081018083528b905260ff8316918101919091526060810184905260808101839052929550909350915060019060a0016020604051602081039080840390855afa158015610166573d6000803e3d6000fd5b5050604051601f190151979650505050505050565b600080600083516041146101d05760405162461bcd60e51b81526020600482015260186024820152770d2dcecc2d8d2c840e6d2cedcc2e8eae4ca40d8cadccee8d60431b604482015260640160405180910390fd5b50505060208101516040820151606090920151909260009190911a90565b634e487b7160e01b600052604160045260246000fd5b600082601f83011261021557600080fd5b813567ffffffffffffffff80821115610230576102306101ee565b604051601f8301601f19908116603f01168101908282118183101715610258576102586101ee565b8160405283815286602085880101111561027157600080fd5b836020870160208301376000602085830101528094505050505092915050565b6000806000606084860312156102a657600080fd5b83359250602084013567ffffffffffffffff8111156102c457600080fd5b6102d086828701610204565b92505060408401356001600160a01b03811681146102ed57600080fd5b809150509250925092565b6000806040838503121561030b57600080fd5b82359150602083013567ffffffffffffffff81111561032957600080fd5b61033585828601610204565b9150509250929050565b60006020828403121561035157600080fd5b813567ffffffffffffffff81111561036857600080fd5b61037484828501610204565b94935050505056fea2646970667358221220614688e9de3b300fdc0c4a3e832f85d83abc48b724c725f5277f3fc9be00913764736f6c63430008110033",
  "linkReferences": {},
  "deployedLinkReferences": {}
}