{
  "_format": "hh-sol-artifact-1",
  "contractName": "GMX_controller",
  "sourceName": "contracts/GMX_controller.sol",
  "abi": [
    {
      "inputs": [
        {
          "internalType": "address",
          "name": "_vault",
          "type": "address"
        }
      ],
      "stateMutability": "nonpayable",
      "type": "constructor"
    },
    {
      "anonymous": false,
      "inputs": [
        {
          "indexed": true,
          "internalType": "address",
          "name": "previousOwner",
          "type": "address"
        },
        {
          "indexed": true,
          "internalType": "address",
          "name": "newOwner",
          "type": "address"
        }
      ],
      "name": "OwnershipTransferred",
      "type": "event"
    },
    {
      "inputs": [],
      "name": "GMXexecutionFee",
      "outputs": [
        {
          "internalType": "uint256",
          "name": "",
          "type": "uint256"
        }
      ],
      "stateMutability": "view",
      "type": "function"
    },
    {
      "inputs": [],
      "name": "USDC",
      "outputs": [
        {
          "internalType": "address",
          "name": "",
          "type": "address"
        }
      ],
      "stateMutability": "view",
      "type": "function"
    },
    {
      "inputs": [],
      "name": "WETH",
      "outputs": [
        {
          "internalType": "address",
          "name": "",
          "type": "address"
        }
      ],
      "stateMutability": "view",
      "type": "function"
    },
    {
      "inputs": [
        {
          "internalType": "uint256",
          "name": "tokenAmount",
          "type": "uint256"
        },
        {
          "internalType": "bool",
          "name": "isLong",
          "type": "bool"
        }
      ],
      "name": "decreasePosition",
      "outputs": [],
      "stateMutability": "payable",
      "type": "function"
    },
    {
      "inputs": [],
      "name": "getVaultOwner",
      "outputs": [
        {
          "internalType": "address",
          "name": "",
          "type": "address"
        }
      ],
      "stateMutability": "view",
      "type": "function"
    },
    {
      "inputs": [],
      "name": "gmxPositionRouter",
      "outputs": [
        {
          "internalType": "address",
          "name": "",
          "type": "address"
        }
      ],
      "stateMutability": "view",
      "type": "function"
    },
    {
      "inputs": [],
      "name": "gmxReader",
      "outputs": [
        {
          "internalType": "address",
          "name": "",
          "type": "address"
        }
      ],
      "stateMutability": "view",
      "type": "function"
    },
    {
      "inputs": [],
      "name": "gmxRouter",
      "outputs": [
        {
          "internalType": "address",
          "name": "",
          "type": "address"
        }
      ],
      "stateMutability": "view",
      "type": "function"
    },
    {
      "inputs": [],
      "name": "gmxVault",
      "outputs": [
        {
          "internalType": "address",
          "name": "",
          "type": "address"
        }
      ],
      "stateMutability": "view",
      "type": "function"
    },
    {
      "inputs": [
        {
          "internalType": "uint256",
          "name": "tokenAmount",
          "type": "uint256"
        },
        {
          "internalType": "bool",
          "name": "isLong",
          "type": "bool"
        }
      ],
      "name": "increasePosition",
      "outputs": [],
      "stateMutability": "payable",
      "type": "function"
    },
    {
      "inputs": [
        {
          "internalType": "bool",
          "name": "isLong",
          "type": "bool"
        }
      ],
      "name": "liquidatePosition",
      "outputs": [],
      "stateMutability": "payable",
      "type": "function"
    },
    {
      "inputs": [],
      "name": "owner",
      "outputs": [
        {
          "internalType": "address",
          "name": "",
          "type": "address"
        }
      ],
      "stateMutability": "view",
      "type": "function"
    },
    {
      "inputs": [],
      "name": "renounceOwnership",
      "outputs": [],
      "stateMutability": "nonpayable",
      "type": "function"
    },
    {
      "inputs": [
        {
          "internalType": "address",
          "name": "_addr",
          "type": "address"
        }
      ],
      "name": "setVaultOwner",
      "outputs": [],
      "stateMutability": "nonpayable",
      "type": "function"
    },
    {
      "inputs": [
        {
          "internalType": "address",
          "name": "newOwner",
          "type": "address"
        }
      ],
      "name": "transferOwnership",
      "outputs": [],
      "stateMutability": "nonpayable",
      "type": "function"
    },
    {
      "inputs": [],
      "name": "vault",
      "outputs": [
        {
          "internalType": "address",
          "name": "",
          "type": "address"
        }
      ],
      "stateMutability": "view",
      "type": "function"
    }
  ],
  "bytecode": "0x6080604052600180546001600160a01b031990811673489ee077994b6658eafa855c308275ead8097c4a1790915560028054821673abbc5f99639c9b6bcb58544ddf04efa6802f406417905560038054821673b87a436b93ffe9d75c5cfa7bacfff96430b098681790556004805482167322199a49a999c351ef7927602cfb187ec3cae4891790556005805482167382af49447d8a07e3bd95bd0d56f35241523fbab11790556006805490911673ff970a61a04b1ca14834a43f5de4533ebddb5cc8179055348015620000d157600080fd5b506040516200158238038062001582833981016040819052620000f4916200024e565b620000ff33620001fe565b600880546001600160a01b0319166001600160a01b03838116919091179091556002546003546040516338c74dd960e01b815290831660048201529116906338c74dd990602401600060405180830381600087803b1580156200016157600080fd5b505af115801562000176573d6000803e3d6000fd5b50505050600360009054906101000a90046001600160a01b03166001600160a01b03166363ae21036040518163ffffffff1660e01b8152600401602060405180830381865afa158015620001ce573d6000803e3d6000fd5b505050506040513d601f19601f82011682018060405250810190620001f4919062000280565b600755506200029a565b600080546001600160a01b038381166001600160a01b0319831681178455604051919092169283917f8be0079c531659141344cd1fd0a4f28419497f9722a3daafe3b4186f6b6457e09190a35050565b6000602082840312156200026157600080fd5b81516001600160a01b03811681146200027957600080fd5b9392505050565b6000602082840312156200029357600080fd5b5051919050565b6112d880620002aa6000396000f3fe6080604052600436106100d35760003560e01c80638da5cb5b1161007a5780638da5cb5b146101be578063a44ca346146101dc578063ad5c4648146101fa578063b3b3453e1461021a578063be77cd321461023a578063c657e7c21461025a578063f2fde38b1461027a578063fbfa77cf1461029a57600080fd5b806316aabb3e146100d85780631c5ecc06146100ed578063434c0c7514610100578063634e318014610129578063715018a6146101565780637cb175971461016b57806380b3631c1461017e57806389a302711461019e575b600080fd5b6100eb6100e6366004610f9f565b6102ba565b005b6100eb6100fb366004610f9f565b610677565b34801561010c57600080fd5b5061011660075481565b6040519081526020015b60405180910390f35b34801561013557600080fd5b50600254610149906001600160a01b031681565b6040516101209190610fcf565b34801561016257600080fd5b506100eb610aa6565b6100eb610179366004610fe3565b610aba565b34801561018a57600080fd5b506100eb610199366004611007565b610e44565b3480156101aa57600080fd5b50600654610149906001600160a01b031681565b3480156101ca57600080fd5b506000546001600160a01b0316610149565b3480156101e857600080fd5b506008546001600160a01b0316610149565b34801561020657600080fd5b50600554610149906001600160a01b031681565b34801561022657600080fd5b50600154610149906001600160a01b031681565b34801561024657600080fd5b50600454610149906001600160a01b031681565b34801561026657600080fd5b50600354610149906001600160a01b031681565b34801561028657600080fd5b506100eb610295366004611007565b610e6e565b3480156102a657600080fd5b50600854610149906001600160a01b031681565b6008546001600160a01b031633146102ed5760405162461bcd60e51b81526004016102e490611030565b60405180910390fd5b600081156104e257604080516002808252606082018352600092602083019080368337505060055482519293506001600160a01b03169183915060009061033657610336611053565b6001600160a01b03928316602091820292909201015260065482519116908290600190811061036757610367611053565b6001600160a01b03909216602092830291909101909101526000606461038e86606e611069565b6103989190611094565b6103ac9069d3c21bcecceda1000000611069565b6001546005546040516340d3096b60e11b8152929350612710926001600160a01b03928316926381a612d6926103e792911690600401610fcf565b602060405180830381865afa158015610404573d6000803e3d6000fd5b505050506040513d601f19601f8201168201806040525081019061042891906110b6565b610434906126f2611069565b61043e9190611094565b6003546005549194506001600160a01b0390811691637be7d141913491869116856104738b69d3c21bcecceda1000000611069565b8a338b6000662386f26fc100006000806040518d63ffffffff1660e01b81526004016104a99b9a99989796959493929190611113565b6000604051808303818588803b1580156104c257600080fd5b505af11580156104d6573d6000803e3d6000fd5b50505050505050505050565b60408051600180825281830190925260009160208083019080368337505060065482519293506001600160a01b03169183915060009061052457610524611053565b6001600160a01b039283166020918202929092010152600154600554604051637092736960e11b8152612710939283169263e124e6d29261056a92911690600401610fcf565b602060405180830381865afa158015610587573d6000803e3d6000fd5b505050506040513d601f19601f820116820180604052508101906105ab91906110b6565b6105b79061272e611069565b6105c19190611094565b6003546005549193506001600160a01b0390811691637be7d1419134918591166105f58969d3c21bcecceda1000000611069565b6106098a69d3c21bcecceda1000000611069565b89338a6000662386f26fc100006000806040518d63ffffffff1660e01b815260040161063f9b9a99989796959493929190611113565b6000604051808303818588803b15801561065857600080fd5b505af115801561066c573d6000803e3d6000fd5b505050505050505050565b6008546001600160a01b031633146106a15760405162461bcd60e51b81526004016102e490611030565b6006546008546040516323b872dd60e01b81526001600160a01b039182166004820152306024820152604481018590529116906323b872dd906064016020604051808303816000875af11580156106fc573d6000803e3d6000fd5b505050506040513d601f19601f820116820180604052508101906107209190611186565b5060065460025460405163095ea7b360e01b81526001600160a01b0391821660048201526024810185905291169063095ea7b3906044016020604051808303816000875af1158015610776573d6000803e3d6000fd5b505050506040513d601f19601f8201168201806040525081019061079a9190611186565b50600060646107aa84606e611069565b6107b49190611094565b6107c89069d3c21bcecceda1000000611069565b90506000821561096d57604080516002808252606082018352600092602083019080368337505060065482519293506001600160a01b03169183915060009061081357610813611053565b6001600160a01b03928316602091820292909201015260055482519116908290600190811061084457610844611053565b6001600160a01b039283166020918202929092010152600154600554604051637092736960e11b8152612710939283169263e124e6d29261088a92911690600401610fcf565b602060405180830381865afa1580156108a7573d6000803e3d6000fd5b505050506040513d601f19601f820116820180604052508101906108cb91906110b6565b6108d79061272e611069565b6108e19190611094565b60035460055460405163f2ae372f60e01b81529294506001600160a01b039182169263f2ae372f923492610935928792909116908b906000908b908d908c90662386f26fc1000090859081906004016111a3565b6000604051808303818588803b15801561094e57600080fd5b505af1158015610962573d6000803e3d6000fd5b505050505050610aa0565b60408051600180825281830190925260009160208083019080368337505060065482519293506001600160a01b0316918391506000906109af576109af611053565b6001600160a01b0392831660209182029290920101526001546005546040516340d3096b60e11b815261271093928316926381a612d6926109f592911690600401610fcf565b602060405180830381865afa158015610a12573d6000803e3d6000fd5b505050506040513d601f19601f82011682018060405250810190610a3691906110b6565b610a42906126f2611069565b610a4c9190611094565b60035460055460405163f2ae372f60e01b81529294506001600160a01b039182169263f2ae372f9234926104a9928792909116908b906000908b908d908c90662386f26fc1000090859081906004016111a3565b50505050565b610aae610ee7565b610ab86000610f41565b565b6008546001600160a01b03163314610ae45760405162461bcd60e51b81526004016102e490611030565b60008115610cdf57604080516002808252606082018352600092602083019080368337505060055482519293506001600160a01b031691839150600090610b2d57610b2d611053565b6001600160a01b039283166020918202929092010152600654825191169082906001908110610b5e57610b5e611053565b6001600160a01b039283166020918202929092010152600154600554604051634a3f088d60e01b815260009392831692634a3f088d92610bab923092919091169081908a9060040161120e565b610100604051808303816000875af1158015610bcb573d6000803e3d6000fd5b505050506040513d601f19601f82011682018060405250810190610bef9190611238565b50506001546005546040516340d3096b60e11b8152979850612710976001600160a01b0392831697506381a612d69650610c329550911692506004019050610fcf565b602060405180830381865afa158015610c4f573d6000803e3d6000fd5b505050506040513d601f19601f82011682018060405250810190610c7391906110b6565b610c7f906126f2611069565b610c899190611094565b600354600554604051637be7d14160e01b81529295506001600160a01b0391821692637be7d14192349261063f9288929091169060009088908c9033908d908590662386f26fc100009082908190600401611113565b60408051600180825281830190925260009160208083019080368337505060065482519293506001600160a01b031691839150600090610d2157610d21611053565b6001600160a01b039283166020918202929092010152600154600654600554604051634a3f088d60e01b815260009493841693634a3f088d93610d709330939183169216908a9060040161120e565b610100604051808303816000875af1158015610d90573d6000803e3d6000fd5b505050506040513d601f19601f82011682018060405250810190610db49190611238565b5050600154600554604051637092736960e11b8152979850612710976001600160a01b03928316975063e124e6d29650610df79550911692506004019050610fcf565b602060405180830381865afa158015610e14573d6000803e3d6000fd5b505050506040513d601f19601f82011682018060405250810190610e3891906110b6565b610c7f9061272e611069565b610e4c610ee7565b600880546001600160a01b0319166001600160a01b0392909216919091179055565b610e76610ee7565b6001600160a01b038116610edb5760405162461bcd60e51b815260206004820152602660248201527f4f776e61626c653a206e6577206f776e657220697320746865207a65726f206160448201526564647265737360d01b60648201526084016102e4565b610ee481610f41565b50565b6000546001600160a01b03163314610ab85760405162461bcd60e51b815260206004820181905260248201527f4f776e61626c653a2063616c6c6572206973206e6f7420746865206f776e657260448201526064016102e4565b600080546001600160a01b038381166001600160a01b0319831681178455604051919092169283917f8be0079c531659141344cd1fd0a4f28419497f9722a3daafe3b4186f6b6457e09190a35050565b8015158114610ee457600080fd5b60008060408385031215610fb257600080fd5b823591506020830135610fc481610f91565b809150509250929050565b6001600160a01b0391909116815260200190565b600060208284031215610ff557600080fd5b813561100081610f91565b9392505050565b60006020828403121561101957600080fd5b81356001600160a01b038116811461100057600080fd5b602080825260099082015268139bdd081d985d5b1d60ba1b604082015260600190565b634e487b7160e01b600052603260045260246000fd5b808202811582820484141761108e57634e487b7160e01b600052601160045260246000fd5b92915050565b6000826110b157634e487b7160e01b600052601260045260246000fd5b500490565b6000602082840312156110c857600080fd5b5051919050565b600081518084526020808501945080840160005b838110156111085781516001600160a01b0316875295820195908201906001016110e3565b509495945050505050565b60006101608083526111278184018f6110cf565b6001600160a01b039d8e166020850152604084019c909c5250506060810198909852951515608088015293881660a087015260c086019290925260e0850152610100840152151561012083015290921661014090920191909152919050565b60006020828403121561119857600080fd5b815161100081610f91565b60006101408083526111b78184018e6110cf565b6001600160a01b039c8d166020850152604084019b909b5250506060810197909752608087019590955292151560a086015260c085019190915260e084015261010083015290921661012090920191909152919050565b6001600160a01b039485168152928416602084015292166040820152901515606082015260800190565b600080600080600080600080610100898b03121561125557600080fd5b885197506020890151965060408901519550606089015194506080890151935060a0890151925060c089015161128a81610f91565b8092505060e08901519050929598509295989093965056fea264697066735822122000d00bb59b0b8ca9fed19d63066cced719b9f58bde457e9f1f73c11798ff282364736f6c63430008110033",
  "linkReferences": {},
  "deployedLinkReferences": {}
}