{
  "_format": "hh-sol-artifact-1",
  "contractName": "GMX_controller",
  "sourceName": "contracts/GMX_controller.sol",
  "abi": [
    {
      "inputs": [
        {
          "internalType": "address",
          "name": "_vault",
          "type": "address"
        }
      ],
      "stateMutability": "nonpayable",
      "type": "constructor"
    },
    {
      "anonymous": false,
      "inputs": [
        {
          "indexed": true,
          "internalType": "address",
          "name": "previousOwner",
          "type": "address"
        },
        {
          "indexed": true,
          "internalType": "address",
          "name": "newOwner",
          "type": "address"
        }
      ],
      "name": "OwnershipTransferred",
      "type": "event"
    },
    {
      "inputs": [],
      "name": "GMXexecutionFee",
      "outputs": [
        {
          "internalType": "uint256",
          "name": "",
          "type": "uint256"
        }
      ],
      "stateMutability": "view",
      "type": "function"
    },
    {
      "inputs": [],
      "name": "USDC",
      "outputs": [
        {
          "internalType": "address",
          "name": "",
          "type": "address"
        }
      ],
      "stateMutability": "view",
      "type": "function"
    },
    {
      "inputs": [],
      "name": "WETH",
      "outputs": [
        {
          "internalType": "address",
          "name": "",
          "type": "address"
        }
      ],
      "stateMutability": "view",
      "type": "function"
    },
    {
      "inputs": [
        {
          "internalType": "address",
          "name": "_to",
          "type": "address"
        },
        {
          "internalType": "uint256",
          "name": "tokenAmount",
          "type": "uint256"
        },
        {
          "internalType": "bool",
          "name": "isLong",
          "type": "bool"
        }
      ],
      "name": "decreasePosition",
      "outputs": [],
      "stateMutability": "payable",
      "type": "function"
    },
    {
      "inputs": [],
      "name": "getVaultOwner",
      "outputs": [
        {
          "internalType": "address",
          "name": "",
          "type": "address"
        }
      ],
      "stateMutability": "view",
      "type": "function"
    },
    {
      "inputs": [],
      "name": "gmxPositionRouter",
      "outputs": [
        {
          "internalType": "address",
          "name": "",
          "type": "address"
        }
      ],
      "stateMutability": "view",
      "type": "function"
    },
    {
      "inputs": [],
      "name": "gmxReader",
      "outputs": [
        {
          "internalType": "address",
          "name": "",
          "type": "address"
        }
      ],
      "stateMutability": "view",
      "type": "function"
    },
    {
      "inputs": [],
      "name": "gmxRouter",
      "outputs": [
        {
          "internalType": "address",
          "name": "",
          "type": "address"
        }
      ],
      "stateMutability": "view",
      "type": "function"
    },
    {
      "inputs": [],
      "name": "gmxVault",
      "outputs": [
        {
          "internalType": "address",
          "name": "",
          "type": "address"
        }
      ],
      "stateMutability": "view",
      "type": "function"
    },
    {
      "inputs": [
        {
          "internalType": "uint256",
          "name": "tokenAmount",
          "type": "uint256"
        },
        {
          "internalType": "bool",
          "name": "isLong",
          "type": "bool"
        }
      ],
      "name": "increasePosition",
      "outputs": [],
      "stateMutability": "payable",
      "type": "function"
    },
    {
      "inputs": [
        {
          "internalType": "bool",
          "name": "isLong",
          "type": "bool"
        }
      ],
      "name": "liquidatePosition",
      "outputs": [],
      "stateMutability": "payable",
      "type": "function"
    },
    {
      "inputs": [],
      "name": "owner",
      "outputs": [
        {
          "internalType": "address",
          "name": "",
          "type": "address"
        }
      ],
      "stateMutability": "view",
      "type": "function"
    },
    {
      "inputs": [],
      "name": "renounceOwnership",
      "outputs": [],
      "stateMutability": "nonpayable",
      "type": "function"
    },
    {
      "inputs": [
        {
          "internalType": "address",
          "name": "_addr",
          "type": "address"
        }
      ],
      "name": "setVaultOwner",
      "outputs": [],
      "stateMutability": "nonpayable",
      "type": "function"
    },
    {
      "inputs": [
        {
          "internalType": "address",
          "name": "newOwner",
          "type": "address"
        }
      ],
      "name": "transferOwnership",
      "outputs": [],
      "stateMutability": "nonpayable",
      "type": "function"
    },
    {
      "inputs": [],
      "name": "vault",
      "outputs": [
        {
          "internalType": "address",
          "name": "",
          "type": "address"
        }
      ],
      "stateMutability": "view",
      "type": "function"
    }
  ],
  "bytecode": "0x608060405273489ee077994b6658eafa855c308275ead8097c4a600160006101000a81548173ffffffffffffffffffffffffffffffffffffffff021916908373ffffffffffffffffffffffffffffffffffffffff16021790555073abbc5f99639c9b6bcb58544ddf04efa6802f4064600260006101000a81548173ffffffffffffffffffffffffffffffffffffffff021916908373ffffffffffffffffffffffffffffffffffffffff16021790555073b87a436b93ffe9d75c5cfa7bacfff96430b09868600360006101000a81548173ffffffffffffffffffffffffffffffffffffffff021916908373ffffffffffffffffffffffffffffffffffffffff1602179055507322199a49a999c351ef7927602cfb187ec3cae489600460006101000a81548173ffffffffffffffffffffffffffffffffffffffff021916908373ffffffffffffffffffffffffffffffffffffffff1602179055507382af49447d8a07e3bd95bd0d56f35241523fbab1600560006101000a81548173ffffffffffffffffffffffffffffffffffffffff021916908373ffffffffffffffffffffffffffffffffffffffff16021790555073ff970a61a04b1ca14834a43f5de4533ebddb5cc8600660006101000a81548173ffffffffffffffffffffffffffffffffffffffff021916908373ffffffffffffffffffffffffffffffffffffffff1602179055503480156200020f57600080fd5b506040516200367f3803806200367f8339818101604052810190620002359190620005af565b62000255620002496200047660201b60201c565b6200047e60201b60201c565b620002716708ee46326d7fb06560c01b6200054260201b60201c565b6200028d673fc5c24bd18a08a860c01b6200054260201b60201c565b80600860006101000a81548173ffffffffffffffffffffffffffffffffffffffff021916908373ffffffffffffffffffffffffffffffffffffffff160217905550620002ea67c01af79bc57fb80260c01b6200054260201b60201c565b6200030667a8d86946a9d03c4b60c01b6200054260201b60201c565b600260009054906101000a900473ffffffffffffffffffffffffffffffffffffffff1673ffffffffffffffffffffffffffffffffffffffff166338c74dd9600360009054906101000a900473ffffffffffffffffffffffffffffffffffffffff166040518263ffffffff1660e01b8152600401620003859190620005f2565b600060405180830381600087803b158015620003a057600080fd5b505af1158015620003b5573d6000803e3d6000fd5b50505050620003d5675f76e340ef8d950860c01b6200054260201b60201c565b600360009054906101000a900473ffffffffffffffffffffffffffffffffffffffff1673ffffffffffffffffffffffffffffffffffffffff166363ae21036040518163ffffffff1660e01b8152600401602060405180830381865afa15801562000443573d6000803e3d6000fd5b505050506040513d601f19601f820116820180604052508101906200046991906200064a565b600781905550506200067c565b600033905090565b60008060009054906101000a900473ffffffffffffffffffffffffffffffffffffffff169050816000806101000a81548173ffffffffffffffffffffffffffffffffffffffff021916908373ffffffffffffffffffffffffffffffffffffffff1602179055508173ffffffffffffffffffffffffffffffffffffffff168173ffffffffffffffffffffffffffffffffffffffff167f8be0079c531659141344cd1fd0a4f28419497f9722a3daafe3b4186f6b6457e060405160405180910390a35050565b50565b600080fd5b600073ffffffffffffffffffffffffffffffffffffffff82169050919050565b600062000577826200054a565b9050919050565b62000589816200056a565b81146200059557600080fd5b50565b600081519050620005a9816200057e565b92915050565b600060208284031215620005c857620005c762000545565b5b6000620005d88482850162000598565b91505092915050565b620005ec816200056a565b82525050565b6000602082019050620006096000830184620005e1565b92915050565b6000819050919050565b62000624816200060f565b81146200063057600080fd5b50565b600081519050620006448162000619565b92915050565b60006020828403121562000663576200066262000545565b5b6000620006738482850162000633565b91505092915050565b612ff3806200068c6000396000f3fe6080604052600436106100d35760003560e01c8063a44ca3461161007a578063a44ca346146101fc578063ad5c464814610227578063b3b3453e14610252578063be77cd321461027d578063c5dac33b146102a8578063c657e7c2146102c4578063f2fde38b146102ef578063fbfa77cf14610318576100d3565b80631c5ecc06146100d8578063434c0c75146100f4578063634e31801461011f578063715018a61461014a5780637cb175971461016157806380b3631c1461017d57806389a30271146101a65780638da5cb5b146101d1575b600080fd5b6100f260048036038101906100ed919061251b565b610343565b005b34801561010057600080fd5b50610109610da4565b604051610116919061256a565b60405180910390f35b34801561012b57600080fd5b50610134610daa565b60405161014191906125c6565b60405180910390f35b34801561015657600080fd5b5061015f610dd0565b005b61017b600480360381019061017691906125e1565b610de4565b005b34801561018957600080fd5b506101a4600480360381019061019f919061263a565b611831565b005b3480156101b257600080fd5b506101bb6118cd565b6040516101c891906125c6565b60405180910390f35b3480156101dd57600080fd5b506101e66118f3565b6040516101f391906125c6565b60405180910390f35b34801561020857600080fd5b5061021161191c565b60405161021e91906125c6565b60405180910390f35b34801561023357600080fd5b5061023c611982565b60405161024991906125c6565b60405180910390f35b34801561025e57600080fd5b506102676119a8565b60405161027491906125c6565b60405180910390f35b34801561028957600080fd5b506102926119ce565b60405161029f91906125c6565b60405180910390f35b6102c260048036038101906102bd9190612667565b6119f4565b005b3480156102d057600080fd5b506102d961228c565b6040516102e691906125c6565b60405180910390f35b3480156102fb57600080fd5b506103166004803603810190610311919061263a565b6122b2565b005b34801561032457600080fd5b5061032d612335565b60405161033a91906125c6565b60405180910390f35b610357675848b17c50b0dcaf60c01b61235b565b61036b678fe5f378bd9274ef60c01b61235b565b61037f67ee4e5aa144b33feb60c01b61235b565b61039367cbb54fb70efc30a560c01b61235b565b6103a767988b7c24b8d0bbd660c01b61235b565b600860009054906101000a900473ffffffffffffffffffffffffffffffffffffffff1673ffffffffffffffffffffffffffffffffffffffff163373ffffffffffffffffffffffffffffffffffffffff1614610437576040517f08c379a000000000000000000000000000000000000000000000000000000000815260040161042e90612717565b60405180910390fd5b61044b6743c2cb69ba4419c660c01b61235b565b61045f676035a21cf5484e5960c01b61235b565b610473672bd6ae97dee18b2e60c01b61235b565b61048767f40d17dc73d8c7ae60c01b61235b565b61049b67206f2d2b9074b0c560c01b61235b565b6104af6703eff4c557f3580a60c01b61235b565b600660009054906101000a900473ffffffffffffffffffffffffffffffffffffffff1673ffffffffffffffffffffffffffffffffffffffff166323b872dd600860009054906101000a900473ffffffffffffffffffffffffffffffffffffffff1630856040518463ffffffff1660e01b815260040161053093929190612737565b6020604051808303816000875af115801561054f573d6000803e3d6000fd5b505050506040513d601f19601f820116820180604052508101906105739190612783565b50610588673a68f175724c8b4a60c01b61235b565b61059c67ea71f8a5066e5a1560c01b61235b565b600660009054906101000a900473ffffffffffffffffffffffffffffffffffffffff1673ffffffffffffffffffffffffffffffffffffffff1663095ea7b3600260009054906101000a900473ffffffffffffffffffffffffffffffffffffffff16846040518363ffffffff1660e01b815260040161061b9291906127b0565b6020604051808303816000875af115801561063a573d6000803e3d6000fd5b505050506040513d601f19601f8201168201806040525081019061065e9190612783565b50610673675479db7026163f0460c01b61235b565b61068767cf01da945018afb760c01b61235b565b600069d3c21bcecceda10000006064606e856106a39190612808565b6106ad9190612879565b6106b79190612808565b90506106cd67d6a4f06c3d22d7a160c01b61235b565b6106e167dec70ad60c5d210a60c01b61235b565b60006106f7675d6e90f8f2adeb6c60c01b61235b565b61070b67a12876802e972cb460c01b61235b565b8215610aac5761072567b479f82d7e8e75c360c01b61235b565b6107396787fa0c00248c063d60c01b61235b565b61074d67f00d09ca87507dda60c01b61235b565b6000600267ffffffffffffffff81111561076a576107696128aa565b5b6040519080825280602002602001820160405280156107985781602001602082028036833780820191505090505b5090506107af67ef816e1277e0c56e60c01b61235b565b600660009054906101000a900473ffffffffffffffffffffffffffffffffffffffff16816000815181106107e6576107e56128d9565b5b602002602001019073ffffffffffffffffffffffffffffffffffffffff16908173ffffffffffffffffffffffffffffffffffffffff168152505061083467e86c42e023b259b060c01b61235b565b600560009054906101000a900473ffffffffffffffffffffffffffffffffffffffff168160018151811061086b5761086a6128d9565b5b602002602001019073ffffffffffffffffffffffffffffffffffffffff16908173ffffffffffffffffffffffffffffffffffffffff16815250506108b967e734a57e6ab365e560c01b61235b565b61271061272e600160009054906101000a900473ffffffffffffffffffffffffffffffffffffffff1673ffffffffffffffffffffffffffffffffffffffff1663e124e6d2600560009054906101000a900473ffffffffffffffffffffffffffffffffffffffff166040518263ffffffff1660e01b815260040161093c91906125c6565b602060405180830381865afa158015610959573d6000803e3d6000fd5b505050506040513d601f19601f8201168201806040525081019061097d919061291d565b6109879190612808565b6109919190612879565b91506109a767378f1445143d69de60c01b61235b565b6109bb6710b89684857b94db60c01b61235b565b600360009054906101000a900473ffffffffffffffffffffffffffffffffffffffff1673ffffffffffffffffffffffffffffffffffffffff1663f2ae372f3483600560009054906101000a900473ffffffffffffffffffffffffffffffffffffffff16896000898b8a662386f26fc100007f6d79726566657272616c4d6176696e696769000000000000000000000000000060006040518c63ffffffff1660e01b8152600401610a749a99989796959493929190612ae9565b6000604051808303818588803b158015610a8d57600080fd5b505af1158015610aa1573d6000803e3d6000fd5b505050505050610d9e565b610ac0670e1f89f856110e1f60c01b61235b565b610ad46751844d4f6ee0f1e660c01b61235b565b610ae86724e22610752dab5960c01b61235b565b6000600167ffffffffffffffff811115610b0557610b046128aa565b5b604051908082528060200260200182016040528015610b335781602001602082028036833780820191505090505b509050610b4a6715b6c517800dfec460c01b61235b565b600660009054906101000a900473ffffffffffffffffffffffffffffffffffffffff1681600081518110610b8157610b806128d9565b5b602002602001019073ffffffffffffffffffffffffffffffffffffffff16908173ffffffffffffffffffffffffffffffffffffffff1681525050610bcf679c4ddd374681def560c01b61235b565b6127106126f2600160009054906101000a900473ffffffffffffffffffffffffffffffffffffffff1673ffffffffffffffffffffffffffffffffffffffff166381a612d6600560009054906101000a900473ffffffffffffffffffffffffffffffffffffffff166040518263ffffffff1660e01b8152600401610c5291906125c6565b602060405180830381865afa158015610c6f573d6000803e3d6000fd5b505050506040513d601f19601f82011682018060405250810190610c93919061291d565b610c9d9190612808565b610ca79190612879565b9150610cbd6790f025f76c3d453960c01b61235b565b610cd167cca908015141a64760c01b61235b565b600360009054906101000a900473ffffffffffffffffffffffffffffffffffffffff1673ffffffffffffffffffffffffffffffffffffffff1663f2ae372f3483600560009054906101000a900473ffffffffffffffffffffffffffffffffffffffff16896000898b8a662386f26fc100006000806040518c63ffffffff1660e01b8152600401610d6a9a99989796959493929190612bbd565b6000604051808303818588803b158015610d8357600080fd5b505af1158015610d97573d6000803e3d6000fd5b5050505050505b50505050565b60075481565b600260009054906101000a900473ffffffffffffffffffffffffffffffffffffffff1681565b610dd861235e565b610de260006123dc565b565b610df867c00880968dcbed6e60c01b61235b565b610e0c678fe5f378bd9274ef60c01b61235b565b610e2067ee4e5aa144b33feb60c01b61235b565b610e3467cbb54fb70efc30a560c01b61235b565b610e4867988b7c24b8d0bbd660c01b61235b565b600860009054906101000a900473ffffffffffffffffffffffffffffffffffffffff1673ffffffffffffffffffffffffffffffffffffffff163373ffffffffffffffffffffffffffffffffffffffff1614610ed8576040517f08c379a0000000000000000000000000000000000000000000000000000000008152600401610ecf90612717565b60405180910390fd5b610eec6743c2cb69ba4419c660c01b61235b565b610f00676035a21cf5484e5960c01b61235b565b610f1467545c698a0c82c81560c01b61235b565b610f286720617779615ab21260c01b61235b565b610f3c671afa78798c49b0a060c01b61235b565b610f50675f0cd7816eedd49860c01b61235b565b6000610f6667ef1c88ab6d58966660c01b61235b565b610f7a67e0496f9dc5d7895360c01b61235b565b811561141b57610f946778b14ade977f8f9260c01b61235b565b610fa86792546aa97513e1cb60c01b61235b565b610fbc6702bcdd008c59786960c01b61235b565b6000600267ffffffffffffffff811115610fd957610fd86128aa565b5b6040519080825280602002602001820160405280156110075781602001602082028036833780820191505090505b50905061101e67d6a40d5acd88ad4860c01b61235b565b600560009054906101000a900473ffffffffffffffffffffffffffffffffffffffff1681600081518110611055576110546128d9565b5b602002602001019073ffffffffffffffffffffffffffffffffffffffff16908173ffffffffffffffffffffffffffffffffffffffff16815250506110a3677a15c3a9ef1068ea60c01b61235b565b600660009054906101000a900473ffffffffffffffffffffffffffffffffffffffff16816001815181106110da576110d96128d9565b5b602002602001019073ffffffffffffffffffffffffffffffffffffffff16908173ffffffffffffffffffffffffffffffffffffffff16815250506111286733802205e8dedfb760c01b61235b565b61113c67d667df8e75ba9a7460c01b61235b565b6000600160009054906101000a900473ffffffffffffffffffffffffffffffffffffffff1673ffffffffffffffffffffffffffffffffffffffff16634a3f088d30600560009054906101000a900473ffffffffffffffffffffffffffffffffffffffff16600560009054906101000a900473ffffffffffffffffffffffffffffffffffffffff16886040518563ffffffff1660e01b81526004016111e39493929190612c60565b610100604051808303816000875af1158015611203573d6000803e3d6000fd5b505050506040513d601f19601f820116820180604052508101906112279190612ca5565b505050505050509050611244670fc086f4a8793b3d60c01b61235b565b6127106126f2600160009054906101000a900473ffffffffffffffffffffffffffffffffffffffff1673ffffffffffffffffffffffffffffffffffffffff166381a612d6600560009054906101000a900473ffffffffffffffffffffffffffffffffffffffff166040518263ffffffff1660e01b81526004016112c791906125c6565b602060405180830381865afa1580156112e4573d6000803e3d6000fd5b505050506040513d601f19601f82011682018060405250810190611308919061291d565b6113129190612808565b61131c9190612879565b925061133267ab6380d5ffd1cfbc60c01b61235b565b611346676983cdd5e6d1e2ae60c01b61235b565b600360009054906101000a900473ffffffffffffffffffffffffffffffffffffffff1673ffffffffffffffffffffffffffffffffffffffff16637be7d1413484600560009054906101000a900473ffffffffffffffffffffffffffffffffffffffff166000868a338b6000662386f26fc100006000806040518d63ffffffff1660e01b81526004016113e29b9a99989796959493929190612d5b565b6000604051808303818588803b1580156113fb57600080fd5b505af115801561140f573d6000803e3d6000fd5b5050505050505061182d565b61142f670edcd19268fcba5d60c01b61235b565b61144367fc6bf86706d6e9ee60c01b61235b565b6114576781ca735161f3fdfc60c01b61235b565b6000600167ffffffffffffffff811115611474576114736128aa565b5b6040519080825280602002602001820160405280156114a25781602001602082028036833780820191505090505b5090506114b967b10cffe6a115529b60c01b61235b565b600660009054906101000a900473ffffffffffffffffffffffffffffffffffffffff16816000815181106114f0576114ef6128d9565b5b602002602001019073ffffffffffffffffffffffffffffffffffffffff16908173ffffffffffffffffffffffffffffffffffffffff168152505061153e67ef7753341c33871b60c01b61235b565b6115526780639155c039508760c01b61235b565b6000600160009054906101000a900473ffffffffffffffffffffffffffffffffffffffff1673ffffffffffffffffffffffffffffffffffffffff16634a3f088d30600660009054906101000a900473ffffffffffffffffffffffffffffffffffffffff16600560009054906101000a900473ffffffffffffffffffffffffffffffffffffffff16886040518563ffffffff1660e01b81526004016115f99493929190612c60565b610100604051808303816000875af1158015611619573d6000803e3d6000fd5b505050506040513d601f19601f8201168201806040525081019061163d9190612ca5565b50505050505050905061165a67fa0ff1f80240575d60c01b61235b565b61271061272e600160009054906101000a900473ffffffffffffffffffffffffffffffffffffffff1673ffffffffffffffffffffffffffffffffffffffff1663e124e6d2600560009054906101000a900473ffffffffffffffffffffffffffffffffffffffff166040518263ffffffff1660e01b81526004016116dd91906125c6565b602060405180830381865afa1580156116fa573d6000803e3d6000fd5b505050506040513d601f19601f8201168201806040525081019061171e919061291d565b6117289190612808565b6117329190612879565b9250611748676e78189e13a6a40160c01b61235b565b61175c670dc1dcf734e9186760c01b61235b565b600360009054906101000a900473ffffffffffffffffffffffffffffffffffffffff1673ffffffffffffffffffffffffffffffffffffffff16637be7d1413484600560009054906101000a900473ffffffffffffffffffffffffffffffffffffffff166000868a338b6000662386f26fc100006000806040518d63ffffffff1660e01b81526004016117f89b9a99989796959493929190612d5b565b6000604051808303818588803b15801561181157600080fd5b505af1158015611825573d6000803e3d6000fd5b505050505050505b5050565b611845679a6667c3c521fbbf60c01b61235b565b61184d61235e565b61186167804f5a66e8c6ba0e60c01b61235b565b61187567c2c067e571d55b4260c01b61235b565b61188967e8f0b11f079034c860c01b61235b565b80600860006101000a81548173ffffffffffffffffffffffffffffffffffffffff021916908373ffffffffffffffffffffffffffffffffffffffff16021790555050565b600660009054906101000a900473ffffffffffffffffffffffffffffffffffffffff1681565b60008060009054906101000a900473ffffffffffffffffffffffffffffffffffffffff16905090565b600061193267658f1d8c5d2568ad60c01b61235b565b611946679caaddd1901eca9e60c01b61235b565b61195a674b6831b2f549d9c160c01b61235b565b600860009054906101000a900473ffffffffffffffffffffffffffffffffffffffff16905090565b600560009054906101000a900473ffffffffffffffffffffffffffffffffffffffff1681565b600160009054906101000a900473ffffffffffffffffffffffffffffffffffffffff1681565b600460009054906101000a900473ffffffffffffffffffffffffffffffffffffffff1681565b611a0867642c7c0851bb5f5160c01b61235b565b611a1c678fe5f378bd9274ef60c01b61235b565b611a3067ee4e5aa144b33feb60c01b61235b565b611a4467cbb54fb70efc30a560c01b61235b565b611a5867988b7c24b8d0bbd660c01b61235b565b600860009054906101000a900473ffffffffffffffffffffffffffffffffffffffff1673ffffffffffffffffffffffffffffffffffffffff163373ffffffffffffffffffffffffffffffffffffffff1614611ae8576040517f08c379a0000000000000000000000000000000000000000000000000000000008152600401611adf90612717565b60405180910390fd5b611afc6743c2cb69ba4419c660c01b61235b565b611b10676035a21cf5484e5960c01b61235b565b611b246702e714c591ed95eb60c01b61235b565b611b3867f6867ed3f053794960c01b61235b565b611b4c6711f9b60e14718c8760c01b61235b565b611b6067093401ea0b00509660c01b61235b565b6000611b7667d8deab08e8b253be60c01b61235b565b611b8a676f3ed6b1647896f960c01b61235b565b600069d3c21bcecceda10000006064606e86611ba69190612808565b611bb09190612879565b611bba9190612808565b9050611bd0675bd9ba6f7736cd6960c01b61235b565b611be4675e7ff7da2a4f277b60c01b61235b565b8215611f7c57611bfe67e19d8f750d933c4860c01b61235b565b611c126703afddbb14621bd960c01b61235b565b611c266786dfbd5396dab2f260c01b61235b565b6000600267ffffffffffffffff811115611c4357611c426128aa565b5b604051908082528060200260200182016040528015611c715781602001602082028036833780820191505090505b509050611c8867b80ba6d905d38c4560c01b61235b565b600560009054906101000a900473ffffffffffffffffffffffffffffffffffffffff1681600081518110611cbf57611cbe6128d9565b5b602002602001019073ffffffffffffffffffffffffffffffffffffffff16908173ffffffffffffffffffffffffffffffffffffffff1681525050611d0d670d53fccc7d673fe060c01b61235b565b600660009054906101000a900473ffffffffffffffffffffffffffffffffffffffff1681600181518110611d4457611d436128d9565b5b602002602001019073ffffffffffffffffffffffffffffffffffffffff16908173ffffffffffffffffffffffffffffffffffffffff1681525050611d92675d71f8fabfd2142f60c01b61235b565b6127106126f2600160009054906101000a900473ffffffffffffffffffffffffffffffffffffffff1673ffffffffffffffffffffffffffffffffffffffff166381a612d6600560009054906101000a900473ffffffffffffffffffffffffffffffffffffffff166040518263ffffffff1660e01b8152600401611e1591906125c6565b602060405180830381865afa158015611e32573d6000803e3d6000fd5b505050506040513d601f19601f82011682018060405250810190611e56919061291d565b611e609190612808565b611e6a9190612879565b9250611e8067db832fe5eb6ea54d60c01b61235b565b611e94676319a53b805d1ff360c01b61235b565b600360009054906101000a900473ffffffffffffffffffffffffffffffffffffffff1673ffffffffffffffffffffffffffffffffffffffff16637be7d1413483600560009054906101000a900473ffffffffffffffffffffffffffffffffffffffff1669d3c21bcecceda10000008a611f0d9190612808565b878a8d8b6000662386f26fc100006000806040518d63ffffffff1660e01b8152600401611f449b9a99989796959493929190612e0d565b6000604051808303818588803b158015611f5d57600080fd5b505af1158015611f71573d6000803e3d6000fd5b505050505050612285565b611f9067a2f4ad0cb421bf5160c01b61235b565b611fa4674bf427ae2c4413a660c01b61235b565b611fb8671362a3b05819dfe760c01b61235b565b6000600167ffffffffffffffff811115611fd557611fd46128aa565b5b6040519080825280602002602001820160405280156120035781602001602082028036833780820191505090505b50905061201a67e2651fb36b868cde60c01b61235b565b600660009054906101000a900473ffffffffffffffffffffffffffffffffffffffff1681600081518110612051576120506128d9565b5b602002602001019073ffffffffffffffffffffffffffffffffffffffff16908173ffffffffffffffffffffffffffffffffffffffff168152505061209f6728c7a8de09890f2360c01b61235b565b61271061272e600160009054906101000a900473ffffffffffffffffffffffffffffffffffffffff1673ffffffffffffffffffffffffffffffffffffffff1663e124e6d2600560009054906101000a900473ffffffffffffffffffffffffffffffffffffffff166040518263ffffffff1660e01b815260040161212291906125c6565b602060405180830381865afa15801561213f573d6000803e3d6000fd5b505050506040513d601f19601f82011682018060405250810190612163919061291d565b61216d9190612808565b6121779190612879565b925061218d670b43feaa380e34bd60c01b61235b565b6121a1679c40201030ebe6a160c01b61235b565b600360009054906101000a900473ffffffffffffffffffffffffffffffffffffffff1673ffffffffffffffffffffffffffffffffffffffff16637be7d1413483600560009054906101000a900473ffffffffffffffffffffffffffffffffffffffff1669d3c21bcecceda10000008a61221a9190612808565b878a8d8b6000662386f26fc100006000806040518d63ffffffff1660e01b81526004016122519b9a99989796959493929190612e0d565b6000604051808303818588803b15801561226a57600080fd5b505af115801561227e573d6000803e3d6000fd5b5050505050505b5050505050565b600360009054906101000a900473ffffffffffffffffffffffffffffffffffffffff1681565b6122ba61235e565b600073ffffffffffffffffffffffffffffffffffffffff168173ffffffffffffffffffffffffffffffffffffffff1603612329576040517f08c379a000000000000000000000000000000000000000000000000000000000815260040161232090612f31565b60405180910390fd5b612332816123dc565b50565b600860009054906101000a900473ffffffffffffffffffffffffffffffffffffffff1681565b50565b6123666124a0565b73ffffffffffffffffffffffffffffffffffffffff166123846118f3565b73ffffffffffffffffffffffffffffffffffffffff16146123da576040517f08c379a00000000000000000000000000000000000000000000000000000000081526004016123d190612f9d565b60405180910390fd5b565b60008060009054906101000a900473ffffffffffffffffffffffffffffffffffffffff169050816000806101000a81548173ffffffffffffffffffffffffffffffffffffffff021916908373ffffffffffffffffffffffffffffffffffffffff1602179055508173ffffffffffffffffffffffffffffffffffffffff168173ffffffffffffffffffffffffffffffffffffffff167f8be0079c531659141344cd1fd0a4f28419497f9722a3daafe3b4186f6b6457e060405160405180910390a35050565b600033905090565b600080fd5b6000819050919050565b6124c0816124ad565b81146124cb57600080fd5b50565b6000813590506124dd816124b7565b92915050565b60008115159050919050565b6124f8816124e3565b811461250357600080fd5b50565b600081359050612515816124ef565b92915050565b60008060408385031215612532576125316124a8565b5b6000612540858286016124ce565b925050602061255185828601612506565b9150509250929050565b612564816124ad565b82525050565b600060208201905061257f600083018461255b565b92915050565b600073ffffffffffffffffffffffffffffffffffffffff82169050919050565b60006125b082612585565b9050919050565b6125c0816125a5565b82525050565b60006020820190506125db60008301846125b7565b92915050565b6000602082840312156125f7576125f66124a8565b5b600061260584828501612506565b91505092915050565b612617816125a5565b811461262257600080fd5b50565b6000813590506126348161260e565b92915050565b6000602082840312156126505761264f6124a8565b5b600061265e84828501612625565b91505092915050565b6000806000606084860312156126805761267f6124a8565b5b600061268e86828701612625565b935050602061269f868287016124ce565b92505060406126b086828701612506565b9150509250925092565b600082825260208201905092915050565b7f4e6f74207661756c740000000000000000000000000000000000000000000000600082015250565b60006127016009836126ba565b915061270c826126cb565b602082019050919050565b60006020820190508181036000830152612730816126f4565b9050919050565b600060608201905061274c60008301866125b7565b61275960208301856125b7565b612766604083018461255b565b949350505050565b60008151905061277d816124ef565b92915050565b600060208284031215612799576127986124a8565b5b60006127a78482850161276e565b91505092915050565b60006040820190506127c560008301856125b7565b6127d2602083018461255b565b9392505050565b7f4e487b7100000000000000000000000000000000000000000000000000000000600052601160045260246000fd5b6000612813826124ad565b915061281e836124ad565b925082820261282c816124ad565b91508282048414831517612843576128426127d9565b5b5092915050565b7f4e487b7100000000000000000000000000000000000000000000000000000000600052601260045260246000fd5b6000612884826124ad565b915061288f836124ad565b92508261289f5761289e61284a565b5b828204905092915050565b7f4e487b7100000000000000000000000000000000000000000000000000000000600052604160045260246000fd5b7f4e487b7100000000000000000000000000000000000000000000000000000000600052603260045260246000fd5b600081519050612917816124b7565b92915050565b600060208284031215612933576129326124a8565b5b600061294184828501612908565b91505092915050565b600081519050919050565b600082825260208201905092915050565b6000819050602082019050919050565b61297f816125a5565b82525050565b60006129918383612976565b60208301905092915050565b6000602082019050919050565b60006129b58261294a565b6129bf8185612955565b93506129ca83612966565b8060005b838110156129fb5781516129e28882612985565b97506129ed8361299d565b9250506001810190506129ce565b5085935050505092915050565b6000819050919050565b6000819050919050565b6000612a37612a32612a2d84612a08565b612a12565b6124ad565b9050919050565b612a4781612a1c565b82525050565b612a56816124e3565b82525050565b6000819050919050565b6000612a81612a7c612a7784612a5c565b612a12565b6124ad565b9050919050565b612a9181612a66565b82525050565b6000819050919050565b6000819050919050565b60008160001b9050919050565b6000612ad3612ace612ac984612a97565b612aab565b612aa1565b9050919050565b612ae381612ab8565b82525050565b6000610140820190508181036000830152612b04818d6129aa565b9050612b13602083018c6125b7565b612b20604083018b61255b565b612b2d606083018a612a3e565b612b3a608083018961255b565b612b4760a0830188612a4d565b612b5460c083018761255b565b612b6160e0830186612a88565b612b6f610100830185612ada565b612b7d6101208301846125b7565b9b9a5050505050505050505050565b6000612ba7612ba2612b9d84612a08565b612aab565b612aa1565b9050919050565b612bb781612b8c565b82525050565b6000610140820190508181036000830152612bd8818d6129aa565b9050612be7602083018c6125b7565b612bf4604083018b61255b565b612c01606083018a612a3e565b612c0e608083018961255b565b612c1b60a0830188612a4d565b612c2860c083018761255b565b612c3560e0830186612a88565b612c43610100830185612bae565b612c516101208301846125b7565b9b9a5050505050505050505050565b6000608082019050612c7560008301876125b7565b612c8260208301866125b7565b612c8f60408301856125b7565b612c9c6060830184612a4d565b95945050505050565b600080600080600080600080610100898b031215612cc657612cc56124a8565b5b6000612cd48b828c01612908565b9850506020612ce58b828c01612908565b9750506040612cf68b828c01612908565b9650506060612d078b828c01612908565b9550506080612d188b828c01612908565b94505060a0612d298b828c01612908565b93505060c0612d3a8b828c0161276e565b92505060e0612d4b8b828c01612908565b9150509295985092959890939650565b6000610160820190508181036000830152612d76818e6129aa565b9050612d85602083018d6125b7565b612d92604083018c612a3e565b612d9f606083018b61255b565b612dac608083018a612a4d565b612db960a08301896125b7565b612dc660c083018861255b565b612dd360e0830187612a3e565b612de1610100830186612a88565b612def610120830185612a4d565b612dfd6101408301846125b7565b9c9b505050505050505050505050565b6000610160820190508181036000830152612e28818e6129aa565b9050612e37602083018d6125b7565b612e44604083018c61255b565b612e51606083018b61255b565b612e5e608083018a612a4d565b612e6b60a08301896125b7565b612e7860c083018861255b565b612e8560e0830187612a3e565b612e93610100830186612a88565b612ea1610120830185612a4d565b612eaf6101408301846125b7565b9c9b505050505050505050505050565b7f4f776e61626c653a206e6577206f776e657220697320746865207a65726f206160008201527f6464726573730000000000000000000000000000000000000000000000000000602082015250565b6000612f1b6026836126ba565b9150612f2682612ebf565b604082019050919050565b60006020820190508181036000830152612f4a81612f0e565b9050919050565b7f4f776e61626c653a2063616c6c6572206973206e6f7420746865206f776e6572600082015250565b6000612f876020836126ba565b9150612f9282612f51565b602082019050919050565b60006020820190508181036000830152612fb681612f7a565b905091905056fea26469706673582212200918014867c2b5bbcea759ee31aa92f744efe0ac27e22a304d1926611a7fbd7664736f6c63430008110033",
  "linkReferences": {},
  "deployedLinkReferences": {}
}