{
  "_format": "hh-sol-artifact-1",
  "contractName": "MyVault",
  "sourceName": "contracts/MyVault.sol",
  "abi": [
    {
      "inputs": [],
      "stateMutability": "nonpayable",
      "type": "constructor"
    },
    {
      "anonymous": false,
      "inputs": [
        {
          "indexed": true,
          "internalType": "address",
          "name": "owner",
          "type": "address"
        },
        {
          "indexed": true,
          "internalType": "address",
          "name": "spender",
          "type": "address"
        },
        {
          "indexed": false,
          "internalType": "uint256",
          "name": "value",
          "type": "uint256"
        }
      ],
      "name": "Approval",
      "type": "event"
    },
    {
      "anonymous": false,
      "inputs": [
        {
          "indexed": false,
          "internalType": "address",
          "name": "tokenAddress",
          "type": "address"
        }
      ],
      "name": "NewTokenAdded",
      "type": "event"
    },
    {
      "anonymous": false,
      "inputs": [
        {
          "indexed": true,
          "internalType": "address",
          "name": "previousOwner",
          "type": "address"
        },
        {
          "indexed": true,
          "internalType": "address",
          "name": "newOwner",
          "type": "address"
        }
      ],
      "name": "OwnershipTransferred",
      "type": "event"
    },
    {
      "anonymous": false,
      "inputs": [
        {
          "indexed": false,
          "internalType": "address",
          "name": "tokenAddress",
          "type": "address"
        }
      ],
      "name": "TokenRemoved",
      "type": "event"
    },
    {
      "anonymous": false,
      "inputs": [
        {
          "indexed": true,
          "internalType": "address",
          "name": "from",
          "type": "address"
        },
        {
          "indexed": true,
          "internalType": "address",
          "name": "to",
          "type": "address"
        },
        {
          "indexed": false,
          "internalType": "uint256",
          "name": "value",
          "type": "uint256"
        }
      ],
      "name": "Transfer",
      "type": "event"
    },
    {
      "inputs": [],
      "name": "GMX_controller",
      "outputs": [
        {
          "internalType": "address",
          "name": "",
          "type": "address"
        }
      ],
      "stateMutability": "view",
      "type": "function"
    },
    {
      "inputs": [],
      "name": "USDC",
      "outputs": [
        {
          "internalType": "address",
          "name": "",
          "type": "address"
        }
      ],
      "stateMutability": "view",
      "type": "function"
    },
    {
      "inputs": [],
      "name": "WETH",
      "outputs": [
        {
          "internalType": "address",
          "name": "",
          "type": "address"
        }
      ],
      "stateMutability": "view",
      "type": "function"
    },
    {
      "inputs": [
        {
          "internalType": "address",
          "name": "tokenAddress",
          "type": "address"
        }
      ],
      "name": "acceptToken",
      "outputs": [],
      "stateMutability": "nonpayable",
      "type": "function"
    },
    {
      "inputs": [
        {
          "internalType": "address",
          "name": "owner",
          "type": "address"
        },
        {
          "internalType": "address",
          "name": "spender",
          "type": "address"
        }
      ],
      "name": "allowance",
      "outputs": [
        {
          "internalType": "uint256",
          "name": "",
          "type": "uint256"
        }
      ],
      "stateMutability": "view",
      "type": "function"
    },
    {
      "inputs": [
        {
          "internalType": "address",
          "name": "spender",
          "type": "address"
        },
        {
          "internalType": "uint256",
          "name": "amount",
          "type": "uint256"
        }
      ],
      "name": "approve",
      "outputs": [
        {
          "internalType": "bool",
          "name": "",
          "type": "bool"
        }
      ],
      "stateMutability": "nonpayable",
      "type": "function"
    },
    {
      "inputs": [
        {
          "internalType": "address",
          "name": "account",
          "type": "address"
        }
      ],
      "name": "balanceOf",
      "outputs": [
        {
          "internalType": "uint256",
          "name": "",
          "type": "uint256"
        }
      ],
      "stateMutability": "view",
      "type": "function"
    },
    {
      "inputs": [],
      "name": "collateral",
      "outputs": [
        {
          "internalType": "uint256",
          "name": "",
          "type": "uint256"
        }
      ],
      "stateMutability": "view",
      "type": "function"
    },
    {
      "inputs": [],
      "name": "decimals",
      "outputs": [
        {
          "internalType": "uint8",
          "name": "",
          "type": "uint8"
        }
      ],
      "stateMutability": "view",
      "type": "function"
    },
    {
      "inputs": [
        {
          "internalType": "address",
          "name": "spender",
          "type": "address"
        },
        {
          "internalType": "uint256",
          "name": "subtractedValue",
          "type": "uint256"
        }
      ],
      "name": "decreaseAllowance",
      "outputs": [
        {
          "internalType": "bool",
          "name": "",
          "type": "bool"
        }
      ],
      "stateMutability": "nonpayable",
      "type": "function"
    },
    {
      "inputs": [],
      "name": "deltavalue",
      "outputs": [
        {
          "internalType": "uint256",
          "name": "",
          "type": "uint256"
        }
      ],
      "stateMutability": "view",
      "type": "function"
    },
    {
      "inputs": [
        {
          "internalType": "address",
          "name": "tokenAddress",
          "type": "address"
        },
        {
          "internalType": "uint256",
          "name": "_amount",
          "type": "uint256"
        }
      ],
      "name": "deposit",
      "outputs": [],
      "stateMutability": "payable",
      "type": "function"
    },
    {
      "inputs": [],
      "name": "exposition",
      "outputs": [
        {
          "internalType": "uint8",
          "name": "",
          "type": "uint8"
        }
      ],
      "stateMutability": "view",
      "type": "function"
    },
    {
      "inputs": [],
      "name": "getExposition",
      "outputs": [
        {
          "internalType": "uint8",
          "name": "",
          "type": "uint8"
        }
      ],
      "stateMutability": "view",
      "type": "function"
    },
    {
      "inputs": [],
      "name": "getGMX_controller",
      "outputs": [
        {
          "internalType": "address",
          "name": "",
          "type": "address"
        }
      ],
      "stateMutability": "view",
      "type": "function"
    },
    {
      "inputs": [],
      "name": "getNetAssetValue",
      "outputs": [
        {
          "internalType": "uint256",
          "name": "",
          "type": "uint256"
        }
      ],
      "stateMutability": "view",
      "type": "function"
    },
    {
      "inputs": [],
      "name": "gmxVault",
      "outputs": [
        {
          "internalType": "address",
          "name": "",
          "type": "address"
        }
      ],
      "stateMutability": "view",
      "type": "function"
    },
    {
      "inputs": [
        {
          "internalType": "address",
          "name": "spender",
          "type": "address"
        },
        {
          "internalType": "uint256",
          "name": "addedValue",
          "type": "uint256"
        }
      ],
      "name": "increaseAllowance",
      "outputs": [
        {
          "internalType": "bool",
          "name": "",
          "type": "bool"
        }
      ],
      "stateMutability": "nonpayable",
      "type": "function"
    },
    {
      "inputs": [
        {
          "internalType": "address",
          "name": "tokenAddress",
          "type": "address"
        }
      ],
      "name": "isAccepted",
      "outputs": [
        {
          "internalType": "bool",
          "name": "",
          "type": "bool"
        }
      ],
      "stateMutability": "view",
      "type": "function"
    },
    {
      "inputs": [],
      "name": "isOpen",
      "outputs": [
        {
          "internalType": "bool",
          "name": "",
          "type": "bool"
        }
      ],
      "stateMutability": "view",
      "type": "function"
    },
    {
      "inputs": [],
      "name": "liquidatePositions",
      "outputs": [],
      "stateMutability": "payable",
      "type": "function"
    },
    {
      "inputs": [],
      "name": "name",
      "outputs": [
        {
          "internalType": "string",
          "name": "",
          "type": "string"
        }
      ],
      "stateMutability": "view",
      "type": "function"
    },
    {
      "inputs": [],
      "name": "netAssetValue",
      "outputs": [
        {
          "internalType": "uint256",
          "name": "",
          "type": "uint256"
        }
      ],
      "stateMutability": "view",
      "type": "function"
    },
    {
      "inputs": [],
      "name": "openPosition",
      "outputs": [],
      "stateMutability": "payable",
      "type": "function"
    },
    {
      "inputs": [],
      "name": "owner",
      "outputs": [
        {
          "internalType": "address",
          "name": "",
          "type": "address"
        }
      ],
      "stateMutability": "view",
      "type": "function"
    },
    {
      "inputs": [
        {
          "internalType": "address",
          "name": "tokenAddress",
          "type": "address"
        }
      ],
      "name": "removeToken",
      "outputs": [],
      "stateMutability": "nonpayable",
      "type": "function"
    },
    {
      "inputs": [],
      "name": "renounceOwnership",
      "outputs": [],
      "stateMutability": "nonpayable",
      "type": "function"
    },
    {
      "inputs": [
        {
          "internalType": "uint8",
          "name": "_exposition",
          "type": "uint8"
        }
      ],
      "name": "setExposition",
      "outputs": [],
      "stateMutability": "nonpayable",
      "type": "function"
    },
    {
      "inputs": [
        {
          "internalType": "address",
          "name": "_addr",
          "type": "address"
        }
      ],
      "name": "setGMX_controller",
      "outputs": [],
      "stateMutability": "nonpayable",
      "type": "function"
    },
    {
      "inputs": [],
      "name": "symbol",
      "outputs": [
        {
          "internalType": "string",
          "name": "",
          "type": "string"
        }
      ],
      "stateMutability": "view",
      "type": "function"
    },
    {
      "inputs": [
        {
          "internalType": "address",
          "name": "",
          "type": "address"
        }
      ],
      "name": "tokenAccepted",
      "outputs": [
        {
          "internalType": "bool",
          "name": "",
          "type": "bool"
        }
      ],
      "stateMutability": "view",
      "type": "function"
    },
    {
      "inputs": [],
      "name": "totalSupply",
      "outputs": [
        {
          "internalType": "uint256",
          "name": "",
          "type": "uint256"
        }
      ],
      "stateMutability": "view",
      "type": "function"
    },
    {
      "inputs": [
        {
          "internalType": "address",
          "name": "to",
          "type": "address"
        },
        {
          "internalType": "uint256",
          "name": "amount",
          "type": "uint256"
        }
      ],
      "name": "transfer",
      "outputs": [
        {
          "internalType": "bool",
          "name": "",
          "type": "bool"
        }
      ],
      "stateMutability": "nonpayable",
      "type": "function"
    },
    {
      "inputs": [
        {
          "internalType": "address",
          "name": "from",
          "type": "address"
        },
        {
          "internalType": "address",
          "name": "to",
          "type": "address"
        },
        {
          "internalType": "uint256",
          "name": "amount",
          "type": "uint256"
        }
      ],
      "name": "transferFrom",
      "outputs": [
        {
          "internalType": "bool",
          "name": "",
          "type": "bool"
        }
      ],
      "stateMutability": "nonpayable",
      "type": "function"
    },
    {
      "inputs": [
        {
          "internalType": "address",
          "name": "newOwner",
          "type": "address"
        }
      ],
      "name": "transferOwnership",
      "outputs": [],
      "stateMutability": "nonpayable",
      "type": "function"
    },
    {
      "inputs": [],
      "name": "updateNetAssetValue",
      "outputs": [],
      "stateMutability": "nonpayable",
      "type": "function"
    },
    {
      "inputs": [],
      "name": "vaultValue",
      "outputs": [
        {
          "internalType": "uint256",
          "name": "",
          "type": "uint256"
        }
      ],
      "stateMutability": "view",
      "type": "function"
    },
    {
      "inputs": [
        {
          "internalType": "uint256",
          "name": "_amount",
          "type": "uint256"
        }
      ],
      "name": "withdraw",
      "outputs": [],
      "stateMutability": "payable",
      "type": "function"
    }
  ],
  "bytecode": "0x6080604052600b80547582af49447d8a07e3bd95bd0d56f35241523fbab1000062010000600160b01b0319909116179055600c80546001600160a01b031990811673ff970a61a04b1ca14834a43f5de4533ebddb5cc817909155600d805490911673489ee077994b6658eafa855c308275ead8097c4a1790553480156200008557600080fd5b5060405180604001604052806008815260200167506f6c79706c757360c01b815250604051806040016040528060038152602001620504c560ec1b815250620000dd620000d76200012060201b60201c565b62000124565b6004620000eb838262000219565b506005620000fa828262000219565b50506007805460ff60a01b19169055506000600a55600b805461ffff19169055620002e5565b3390565b600080546001600160a01b038381166001600160a01b0319831681178455604051919092169283917f8be0079c531659141344cd1fd0a4f28419497f9722a3daafe3b4186f6b6457e09190a35050565b634e487b7160e01b600052604160045260246000fd5b600181811c908216806200019f57607f821691505b602082108103620001c057634e487b7160e01b600052602260045260246000fd5b50919050565b601f8211156200021457600081815260208120601f850160051c81016020861015620001ef5750805b601f850160051c820191505b818110156200021057828155600101620001fb565b5050505b505050565b81516001600160401b0381111562000235576200023562000174565b6200024d816200024684546200018a565b84620001c6565b602080601f8311600181146200028557600084156200026c5750858301515b600019600386901b1c1916600185901b17855562000210565b600085815260208120601f198616915b82811015620002b65788860151825594840194600190910190840162000295565b5085821015620002d55787850151600019600388901b60f8161c191681555b5050505050600190811b01905550565b61228680620002f56000396000f3fe6080604052600436106102055760003560e01c8063715018a611610113578063a9059cbb116100ab578063dd62ed3e1161006f578063dd62ed3e146105e5578063de9257cd14610605578063e6f091f914610624578063ed61f4a11461065d578063f2fde38b1461067257600080fd5b8063a9059cbb14610539578063ad5c464814610559578063aedf795e1461057f578063b3b3453e146105af578063d8dfeb45146105cf57600080fd5b8063715018a61461044557806389a302711461045a5780638c21c9e11461047a5780638cd3f064146104905780638da5cb5b146104b057806395d89b41146104ce5780639ecbfa42146104e3578063a3673b3814610503578063a457c2d71461051957600080fd5b8063313ce567116101a1578063481d6ee911610165578063481d6ee9146103b25780635fa7b584146103d25780636639a81d146103f25780636780a7d41461040757806370a082311461040f57600080fd5b8063313ce56714610349578063350245c21461035d578063395093511461036557806347535d7b1461038557806347e7ef241461039f57600080fd5b80630677a2a51461020a57806306fdde031461023a578063095ea7b31461025c57806311af7d951461028c57806318160ddd146102ae5780631b2b573c146102cd5780631cd2f7c8146102e357806323b872dd146103165780632e1a7d4d14610336575b600080fd5b34801561021657600080fd5b506007546001600160a01b03165b6040516102319190611e94565b60405180910390f35b34801561024657600080fd5b5061024f610692565b6040516102319190611ea8565b34801561026857600080fd5b5061027c610277366004611f12565b610724565b6040519015158152602001610231565b34801561029857600080fd5b506102ac6102a7366004611f3c565b61073e565b005b3480156102ba57600080fd5b506003545b604051908152602001610231565b3480156102d957600080fd5b506102bf60095481565b3480156102ef57600080fd5b5060075461030490600160a01b900460ff1681565b60405160ff9091168152602001610231565b34801561032257600080fd5b5061027c610331366004611f5e565b610778565b6102ac610344366004611f9a565b61079c565b34801561035557600080fd5b506012610304565b6102ac610a05565b34801561037157600080fd5b5061027c610380366004611f12565b610c2a565b34801561039157600080fd5b50600b5461027c9060ff1681565b6102ac6103ad366004611f12565b610c4c565b3480156103be57600080fd5b506102ac6103cd366004611fb3565b610fc8565b3480156103de57600080fd5b506102ac6103ed366004611f3c565b6110ee565b3480156103fe57600080fd5b50600a546102bf565b6102ac6111af565b34801561041b57600080fd5b506102bf61042a366004611f3c565b6001600160a01b031660009081526001602052604090205490565b34801561045157600080fd5b506102ac611306565b34801561046657600080fd5b50600c54610224906001600160a01b031681565b34801561048657600080fd5b506102bf60065481565b34801561049c57600080fd5b506102ac6104ab366004611f3c565b61131a565b3480156104bc57600080fd5b506000546001600160a01b0316610224565b3480156104da57600080fd5b5061024f6113d4565b3480156104ef57600080fd5b50600754610224906001600160a01b031681565b34801561050f57600080fd5b506102bf600a5481565b34801561052557600080fd5b5061027c610534366004611f12565b6113e3565b34801561054557600080fd5b5061027c610554366004611f12565b61145e565b34801561056557600080fd5b50600b54610224906201000090046001600160a01b031681565b34801561058b57600080fd5b5061027c61059a366004611f3c565b600e6020526000908152604090205460ff1681565b3480156105bb57600080fd5b50600d54610224906001600160a01b031681565b3480156105db57600080fd5b506102bf60085481565b3480156105f157600080fd5b506102bf610600366004611fd6565b61146c565b34801561061157600080fd5b50600754600160a01b900460ff16610304565b34801561063057600080fd5b5061027c61063f366004611f3c565b6001600160a01b03166000908152600e602052604090205460ff1690565b34801561066957600080fd5b506102ac611497565b34801561067e57600080fd5b506102ac61068d366004611f3c565b6114d4565b6060600480546106a190612009565b80601f01602080910402602001604051908101604052809291908181526020018280546106cd90612009565b801561071a5780601f106106ef5761010080835404028352916020019161071a565b820191906000526020600020905b8154815290600101906020018083116106fd57829003601f168201915b5050505050905090565b60003361073281858561154d565b60019150505b92915050565b610746611671565b600780546001600160a01b039092166001600160a01b0319909216919091179055600b805461ff001916610100179055565b6000336107868582856116cb565b610791858585611745565b506001949350505050565b600081116107a957600080fd5b6040516370a0823160e01b8152819030906370a08231906107ce903390600401611e94565b602060405180830381865afa1580156107eb573d6000803e3d6000fd5b505050506040513d601f19601f8201168201806040525081019061080f9190612043565b10156108885760405162461bcd60e51b815260206004820152603a60248201527f53757270726973696e676c7920796f752063616e6e6f7420776974686472617760448201527f20746f6b656e20796f752068617665206e6f7420626f7567687400000000000060648201526084015b60405180910390fd5b6108906118de565b6000306001600160a01b03166318160ddd6040518163ffffffff1660e01b8152600401602060405180830381865afa1580156108d0573d6000803e3d6000fd5b505050506040513d601f19601f820116820180604052508101906108f49190612043565b600a546109019190612072565b905061090d3383611c73565b600061091a606484612072565b6109249084612094565b600754909150600160a01b900460ff166001036109af576007546001600160a01b031663c5dac33b343361095886866120a7565b60016040518563ffffffff1660e01b8152600401610978939291906120be565b6000604051808303818588803b15801561099157600080fd5b505af11580156109a5573d6000803e3d6000fd5b5050505050505050565b600754600160a01b900460ff16600203610a00576007546001600160a01b031663c5dac33b34336109e086866120a7565b60006040518563ffffffff1660e01b8152600401610978939291906120be565b505050565b610a0d611671565b600b5460ff610100909104161515600114610a3a5760405162461bcd60e51b815260040161087f906120e1565b600754600090600160a01b900460ff16600114610a58576000610a5b565b60015b600c546007546040516370a0823160e01b81529293506001600160a01b039182169263095ea7b3929091169083906370a0823190610a9d903090600401611e94565b602060405180830381865afa158015610aba573d6000803e3d6000fd5b505050506040513d601f19601f82011682018060405250810190610ade9190612043565b6040516001600160e01b031960e085901b1681526001600160a01b03909216600483015260248201526044016020604051808303816000875af1158015610b29573d6000803e3d6000fd5b505050506040513d601f19601f82011682018060405250810190610b4d9190612146565b50600754600c546040516370a0823160e01b81526001600160a01b0392831692631c5ecc069234929116906370a0823190610b8c903090600401611e94565b602060405180830381865afa158015610ba9573d6000803e3d6000fd5b505050506040513d601f19601f82011682018060405250810190610bcd9190612043565b6040516001600160e01b031960e085901b168152600481019190915284151560248201526044015b6000604051808303818588803b158015610c0e57600080fd5b505af1158015610c22573d6000803e3d6000fd5b505050505050565b600033610732818585610c3d838361146c565b610c479190612161565b61154d565b6001600160a01b0382166000908152600e602052604090205460ff16610cae5760405162461bcd60e51b8152602060048201526017602482015276151bdad95b881b9bdd081e595d081cdd5c1c1bdc9d1959604a1b604482015260640161087f565b60008111610cfe5760405162461bcd60e51b815260206004820152601e60248201527f416d6f756e7420746f206465706f736974206973206d616e6461746f72790000604482015260640161087f565b6000610d0b606483612072565b610d159083612094565b90506000306001600160a01b03166318160ddd6040518163ffffffff1660e01b8152600401602060405180830381865afa158015610d57573d6000803e3d6000fd5b505050506040513d601f19601f82011682018060405250810190610d7b9190612043565b9050600081600003610d8e575082610db0565b610d966118de565b600a54610da383856120a7565b610dad9190612072565b90505b610dba3382611d95565b6040516323b872dd60e01b8152336004820152306024820152604481018590526001600160a01b038616906323b872dd906064016020604051808303816000875af1158015610e0d573d6000803e3d6000fd5b505050506040513d601f19601f82011682018060405250810190610e319190612146565b5060075460405163095ea7b360e01b81526001600160a01b039182166004820152602481018690529086169063095ea7b3906044016020604051808303816000875af1158015610e85573d6000803e3d6000fd5b505050506040513d601f19601f82011682018060405250810190610ea99190612146565b50600754600160a01b900460ff16600103610f3857600754604051630e2f660360e11b815260048101869052600160248201526001600160a01b0390911690631c5ecc069034906044016000604051808303818588803b158015610f0c57600080fd5b505af1158015610f20573d6000803e3d6000fd5b5050600b805460ff1916600117905550610fc1915050565b600754600160a01b900460ff16600203610fc157600754604051630e2f660360e11b815260048101869052600060248201526001600160a01b0390911690631c5ecc069034906044016000604051808303818588803b158015610f9a57600080fd5b505af1158015610fae573d6000803e3d6000fd5b5050600b805460ff191660011790555050505b5050505050565b610fd0611671565b60ff81161580610fe357508060ff166001145b80610ff157508060ff166002145b61105c5760405162461bcd60e51b815260206004820152603660248201527f56616c7565206d757374206265203020666f72206e65757472616c2c203120666044820152751bdc88131bdb99c81bdc880c88199bdc8814da1bdc9d60521b606482015260840161087f565b60075460ff808316600160a01b90920416036110ce5760405162461bcd60e51b815260206004820152602b60248201527f52657665727465642062656361757365206578706f736974696f6e206861732060448201526a1b9bdd0818da185b99d95960aa1b606482015260840161087f565b6007805460ff909216600160a01b0260ff60a01b19909216919091179055565b6110f6611671565b6001600160a01b0381166000908152600e602052604090205460ff166111545760405162461bcd60e51b8152602060048201526013602482015272151bdad95b881b9bdd081e595d081859191959606a1b604482015260640161087f565b6001600160a01b0381166000908152600e602052604090819020805460ff19169055517f4c910b69fe65a61f7531b9c5042b2329ca7179c77290aa7e2eb3afa3c8511fd3906111a4908390611e94565b60405180910390a150565b6111b7611671565b600b5460ff6101009091041615156001146111e45760405162461bcd60e51b815260040161087f906120e1565b600754600160a01b900460ff166000036112665760405162461bcd60e51b815260206004820152603b60248201527f4578706f736974696f6e206973203020796f752073686f756c64206e6f74206860448201527f617665206120706f736974696f6e20746f206c69717569646174650000000000606482015260840161087f565b600b5460ff1615156001146112b05760405162461bcd60e51b815260206004820152601060248201526f3737903837b9b4ba34b7b71037b832b760811b604482015260640161087f565b600754600090600160a01b900460ff166001146112ce5760006112d1565b60015b600754604051637cb1759760e01b815282151560048201529192506001600160a01b031690637cb17597903490602401610bf5565b61130e611671565b6113186000611e44565b565b611322611671565b6001600160a01b0381166000908152600e602052604090205460ff16156113815760405162461bcd60e51b8152602060048201526013602482015272151bdad95b88185b1c9958591e481859191959606a1b604482015260640161087f565b6001600160a01b0381166000908152600e602052604090819020805460ff19166001179055517fae340411f33c346ae24187433a8df6e508be40cf0deb3949d51cea12df7fa021906111a4908390611e94565b6060600580546106a190612009565b600033816113f1828661146c565b9050838110156114515760405162461bcd60e51b815260206004820152602560248201527f45524332303a2064656372656173656420616c6c6f77616e63652062656c6f77604482015264207a65726f60d81b606482015260840161087f565b610791828686840361154d565b600033610732818585611745565b6001600160a01b03918216600090815260026020908152604080832093909416825291909152205490565b61149f611671565b600b5460ff6101009091041615156001146114cc5760405162461bcd60e51b815260040161087f906120e1565b6113186118de565b6114dc611671565b6001600160a01b0381166115415760405162461bcd60e51b815260206004820152602660248201527f4f776e61626c653a206e6577206f776e657220697320746865207a65726f206160448201526564647265737360d01b606482015260840161087f565b61154a81611e44565b50565b6001600160a01b0383166115af5760405162461bcd60e51b8152602060048201526024808201527f45524332303a20617070726f76652066726f6d20746865207a65726f206164646044820152637265737360e01b606482015260840161087f565b6001600160a01b0382166116105760405162461bcd60e51b815260206004820152602260248201527f45524332303a20617070726f766520746f20746865207a65726f206164647265604482015261737360f01b606482015260840161087f565b6001600160a01b0383811660008181526002602090815260408083209487168084529482529182902085905590518481527f8c5be1e5ebec7d5bd14f71427d1e84f3dd0314c0f7b2291e5b200ac8c7c3b925910160405180910390a3505050565b6000546001600160a01b031633146113185760405162461bcd60e51b815260206004820181905260248201527f4f776e61626c653a2063616c6c6572206973206e6f7420746865206f776e6572604482015260640161087f565b60006116d7848461146c565b9050600019811461173f57818110156117325760405162461bcd60e51b815260206004820152601d60248201527f45524332303a20696e73756666696369656e7420616c6c6f77616e6365000000604482015260640161087f565b61173f848484840361154d565b50505050565b6001600160a01b0383166117a95760405162461bcd60e51b815260206004820152602560248201527f45524332303a207472616e736665722066726f6d20746865207a65726f206164604482015264647265737360d81b606482015260840161087f565b6001600160a01b03821661180b5760405162461bcd60e51b815260206004820152602360248201527f45524332303a207472616e7366657220746f20746865207a65726f206164647260448201526265737360e81b606482015260840161087f565b6001600160a01b038316600090815260016020526040902054818110156118835760405162461bcd60e51b815260206004820152602660248201527f45524332303a207472616e7366657220616d6f756e7420657863656564732062604482015265616c616e636560d01b606482015260840161087f565b6001600160a01b038085166000818152600160205260408082208686039055928616808252908390208054860190559151600080516020612231833981519152906118d19086815260200190565b60405180910390a361173f565b600754600090600160a01b900460ff166001146118fc5760006118ff565b60015b600754909150600160a01b900460ff16158061191e5750600b5460ff16155b156119a45760006008819055600955600c546040516370a0823160e01b81526001600160a01b03909116906370a082319061195d903090600401611e94565b602060405180830381865afa15801561197a573d6000803e3d6000fd5b505050506040513d601f19601f8201168201806040525081019061199e9190612043565b600a5550565b600754600160a01b900460ff16600103611b1157600d54600754600b54604051634a3f088d60e01b81526000936001600160a01b0390811693634a3f088d93611a00939183169262010000909104169081908890600401612174565b610100604051808303816000875af1158015611a20573d6000803e3d6000fd5b505050506040513d601f19601f82011682018060405250810190611a44919061219e565b5050600d54600754600b5460405163045a6f3760e41b8152979950600098506001600160a01b03928316976345a6f3709750611a9796509183169450620100009004909116915081908990600401612174565b60408051808303816000875af1158015611ab5573d6000803e3d6000fd5b505050506040513d601f19601f82011682018060405250810190611ad99190612204565b60088490556009819055915069d3c21bcecceda10000009050611afc8284612161565b611b069190612072565b600a555061154a9050565b600d54600754600c54600b54604051634a3f088d60e01b81526000946001600160a01b0390811694634a3f088d94611b6094918316939083169262010000909204909116908890600401612174565b610100604051808303816000875af1158015611b80573d6000803e3d6000fd5b505050506040513d601f19601f82011682018060405250810190611ba4919061219e565b5050600d54600754600c54600b5460405163045a6f3760e41b8152989a50600099506001600160a01b03938416986345a6f3709850611bfc975092841695509083169350620100009004909116908990600401612174565b60408051808303816000875af1158015611c1a573d6000803e3d6000fd5b505050506040513d601f19601f82011682018060405250810190611c3e9190612204565b60088490556009819055915069d3c21bcecceda10000009050611c618284612094565b611c6b9190612072565b600a55505050565b6001600160a01b038216611cd35760405162461bcd60e51b815260206004820152602160248201527f45524332303a206275726e2066726f6d20746865207a65726f206164647265736044820152607360f81b606482015260840161087f565b6001600160a01b03821660009081526001602052604090205481811015611d475760405162461bcd60e51b815260206004820152602260248201527f45524332303a206275726e20616d6f756e7420657863656564732062616c616e604482015261636560f01b606482015260840161087f565b6001600160a01b0383166000818152600160209081526040808320868603905560038054879003905551858152919291600080516020612231833981519152910160405180910390a3505050565b6001600160a01b038216611deb5760405162461bcd60e51b815260206004820152601f60248201527f45524332303a206d696e7420746f20746865207a65726f206164647265737300604482015260640161087f565b8060036000828254611dfd9190612161565b90915550506001600160a01b038216600081815260016020908152604080832080548601905551848152600080516020612231833981519152910160405180910390a35050565b600080546001600160a01b038381166001600160a01b0319831681178455604051919092169283917f8be0079c531659141344cd1fd0a4f28419497f9722a3daafe3b4186f6b6457e09190a35050565b6001600160a01b0391909116815260200190565b600060208083528351808285015260005b81811015611ed557858101830151858201604001528201611eb9565b506000604082860101526040601f19601f8301168501019250505092915050565b80356001600160a01b0381168114611f0d57600080fd5b919050565b60008060408385031215611f2557600080fd5b611f2e83611ef6565b946020939093013593505050565b600060208284031215611f4e57600080fd5b611f5782611ef6565b9392505050565b600080600060608486031215611f7357600080fd5b611f7c84611ef6565b9250611f8a60208501611ef6565b9150604084013590509250925092565b600060208284031215611fac57600080fd5b5035919050565b600060208284031215611fc557600080fd5b813560ff81168114611f5757600080fd5b60008060408385031215611fe957600080fd5b611ff283611ef6565b915061200060208401611ef6565b90509250929050565b600181811c9082168061201d57607f821691505b60208210810361203d57634e487b7160e01b600052602260045260246000fd5b50919050565b60006020828403121561205557600080fd5b5051919050565b634e487b7160e01b600052601160045260246000fd5b60008261208f57634e487b7160e01b600052601260045260246000fd5b500490565b818103818111156107385761073861205c565b80820281158282048414176107385761073861205c565b6001600160a01b0393909316835260208301919091521515604082015260600190565b60208082526035908201527f4e6f7420696e697469616c697a65642c20666972737420796f752068617665206040820152743a379039b2ba1023a6ac1031b7b73a3937b63632b960591b606082015260800190565b80518015158114611f0d57600080fd5b60006020828403121561215857600080fd5b611f5782612136565b808201808211156107385761073861205c565b6001600160a01b039485168152928416602084015292166040820152901515606082015260800190565b600080600080600080600080610100898b0312156121bb57600080fd5b885197506020890151965060408901519550606089015194506080890151935060a089015192506121ee60c08a01612136565b915060e089015190509295985092959890939650565b6000806040838503121561221757600080fd5b61222083612136565b915060208301519050925092905056feddf252ad1be2c89b69c2b068fc378daa952ba7f163c4a11628f55a4df523b3efa2646970667358221220f6544bb61907eb0a529029e9948ef501f63a014550b0044de4410ca61cb22b0364736f6c63430008110033",
  "linkReferences": {},
  "deployedLinkReferences": {}
}