{
  "_format": "hh-sol-artifact-1",
  "contractName": "MyVault",
  "sourceName": "contracts/MyVault.sol",
  "abi": [
    {
      "inputs": [],
      "stateMutability": "nonpayable",
      "type": "constructor"
    },
    {
      "anonymous": false,
      "inputs": [
        {
          "indexed": true,
          "internalType": "address",
          "name": "owner",
          "type": "address"
        },
        {
          "indexed": true,
          "internalType": "address",
          "name": "spender",
          "type": "address"
        },
        {
          "indexed": false,
          "internalType": "uint256",
          "name": "value",
          "type": "uint256"
        }
      ],
      "name": "Approval",
      "type": "event"
    },
    {
      "anonymous": false,
      "inputs": [
        {
          "indexed": false,
          "internalType": "address",
          "name": "tokenAddress",
          "type": "address"
        }
      ],
      "name": "NewTokenAdded",
      "type": "event"
    },
    {
      "anonymous": false,
      "inputs": [
        {
          "indexed": true,
          "internalType": "address",
          "name": "previousOwner",
          "type": "address"
        },
        {
          "indexed": true,
          "internalType": "address",
          "name": "newOwner",
          "type": "address"
        }
      ],
      "name": "OwnershipTransferred",
      "type": "event"
    },
    {
      "anonymous": false,
      "inputs": [
        {
          "indexed": false,
          "internalType": "address",
          "name": "tokenAddress",
          "type": "address"
        }
      ],
      "name": "TokenRemoved",
      "type": "event"
    },
    {
      "anonymous": false,
      "inputs": [
        {
          "indexed": true,
          "internalType": "address",
          "name": "from",
          "type": "address"
        },
        {
          "indexed": true,
          "internalType": "address",
          "name": "to",
          "type": "address"
        },
        {
          "indexed": false,
          "internalType": "uint256",
          "name": "value",
          "type": "uint256"
        }
      ],
      "name": "Transfer",
      "type": "event"
    },
    {
      "anonymous": false,
      "inputs": [
        {
          "indexed": true,
          "internalType": "address",
          "name": "account",
          "type": "address"
        },
        {
          "indexed": false,
          "internalType": "uint256",
          "name": "when",
          "type": "uint256"
        },
        {
          "indexed": false,
          "internalType": "address",
          "name": "token_deposited",
          "type": "address"
        },
        {
          "indexed": false,
          "internalType": "uint256",
          "name": "amount",
          "type": "uint256"
        },
        {
          "indexed": false,
          "internalType": "uint256",
          "name": "PLPissued",
          "type": "uint256"
        }
      ],
      "name": "depositEvent",
      "type": "event"
    },
    {
      "anonymous": false,
      "inputs": [
        {
          "indexed": false,
          "internalType": "uint256",
          "name": "when",
          "type": "uint256"
        },
        {
          "indexed": false,
          "internalType": "uint8",
          "name": "oldexpo",
          "type": "uint8"
        },
        {
          "indexed": false,
          "internalType": "uint8",
          "name": "newexpo",
          "type": "uint8"
        }
      ],
      "name": "expoEvent",
      "type": "event"
    },
    {
      "anonymous": false,
      "inputs": [
        {
          "indexed": false,
          "internalType": "uint256",
          "name": "when",
          "type": "uint256"
        },
        {
          "indexed": false,
          "internalType": "uint8",
          "name": "exposition",
          "type": "uint8"
        },
        {
          "indexed": false,
          "internalType": "uint256",
          "name": "oldNAV",
          "type": "uint256"
        },
        {
          "indexed": false,
          "internalType": "uint256",
          "name": "NAV",
          "type": "uint256"
        },
        {
          "indexed": false,
          "internalType": "uint256",
          "name": "usdcNAV",
          "type": "uint256"
        },
        {
          "indexed": false,
          "internalType": "uint256",
          "name": "longNAV",
          "type": "uint256"
        },
        {
          "indexed": false,
          "internalType": "uint256",
          "name": "shortNAV",
          "type": "uint256"
        },
        {
          "indexed": false,
          "internalType": "uint256",
          "name": "totalsupply",
          "type": "uint256"
        }
      ],
      "name": "navEvent",
      "type": "event"
    },
    {
      "anonymous": false,
      "inputs": [
        {
          "indexed": true,
          "internalType": "address",
          "name": "account",
          "type": "address"
        },
        {
          "indexed": false,
          "internalType": "uint256",
          "name": "when",
          "type": "uint256"
        },
        {
          "indexed": false,
          "internalType": "uint256",
          "name": "amount",
          "type": "uint256"
        },
        {
          "indexed": false,
          "internalType": "uint256",
          "name": "unitprice",
          "type": "uint256"
        }
      ],
      "name": "withdrawEvent",
      "type": "event"
    },
    {
      "inputs": [],
      "name": "GMX_controller",
      "outputs": [
        {
          "internalType": "address",
          "name": "",
          "type": "address"
        }
      ],
      "stateMutability": "view",
      "type": "function"
    },
    {
      "inputs": [],
      "name": "USDC",
      "outputs": [
        {
          "internalType": "address",
          "name": "",
          "type": "address"
        }
      ],
      "stateMutability": "view",
      "type": "function"
    },
    {
      "inputs": [],
      "name": "WETH",
      "outputs": [
        {
          "internalType": "address",
          "name": "",
          "type": "address"
        }
      ],
      "stateMutability": "view",
      "type": "function"
    },
    {
      "inputs": [
        {
          "internalType": "address",
          "name": "tokenAddress",
          "type": "address"
        }
      ],
      "name": "acceptToken",
      "outputs": [],
      "stateMutability": "nonpayable",
      "type": "function"
    },
    {
      "inputs": [
        {
          "internalType": "address",
          "name": "owner",
          "type": "address"
        },
        {
          "internalType": "address",
          "name": "spender",
          "type": "address"
        }
      ],
      "name": "allowance",
      "outputs": [
        {
          "internalType": "uint256",
          "name": "",
          "type": "uint256"
        }
      ],
      "stateMutability": "view",
      "type": "function"
    },
    {
      "inputs": [
        {
          "internalType": "address",
          "name": "spender",
          "type": "address"
        },
        {
          "internalType": "uint256",
          "name": "amount",
          "type": "uint256"
        }
      ],
      "name": "approve",
      "outputs": [
        {
          "internalType": "bool",
          "name": "",
          "type": "bool"
        }
      ],
      "stateMutability": "nonpayable",
      "type": "function"
    },
    {
      "inputs": [
        {
          "internalType": "address",
          "name": "account",
          "type": "address"
        }
      ],
      "name": "balanceOf",
      "outputs": [
        {
          "internalType": "uint256",
          "name": "",
          "type": "uint256"
        }
      ],
      "stateMutability": "view",
      "type": "function"
    },
    {
      "inputs": [],
      "name": "decimals",
      "outputs": [
        {
          "internalType": "uint8",
          "name": "",
          "type": "uint8"
        }
      ],
      "stateMutability": "view",
      "type": "function"
    },
    {
      "inputs": [
        {
          "internalType": "address",
          "name": "spender",
          "type": "address"
        },
        {
          "internalType": "uint256",
          "name": "subtractedValue",
          "type": "uint256"
        }
      ],
      "name": "decreaseAllowance",
      "outputs": [
        {
          "internalType": "bool",
          "name": "",
          "type": "bool"
        }
      ],
      "stateMutability": "nonpayable",
      "type": "function"
    },
    {
      "inputs": [
        {
          "internalType": "address",
          "name": "tokenAddress",
          "type": "address"
        },
        {
          "internalType": "uint256",
          "name": "_amount",
          "type": "uint256"
        }
      ],
      "name": "deposit",
      "outputs": [],
      "stateMutability": "payable",
      "type": "function"
    },
    {
      "inputs": [],
      "name": "exposition",
      "outputs": [
        {
          "internalType": "uint8",
          "name": "",
          "type": "uint8"
        }
      ],
      "stateMutability": "view",
      "type": "function"
    },
    {
      "inputs": [],
      "name": "fees",
      "outputs": [
        {
          "internalType": "uint8",
          "name": "",
          "type": "uint8"
        }
      ],
      "stateMutability": "view",
      "type": "function"
    },
    {
      "inputs": [],
      "name": "getExposition",
      "outputs": [
        {
          "internalType": "uint8",
          "name": "",
          "type": "uint8"
        }
      ],
      "stateMutability": "view",
      "type": "function"
    },
    {
      "inputs": [],
      "name": "getGMX_controller",
      "outputs": [
        {
          "internalType": "address",
          "name": "",
          "type": "address"
        }
      ],
      "stateMutability": "view",
      "type": "function"
    },
    {
      "inputs": [],
      "name": "getNetAssetValue",
      "outputs": [
        {
          "internalType": "uint256",
          "name": "",
          "type": "uint256"
        }
      ],
      "stateMutability": "view",
      "type": "function"
    },
    {
      "inputs": [],
      "name": "gmxVault",
      "outputs": [
        {
          "internalType": "address",
          "name": "",
          "type": "address"
        }
      ],
      "stateMutability": "view",
      "type": "function"
    },
    {
      "inputs": [
        {
          "internalType": "address",
          "name": "spender",
          "type": "address"
        },
        {
          "internalType": "uint256",
          "name": "addedValue",
          "type": "uint256"
        }
      ],
      "name": "increaseAllowance",
      "outputs": [
        {
          "internalType": "bool",
          "name": "",
          "type": "bool"
        }
      ],
      "stateMutability": "nonpayable",
      "type": "function"
    },
    {
      "inputs": [
        {
          "internalType": "address",
          "name": "tokenAddress",
          "type": "address"
        }
      ],
      "name": "isAccepted",
      "outputs": [
        {
          "internalType": "bool",
          "name": "",
          "type": "bool"
        }
      ],
      "stateMutability": "view",
      "type": "function"
    },
    {
      "inputs": [],
      "name": "liquidatePositions",
      "outputs": [],
      "stateMutability": "payable",
      "type": "function"
    },
    {
      "inputs": [],
      "name": "name",
      "outputs": [
        {
          "internalType": "string",
          "name": "",
          "type": "string"
        }
      ],
      "stateMutability": "view",
      "type": "function"
    },
    {
      "inputs": [],
      "name": "netAssetValue",
      "outputs": [
        {
          "internalType": "uint256",
          "name": "",
          "type": "uint256"
        }
      ],
      "stateMutability": "view",
      "type": "function"
    },
    {
      "inputs": [],
      "name": "openPosition",
      "outputs": [],
      "stateMutability": "payable",
      "type": "function"
    },
    {
      "inputs": [],
      "name": "owner",
      "outputs": [
        {
          "internalType": "address",
          "name": "",
          "type": "address"
        }
      ],
      "stateMutability": "view",
      "type": "function"
    },
    {
      "inputs": [
        {
          "internalType": "address",
          "name": "tokenAddress",
          "type": "address"
        }
      ],
      "name": "removeToken",
      "outputs": [],
      "stateMutability": "nonpayable",
      "type": "function"
    },
    {
      "inputs": [],
      "name": "renounceOwnership",
      "outputs": [],
      "stateMutability": "nonpayable",
      "type": "function"
    },
    {
      "inputs": [
        {
          "internalType": "uint8",
          "name": "_exposition",
          "type": "uint8"
        }
      ],
      "name": "setExposition",
      "outputs": [],
      "stateMutability": "nonpayable",
      "type": "function"
    },
    {
      "inputs": [
        {
          "internalType": "address",
          "name": "_addr",
          "type": "address"
        }
      ],
      "name": "setGMX_controller",
      "outputs": [],
      "stateMutability": "nonpayable",
      "type": "function"
    },
    {
      "inputs": [],
      "name": "symbol",
      "outputs": [
        {
          "internalType": "string",
          "name": "",
          "type": "string"
        }
      ],
      "stateMutability": "view",
      "type": "function"
    },
    {
      "inputs": [
        {
          "internalType": "address",
          "name": "",
          "type": "address"
        }
      ],
      "name": "tokenAccepted",
      "outputs": [
        {
          "internalType": "bool",
          "name": "",
          "type": "bool"
        }
      ],
      "stateMutability": "view",
      "type": "function"
    },
    {
      "inputs": [],
      "name": "totalSupply",
      "outputs": [
        {
          "internalType": "uint256",
          "name": "",
          "type": "uint256"
        }
      ],
      "stateMutability": "view",
      "type": "function"
    },
    {
      "inputs": [
        {
          "internalType": "address",
          "name": "to",
          "type": "address"
        },
        {
          "internalType": "uint256",
          "name": "amount",
          "type": "uint256"
        }
      ],
      "name": "transfer",
      "outputs": [
        {
          "internalType": "bool",
          "name": "",
          "type": "bool"
        }
      ],
      "stateMutability": "nonpayable",
      "type": "function"
    },
    {
      "inputs": [
        {
          "internalType": "address",
          "name": "from",
          "type": "address"
        },
        {
          "internalType": "address",
          "name": "to",
          "type": "address"
        },
        {
          "internalType": "uint256",
          "name": "amount",
          "type": "uint256"
        }
      ],
      "name": "transferFrom",
      "outputs": [
        {
          "internalType": "bool",
          "name": "",
          "type": "bool"
        }
      ],
      "stateMutability": "nonpayable",
      "type": "function"
    },
    {
      "inputs": [
        {
          "internalType": "address",
          "name": "newOwner",
          "type": "address"
        }
      ],
      "name": "transferOwnership",
      "outputs": [],
      "stateMutability": "nonpayable",
      "type": "function"
    },
    {
      "inputs": [],
      "name": "updateNetAssetValue",
      "outputs": [],
      "stateMutability": "nonpayable",
      "type": "function"
    },
    {
      "inputs": [
        {
          "internalType": "uint256",
          "name": "_amount",
          "type": "uint256"
        }
      ],
      "name": "withdraw",
      "outputs": [],
      "stateMutability": "payable",
      "type": "function"
    }
  ],
  "bytecode": "0x60806040527382af49447d8a07e3bd95bd0d56f35241523fbab1600760006101000a81548173ffffffffffffffffffffffffffffffffffffffff021916908373ffffffffffffffffffffffffffffffffffffffff16021790555073ff970a61a04b1ca14834a43f5de4533ebddb5cc8600860006101000a81548173ffffffffffffffffffffffffffffffffffffffff021916908373ffffffffffffffffffffffffffffffffffffffff16021790555073489ee077994b6658eafa855c308275ead8097c4a600960006101000a81548173ffffffffffffffffffffffffffffffffffffffff021916908373ffffffffffffffffffffffffffffffffffffffff1602179055503480156200011057600080fd5b506040518060400160405280600881526020017f506f6c79706c75730000000000000000000000000000000000000000000000008152506040518060400160405280600381526020017f504c5000000000000000000000000000000000000000000000000000000000008152506200019d620001916200027860201b60201c565b6200028060201b60201c565b8160049081620001ae9190620005c1565b508060059081620001c09190620005c1565b505050620001df6713849368f52aa95260c01b6200034460201b60201c565b620001fb6771dab496f3b255ed60c01b6200034460201b60201c565b6000600b60006101000a81548160ff021916908360ff1602179055506200023367a836dbf915284fd760c01b6200034460201b60201c565b6001600a819055506200025767c5048fca51725ff760c01b6200034460201b60201c565b6000600b60026101000a81548160ff021916908315150217905550620006a8565b600033905090565b60008060009054906101000a900473ffffffffffffffffffffffffffffffffffffffff169050816000806101000a81548173ffffffffffffffffffffffffffffffffffffffff021916908373ffffffffffffffffffffffffffffffffffffffff1602179055508173ffffffffffffffffffffffffffffffffffffffff168173ffffffffffffffffffffffffffffffffffffffff167f8be0079c531659141344cd1fd0a4f28419497f9722a3daafe3b4186f6b6457e060405160405180910390a35050565b50565b600081519050919050565b7f4e487b7100000000000000000000000000000000000000000000000000000000600052604160045260246000fd5b7f4e487b7100000000000000000000000000000000000000000000000000000000600052602260045260246000fd5b60006002820490506001821680620003c957607f821691505b602082108103620003df57620003de62000381565b5b50919050565b60008190508160005260206000209050919050565b60006020601f8301049050919050565b600082821b905092915050565b600060088302620004497fffffffffffffffffffffffffffffffffffffffffffffffffffffffffffffffff826200040a565b6200045586836200040a565b95508019841693508086168417925050509392505050565b6000819050919050565b6000819050919050565b6000620004a26200049c62000496846200046d565b62000477565b6200046d565b9050919050565b6000819050919050565b620004be8362000481565b620004d6620004cd82620004a9565b84845462000417565b825550505050565b600090565b620004ed620004de565b620004fa818484620004b3565b505050565b5b81811015620005225762000516600082620004e3565b60018101905062000500565b5050565b601f82111562000571576200053b81620003e5565b6200054684620003fa565b8101602085101562000556578190505b6200056e6200056585620003fa565b830182620004ff565b50505b505050565b600082821c905092915050565b6000620005966000198460080262000576565b1980831691505092915050565b6000620005b1838362000583565b9150826002028217905092915050565b620005cc8262000347565b67ffffffffffffffff811115620005e857620005e762000352565b5b620005f48254620003b0565b6200060182828562000526565b600060209050601f83116001811462000639576000841562000624578287015190505b620006308582620005a3565b865550620006a0565b601f1984166200064986620003e5565b60005b8281101562000673578489015182556001820191506020850194506020810190506200064c565b868310156200069357848901516200068f601f89168262000583565b8355505b6001600288020188555050505b505050505050565b61522d80620006b86000396000f3fe6080604052600436106101c45760003560e01c8063715018a6116100f8578063a9059cbb11610090578063a9059cbb14610605578063ad5c464814610642578063aedf795e1461066d578063b3b3453e146106aa578063dd62ed3e146106d5578063de9257cd14610712578063e6f091f91461073d578063ed61f4a11461077a578063f2fde38b14610791576101c4565b8063715018a61461048657806389a302711461049d5780638cd3f064146104c85780638da5cb5b146104f157806395d89b411461051c5780639af1d35a146105475780639ecbfa4214610572578063a3673b381461059d578063a457c2d7146105c8576101c4565b8063313ce5671161016b578063313ce56714610334578063350245c21461035f578063395093511461036957806347e7ef24146103a6578063481d6ee9146103c25780635fa7b584146103eb5780636639a81d146104145780636780a7d41461043f57806370a0823114610449576101c4565b80630677a2a5146101c957806306fdde03146101f4578063095ea7b31461021f57806311af7d951461025c57806318160ddd146102855780631cd2f7c8146102b057806323b872dd146102db5780632e1a7d4d14610318575b600080fd5b3480156101d557600080fd5b506101de6107ba565b6040516101eb9190613ee8565b60405180910390f35b34801561020057600080fd5b50610209610820565b6040516102169190613f93565b60405180910390f35b34801561022b57600080fd5b506102466004803603810190610241919061401c565b6108b2565b6040516102539190614077565b60405180910390f35b34801561026857600080fd5b50610283600480360381019061027e9190614092565b6108d5565b005b34801561029157600080fd5b5061029a6109a0565b6040516102a791906140ce565b60405180910390f35b3480156102bc57600080fd5b506102c56109aa565b6040516102d29190614105565b60405180910390f35b3480156102e757600080fd5b5061030260048036038101906102fd9190614120565b6109bd565b60405161030f9190614077565b60405180910390f35b610332600480360381019061032d9190614173565b6109ec565b005b34801561034057600080fd5b506103496110d2565b6040516103569190614105565b60405180910390f35b6103676110db565b005b34801561037557600080fd5b50610390600480360381019061038b919061401c565b611541565b60405161039d9190614077565b60405180910390f35b6103c060048036038101906103bb919061401c565b611578565b005b3480156103ce57600080fd5b506103e960048036038101906103e491906141cc565b611d7c565b005b3480156103f757600080fd5b50610412600480360381019061040d9190614092565b612069565b005b34801561042057600080fd5b50610429612257565b60405161043691906140ce565b60405180910390f35b61044761229d565b005b34801561045557600080fd5b50610470600480360381019061046b9190614092565b6124e0565b60405161047d91906140ce565b60405180910390f35b34801561049257600080fd5b5061049b612529565b005b3480156104a957600080fd5b506104b261253d565b6040516104bf9190613ee8565b60405180910390f35b3480156104d457600080fd5b506104ef60048036038101906104ea9190614092565b612563565b005b3480156104fd57600080fd5b50610506612752565b6040516105139190613ee8565b60405180910390f35b34801561052857600080fd5b5061053161277b565b60405161053e9190613f93565b60405180910390f35b34801561055357600080fd5b5061055c61280d565b6040516105699190614105565b60405180910390f35b34801561057e57600080fd5b50610587612820565b6040516105949190613ee8565b60405180910390f35b3480156105a957600080fd5b506105b2612846565b6040516105bf91906140ce565b60405180910390f35b3480156105d457600080fd5b506105ef60048036038101906105ea919061401c565b61284c565b6040516105fc9190614077565b60405180910390f35b34801561061157600080fd5b5061062c6004803603810190610627919061401c565b6128c3565b6040516106399190614077565b60405180910390f35b34801561064e57600080fd5b506106576128e6565b6040516106649190613ee8565b60405180910390f35b34801561067957600080fd5b50610694600480360381019061068f9190614092565b61290c565b6040516106a19190614077565b60405180910390f35b3480156106b657600080fd5b506106bf61292c565b6040516106cc9190613ee8565b60405180910390f35b3480156106e157600080fd5b506106fc60048036038101906106f791906141f9565b612952565b60405161070991906140ce565b60405180910390f35b34801561071e57600080fd5b506107276129d9565b6040516107349190614105565b60405180910390f35b34801561074957600080fd5b50610764600480360381019061075f9190614092565b612a2c565b6040516107719190614077565b60405180910390f35b34801561078657600080fd5b5061078f612abe565b005b34801561079d57600080fd5b506107b860048036038101906107b39190614092565b612c2a565b005b60006107d067a6c6f9dc54c715d760c01b612cad565b6107e4671bbe71753b61f98c60c01b612cad565b6107f86750171c44b7ebfe4a60c01b612cad565b600660009054906101000a900473ffffffffffffffffffffffffffffffffffffffff16905090565b60606004805461082f90614268565b80601f016020809104026020016040519081016040528092919081815260200182805461085b90614268565b80156108a85780601f1061087d576101008083540402835291602001916108a8565b820191906000526020600020905b81548152906001019060200180831161088b57829003601f168201915b5050505050905090565b6000806108bd612cb0565b90506108ca818585612cb8565b600191505092915050565b6108e967f45ff3fa7be5cd6660c01b612cad565b6108f1612e81565b61090567447234d42e0abe4b60c01b612cad565b61091967ac7729b98a8e9ec260c01b612cad565b61092d67998e1ec449a8d96660c01b612cad565b80600660006101000a81548173ffffffffffffffffffffffffffffffffffffffff021916908373ffffffffffffffffffffffffffffffffffffffff160217905550610982674a91d558f89dcd3960c01b612cad565b6001600b60026101000a81548160ff02191690831515021790555050565b6000600354905090565b600b60009054906101000a900460ff1681565b6000806109c8612cb0565b90506109d5858285612eff565b6109e0858585612f8b565b60019150509392505050565b610a0067c2468fab26af8a4560c01b612cad565b610a14676c994a8d2a7b599d60c01b612cad565b610a2867a3130a4028848f2d60c01b612cad565b610a3c6725348dc1d02c583360c01b612cad565b60008111610a4957600080fd5b610a5d67d819e6946c5c0b8b60c01b612cad565b610a716708a787a9aa57573f60c01b612cad565b610a8567388683a7b1d6ae7e60c01b612cad565b610a99672f6c3a27632d8a5760c01b612cad565b803073ffffffffffffffffffffffffffffffffffffffff166370a08231336040518263ffffffff1660e01b8152600401610ad39190613ee8565b602060405180830381865afa158015610af0573d6000803e3d6000fd5b505050506040513d601f19601f82011682018060405250810190610b1491906142ae565b1015610b55576040517f08c379a0000000000000000000000000000000000000000000000000000000008152600401610b4c9061434d565b60405180910390fd5b610b6967dd76bc4002d30db960c01b612cad565b610b7d67508afe3e1ef0ebc760c01b612cad565b610b9167a8785ed5b15de0d660c01b612cad565b610b99613204565b610bad675aa19742c605172060c01b612cad565b610bc167058dca980fb379bb60c01b612cad565b6000610bd7677521f640282e8e3b60c01b612cad565b3073ffffffffffffffffffffffffffffffffffffffff166318160ddd6040518163ffffffff1660e01b8152600401602060405180830381865afa158015610c22573d6000803e3d6000fd5b505050506040513d601f19601f82011682018060405250810190610c4691906142ae565b600a54610c5391906143cb565b9050610c696739e9f14cbe44aa9d60c01b612cad565b610c7d6701fe7988d4ec93fa60c01b612cad565b610c873383613aa8565b610c9b6706b1bc96276fb2d460c01b612cad565b610caf6733421eb863bc187960c01b612cad565b6000606483610cbe91906143cb565b83610cc991906143fc565b9050610cdf6765defa4b0527082760c01b612cad565b610cf36789bac8e7119aca4c60c01b612cad565b6000600b60009054906101000a900460ff1660ff1603610dfa57610d2167554bc41c8dcc7ce260c01b612cad565b610d3567bf6cf8ab2afb088060c01b612cad565b610d4967bcd0e4ec96e837bb60c01b612cad565b600860009054906101000a900473ffffffffffffffffffffffffffffffffffffffff1673ffffffffffffffffffffffffffffffffffffffff1663a9059cbb338486610d949190614430565b6040518363ffffffff1660e01b8152600401610db1929190614472565b6020604051808303816000875af1158015610dd0573d6000803e3d6000fd5b505050506040513d601f19601f82011682018060405250810190610df491906144c7565b50611053565b610e0e67c3c70a6e27a6649260c01b612cad565b610e2267ff3d05949a47a56a60c01b612cad565b6001600b60009054906101000a900460ff1660ff1603610f1b57610e5067e722c7168809baa960c01b612cad565b610e64676e3d769fa0e0f81b60c01b612cad565b610e78670824012134208c8d60c01b612cad565b600660009054906101000a900473ffffffffffffffffffffffffffffffffffffffff1673ffffffffffffffffffffffffffffffffffffffff1663c5dac33b34338585610ec49190614430565b60016040518563ffffffff1660e01b8152600401610ee4939291906144f4565b6000604051808303818588803b158015610efd57600080fd5b505af1158015610f11573d6000803e3d6000fd5b5050505050611052565b610f2f67d33599eac439b3c860c01b612cad565b610f4367cd5d34eb2b2bc23d60c01b612cad565b6002600b60009054906101000a900460ff1660ff160361103c57610f716716c8a115087938de60c01b612cad565b610f8567f367cba30493d4b960c01b612cad565b610f996770d34ece5b0a7aea60c01b612cad565b600660009054906101000a900473ffffffffffffffffffffffffffffffffffffffff1673ffffffffffffffffffffffffffffffffffffffff1663c5dac33b34338585610fe59190614430565b60006040518563ffffffff1660e01b8152600401611005939291906144f4565b6000604051808303818588803b15801561101e57600080fd5b505af1158015611032573d6000803e3d6000fd5b5050505050611051565b61105067b03e3a3f97e22aff60c01b612cad565b5b5b5b6110676761c1ca65b643c0ce60c01b612cad565b61107b671a0f6d1b32b8900c60c01b612cad565b3373ffffffffffffffffffffffffffffffffffffffff167f55b6b6c484caa4fe51b6b82b0531afe069b1c2d151713cc6d9746b6db96986414285856040516110c59392919061452b565b60405180910390a2505050565b60006012905090565b6110ef67719f0538dd91c04260c01b612cad565b6110f7612e81565b61110b67d61c2cec38fdba2260c01b612cad565b61111f67dbee615e0878b07860c01b612cad565b61113367a08bf9de5006623f60c01b612cad565b6111476723d1b1b5ae29cb6b60c01b612cad565b61115b679646a20c2e879cef60c01b612cad565b61116f678d5a85aeeaa9c21b60c01b612cad565b60011515600b60029054906101000a900460ff161515146111c5576040517f08c379a00000000000000000000000000000000000000000000000000000000081526004016111bc906145d4565b60405180910390fd5b6111d967c8ba2d670923406260c01b612cad565b6111ed67edd7d388e2af516e60c01b612cad565b61120167c7ab26c88833e54060c01b612cad565b6112156740ef5f27cb268ca160c01b612cad565b611229678f50533c2afb65b460c01b612cad565b61123d67b414a8787f82c1b860c01b612cad565b60006001600b60009054906101000a900460ff1660ff1614611260576000611263565b60015b9050611279679e3f4f9703c62ed660c01b612cad565b61128d676bbd6d01be27867a60c01b612cad565b600860009054906101000a900473ffffffffffffffffffffffffffffffffffffffff1673ffffffffffffffffffffffffffffffffffffffff1663095ea7b3600660009054906101000a900473ffffffffffffffffffffffffffffffffffffffff16600860009054906101000a900473ffffffffffffffffffffffffffffffffffffffff1673ffffffffffffffffffffffffffffffffffffffff166370a08231306040518263ffffffff1660e01b81526004016113499190613ee8565b602060405180830381865afa158015611366573d6000803e3d6000fd5b505050506040513d601f19601f8201168201806040525081019061138a91906142ae565b6040518363ffffffff1660e01b81526004016113a7929190614472565b6020604051808303816000875af11580156113c6573d6000803e3d6000fd5b505050506040513d601f19601f820116820180604052508101906113ea91906144c7565b506113ff67ca6f67da3ae872e460c01b612cad565b611413677db660856781cced60c01b612cad565b600660009054906101000a900473ffffffffffffffffffffffffffffffffffffffff1673ffffffffffffffffffffffffffffffffffffffff16631c5ecc0634600860009054906101000a900473ffffffffffffffffffffffffffffffffffffffff1673ffffffffffffffffffffffffffffffffffffffff166370a08231306040518263ffffffff1660e01b81526004016114ad9190613ee8565b602060405180830381865afa1580156114ca573d6000803e3d6000fd5b505050506040513d601f19601f820116820180604052508101906114ee91906142ae565b846040518463ffffffff1660e01b815260040161150c9291906145f4565b6000604051808303818588803b15801561152557600080fd5b505af1158015611539573d6000803e3d6000fd5b505050505050565b60008061154c612cb0565b905061156d81858561155e8589612952565b611568919061461d565b612cb8565b600191505092915050565b61158c67b4f9b1d7686c1ec760c01b612cad565b6115a067e54f820f5ddb9d5f60c01b612cad565b6115b467ffa4e13bd126587360c01b612cad565b6115c8670b644169eb6204ac60c01b612cad565b600c60008373ffffffffffffffffffffffffffffffffffffffff1673ffffffffffffffffffffffffffffffffffffffff16815260200190815260200160002060009054906101000a900460ff16611654576040517f08c379a000000000000000000000000000000000000000000000000000000000815260040161164b9061469d565b60405180910390fd5b6116686749af74d1cd821b7460c01b612cad565b61167c67ca5e7b0e8779ea6060c01b612cad565b61169067ba90e4e4b6a809f360c01b612cad565b6116a4670566179b38cb67ec60c01b612cad565b600081116116e7576040517f08c379a00000000000000000000000000000000000000000000000000000000081526004016116de90614709565b60405180910390fd5b6116fb67d3b63f0cb99172a760c01b612cad565b61170f67c0a9fa6bf5c1e3a160c01b612cad565b61172367b9b7eb836fc4c3ca60c01b612cad565b600060648261173291906143cb565b8261173d91906143fc565b905061175367d5762fed8f2705f960c01b612cad565b611767674ce3fd4b827b4a5b60c01b612cad565b600061177d67ee74415e6fcbb4f260c01b612cad565b611791674771644d48181ec860c01b612cad565b60003073ffffffffffffffffffffffffffffffffffffffff166318160ddd6040518163ffffffff1660e01b8152600401602060405180830381865afa1580156117de573d6000803e3d6000fd5b505050506040513d601f19601f8201168201806040525081019061180291906142ae565b036118375761181b67984ed4699860c78560c01b612cad565b61182f674c3cf60abcb7994d60c01b612cad565b829050611919565b61184b6778f85613f72552bc60c01b612cad565b61185f67f29fb56c0cd0a0c160c01b612cad565b61187367c9605ece567900e260c01b612cad565b61187b613204565b61188f674fae977b1e28bb4460c01b612cad565b600a543073ffffffffffffffffffffffffffffffffffffffff166318160ddd6040518163ffffffff1660e01b8152600401602060405180830381865afa1580156118dd573d6000803e3d6000fd5b505050506040513d601f19601f8201168201806040525081019061190191906142ae565b8361190c9190614430565b61191691906143cb565b90505b61192d67d90ae2894c946a5860c01b612cad565b611941670de62d5e4ded4ad460c01b612cad565b61194b3382613c77565b61195f670b5796e2c7c485fb60c01b612cad565b611973674fe0e35f5fc76db160c01b612cad565b8373ffffffffffffffffffffffffffffffffffffffff166323b872dd3330866040518463ffffffff1660e01b81526004016119b093929190614729565b6020604051808303816000875af11580156119cf573d6000803e3d6000fd5b505050506040513d601f19601f820116820180604052508101906119f391906144c7565b50611a0867bf6db183cfd093c160c01b612cad565b611a1c67d04870f1cda4c7a260c01b612cad565b8373ffffffffffffffffffffffffffffffffffffffff1663095ea7b3600660009054906101000a900473ffffffffffffffffffffffffffffffffffffffff16856040518363ffffffff1660e01b8152600401611a79929190614472565b6020604051808303816000875af1158015611a98573d6000803e3d6000fd5b505050506040513d601f19601f82011682018060405250810190611abc91906144c7565b50611ad1675c229d5d6eaa8d7860c01b612cad565b611ae567f5be3e50e59e129360c01b612cad565b6001600b60009054906101000a900460ff1660ff1603611bd057611b13676fe0ea53c38a666e60c01b612cad565b611b276708f8dc6d8dbf1a5f60c01b612cad565b611b3a6643b9869cd4d9ae60c01b612cad565b600660009054906101000a900473ffffffffffffffffffffffffffffffffffffffff1673ffffffffffffffffffffffffffffffffffffffff16631c5ecc06348560016040518463ffffffff1660e01b8152600401611b999291906145f4565b6000604051808303818588803b158015611bb257600080fd5b505af1158015611bc6573d6000803e3d6000fd5b5050505050611cfa565b611be46782705bf850d9535d60c01b612cad565b611bf867fc89a7ddd822f76a60c01b612cad565b6002600b60009054906101000a900460ff1660ff1603611ce457611c26673b8d4b4f4c1b2ecf60c01b612cad565b611c3a67cef7b6fb225c7d8460c01b612cad565b611c4e673546ad296a5c44d060c01b612cad565b600660009054906101000a900473ffffffffffffffffffffffffffffffffffffffff1673ffffffffffffffffffffffffffffffffffffffff16631c5ecc06348560006040518463ffffffff1660e01b8152600401611cad9291906145f4565b6000604051808303818588803b158015611cc657600080fd5b505af1158015611cda573d6000803e3d6000fd5b5050505050611cf9565b611cf8673445b1882d0b03b460c01b612cad565b5b5b611d0e671789c82e8941ab6b60c01b612cad565b611d2267cbde8e03fa44c4f660c01b612cad565b3373ffffffffffffffffffffffffffffffffffffffff167fc43285a6e98e6524bf49b1c1bdda72f38b968b31d2861d4422c0716e89b1318142868685604051611d6e9493929190614760565b60405180910390a250505050565b611d90678e68aafcf5a0324d60c01b612cad565b611d98612e81565b611dac671679c10debc42a3c60c01b612cad565b611dc0672ade0bdf838734b860c01b612cad565b611dd467862bf9cb27eec93360c01b612cad565b611de86765bd488814c1943260c01b612cad565b611dfc67451104dd8277a4ab60c01b612cad565b60008160ff16148015611e1f5750611e1e673bbfdb3e3656eeb060c01b613dce565b5b80611e64575060018160ff16148015611e475750611e46660687d16bf3e33060c01b613dce565b5b8015611e635750611e6267eecc0f6bb7cdbe8460c01b613dce565b5b5b80611e8e575060028160ff16148015611e8d5750611e8c670be8c6b8fb89001060c01b613dce565b5b5b611ecd576040517f08c379a0000000000000000000000000000000000000000000000000000000008152600401611ec490614817565b60405180910390fd5b611ee1675aa6500567b48ef660c01b612cad565b611ef5678c8365ea6a0a280160c01b612cad565b611f09677d2ea680f916417560c01b612cad565b611f1d67281bb2926c574da860c01b612cad565b8060ff16600b60009054906101000a900460ff1660ff1603611f74576040517f08c379a0000000000000000000000000000000000000000000000000000000008152600401611f6b906148a9565b60405180910390fd5b611f8867667cf2abd99c9f3460c01b612cad565b611f9c67a60160d08f99a15d60c01b612cad565b611fb06739415f3067b44d3860c01b612cad565b6000600b60009054906101000a900460ff169050611fd86711ed25efde833f6360c01b612cad565b81600b60006101000a81548160ff021916908360ff16021790555061200767102386726179518160c01b612cad565b61201b67f4b072cdcae240a760c01b612cad565b7ffa0731d6f72a8f51cd2381cdd6778ccea1323c89d9b49a780eb07d809e4ce1694282600b60009054906101000a900460ff1660405161205d939291906148c9565b60405180910390a15050565b61207d679b875d8810ca423e60c01b612cad565b612085612e81565b61209967821274a82462633460c01b612cad565b6120ad67243bc9bb1fded2ff60c01b612cad565b6120c167fbd7c2bb79eab82260c01b612cad565b6120d567ac808456381c280e60c01b612cad565b6120e967ec62a8414f0990e060c01b612cad565b600c60008273ffffffffffffffffffffffffffffffffffffffff1673ffffffffffffffffffffffffffffffffffffffff16815260200190815260200160002060009054906101000a900460ff16612175576040517f08c379a000000000000000000000000000000000000000000000000000000000815260040161216c9061494c565b60405180910390fd5b612189672206fd8b6914ab4560c01b612cad565b61219d6797b8fcc3d4341ab060c01b612cad565b6000600c60008373ffffffffffffffffffffffffffffffffffffffff1673ffffffffffffffffffffffffffffffffffffffff16815260200190815260200160002060006101000a81548160ff02191690831515021790555061220967411232351c18d09260c01b612cad565b61221d67a76a083b87813a7260c01b612cad565b7f4c910b69fe65a61f7531b9c5042b2329ca7179c77290aa7e2eb3afa3c8511fd38160405161224c9190613ee8565b60405180910390a150565b600061226d67ca45d65b46b360f560c01b612cad565b612281672503426eef6f15ac60c01b612cad565b6122956728fb13aca279f93460c01b612cad565b600a54905090565b6122b167d275be6aacd8859760c01b612cad565b6122b9612e81565b6122cd6794a1c77d692c01b160c01b612cad565b6122e167be0979cc73392bed60c01b612cad565b6122f567a08bf9de5006623f60c01b612cad565b6123096723d1b1b5ae29cb6b60c01b612cad565b61231d679646a20c2e879cef60c01b612cad565b612331678d5a85aeeaa9c21b60c01b612cad565b60011515600b60029054906101000a900460ff16151514612387576040517f08c379a000000000000000000000000000000000000000000000000000000000815260040161237e906145d4565b60405180910390fd5b61239b67c8ba2d670923406260c01b612cad565b6123af67edd7d388e2af516e60c01b612cad565b6123c36726d9af538b85050860c01b612cad565b6123d7676381c38c6d05697d60c01b612cad565b6123eb6729e831cead1d126660c01b612cad565b6123ff67121089da36f0350860c01b612cad565b60006001600b60009054906101000a900460ff1660ff1614612422576000612425565b60015b905061243b6744d06e033c15002c60c01b612cad565b61244f6790872a979469b15d60c01b612cad565b600660009054906101000a900473ffffffffffffffffffffffffffffffffffffffff1673ffffffffffffffffffffffffffffffffffffffff16637cb1759734836040518363ffffffff1660e01b81526004016124ab9190614077565b6000604051808303818588803b1580156124c457600080fd5b505af11580156124d8573d6000803e3d6000fd5b505050505050565b6000600160008373ffffffffffffffffffffffffffffffffffffffff1673ffffffffffffffffffffffffffffffffffffffff168152602001908152602001600020549050919050565b612531612e81565b61253b6000613dd9565b565b600860009054906101000a900473ffffffffffffffffffffffffffffffffffffffff1681565b61257767a82dc9742b1854ba60c01b612cad565b61257f612e81565b6125936770c822da5435ea6360c01b612cad565b6125a767f6373173d1b3a9d960c01b612cad565b6125bb671621736952bb517e60c01b612cad565b6125cf673f4163dbb4e607a660c01b612cad565b6125e3675628e1104734931a60c01b612cad565b600c60008273ffffffffffffffffffffffffffffffffffffffff1673ffffffffffffffffffffffffffffffffffffffff16815260200190815260200160002060009054906101000a900460ff1615612670576040517f08c379a0000000000000000000000000000000000000000000000000000000008152600401612667906149b8565b60405180910390fd5b61268467450709727588278660c01b612cad565b61269867bc76c7a42db1158660c01b612cad565b6001600c60008373ffffffffffffffffffffffffffffffffffffffff1673ffffffffffffffffffffffffffffffffffffffff16815260200190815260200160002060006101000a81548160ff02191690831515021790555061270467a88d869418086ebc60c01b612cad565b612718679d6fd888522606e060c01b612cad565b7fae340411f33c346ae24187433a8df6e508be40cf0deb3949d51cea12df7fa021816040516127479190613ee8565b60405180910390a150565b60008060009054906101000a900473ffffffffffffffffffffffffffffffffffffffff16905090565b60606005805461278a90614268565b80601f01602080910402602001604051908101604052809291908181526020018280546127b690614268565b80156128035780601f106127d857610100808354040283529160200191612803565b820191906000526020600020905b8154815290600101906020018083116127e657829003601f168201915b5050505050905090565b600b60019054906101000a900460ff1681565b600660009054906101000a900473ffffffffffffffffffffffffffffffffffffffff1681565b600a5481565b600080612857612cb0565b905060006128658286612952565b9050838110156128aa576040517f08c379a00000000000000000000000000000000000000000000000000000000081526004016128a190614a4a565b60405180910390fd5b6128b78286868403612cb8565b60019250505092915050565b6000806128ce612cb0565b90506128db818585612f8b565b600191505092915050565b600760009054906101000a900473ffffffffffffffffffffffffffffffffffffffff1681565b600c6020528060005260406000206000915054906101000a900460ff1681565b600960009054906101000a900473ffffffffffffffffffffffffffffffffffffffff1681565b6000600260008473ffffffffffffffffffffffffffffffffffffffff1673ffffffffffffffffffffffffffffffffffffffff16815260200190815260200160002060008373ffffffffffffffffffffffffffffffffffffffff1673ffffffffffffffffffffffffffffffffffffffff16815260200190815260200160002054905092915050565b60006129ef6724edd92cc0a3ad9760c01b612cad565b612a0367a899d15948ebb9ab60c01b612cad565b612a1767ac1a73fce306c3db60c01b612cad565b600b60009054906101000a900460ff16905090565b6000612a426758388a8c35c8a8f860c01b612cad565b612a5667787acf38988d6aaa60c01b612cad565b612a6a6717f2ee35cc9f641c60c01b612cad565b600c60008373ffffffffffffffffffffffffffffffffffffffff1673ffffffffffffffffffffffffffffffffffffffff16815260200190815260200160002060009054906101000a900460ff169050919050565b612ad267a6674ae97e54939b60c01b612cad565b612ada612e81565b612aee670559f085021d6d1e60c01b612cad565b612b0267cb422f4cda8b710360c01b612cad565b612b1667a08bf9de5006623f60c01b612cad565b612b2a6723d1b1b5ae29cb6b60c01b612cad565b612b3e679646a20c2e879cef60c01b612cad565b612b52678d5a85aeeaa9c21b60c01b612cad565b60011515600b60029054906101000a900460ff16151514612ba8576040517f08c379a0000000000000000000000000000000000000000000000000000000008152600401612b9f906145d4565b60405180910390fd5b612bbc67c8ba2d670923406260c01b612cad565b612bd067edd7d388e2af516e60c01b612cad565b612be4674aa6d3c2dab712d460c01b612cad565b612bf867486fa4d79282dcf260c01b612cad565b612c0c67935079176d5ece6160c01b612cad565b612c2067b9f9440aa895a2c360c01b612cad565b612c28613204565b565b612c32612e81565b600073ffffffffffffffffffffffffffffffffffffffff168173ffffffffffffffffffffffffffffffffffffffff1603612ca1576040517f08c379a0000000000000000000000000000000000000000000000000000000008152600401612c9890614adc565b60405180910390fd5b612caa81613dd9565b50565b50565b600033905090565b600073ffffffffffffffffffffffffffffffffffffffff168373ffffffffffffffffffffffffffffffffffffffff1603612d27576040517f08c379a0000000000000000000000000000000000000000000000000000000008152600401612d1e90614b6e565b60405180910390fd5b600073ffffffffffffffffffffffffffffffffffffffff168273ffffffffffffffffffffffffffffffffffffffff1603612d96576040517f08c379a0000000000000000000000000000000000000000000000000000000008152600401612d8d90614c00565b60405180910390fd5b80600260008573ffffffffffffffffffffffffffffffffffffffff1673ffffffffffffffffffffffffffffffffffffffff16815260200190815260200160002060008473ffffffffffffffffffffffffffffffffffffffff1673ffffffffffffffffffffffffffffffffffffffff168152602001908152602001600020819055508173ffffffffffffffffffffffffffffffffffffffff168373ffffffffffffffffffffffffffffffffffffffff167f8c5be1e5ebec7d5bd14f71427d1e84f3dd0314c0f7b2291e5b200ac8c7c3b92583604051612e7491906140ce565b60405180910390a3505050565b612e89612cb0565b73ffffffffffffffffffffffffffffffffffffffff16612ea7612752565b73ffffffffffffffffffffffffffffffffffffffff1614612efd576040517f08c379a0000000000000000000000000000000000000000000000000000000008152600401612ef490614c6c565b60405180910390fd5b565b6000612f0b8484612952565b90507fffffffffffffffffffffffffffffffffffffffffffffffffffffffffffffffff8114612f855781811015612f77576040517f08c379a0000000000000000000000000000000000000000000000000000000008152600401612f6e90614cd8565b60405180910390fd5b612f848484848403612cb8565b5b50505050565b600073ffffffffffffffffffffffffffffffffffffffff168373ffffffffffffffffffffffffffffffffffffffff1603612ffa576040517f08c379a0000000000000000000000000000000000000000000000000000000008152600401612ff190614d6a565b60405180910390fd5b600073ffffffffffffffffffffffffffffffffffffffff168273ffffffffffffffffffffffffffffffffffffffff1603613069576040517f08c379a000000000000000000000000000000000000000000000000000000000815260040161306090614dfc565b60405180910390fd5b613074838383613e9d565b6000600160008573ffffffffffffffffffffffffffffffffffffffff1673ffffffffffffffffffffffffffffffffffffffff168152602001908152602001600020549050818110156130fb576040517f08c379a00000000000000000000000000000000000000000000000000000000081526004016130f290614e8e565b60405180910390fd5b818103600160008673ffffffffffffffffffffffffffffffffffffffff1673ffffffffffffffffffffffffffffffffffffffff1681526020019081526020016000208190555081600160008573ffffffffffffffffffffffffffffffffffffffff1673ffffffffffffffffffffffffffffffffffffffff168152602001908152602001600020600082825401925050819055508273ffffffffffffffffffffffffffffffffffffffff168473ffffffffffffffffffffffffffffffffffffffff167fddf252ad1be2c89b69c2b068fc378daa952ba7f163c4a11628f55a4df523b3ef846040516131eb91906140ce565b60405180910390a36131fe848484613ea2565b50505050565b61321867432848c07829fc2560c01b612cad565b61322c67ddf1867759ef93c060c01b612cad565b61324067869d7a1271c3c70560c01b612cad565b6000600a54905061325b674dfee9145ca6998d60c01b612cad565b61326f671cf3b1fadc39707c60c01b612cad565b6000613285673abb914363fbbc3660c01b612cad565b613299670ae47402788c837160c01b612cad565b60006132af67feadf614b82ce30b60c01b612cad565b6132c367db48dbe137b3933060c01b612cad565b6000600860009054906101000a900473ffffffffffffffffffffffffffffffffffffffff1673ffffffffffffffffffffffffffffffffffffffff166370a08231306040518263ffffffff1660e01b81526004016133209190613ee8565b602060405180830381865afa15801561333d573d6000803e3d6000fd5b505050506040513d601f19601f8201168201806040525081019061336191906142ae565b9050613377672ee0680dd9766a6c60c01b612cad565b61338b6740a75a8248b455de60c01b612cad565b6000600960009054906101000a900473ffffffffffffffffffffffffffffffffffffffff1673ffffffffffffffffffffffffffffffffffffffff16634a3f088d600660009054906101000a900473ffffffffffffffffffffffffffffffffffffffff16600760009054906101000a900473ffffffffffffffffffffffffffffffffffffffff16600760009054906101000a900473ffffffffffffffffffffffffffffffffffffffff1660016040518563ffffffff1660e01b81526004016134559493929190614eae565b610100604051808303816000875af1158015613475573d6000803e3d6000fd5b505050506040513d601f19601f820116820180604052508101906134999190614ef3565b5050505050509150506134b6678397c469d742651b60c01b612cad565b6134ca67a1402f7fd7d852d960c01b612cad565b6000811115613610576134e767d9f6790f69bb5cb160c01b612cad565b6134fb6726b974136660335a60c01b612cad565b600960009054906101000a900473ffffffffffffffffffffffffffffffffffffffff1673ffffffffffffffffffffffffffffffffffffffff166345a6f370600660009054906101000a900473ffffffffffffffffffffffffffffffffffffffff16600760009054906101000a900473ffffffffffffffffffffffffffffffffffffffff16600760009054906101000a900473ffffffffffffffffffffffffffffffffffffffff1660016040518563ffffffff1660e01b81526004016135c39493929190614eae565b60408051808303816000875af11580156135e1573d6000803e3d6000fd5b505050506040513d601f19601f820116820180604052508101906136059190614fa9565b905080945050613625565b61362467b9689d218b0d634360c01b612cad565b5b61363967fbe6b299323b21d560c01b612cad565b61364d676f51c1a283050c7360c01b612cad565b600069d3c21bcecceda10000008583613666919061461d565b61367091906143cb565b905061368667e9012eb6fe33047160c01b612cad565b61369a67845c59b4ebb16bba60c01b612cad565b6000600960009054906101000a900473ffffffffffffffffffffffffffffffffffffffff1673ffffffffffffffffffffffffffffffffffffffff16634a3f088d600660009054906101000a900473ffffffffffffffffffffffffffffffffffffffff16600860009054906101000a900473ffffffffffffffffffffffffffffffffffffffff16600760009054906101000a900473ffffffffffffffffffffffffffffffffffffffff1660006040518563ffffffff1660e01b81526004016137649493929190614eae565b610100604051808303816000875af1158015613784573d6000803e3d6000fd5b505050506040513d601f19601f820116820180604052508101906137a89190614ef3565b5050505050509150506137c567af90e5e2813f51bd60c01b612cad565b6137d967335b314ba9c21d2b60c01b612cad565b600081111561391f576137f6675f72c9c7cb3882bf60c01b612cad565b61380a67a8f3cc67624811f760c01b612cad565b600960009054906101000a900473ffffffffffffffffffffffffffffffffffffffff1673ffffffffffffffffffffffffffffffffffffffff166345a6f370600660009054906101000a900473ffffffffffffffffffffffffffffffffffffffff16600860009054906101000a900473ffffffffffffffffffffffffffffffffffffffff16600760009054906101000a900473ffffffffffffffffffffffffffffffffffffffff1660006040518563ffffffff1660e01b81526004016138d29493929190614eae565b60408051808303816000875af11580156138f0573d6000803e3d6000fd5b505050506040513d601f19601f820116820180604052508101906139149190614fa9565b905080955050613934565b6139336724d4e4d3f2416e0860c01b612cad565b5b61394867d3d735c60f175f0b60c01b612cad565b61395c673885d873cf3e8ce960c01b612cad565b600069d3c21bcecceda1000000868361397591906143fc565b61397f91906143cb565b905061399567fbd02adb0220b6fb60c01b612cad565b8083866139a2919061461d565b6139ac919061461d565b600a819055506139c667034963122a13c72560c01b612cad565b6139da67f8762afdd0a4524b60c01b612cad565b7f059d0701380a5813cc605b68bc8aae0c943d3aecbfa3d35e11f8396e056eb6cc42600b60009054906101000a900460ff168a600a548988873073ffffffffffffffffffffffffffffffffffffffff166318160ddd6040518163ffffffff1660e01b8152600401602060405180830381865afa158015613a5e573d6000803e3d6000fd5b505050506040513d601f19601f82011682018060405250810190613a8291906142ae565b604051613a96989796959493929190614fe9565b60405180910390a15050505050505050565b600073ffffffffffffffffffffffffffffffffffffffff168273ffffffffffffffffffffffffffffffffffffffff1603613b17576040517f08c379a0000000000000000000000000000000000000000000000000000000008152600401613b0e906150d9565b60405180910390fd5b613b2382600083613e9d565b6000600160008473ffffffffffffffffffffffffffffffffffffffff1673ffffffffffffffffffffffffffffffffffffffff16815260200190815260200160002054905081811015613baa576040517f08c379a0000000000000000000000000000000000000000000000000000000008152600401613ba19061516b565b60405180910390fd5b818103600160008573ffffffffffffffffffffffffffffffffffffffff1673ffffffffffffffffffffffffffffffffffffffff1681526020019081526020016000208190555081600360008282540392505081905550600073ffffffffffffffffffffffffffffffffffffffff168373ffffffffffffffffffffffffffffffffffffffff167fddf252ad1be2c89b69c2b068fc378daa952ba7f163c4a11628f55a4df523b3ef84604051613c5e91906140ce565b60405180910390a3613c7283600084613ea2565b505050565b600073ffffffffffffffffffffffffffffffffffffffff168273ffffffffffffffffffffffffffffffffffffffff1603613ce6576040517f08c379a0000000000000000000000000000000000000000000000000000000008152600401613cdd906151d7565b60405180910390fd5b613cf260008383613e9d565b8060036000828254613d04919061461d565b9250508190555080600160008473ffffffffffffffffffffffffffffffffffffffff1673ffffffffffffffffffffffffffffffffffffffff168152602001908152602001600020600082825401925050819055508173ffffffffffffffffffffffffffffffffffffffff16600073ffffffffffffffffffffffffffffffffffffffff167fddf252ad1be2c89b69c2b068fc378daa952ba7f163c4a11628f55a4df523b3ef83604051613db691906140ce565b60405180910390a3613dca60008383613ea2565b5050565b600060019050919050565b60008060009054906101000a900473ffffffffffffffffffffffffffffffffffffffff169050816000806101000a81548173ffffffffffffffffffffffffffffffffffffffff021916908373ffffffffffffffffffffffffffffffffffffffff1602179055508173ffffffffffffffffffffffffffffffffffffffff168173ffffffffffffffffffffffffffffffffffffffff167f8be0079c531659141344cd1fd0a4f28419497f9722a3daafe3b4186f6b6457e060405160405180910390a35050565b505050565b505050565b600073ffffffffffffffffffffffffffffffffffffffff82169050919050565b6000613ed282613ea7565b9050919050565b613ee281613ec7565b82525050565b6000602082019050613efd6000830184613ed9565b92915050565b600081519050919050565b600082825260208201905092915050565b60005b83811015613f3d578082015181840152602081019050613f22565b60008484015250505050565b6000601f19601f8301169050919050565b6000613f6582613f03565b613f6f8185613f0e565b9350613f7f818560208601613f1f565b613f8881613f49565b840191505092915050565b60006020820190508181036000830152613fad8184613f5a565b905092915050565b600080fd5b613fc381613ec7565b8114613fce57600080fd5b50565b600081359050613fe081613fba565b92915050565b6000819050919050565b613ff981613fe6565b811461400457600080fd5b50565b60008135905061401681613ff0565b92915050565b6000806040838503121561403357614032613fb5565b5b600061404185828601613fd1565b925050602061405285828601614007565b9150509250929050565b60008115159050919050565b6140718161405c565b82525050565b600060208201905061408c6000830184614068565b92915050565b6000602082840312156140a8576140a7613fb5565b5b60006140b684828501613fd1565b91505092915050565b6140c881613fe6565b82525050565b60006020820190506140e360008301846140bf565b92915050565b600060ff82169050919050565b6140ff816140e9565b82525050565b600060208201905061411a60008301846140f6565b92915050565b60008060006060848603121561413957614138613fb5565b5b600061414786828701613fd1565b935050602061415886828701613fd1565b925050604061416986828701614007565b9150509250925092565b60006020828403121561418957614188613fb5565b5b600061419784828501614007565b91505092915050565b6141a9816140e9565b81146141b457600080fd5b50565b6000813590506141c6816141a0565b92915050565b6000602082840312156141e2576141e1613fb5565b5b60006141f0848285016141b7565b91505092915050565b600080604083850312156142105761420f613fb5565b5b600061421e85828601613fd1565b925050602061422f85828601613fd1565b9150509250929050565b7f4e487b7100000000000000000000000000000000000000000000000000000000600052602260045260246000fd5b6000600282049050600182168061428057607f821691505b60208210810361429357614292614239565b5b50919050565b6000815190506142a881613ff0565b92915050565b6000602082840312156142c4576142c3613fb5565b5b60006142d284828501614299565b91505092915050565b7f53757270726973696e676c7920796f752063616e6e6f7420776974686472617760008201527f20746f6b656e20796f752068617665206e6f7420626f75676874000000000000602082015250565b6000614337603a83613f0e565b9150614342826142db565b604082019050919050565b600060208201905081810360008301526143668161432a565b9050919050565b7f4e487b7100000000000000000000000000000000000000000000000000000000600052601260045260246000fd5b7f4e487b7100000000000000000000000000000000000000000000000000000000600052601160045260246000fd5b60006143d682613fe6565b91506143e183613fe6565b9250826143f1576143f061436d565b5b828204905092915050565b600061440782613fe6565b915061441283613fe6565b925082820390508181111561442a5761442961439c565b5b92915050565b600061443b82613fe6565b915061444683613fe6565b925082820261445481613fe6565b9150828204841483151761446b5761446a61439c565b5b5092915050565b60006040820190506144876000830185613ed9565b61449460208301846140bf565b9392505050565b6144a48161405c565b81146144af57600080fd5b50565b6000815190506144c18161449b565b92915050565b6000602082840312156144dd576144dc613fb5565b5b60006144eb848285016144b2565b91505092915050565b60006060820190506145096000830186613ed9565b61451660208301856140bf565b6145236040830184614068565b949350505050565b600060608201905061454060008301866140bf565b61454d60208301856140bf565b61455a60408301846140bf565b949350505050565b7f4e6f7420696e697469616c697a65642c20666972737420796f7520686176652060008201527f746f2073657420474d5820636f6e74726f6c6c65720000000000000000000000602082015250565b60006145be603583613f0e565b91506145c982614562565b604082019050919050565b600060208201905081810360008301526145ed816145b1565b9050919050565b600060408201905061460960008301856140bf565b6146166020830184614068565b9392505050565b600061462882613fe6565b915061463383613fe6565b925082820190508082111561464b5761464a61439c565b5b92915050565b7f546f6b656e206e6f742079657420737570706f72746564000000000000000000600082015250565b6000614687601783613f0e565b915061469282614651565b602082019050919050565b600060208201905081810360008301526146b68161467a565b9050919050565b7f416d6f756e7420746f206465706f736974206973206d616e6461746f72790000600082015250565b60006146f3601e83613f0e565b91506146fe826146bd565b602082019050919050565b60006020820190508181036000830152614722816146e6565b9050919050565b600060608201905061473e6000830186613ed9565b61474b6020830185613ed9565b61475860408301846140bf565b949350505050565b600060808201905061477560008301876140bf565b6147826020830186613ed9565b61478f60408301856140bf565b61479c60608301846140bf565b95945050505050565b7f56616c7565206d757374206265203020666f72206e65757472616c2c2031206660008201527f6f72204c6f6e67206f72203220666f722053686f727400000000000000000000602082015250565b6000614801603683613f0e565b915061480c826147a5565b604082019050919050565b60006020820190508181036000830152614830816147f4565b9050919050565b7f52657665727465642062656361757365206578706f736974696f6e206861732060008201527f6e6f74206368616e676564000000000000000000000000000000000000000000602082015250565b6000614893602b83613f0e565b915061489e82614837565b604082019050919050565b600060208201905081810360008301526148c281614886565b9050919050565b60006060820190506148de60008301866140bf565b6148eb60208301856140f6565b6148f860408301846140f6565b949350505050565b7f546f6b656e206e6f742079657420616464656400000000000000000000000000600082015250565b6000614936601383613f0e565b915061494182614900565b602082019050919050565b6000602082019050818103600083015261496581614929565b9050919050565b7f546f6b656e20616c726561647920616464656400000000000000000000000000600082015250565b60006149a2601383613f0e565b91506149ad8261496c565b602082019050919050565b600060208201905081810360008301526149d181614995565b9050919050565b7f45524332303a2064656372656173656420616c6c6f77616e63652062656c6f7760008201527f207a65726f000000000000000000000000000000000000000000000000000000602082015250565b6000614a34602583613f0e565b9150614a3f826149d8565b604082019050919050565b60006020820190508181036000830152614a6381614a27565b9050919050565b7f4f776e61626c653a206e6577206f776e657220697320746865207a65726f206160008201527f6464726573730000000000000000000000000000000000000000000000000000602082015250565b6000614ac6602683613f0e565b9150614ad182614a6a565b604082019050919050565b60006020820190508181036000830152614af581614ab9565b9050919050565b7f45524332303a20617070726f76652066726f6d20746865207a65726f2061646460008201527f7265737300000000000000000000000000000000000000000000000000000000602082015250565b6000614b58602483613f0e565b9150614b6382614afc565b604082019050919050565b60006020820190508181036000830152614b8781614b4b565b9050919050565b7f45524332303a20617070726f766520746f20746865207a65726f20616464726560008201527f7373000000000000000000000000000000000000000000000000000000000000602082015250565b6000614bea602283613f0e565b9150614bf582614b8e565b604082019050919050565b60006020820190508181036000830152614c1981614bdd565b9050919050565b7f4f776e61626c653a2063616c6c6572206973206e6f7420746865206f776e6572600082015250565b6000614c56602083613f0e565b9150614c6182614c20565b602082019050919050565b60006020820190508181036000830152614c8581614c49565b9050919050565b7f45524332303a20696e73756666696369656e7420616c6c6f77616e6365000000600082015250565b6000614cc2601d83613f0e565b9150614ccd82614c8c565b602082019050919050565b60006020820190508181036000830152614cf181614cb5565b9050919050565b7f45524332303a207472616e736665722066726f6d20746865207a65726f20616460008201527f6472657373000000000000000000000000000000000000000000000000000000602082015250565b6000614d54602583613f0e565b9150614d5f82614cf8565b604082019050919050565b60006020820190508181036000830152614d8381614d47565b9050919050565b7f45524332303a207472616e7366657220746f20746865207a65726f206164647260008201527f6573730000000000000000000000000000000000000000000000000000000000602082015250565b6000614de6602383613f0e565b9150614df182614d8a565b604082019050919050565b60006020820190508181036000830152614e1581614dd9565b9050919050565b7f45524332303a207472616e7366657220616d6f756e742065786365656473206260008201527f616c616e63650000000000000000000000000000000000000000000000000000602082015250565b6000614e78602683613f0e565b9150614e8382614e1c565b604082019050919050565b60006020820190508181036000830152614ea781614e6b565b9050919050565b6000608082019050614ec36000830187613ed9565b614ed06020830186613ed9565b614edd6040830185613ed9565b614eea6060830184614068565b95945050505050565b600080600080600080600080610100898b031215614f1457614f13613fb5565b5b6000614f228b828c01614299565b9850506020614f338b828c01614299565b9750506040614f448b828c01614299565b9650506060614f558b828c01614299565b9550506080614f668b828c01614299565b94505060a0614f778b828c01614299565b93505060c0614f888b828c016144b2565b92505060e0614f998b828c01614299565b9150509295985092959890939650565b60008060408385031215614fc057614fbf613fb5565b5b6000614fce858286016144b2565b9250506020614fdf85828601614299565b9150509250929050565b600061010082019050614fff600083018b6140bf565b61500c602083018a6140f6565b61501960408301896140bf565b61502660608301886140bf565b61503360808301876140bf565b61504060a08301866140bf565b61504d60c08301856140bf565b61505a60e08301846140bf565b9998505050505050505050565b7f45524332303a206275726e2066726f6d20746865207a65726f2061646472657360008201527f7300000000000000000000000000000000000000000000000000000000000000602082015250565b60006150c3602183613f0e565b91506150ce82615067565b604082019050919050565b600060208201905081810360008301526150f2816150b6565b9050919050565b7f45524332303a206275726e20616d6f756e7420657863656564732062616c616e60008201527f6365000000000000000000000000000000000000000000000000000000000000602082015250565b6000615155602283613f0e565b9150615160826150f9565b604082019050919050565b6000602082019050818103600083015261518481615148565b9050919050565b7f45524332303a206d696e7420746f20746865207a65726f206164647265737300600082015250565b60006151c1601f83613f0e565b91506151cc8261518b565b602082019050919050565b600060208201905081810360008301526151f0816151b4565b905091905056fea2646970667358221220a28a9ad7a86291a484fd4af976a103eaf4131a3c596e4f0317c42203c2f2620c64736f6c63430008110033",
  "linkReferences": {},
  "deployedLinkReferences": {}
}