{
  "_format": "hh-sol-artifact-1",
  "contractName": "MyVault",
  "sourceName": "contracts/MyVault.sol",
  "abi": [
    {
      "inputs": [],
      "stateMutability": "nonpayable",
      "type": "constructor"
    },
    {
      "anonymous": false,
      "inputs": [
        {
          "indexed": true,
          "internalType": "address",
          "name": "owner",
          "type": "address"
        },
        {
          "indexed": true,
          "internalType": "address",
          "name": "spender",
          "type": "address"
        },
        {
          "indexed": false,
          "internalType": "uint256",
          "name": "value",
          "type": "uint256"
        }
      ],
      "name": "Approval",
      "type": "event"
    },
    {
      "anonymous": false,
      "inputs": [
        {
          "indexed": false,
          "internalType": "address",
          "name": "tokenAddress",
          "type": "address"
        }
      ],
      "name": "NewTokenAdded",
      "type": "event"
    },
    {
      "anonymous": false,
      "inputs": [
        {
          "indexed": true,
          "internalType": "address",
          "name": "previousOwner",
          "type": "address"
        },
        {
          "indexed": true,
          "internalType": "address",
          "name": "newOwner",
          "type": "address"
        }
      ],
      "name": "OwnershipTransferred",
      "type": "event"
    },
    {
      "anonymous": false,
      "inputs": [
        {
          "indexed": false,
          "internalType": "address",
          "name": "tokenAddress",
          "type": "address"
        }
      ],
      "name": "TokenRemoved",
      "type": "event"
    },
    {
      "anonymous": false,
      "inputs": [
        {
          "indexed": true,
          "internalType": "address",
          "name": "from",
          "type": "address"
        },
        {
          "indexed": true,
          "internalType": "address",
          "name": "to",
          "type": "address"
        },
        {
          "indexed": false,
          "internalType": "uint256",
          "name": "value",
          "type": "uint256"
        }
      ],
      "name": "Transfer",
      "type": "event"
    },
    {
      "anonymous": false,
      "inputs": [
        {
          "indexed": true,
          "internalType": "address",
          "name": "account",
          "type": "address"
        },
        {
          "indexed": false,
          "internalType": "uint256",
          "name": "when",
          "type": "uint256"
        },
        {
          "indexed": false,
          "internalType": "address",
          "name": "token_deposited",
          "type": "address"
        },
        {
          "indexed": false,
          "internalType": "uint256",
          "name": "amount",
          "type": "uint256"
        },
        {
          "indexed": false,
          "internalType": "uint256",
          "name": "PLPissued",
          "type": "uint256"
        }
      ],
      "name": "depositEvent",
      "type": "event"
    },
    {
      "anonymous": false,
      "inputs": [
        {
          "indexed": false,
          "internalType": "uint256",
          "name": "when",
          "type": "uint256"
        },
        {
          "indexed": false,
          "internalType": "uint8",
          "name": "exposition",
          "type": "uint8"
        },
        {
          "indexed": false,
          "internalType": "uint256",
          "name": "oldNAV",
          "type": "uint256"
        },
        {
          "indexed": false,
          "internalType": "uint256",
          "name": "NAV",
          "type": "uint256"
        },
        {
          "indexed": false,
          "internalType": "uint256",
          "name": "usdcNAV",
          "type": "uint256"
        },
        {
          "indexed": false,
          "internalType": "uint256",
          "name": "longNAV",
          "type": "uint256"
        },
        {
          "indexed": false,
          "internalType": "uint256",
          "name": "shortNAV",
          "type": "uint256"
        },
        {
          "indexed": false,
          "internalType": "uint256",
          "name": "totalsupply",
          "type": "uint256"
        }
      ],
      "name": "navEvent",
      "type": "event"
    },
    {
      "inputs": [],
      "name": "GMX_controller",
      "outputs": [
        {
          "internalType": "address",
          "name": "",
          "type": "address"
        }
      ],
      "stateMutability": "view",
      "type": "function"
    },
    {
      "inputs": [],
      "name": "USDC",
      "outputs": [
        {
          "internalType": "address",
          "name": "",
          "type": "address"
        }
      ],
      "stateMutability": "view",
      "type": "function"
    },
    {
      "inputs": [],
      "name": "WETH",
      "outputs": [
        {
          "internalType": "address",
          "name": "",
          "type": "address"
        }
      ],
      "stateMutability": "view",
      "type": "function"
    },
    {
      "inputs": [
        {
          "internalType": "address",
          "name": "tokenAddress",
          "type": "address"
        }
      ],
      "name": "acceptToken",
      "outputs": [],
      "stateMutability": "nonpayable",
      "type": "function"
    },
    {
      "inputs": [
        {
          "internalType": "address",
          "name": "owner",
          "type": "address"
        },
        {
          "internalType": "address",
          "name": "spender",
          "type": "address"
        }
      ],
      "name": "allowance",
      "outputs": [
        {
          "internalType": "uint256",
          "name": "",
          "type": "uint256"
        }
      ],
      "stateMutability": "view",
      "type": "function"
    },
    {
      "inputs": [
        {
          "internalType": "address",
          "name": "spender",
          "type": "address"
        },
        {
          "internalType": "uint256",
          "name": "amount",
          "type": "uint256"
        }
      ],
      "name": "approve",
      "outputs": [
        {
          "internalType": "bool",
          "name": "",
          "type": "bool"
        }
      ],
      "stateMutability": "nonpayable",
      "type": "function"
    },
    {
      "inputs": [
        {
          "internalType": "address",
          "name": "account",
          "type": "address"
        }
      ],
      "name": "balanceOf",
      "outputs": [
        {
          "internalType": "uint256",
          "name": "",
          "type": "uint256"
        }
      ],
      "stateMutability": "view",
      "type": "function"
    },
    {
      "inputs": [],
      "name": "collateral",
      "outputs": [
        {
          "internalType": "uint256",
          "name": "",
          "type": "uint256"
        }
      ],
      "stateMutability": "view",
      "type": "function"
    },
    {
      "inputs": [],
      "name": "decimals",
      "outputs": [
        {
          "internalType": "uint8",
          "name": "",
          "type": "uint8"
        }
      ],
      "stateMutability": "view",
      "type": "function"
    },
    {
      "inputs": [
        {
          "internalType": "address",
          "name": "spender",
          "type": "address"
        },
        {
          "internalType": "uint256",
          "name": "subtractedValue",
          "type": "uint256"
        }
      ],
      "name": "decreaseAllowance",
      "outputs": [
        {
          "internalType": "bool",
          "name": "",
          "type": "bool"
        }
      ],
      "stateMutability": "nonpayable",
      "type": "function"
    },
    {
      "inputs": [],
      "name": "deltavalue",
      "outputs": [
        {
          "internalType": "uint256",
          "name": "",
          "type": "uint256"
        }
      ],
      "stateMutability": "view",
      "type": "function"
    },
    {
      "inputs": [
        {
          "internalType": "address",
          "name": "tokenAddress",
          "type": "address"
        },
        {
          "internalType": "uint256",
          "name": "_amount",
          "type": "uint256"
        }
      ],
      "name": "deposit",
      "outputs": [],
      "stateMutability": "payable",
      "type": "function"
    },
    {
      "inputs": [],
      "name": "exposition",
      "outputs": [
        {
          "internalType": "uint8",
          "name": "",
          "type": "uint8"
        }
      ],
      "stateMutability": "view",
      "type": "function"
    },
    {
      "inputs": [],
      "name": "getExposition",
      "outputs": [
        {
          "internalType": "uint8",
          "name": "",
          "type": "uint8"
        }
      ],
      "stateMutability": "view",
      "type": "function"
    },
    {
      "inputs": [],
      "name": "getGMX_controller",
      "outputs": [
        {
          "internalType": "address",
          "name": "",
          "type": "address"
        }
      ],
      "stateMutability": "view",
      "type": "function"
    },
    {
      "inputs": [],
      "name": "getNetAssetValue",
      "outputs": [
        {
          "internalType": "uint256",
          "name": "",
          "type": "uint256"
        }
      ],
      "stateMutability": "view",
      "type": "function"
    },
    {
      "inputs": [],
      "name": "gmxVault",
      "outputs": [
        {
          "internalType": "address",
          "name": "",
          "type": "address"
        }
      ],
      "stateMutability": "view",
      "type": "function"
    },
    {
      "inputs": [
        {
          "internalType": "address",
          "name": "spender",
          "type": "address"
        },
        {
          "internalType": "uint256",
          "name": "addedValue",
          "type": "uint256"
        }
      ],
      "name": "increaseAllowance",
      "outputs": [
        {
          "internalType": "bool",
          "name": "",
          "type": "bool"
        }
      ],
      "stateMutability": "nonpayable",
      "type": "function"
    },
    {
      "inputs": [
        {
          "internalType": "address",
          "name": "tokenAddress",
          "type": "address"
        }
      ],
      "name": "isAccepted",
      "outputs": [
        {
          "internalType": "bool",
          "name": "",
          "type": "bool"
        }
      ],
      "stateMutability": "view",
      "type": "function"
    },
    {
      "inputs": [],
      "name": "isOpen",
      "outputs": [
        {
          "internalType": "bool",
          "name": "",
          "type": "bool"
        }
      ],
      "stateMutability": "view",
      "type": "function"
    },
    {
      "inputs": [],
      "name": "liquidatePositions",
      "outputs": [],
      "stateMutability": "payable",
      "type": "function"
    },
    {
      "inputs": [],
      "name": "name",
      "outputs": [
        {
          "internalType": "string",
          "name": "",
          "type": "string"
        }
      ],
      "stateMutability": "view",
      "type": "function"
    },
    {
      "inputs": [],
      "name": "netAssetValue",
      "outputs": [
        {
          "internalType": "uint256",
          "name": "",
          "type": "uint256"
        }
      ],
      "stateMutability": "view",
      "type": "function"
    },
    {
      "inputs": [],
      "name": "openPosition",
      "outputs": [],
      "stateMutability": "payable",
      "type": "function"
    },
    {
      "inputs": [],
      "name": "owner",
      "outputs": [
        {
          "internalType": "address",
          "name": "",
          "type": "address"
        }
      ],
      "stateMutability": "view",
      "type": "function"
    },
    {
      "inputs": [
        {
          "internalType": "address",
          "name": "tokenAddress",
          "type": "address"
        }
      ],
      "name": "removeToken",
      "outputs": [],
      "stateMutability": "nonpayable",
      "type": "function"
    },
    {
      "inputs": [],
      "name": "renounceOwnership",
      "outputs": [],
      "stateMutability": "nonpayable",
      "type": "function"
    },
    {
      "inputs": [
        {
          "internalType": "uint8",
          "name": "_exposition",
          "type": "uint8"
        }
      ],
      "name": "setExposition",
      "outputs": [],
      "stateMutability": "nonpayable",
      "type": "function"
    },
    {
      "inputs": [
        {
          "internalType": "address",
          "name": "_addr",
          "type": "address"
        }
      ],
      "name": "setGMX_controller",
      "outputs": [],
      "stateMutability": "nonpayable",
      "type": "function"
    },
    {
      "inputs": [],
      "name": "symbol",
      "outputs": [
        {
          "internalType": "string",
          "name": "",
          "type": "string"
        }
      ],
      "stateMutability": "view",
      "type": "function"
    },
    {
      "inputs": [
        {
          "internalType": "address",
          "name": "",
          "type": "address"
        }
      ],
      "name": "tokenAccepted",
      "outputs": [
        {
          "internalType": "bool",
          "name": "",
          "type": "bool"
        }
      ],
      "stateMutability": "view",
      "type": "function"
    },
    {
      "inputs": [],
      "name": "totalSupply",
      "outputs": [
        {
          "internalType": "uint256",
          "name": "",
          "type": "uint256"
        }
      ],
      "stateMutability": "view",
      "type": "function"
    },
    {
      "inputs": [
        {
          "internalType": "address",
          "name": "to",
          "type": "address"
        },
        {
          "internalType": "uint256",
          "name": "amount",
          "type": "uint256"
        }
      ],
      "name": "transfer",
      "outputs": [
        {
          "internalType": "bool",
          "name": "",
          "type": "bool"
        }
      ],
      "stateMutability": "nonpayable",
      "type": "function"
    },
    {
      "inputs": [
        {
          "internalType": "address",
          "name": "from",
          "type": "address"
        },
        {
          "internalType": "address",
          "name": "to",
          "type": "address"
        },
        {
          "internalType": "uint256",
          "name": "amount",
          "type": "uint256"
        }
      ],
      "name": "transferFrom",
      "outputs": [
        {
          "internalType": "bool",
          "name": "",
          "type": "bool"
        }
      ],
      "stateMutability": "nonpayable",
      "type": "function"
    },
    {
      "inputs": [
        {
          "internalType": "address",
          "name": "newOwner",
          "type": "address"
        }
      ],
      "name": "transferOwnership",
      "outputs": [],
      "stateMutability": "nonpayable",
      "type": "function"
    },
    {
      "inputs": [],
      "name": "updateNetAssetValue",
      "outputs": [],
      "stateMutability": "nonpayable",
      "type": "function"
    },
    {
      "inputs": [],
      "name": "vaultValue",
      "outputs": [
        {
          "internalType": "uint256",
          "name": "",
          "type": "uint256"
        }
      ],
      "stateMutability": "view",
      "type": "function"
    },
    {
      "inputs": [
        {
          "internalType": "uint256",
          "name": "_amount",
          "type": "uint256"
        }
      ],
      "name": "withdraw",
      "outputs": [],
      "stateMutability": "payable",
      "type": "function"
    }
  ],
  "bytecode": "0x60806040527382af49447d8a07e3bd95bd0d56f35241523fbab1600b60026101000a81548173ffffffffffffffffffffffffffffffffffffffff021916908373ffffffffffffffffffffffffffffffffffffffff16021790555073ff970a61a04b1ca14834a43f5de4533ebddb5cc8600c60006101000a81548173ffffffffffffffffffffffffffffffffffffffff021916908373ffffffffffffffffffffffffffffffffffffffff16021790555073489ee077994b6658eafa855c308275ead8097c4a600d60006101000a81548173ffffffffffffffffffffffffffffffffffffffff021916908373ffffffffffffffffffffffffffffffffffffffff1602179055503480156200011057600080fd5b506040518060400160405280600881526020017f506f6c79706c75730000000000000000000000000000000000000000000000008152506040518060400160405280600381526020017f504c5000000000000000000000000000000000000000000000000000000000008152506200019d62000191620002af60201b60201c565b620002b760201b60201c565b8160049081620001ae9190620005f8565b508060059081620001c09190620005f8565b505050620001df6723d1b1b5ae29cb6b60c01b6200037b60201b60201c565b620001fb679646a20c2e879cef60c01b6200037b60201b60201c565b6000600760146101000a81548160ff021916908360ff16021790555062000233678d5a85aeeaa9c21b60c01b6200037b60201b60201c565b6001600a819055506200025767c8ba2d670923406260c01b6200037b60201b60201c565b6000600b60016101000a81548160ff0219169083151502179055506200028e67edd7d388e2af516e60c01b6200037b60201b60201c565b6000600b60006101000a81548160ff021916908315150217905550620006df565b600033905090565b60008060009054906101000a900473ffffffffffffffffffffffffffffffffffffffff169050816000806101000a81548173ffffffffffffffffffffffffffffffffffffffff021916908373ffffffffffffffffffffffffffffffffffffffff1602179055508173ffffffffffffffffffffffffffffffffffffffff168173ffffffffffffffffffffffffffffffffffffffff167f8be0079c531659141344cd1fd0a4f28419497f9722a3daafe3b4186f6b6457e060405160405180910390a35050565b50565b600081519050919050565b7f4e487b7100000000000000000000000000000000000000000000000000000000600052604160045260246000fd5b7f4e487b7100000000000000000000000000000000000000000000000000000000600052602260045260246000fd5b600060028204905060018216806200040057607f821691505b602082108103620004165762000415620003b8565b5b50919050565b60008190508160005260206000209050919050565b60006020601f8301049050919050565b600082821b905092915050565b600060088302620004807fffffffffffffffffffffffffffffffffffffffffffffffffffffffffffffffff8262000441565b6200048c868362000441565b95508019841693508086168417925050509392505050565b6000819050919050565b6000819050919050565b6000620004d9620004d3620004cd84620004a4565b620004ae565b620004a4565b9050919050565b6000819050919050565b620004f583620004b8565b6200050d6200050482620004e0565b8484546200044e565b825550505050565b600090565b6200052462000515565b62000531818484620004ea565b505050565b5b8181101562000559576200054d6000826200051a565b60018101905062000537565b5050565b601f821115620005a85762000572816200041c565b6200057d8462000431565b810160208510156200058d578190505b620005a56200059c8562000431565b83018262000536565b50505b505050565b600082821c905092915050565b6000620005cd60001984600802620005ad565b1980831691505092915050565b6000620005e88383620005ba565b9150826002028217905092915050565b62000603826200037e565b67ffffffffffffffff8111156200061f576200061e62000389565b5b6200062b8254620003e7565b620006388282856200055d565b600060209050601f8311600181146200067057600084156200065b578287015190505b620006678582620005da565b865550620006d7565b601f19841662000680866200041c565b60005b82811015620006aa5784890151825560018201915060208501945060208101905062000683565b86831015620006ca5784890151620006c6601f891682620005ba565b8355505b6001600288020188555050505b505050505050565b61516880620006ef6000396000f3fe6080604052600436106102055760003560e01c8063715018a611610113578063a9059cbb116100ab578063dd62ed3e1161006f578063dd62ed3e14610797578063de9257cd146107d4578063e6f091f9146107ff578063ed61f4a11461083c578063f2fde38b1461085357610205565b8063a9059cbb1461069c578063ad5c4648146106d9578063aedf795e14610704578063b3b3453e14610741578063d8dfeb451461076c57610205565b8063715018a61461051d57806389a30271146105345780638c21c9e11461055f5780638cd3f0641461058a5780638da5cb5b146105b357806395d89b41146105de5780639ecbfa4214610609578063a3673b3814610634578063a457c2d71461065f57610205565b8063313ce567116101a1578063481d6ee911610165578063481d6ee9146104595780635fa7b584146104825780636639a81d146104ab5780636780a7d4146104d657806370a08231146104e057610205565b8063313ce567146103a0578063350245c2146103cb57806339509351146103d557806347535d7b1461041257806347e7ef241461043d57610205565b80630677a2a51461020a57806306fdde0314610235578063095ea7b31461026057806311af7d951461029d57806318160ddd146102c65780631b2b573c146102f15780631cd2f7c81461031c57806323b872dd146103475780632e1a7d4d14610384575b600080fd5b34801561021657600080fd5b5061021f61087c565b60405161022c9190613e91565b60405180910390f35b34801561024157600080fd5b5061024a6108e2565b6040516102579190613f3c565b60405180910390f35b34801561026c57600080fd5b5061028760048036038101906102829190613fc5565b610974565b6040516102949190614020565b60405180910390f35b3480156102a957600080fd5b506102c460048036038101906102bf919061403b565b610997565b005b3480156102d257600080fd5b506102db610a62565b6040516102e89190614077565b60405180910390f35b3480156102fd57600080fd5b50610306610a6c565b6040516103139190614077565b60405180910390f35b34801561032857600080fd5b50610331610a72565b60405161033e91906140ae565b60405180910390f35b34801561035357600080fd5b5061036e600480360381019061036991906140c9565b610a85565b60405161037b9190614020565b60405180910390f35b61039e6004803603810190610399919061411c565b610ab4565b005b3480156103ac57600080fd5b506103b5611120565b6040516103c291906140ae565b60405180910390f35b6103d3611129565b005b3480156103e157600080fd5b506103fc60048036038101906103f79190613fc5565b61158e565b6040516104099190614020565b60405180910390f35b34801561041e57600080fd5b506104276115c5565b6040516104349190614020565b60405180910390f35b61045760048036038101906104529190613fc5565b6115d8565b005b34801561046557600080fd5b50610480600480360381019061047b9190614175565b611ddc565b005b34801561048e57600080fd5b506104a960048036038101906104a4919061403b565b61201b565b005b3480156104b757600080fd5b506104c0612209565b6040516104cd9190614077565b60405180910390f35b6104de61224f565b005b3480156104ec57600080fd5b506105076004803603810190610502919061403b565b612491565b6040516105149190614077565b60405180910390f35b34801561052957600080fd5b506105326124da565b005b34801561054057600080fd5b506105496124ee565b6040516105569190613e91565b60405180910390f35b34801561056b57600080fd5b50610574612514565b6040516105819190614077565b60405180910390f35b34801561059657600080fd5b506105b160048036038101906105ac919061403b565b61251a565b005b3480156105bf57600080fd5b506105c8612709565b6040516105d59190613e91565b60405180910390f35b3480156105ea57600080fd5b506105f3612732565b6040516106009190613f3c565b60405180910390f35b34801561061557600080fd5b5061061e6127c4565b60405161062b9190613e91565b60405180910390f35b34801561064057600080fd5b506106496127ea565b6040516106569190614077565b60405180910390f35b34801561066b57600080fd5b5061068660048036038101906106819190613fc5565b6127f0565b6040516106939190614020565b60405180910390f35b3480156106a857600080fd5b506106c360048036038101906106be9190613fc5565b612867565b6040516106d09190614020565b60405180910390f35b3480156106e557600080fd5b506106ee61288a565b6040516106fb9190613e91565b60405180910390f35b34801561071057600080fd5b5061072b6004803603810190610726919061403b565b6128b0565b6040516107389190614020565b60405180910390f35b34801561074d57600080fd5b506107566128d0565b6040516107639190613e91565b60405180910390f35b34801561077857600080fd5b506107816128f6565b60405161078e9190614077565b60405180910390f35b3480156107a357600080fd5b506107be60048036038101906107b991906141a2565b6128fc565b6040516107cb9190614077565b60405180910390f35b3480156107e057600080fd5b506107e9612983565b6040516107f691906140ae565b60405180910390f35b34801561080b57600080fd5b506108266004803603810190610821919061403b565b6129d6565b6040516108339190614020565b60405180910390f35b34801561084857600080fd5b50610851612a68565b005b34801561085f57600080fd5b5061087a6004803603810190610875919061403b565b612bd3565b005b600061089267862bf9cb27eec93360c01b612c56565b6108a66765bd488814c1943260c01b612c56565b6108ba67451104dd8277a4ab60c01b612c56565b600760009054906101000a900473ffffffffffffffffffffffffffffffffffffffff16905090565b6060600480546108f190614211565b80601f016020809104026020016040519081016040528092919081815260200182805461091d90614211565b801561096a5780601f1061093f5761010080835404028352916020019161096a565b820191906000526020600020905b81548152906001019060200180831161094d57829003601f168201915b5050505050905090565b60008061097f612c59565b905061098c818585612c61565b600191505092915050565b6109ab679ab76ee99922a25f60c01b612c56565b6109b3612e2a565b6109c76766c6d0674dcdebfc60c01b612c56565b6109db67dd77b214be1897b460c01b612c56565b6109ef67f3221c617474c3be60c01b612c56565b80600760006101000a81548173ffffffffffffffffffffffffffffffffffffffff021916908373ffffffffffffffffffffffffffffffffffffffff160217905550610a44672ade0bdf838734b860c01b612c56565b6001600b60016101000a81548160ff02191690831515021790555050565b6000600354905090565b60095481565b600760149054906101000a900460ff1681565b600080610a90612c59565b9050610a9d858285612ea8565b610aa8858585612f34565b60019150509392505050565b610ac867a3130a4028848f2d60c01b612c56565b610adc6725348dc1d02c583360c01b612c56565b610af067d819e6946c5c0b8b60c01b612c56565b610b046708a787a9aa57573f60c01b612c56565b60008111610b1157600080fd5b610b2567388683a7b1d6ae7e60c01b612c56565b610b39672f6c3a27632d8a5760c01b612c56565b610b4d67dd76bc4002d30db960c01b612c56565b610b6167508afe3e1ef0ebc760c01b612c56565b803073ffffffffffffffffffffffffffffffffffffffff166370a08231336040518263ffffffff1660e01b8152600401610b9b9190613e91565b602060405180830381865afa158015610bb8573d6000803e3d6000fd5b505050506040513d601f19601f82011682018060405250810190610bdc9190614257565b1015610c1d576040517f08c379a0000000000000000000000000000000000000000000000000000000008152600401610c14906142f6565b60405180910390fd5b610c3167a8785ed5b15de0d660c01b612c56565b610c45675aa19742c605172060c01b612c56565b610c5967058dca980fb379bb60c01b612c56565b610c616131ad565b610c75677521f640282e8e3b60c01b612c56565b610c896739e9f14cbe44aa9d60c01b612c56565b6000610c9f6701fe7988d4ec93fa60c01b612c56565b3073ffffffffffffffffffffffffffffffffffffffff166318160ddd6040518163ffffffff1660e01b8152600401602060405180830381865afa158015610cea573d6000803e3d6000fd5b505050506040513d601f19601f82011682018060405250810190610d0e9190614257565b600a54610d1b9190614374565b9050610d316706b1bc96276fb2d460c01b612c56565b610d456733421eb863bc187960c01b612c56565b610d4f3383613a51565b610d636765defa4b0527082760c01b612c56565b610d776789bac8e7119aca4c60c01b612c56565b6000606483610d869190614374565b83610d9191906143a5565b9050610da767554bc41c8dcc7ce260c01b612c56565b610dbb67bf6cf8ab2afb088060c01b612c56565b6000600760149054906101000a900460ff1660ff1603610ec257610de967bcd0e4ec96e837bb60c01b612c56565b610dfd67c3c70a6e27a6649260c01b612c56565b610e1167ff3d05949a47a56a60c01b612c56565b600c60009054906101000a900473ffffffffffffffffffffffffffffffffffffffff1673ffffffffffffffffffffffffffffffffffffffff1663a9059cbb338486610e5c91906143d9565b6040518363ffffffff1660e01b8152600401610e7992919061441b565b6020604051808303816000875af1158015610e98573d6000803e3d6000fd5b505050506040513d601f19601f82011682018060405250810190610ebc9190614470565b5061111b565b610ed667e722c7168809baa960c01b612c56565b610eea676e3d769fa0e0f81b60c01b612c56565b6001600760149054906101000a900460ff1660ff1603610fe357610f18670824012134208c8d60c01b612c56565b610f2c67d33599eac439b3c860c01b612c56565b610f4067cd5d34eb2b2bc23d60c01b612c56565b600760009054906101000a900473ffffffffffffffffffffffffffffffffffffffff1673ffffffffffffffffffffffffffffffffffffffff1663c5dac33b34338585610f8c91906143d9565b60016040518563ffffffff1660e01b8152600401610fac9392919061449d565b6000604051808303818588803b158015610fc557600080fd5b505af1158015610fd9573d6000803e3d6000fd5b505050505061111a565b610ff76716c8a115087938de60c01b612c56565b61100b67f367cba30493d4b960c01b612c56565b6002600760149054906101000a900460ff1660ff1603611104576110396770d34ece5b0a7aea60c01b612c56565b61104d67b03e3a3f97e22aff60c01b612c56565b6110616761c1ca65b643c0ce60c01b612c56565b600760009054906101000a900473ffffffffffffffffffffffffffffffffffffffff1673ffffffffffffffffffffffffffffffffffffffff1663c5dac33b343385856110ad91906143d9565b60006040518563ffffffff1660e01b81526004016110cd9392919061449d565b6000604051808303818588803b1580156110e657600080fd5b505af11580156110fa573d6000803e3d6000fd5b5050505050611119565b611118671a0f6d1b32b8900c60c01b612c56565b5b5b5b505050565b60006012905090565b61113d67fc3f9de3f61d460b60c01b612c56565b611145612e2a565b61115967a7c84c8fed9782b260c01b612c56565b61116d67d390473cd97e140d60c01b612c56565b611180668b9b0c72d1101c60c01b612c56565b611194670f34c4b686ccdae760c01b612c56565b6111a867f6373173d1b3a9d960c01b612c56565b6111bc671621736952bb517e60c01b612c56565b60011515600b60019054906101000a900460ff16151514611212576040517f08c379a000000000000000000000000000000000000000000000000000000000815260040161120990614546565b60405180910390fd5b611226673f4163dbb4e607a660c01b612c56565b61123a675628e1104734931a60c01b612c56565b61124e6768b9dee201a1481b60c01b612c56565b611262676381c38c6d05697d60c01b612c56565b6112766729e831cead1d126660c01b612c56565b61128a67121089da36f0350860c01b612c56565b60006001600760149054906101000a900460ff1660ff16146112ad5760006112b0565b60015b90506112c66744d06e033c15002c60c01b612c56565b6112da6790872a979469b15d60c01b612c56565b600c60009054906101000a900473ffffffffffffffffffffffffffffffffffffffff1673ffffffffffffffffffffffffffffffffffffffff1663095ea7b3600760009054906101000a900473ffffffffffffffffffffffffffffffffffffffff16600c60009054906101000a900473ffffffffffffffffffffffffffffffffffffffff1673ffffffffffffffffffffffffffffffffffffffff166370a08231306040518263ffffffff1660e01b81526004016113969190613e91565b602060405180830381865afa1580156113b3573d6000803e3d6000fd5b505050506040513d601f19601f820116820180604052508101906113d79190614257565b6040518363ffffffff1660e01b81526004016113f492919061441b565b6020604051808303816000875af1158015611413573d6000803e3d6000fd5b505050506040513d601f19601f820116820180604052508101906114379190614470565b5061144c67cd9be1cf7994b36060c01b612c56565b6114606701eee420bd51296360c01b612c56565b600760009054906101000a900473ffffffffffffffffffffffffffffffffffffffff1673ffffffffffffffffffffffffffffffffffffffff16631c5ecc0634600c60009054906101000a900473ffffffffffffffffffffffffffffffffffffffff1673ffffffffffffffffffffffffffffffffffffffff166370a08231306040518263ffffffff1660e01b81526004016114fa9190613e91565b602060405180830381865afa158015611517573d6000803e3d6000fd5b505050506040513d601f19601f8201168201806040525081019061153b9190614257565b846040518463ffffffff1660e01b8152600401611559929190614566565b6000604051808303818588803b15801561157257600080fd5b505af1158015611586573d6000803e3d6000fd5b505050505050565b600080611599612c59565b90506115ba8185856115ab85896128fc565b6115b5919061458f565b612c61565b600191505092915050565b600b60009054906101000a900460ff1681565b6115ec67ffa4e13bd126587360c01b612c56565b611600670b644169eb6204ac60c01b612c56565b6116146749af74d1cd821b7460c01b612c56565b61162867ca5e7b0e8779ea6060c01b612c56565b600e60008373ffffffffffffffffffffffffffffffffffffffff1673ffffffffffffffffffffffffffffffffffffffff16815260200190815260200160002060009054906101000a900460ff166116b4576040517f08c379a00000000000000000000000000000000000000000000000000000000081526004016116ab9061460f565b60405180910390fd5b6116c867ba90e4e4b6a809f360c01b612c56565b6116dc670566179b38cb67ec60c01b612c56565b6116f067d3b63f0cb99172a760c01b612c56565b61170467c0a9fa6bf5c1e3a160c01b612c56565b60008111611747576040517f08c379a000000000000000000000000000000000000000000000000000000000815260040161173e9061467b565b60405180910390fd5b61175b67b9b7eb836fc4c3ca60c01b612c56565b61176f67d5762fed8f2705f960c01b612c56565b611783674ce3fd4b827b4a5b60c01b612c56565b60006064826117929190614374565b8261179d91906143a5565b90506117b367ee74415e6fcbb4f260c01b612c56565b6117c7674771644d48181ec860c01b612c56565b60006117dd67984ed4699860c78560c01b612c56565b6117f1674c3cf60abcb7994d60c01b612c56565b60003073ffffffffffffffffffffffffffffffffffffffff166318160ddd6040518163ffffffff1660e01b8152600401602060405180830381865afa15801561183e573d6000803e3d6000fd5b505050506040513d601f19601f820116820180604052508101906118629190614257565b036118975761187b6778f85613f72552bc60c01b612c56565b61188f67f29fb56c0cd0a0c160c01b612c56565b829050611979565b6118ab67c9605ece567900e260c01b612c56565b6118bf674fae977b1e28bb4460c01b612c56565b6118d367d90ae2894c946a5860c01b612c56565b6118db6131ad565b6118ef670de62d5e4ded4ad460c01b612c56565b600a543073ffffffffffffffffffffffffffffffffffffffff166318160ddd6040518163ffffffff1660e01b8152600401602060405180830381865afa15801561193d573d6000803e3d6000fd5b505050506040513d601f19601f820116820180604052508101906119619190614257565b8361196c91906143d9565b6119769190614374565b90505b61198d670b5796e2c7c485fb60c01b612c56565b6119a1674fe0e35f5fc76db160c01b612c56565b6119ab3382613c20565b6119bf67bf6db183cfd093c160c01b612c56565b6119d367d04870f1cda4c7a260c01b612c56565b8373ffffffffffffffffffffffffffffffffffffffff166323b872dd3330866040518463ffffffff1660e01b8152600401611a109392919061469b565b6020604051808303816000875af1158015611a2f573d6000803e3d6000fd5b505050506040513d601f19601f82011682018060405250810190611a539190614470565b50611a68675c229d5d6eaa8d7860c01b612c56565b611a7c67f5be3e50e59e129360c01b612c56565b8373ffffffffffffffffffffffffffffffffffffffff1663095ea7b3600760009054906101000a900473ffffffffffffffffffffffffffffffffffffffff16856040518363ffffffff1660e01b8152600401611ad992919061441b565b6020604051808303816000875af1158015611af8573d6000803e3d6000fd5b505050506040513d601f19601f82011682018060405250810190611b1c9190614470565b50611b31676fe0ea53c38a666e60c01b612c56565b611b456708f8dc6d8dbf1a5f60c01b612c56565b6001600760149054906101000a900460ff1660ff1603611c3057611b726643b9869cd4d9ae60c01b612c56565b611b866782705bf850d9535d60c01b612c56565b611b9a67fc89a7ddd822f76a60c01b612c56565b600760009054906101000a900473ffffffffffffffffffffffffffffffffffffffff1673ffffffffffffffffffffffffffffffffffffffff16631c5ecc06348560016040518463ffffffff1660e01b8152600401611bf9929190614566565b6000604051808303818588803b158015611c1257600080fd5b505af1158015611c26573d6000803e3d6000fd5b5050505050611d5a565b611c44673b8d4b4f4c1b2ecf60c01b612c56565b611c5867cef7b6fb225c7d8460c01b612c56565b6002600760149054906101000a900460ff1660ff1603611d4457611c86673546ad296a5c44d060c01b612c56565b611c9a673445b1882d0b03b460c01b612c56565b611cae671789c82e8941ab6b60c01b612c56565b600760009054906101000a900473ffffffffffffffffffffffffffffffffffffffff1673ffffffffffffffffffffffffffffffffffffffff16631c5ecc06348560006040518463ffffffff1660e01b8152600401611d0d929190614566565b6000604051808303818588803b158015611d2657600080fd5b505af1158015611d3a573d6000803e3d6000fd5b5050505050611d59565b611d5867cbde8e03fa44c4f660c01b612c56565b5b5b611d6e67c2468fab26af8a4560c01b612c56565b611d82676c994a8d2a7b599d60c01b612c56565b3373ffffffffffffffffffffffffffffffffffffffff167fc43285a6e98e6524bf49b1c1bdda72f38b968b31d2861d4422c0716e89b1318142868685604051611dce94939291906146d2565b60405180910390a250505050565b611df0679b079e196b4a92e460c01b612c56565b611df8612e2a565b611e0c677097c3adad70239760c01b612c56565b611e2067eecc0f6bb7cdbe8460c01b612c56565b611e34670be8c6b8fb89001060c01b612c56565b611e48675aa6500567b48ef660c01b612c56565b611e5c678c8365ea6a0a280160c01b612c56565b60008160ff16148015611e7f5750611e7e677d2ea680f916417560c01b613d77565b5b80611ec5575060018160ff16148015611ea85750611ea767281bb2926c574da860c01b613d77565b5b8015611ec45750611ec367667cf2abd99c9f3460c01b613d77565b5b5b80611eef575060028160ff16148015611eee5750611eed67a60160d08f99a15d60c01b613d77565b5b5b611f2e576040517f08c379a0000000000000000000000000000000000000000000000000000000008152600401611f2590614789565b60405180910390fd5b611f426739415f3067b44d3860c01b612c56565b611f566711ed25efde833f6360c01b612c56565b611f6a67102386726179518160c01b612c56565b611f7e67f4b072cdcae240a760c01b612c56565b8060ff16600760149054906101000a900460ff1660ff1603611fd5576040517f08c379a0000000000000000000000000000000000000000000000000000000008152600401611fcc9061481b565b60405180910390fd5b611fe96724edd92cc0a3ad9760c01b612c56565b611ffd67a899d15948ebb9ab60c01b612c56565b80600760146101000a81548160ff021916908360ff16021790555050565b61202f67fc4fda7a5d875b5860c01b612c56565b612037612e2a565b61204b67f6c07f0f449d064160c01b612c56565b61205f67411232351c18d09260c01b612c56565b61207367a76a083b87813a7260c01b612c56565b6120876758388a8c35c8a8f860c01b612c56565b61209b67787acf38988d6aaa60c01b612c56565b600e60008273ffffffffffffffffffffffffffffffffffffffff1673ffffffffffffffffffffffffffffffffffffffff16815260200190815260200160002060009054906101000a900460ff16612127576040517f08c379a000000000000000000000000000000000000000000000000000000000815260040161211e90614887565b60405180910390fd5b61213b6717f2ee35cc9f641c60c01b612c56565b61214f67643d0134933c27b460c01b612c56565b6000600e60008373ffffffffffffffffffffffffffffffffffffffff1673ffffffffffffffffffffffffffffffffffffffff16815260200190815260200160002060006101000a81548160ff0219169083151502179055506121bb67ba9f87dadc32278f60c01b612c56565b6121cf67ac7729b98a8e9ec260c01b612c56565b7f4c910b69fe65a61f7531b9c5042b2329ca7179c77290aa7e2eb3afa3c8511fd3816040516121fe9190613e91565b60405180910390a150565b600061221f6728fb13aca279f93460c01b612c56565b61223367b4f9b1d7686c1ec760c01b612c56565b61224767e54f820f5ddb9d5f60c01b612c56565b600a54905090565b6122636778c93969e540fc7d60c01b612c56565b61226b612e2a565b61227f6765cb16f33263a15460c01b612c56565b61229367207376c66388bd6260c01b612c56565b6122a6668b9b0c72d1101c60c01b612c56565b6122ba670f34c4b686ccdae760c01b612c56565b6122ce67f6373173d1b3a9d960c01b612c56565b6122e2671621736952bb517e60c01b612c56565b60011515600b60019054906101000a900460ff16151514612338576040517f08c379a000000000000000000000000000000000000000000000000000000000815260040161232f90614546565b60405180910390fd5b61234c673f4163dbb4e607a660c01b612c56565b612360675628e1104734931a60c01b612c56565b612374675abd7baa6d2ae02260c01b612c56565b61238867b414a8787f82c1b860c01b612c56565b61239c679e3f4f9703c62ed660c01b612c56565b6123b0676bbd6d01be27867a60c01b612c56565b60006001600760149054906101000a900460ff1660ff16146123d35760006123d6565b60015b90506123ec67ca6f67da3ae872e460c01b612c56565b612400677db660856781cced60c01b612c56565b600760009054906101000a900473ffffffffffffffffffffffffffffffffffffffff1673ffffffffffffffffffffffffffffffffffffffff16637cb1759734836040518363ffffffff1660e01b815260040161245c9190614020565b6000604051808303818588803b15801561247557600080fd5b505af1158015612489573d6000803e3d6000fd5b505050505050565b6000600160008373ffffffffffffffffffffffffffffffffffffffff1673ffffffffffffffffffffffffffffffffffffffff168152602001908152602001600020549050919050565b6124e2612e2a565b6124ec6000613d82565b565b600c60009054906101000a900473ffffffffffffffffffffffffffffffffffffffff1681565b60065481565b61252e67d0215f0e33c14b9760c01b612c56565b612536612e2a565b61254a67920dc33ec4d64f1360c01b612c56565b61255e67a88d869418086ebc60c01b612c56565b612572679d6fd888522606e060c01b612c56565b6125866713e668ac33c06c8960c01b612c56565b61259a67c9c6a9ae2b7c5b8960c01b612c56565b600e60008273ffffffffffffffffffffffffffffffffffffffff1673ffffffffffffffffffffffffffffffffffffffff16815260200190815260200160002060009054906101000a900460ff1615612627576040517f08c379a000000000000000000000000000000000000000000000000000000000815260040161261e906148f3565b60405180910390fd5b61263b67243bc9bb1fded2ff60c01b612c56565b61264f67fbd7c2bb79eab82260c01b612c56565b6001600e60008373ffffffffffffffffffffffffffffffffffffffff1673ffffffffffffffffffffffffffffffffffffffff16815260200190815260200160002060006101000a81548160ff0219169083151502179055506126bb67ac808456381c280e60c01b612c56565b6126cf67ec62a8414f0990e060c01b612c56565b7fae340411f33c346ae24187433a8df6e508be40cf0deb3949d51cea12df7fa021816040516126fe9190613e91565b60405180910390a150565b60008060009054906101000a900473ffffffffffffffffffffffffffffffffffffffff16905090565b60606005805461274190614211565b80601f016020809104026020016040519081016040528092919081815260200182805461276d90614211565b80156127ba5780601f1061278f576101008083540402835291602001916127ba565b820191906000526020600020905b81548152906001019060200180831161279d57829003601f168201915b5050505050905090565b600760009054906101000a900473ffffffffffffffffffffffffffffffffffffffff1681565b600a5481565b6000806127fb612c59565b9050600061280982866128fc565b90508381101561284e576040517f08c379a000000000000000000000000000000000000000000000000000000000815260040161284590614985565b60405180910390fd5b61285b8286868403612c61565b60019250505092915050565b600080612872612c59565b905061287f818585612f34565b600191505092915050565b600b60029054906101000a900473ffffffffffffffffffffffffffffffffffffffff1681565b600e6020528060005260406000206000915054906101000a900460ff1681565b600d60009054906101000a900473ffffffffffffffffffffffffffffffffffffffff1681565b60085481565b6000600260008473ffffffffffffffffffffffffffffffffffffffff1673ffffffffffffffffffffffffffffffffffffffff16815260200190815260200160002060008373ffffffffffffffffffffffffffffffffffffffff1673ffffffffffffffffffffffffffffffffffffffff16815260200190815260200160002054905092915050565b600061299967ac1a73fce306c3db60c01b612c56565b6129ad676f5087e43c24dd5160c01b612c56565b6129c167b4e993ce8674442460c01b612c56565b600760149054906101000a900460ff16905090565b60006129ec67998e1ec449a8d96660c01b612c56565b612a00674a91d558f89dcd3960c01b612c56565b612a1467a6c6f9dc54c715d760c01b612c56565b600e60008373ffffffffffffffffffffffffffffffffffffffff1673ffffffffffffffffffffffffffffffffffffffff16815260200190815260200160002060009054906101000a900460ff169050919050565b612a7c6747861698e314beae60c01b612c56565b612a84612e2a565b612a9867e3c26cf1e1b98a1960c01b612c56565b612aac6733127b4595e8f33960c01b612c56565b612abf668b9b0c72d1101c60c01b612c56565b612ad3670f34c4b686ccdae760c01b612c56565b612ae767f6373173d1b3a9d960c01b612c56565b612afb671621736952bb517e60c01b612c56565b60011515600b60019054906101000a900460ff16151514612b51576040517f08c379a0000000000000000000000000000000000000000000000000000000008152600401612b4890614546565b60405180910390fd5b612b65673f4163dbb4e607a660c01b612c56565b612b79675628e1104734931a60c01b612c56565b612b8d6784e3f0889bcbab0060c01b612c56565b612ba167b9f9440aa895a2c360c01b612c56565b612bb567432848c07829fc2560c01b612c56565b612bc967ddf1867759ef93c060c01b612c56565b612bd16131ad565b565b612bdb612e2a565b600073ffffffffffffffffffffffffffffffffffffffff168173ffffffffffffffffffffffffffffffffffffffff1603612c4a576040517f08c379a0000000000000000000000000000000000000000000000000000000008152600401612c4190614a17565b60405180910390fd5b612c5381613d82565b50565b50565b600033905090565b600073ffffffffffffffffffffffffffffffffffffffff168373ffffffffffffffffffffffffffffffffffffffff1603612cd0576040517f08c379a0000000000000000000000000000000000000000000000000000000008152600401612cc790614aa9565b60405180910390fd5b600073ffffffffffffffffffffffffffffffffffffffff168273ffffffffffffffffffffffffffffffffffffffff1603612d3f576040517f08c379a0000000000000000000000000000000000000000000000000000000008152600401612d3690614b3b565b60405180910390fd5b80600260008573ffffffffffffffffffffffffffffffffffffffff1673ffffffffffffffffffffffffffffffffffffffff16815260200190815260200160002060008473ffffffffffffffffffffffffffffffffffffffff1673ffffffffffffffffffffffffffffffffffffffff168152602001908152602001600020819055508173ffffffffffffffffffffffffffffffffffffffff168373ffffffffffffffffffffffffffffffffffffffff167f8c5be1e5ebec7d5bd14f71427d1e84f3dd0314c0f7b2291e5b200ac8c7c3b92583604051612e1d9190614077565b60405180910390a3505050565b612e32612c59565b73ffffffffffffffffffffffffffffffffffffffff16612e50612709565b73ffffffffffffffffffffffffffffffffffffffff1614612ea6576040517f08c379a0000000000000000000000000000000000000000000000000000000008152600401612e9d90614ba7565b60405180910390fd5b565b6000612eb484846128fc565b90507fffffffffffffffffffffffffffffffffffffffffffffffffffffffffffffffff8114612f2e5781811015612f20576040517f08c379a0000000000000000000000000000000000000000000000000000000008152600401612f1790614c13565b60405180910390fd5b612f2d8484848403612c61565b5b50505050565b600073ffffffffffffffffffffffffffffffffffffffff168373ffffffffffffffffffffffffffffffffffffffff1603612fa3576040517f08c379a0000000000000000000000000000000000000000000000000000000008152600401612f9a90614ca5565b60405180910390fd5b600073ffffffffffffffffffffffffffffffffffffffff168273ffffffffffffffffffffffffffffffffffffffff1603613012576040517f08c379a000000000000000000000000000000000000000000000000000000000815260040161300990614d37565b60405180910390fd5b61301d838383613e46565b6000600160008573ffffffffffffffffffffffffffffffffffffffff1673ffffffffffffffffffffffffffffffffffffffff168152602001908152602001600020549050818110156130a4576040517f08c379a000000000000000000000000000000000000000000000000000000000815260040161309b90614dc9565b60405180910390fd5b818103600160008673ffffffffffffffffffffffffffffffffffffffff1673ffffffffffffffffffffffffffffffffffffffff1681526020019081526020016000208190555081600160008573ffffffffffffffffffffffffffffffffffffffff1673ffffffffffffffffffffffffffffffffffffffff168152602001908152602001600020600082825401925050819055508273ffffffffffffffffffffffffffffffffffffffff168473ffffffffffffffffffffffffffffffffffffffff167fddf252ad1be2c89b69c2b068fc378daa952ba7f163c4a11628f55a4df523b3ef846040516131949190614077565b60405180910390a36131a7848484613e4b565b50505050565b6131c167869d7a1271c3c70560c01b612c56565b6131d5674dfee9145ca6998d60c01b612c56565b6131e9671cf3b1fadc39707c60c01b612c56565b6000600a549050613204673abb914363fbbc3660c01b612c56565b613218670ae47402788c837160c01b612c56565b600061322e67feadf614b82ce30b60c01b612c56565b61324267db48dbe137b3933060c01b612c56565b6000613258672ee0680dd9766a6c60c01b612c56565b61326c6740a75a8248b455de60c01b612c56565b6000600c60009054906101000a900473ffffffffffffffffffffffffffffffffffffffff1673ffffffffffffffffffffffffffffffffffffffff166370a08231306040518263ffffffff1660e01b81526004016132c99190613e91565b602060405180830381865afa1580156132e6573d6000803e3d6000fd5b505050506040513d601f19601f8201168201806040525081019061330a9190614257565b9050613320678397c469d742651b60c01b612c56565b61333467a1402f7fd7d852d960c01b612c56565b6000600d60009054906101000a900473ffffffffffffffffffffffffffffffffffffffff1673ffffffffffffffffffffffffffffffffffffffff16634a3f088d600760009054906101000a900473ffffffffffffffffffffffffffffffffffffffff16600b60029054906101000a900473ffffffffffffffffffffffffffffffffffffffff16600b60029054906101000a900473ffffffffffffffffffffffffffffffffffffffff1660016040518563ffffffff1660e01b81526004016133fe9493929190614de9565b610100604051808303816000875af115801561341e573d6000803e3d6000fd5b505050506040513d601f19601f820116820180604052508101906134429190614e2e565b50505050505091505061345f67d9f6790f69bb5cb160c01b612c56565b6134736726b974136660335a60c01b612c56565b60008111156135b95761349067b9689d218b0d634360c01b612c56565b6134a467fbe6b299323b21d560c01b612c56565b600d60009054906101000a900473ffffffffffffffffffffffffffffffffffffffff1673ffffffffffffffffffffffffffffffffffffffff166345a6f370600760009054906101000a900473ffffffffffffffffffffffffffffffffffffffff16600b60029054906101000a900473ffffffffffffffffffffffffffffffffffffffff16600b60029054906101000a900473ffffffffffffffffffffffffffffffffffffffff1660016040518563ffffffff1660e01b815260040161356c9493929190614de9565b60408051808303816000875af115801561358a573d6000803e3d6000fd5b505050506040513d601f19601f820116820180604052508101906135ae9190614ee4565b9050809450506135ce565b6135cd676f51c1a283050c7360c01b612c56565b5b6135e267e9012eb6fe33047160c01b612c56565b6135f667845c59b4ebb16bba60c01b612c56565b600069d3c21bcecceda1000000858361360f919061458f565b6136199190614374565b905061362f67af90e5e2813f51bd60c01b612c56565b61364367335b314ba9c21d2b60c01b612c56565b6000600d60009054906101000a900473ffffffffffffffffffffffffffffffffffffffff1673ffffffffffffffffffffffffffffffffffffffff16634a3f088d600760009054906101000a900473ffffffffffffffffffffffffffffffffffffffff16600c60009054906101000a900473ffffffffffffffffffffffffffffffffffffffff16600b60029054906101000a900473ffffffffffffffffffffffffffffffffffffffff1660006040518563ffffffff1660e01b815260040161370d9493929190614de9565b610100604051808303816000875af115801561372d573d6000803e3d6000fd5b505050506040513d601f19601f820116820180604052508101906137519190614e2e565b50505050505091505061376e675f72c9c7cb3882bf60c01b612c56565b61378267a8f3cc67624811f760c01b612c56565b60008111156138c85761379f6724d4e4d3f2416e0860c01b612c56565b6137b367d3d735c60f175f0b60c01b612c56565b600d60009054906101000a900473ffffffffffffffffffffffffffffffffffffffff1673ffffffffffffffffffffffffffffffffffffffff166345a6f370600760009054906101000a900473ffffffffffffffffffffffffffffffffffffffff16600c60009054906101000a900473ffffffffffffffffffffffffffffffffffffffff16600b60029054906101000a900473ffffffffffffffffffffffffffffffffffffffff1660006040518563ffffffff1660e01b815260040161387b9493929190614de9565b60408051808303816000875af1158015613899573d6000803e3d6000fd5b505050506040513d601f19601f820116820180604052508101906138bd9190614ee4565b9050809550506138dd565b6138dc673885d873cf3e8ce960c01b612c56565b5b6138f167fbd02adb0220b6fb60c01b612c56565b61390567034963122a13c72560c01b612c56565b600069d3c21bcecceda1000000868361391e91906143a5565b6139289190614374565b905061393e67f8762afdd0a4524b60c01b612c56565b80838661394b919061458f565b613955919061458f565b600a8190555061396f67ca45d65b46b360f560c01b612c56565b613983672503426eef6f15ac60c01b612c56565b7f059d0701380a5813cc605b68bc8aae0c943d3aecbfa3d35e11f8396e056eb6cc42600760149054906101000a900460ff168a600a548988873073ffffffffffffffffffffffffffffffffffffffff166318160ddd6040518163ffffffff1660e01b8152600401602060405180830381865afa158015613a07573d6000803e3d6000fd5b505050506040513d601f19601f82011682018060405250810190613a2b9190614257565b604051613a3f989796959493929190614f24565b60405180910390a15050505050505050565b600073ffffffffffffffffffffffffffffffffffffffff168273ffffffffffffffffffffffffffffffffffffffff1603613ac0576040517f08c379a0000000000000000000000000000000000000000000000000000000008152600401613ab790615014565b60405180910390fd5b613acc82600083613e46565b6000600160008473ffffffffffffffffffffffffffffffffffffffff1673ffffffffffffffffffffffffffffffffffffffff16815260200190815260200160002054905081811015613b53576040517f08c379a0000000000000000000000000000000000000000000000000000000008152600401613b4a906150a6565b60405180910390fd5b818103600160008573ffffffffffffffffffffffffffffffffffffffff1673ffffffffffffffffffffffffffffffffffffffff1681526020019081526020016000208190555081600360008282540392505081905550600073ffffffffffffffffffffffffffffffffffffffff168373ffffffffffffffffffffffffffffffffffffffff167fddf252ad1be2c89b69c2b068fc378daa952ba7f163c4a11628f55a4df523b3ef84604051613c079190614077565b60405180910390a3613c1b83600084613e4b565b505050565b600073ffffffffffffffffffffffffffffffffffffffff168273ffffffffffffffffffffffffffffffffffffffff1603613c8f576040517f08c379a0000000000000000000000000000000000000000000000000000000008152600401613c8690615112565b60405180910390fd5b613c9b60008383613e46565b8060036000828254613cad919061458f565b9250508190555080600160008473ffffffffffffffffffffffffffffffffffffffff1673ffffffffffffffffffffffffffffffffffffffff168152602001908152602001600020600082825401925050819055508173ffffffffffffffffffffffffffffffffffffffff16600073ffffffffffffffffffffffffffffffffffffffff167fddf252ad1be2c89b69c2b068fc378daa952ba7f163c4a11628f55a4df523b3ef83604051613d5f9190614077565b60405180910390a3613d7360008383613e4b565b5050565b600060019050919050565b60008060009054906101000a900473ffffffffffffffffffffffffffffffffffffffff169050816000806101000a81548173ffffffffffffffffffffffffffffffffffffffff021916908373ffffffffffffffffffffffffffffffffffffffff1602179055508173ffffffffffffffffffffffffffffffffffffffff168173ffffffffffffffffffffffffffffffffffffffff167f8be0079c531659141344cd1fd0a4f28419497f9722a3daafe3b4186f6b6457e060405160405180910390a35050565b505050565b505050565b600073ffffffffffffffffffffffffffffffffffffffff82169050919050565b6000613e7b82613e50565b9050919050565b613e8b81613e70565b82525050565b6000602082019050613ea66000830184613e82565b92915050565b600081519050919050565b600082825260208201905092915050565b60005b83811015613ee6578082015181840152602081019050613ecb565b60008484015250505050565b6000601f19601f8301169050919050565b6000613f0e82613eac565b613f188185613eb7565b9350613f28818560208601613ec8565b613f3181613ef2565b840191505092915050565b60006020820190508181036000830152613f568184613f03565b905092915050565b600080fd5b613f6c81613e70565b8114613f7757600080fd5b50565b600081359050613f8981613f63565b92915050565b6000819050919050565b613fa281613f8f565b8114613fad57600080fd5b50565b600081359050613fbf81613f99565b92915050565b60008060408385031215613fdc57613fdb613f5e565b5b6000613fea85828601613f7a565b9250506020613ffb85828601613fb0565b9150509250929050565b60008115159050919050565b61401a81614005565b82525050565b60006020820190506140356000830184614011565b92915050565b60006020828403121561405157614050613f5e565b5b600061405f84828501613f7a565b91505092915050565b61407181613f8f565b82525050565b600060208201905061408c6000830184614068565b92915050565b600060ff82169050919050565b6140a881614092565b82525050565b60006020820190506140c3600083018461409f565b92915050565b6000806000606084860312156140e2576140e1613f5e565b5b60006140f086828701613f7a565b935050602061410186828701613f7a565b925050604061411286828701613fb0565b9150509250925092565b60006020828403121561413257614131613f5e565b5b600061414084828501613fb0565b91505092915050565b61415281614092565b811461415d57600080fd5b50565b60008135905061416f81614149565b92915050565b60006020828403121561418b5761418a613f5e565b5b600061419984828501614160565b91505092915050565b600080604083850312156141b9576141b8613f5e565b5b60006141c785828601613f7a565b92505060206141d885828601613f7a565b9150509250929050565b7f4e487b7100000000000000000000000000000000000000000000000000000000600052602260045260246000fd5b6000600282049050600182168061422957607f821691505b60208210810361423c5761423b6141e2565b5b50919050565b60008151905061425181613f99565b92915050565b60006020828403121561426d5761426c613f5e565b5b600061427b84828501614242565b91505092915050565b7f53757270726973696e676c7920796f752063616e6e6f7420776974686472617760008201527f20746f6b656e20796f752068617665206e6f7420626f75676874000000000000602082015250565b60006142e0603a83613eb7565b91506142eb82614284565b604082019050919050565b6000602082019050818103600083015261430f816142d3565b9050919050565b7f4e487b7100000000000000000000000000000000000000000000000000000000600052601260045260246000fd5b7f4e487b7100000000000000000000000000000000000000000000000000000000600052601160045260246000fd5b600061437f82613f8f565b915061438a83613f8f565b92508261439a57614399614316565b5b828204905092915050565b60006143b082613f8f565b91506143bb83613f8f565b92508282039050818111156143d3576143d2614345565b5b92915050565b60006143e482613f8f565b91506143ef83613f8f565b92508282026143fd81613f8f565b9150828204841483151761441457614413614345565b5b5092915050565b60006040820190506144306000830185613e82565b61443d6020830184614068565b9392505050565b61444d81614005565b811461445857600080fd5b50565b60008151905061446a81614444565b92915050565b60006020828403121561448657614485613f5e565b5b60006144948482850161445b565b91505092915050565b60006060820190506144b26000830186613e82565b6144bf6020830185614068565b6144cc6040830184614011565b949350505050565b7f4e6f7420696e697469616c697a65642c20666972737420796f7520686176652060008201527f746f2073657420474d5820636f6e74726f6c6c65720000000000000000000000602082015250565b6000614530603583613eb7565b915061453b826144d4565b604082019050919050565b6000602082019050818103600083015261455f81614523565b9050919050565b600060408201905061457b6000830185614068565b6145886020830184614011565b9392505050565b600061459a82613f8f565b91506145a583613f8f565b92508282019050808211156145bd576145bc614345565b5b92915050565b7f546f6b656e206e6f742079657420737570706f72746564000000000000000000600082015250565b60006145f9601783613eb7565b9150614604826145c3565b602082019050919050565b60006020820190508181036000830152614628816145ec565b9050919050565b7f416d6f756e7420746f206465706f736974206973206d616e6461746f72790000600082015250565b6000614665601e83613eb7565b91506146708261462f565b602082019050919050565b6000602082019050818103600083015261469481614658565b9050919050565b60006060820190506146b06000830186613e82565b6146bd6020830185613e82565b6146ca6040830184614068565b949350505050565b60006080820190506146e76000830187614068565b6146f46020830186613e82565b6147016040830185614068565b61470e6060830184614068565b95945050505050565b7f56616c7565206d757374206265203020666f72206e65757472616c2c2031206660008201527f6f72204c6f6e67206f72203220666f722053686f727400000000000000000000602082015250565b6000614773603683613eb7565b915061477e82614717565b604082019050919050565b600060208201905081810360008301526147a281614766565b9050919050565b7f52657665727465642062656361757365206578706f736974696f6e206861732060008201527f6e6f74206368616e676564000000000000000000000000000000000000000000602082015250565b6000614805602b83613eb7565b9150614810826147a9565b604082019050919050565b60006020820190508181036000830152614834816147f8565b9050919050565b7f546f6b656e206e6f742079657420616464656400000000000000000000000000600082015250565b6000614871601383613eb7565b915061487c8261483b565b602082019050919050565b600060208201905081810360008301526148a081614864565b9050919050565b7f546f6b656e20616c726561647920616464656400000000000000000000000000600082015250565b60006148dd601383613eb7565b91506148e8826148a7565b602082019050919050565b6000602082019050818103600083015261490c816148d0565b9050919050565b7f45524332303a2064656372656173656420616c6c6f77616e63652062656c6f7760008201527f207a65726f000000000000000000000000000000000000000000000000000000602082015250565b600061496f602583613eb7565b915061497a82614913565b604082019050919050565b6000602082019050818103600083015261499e81614962565b9050919050565b7f4f776e61626c653a206e6577206f776e657220697320746865207a65726f206160008201527f6464726573730000000000000000000000000000000000000000000000000000602082015250565b6000614a01602683613eb7565b9150614a0c826149a5565b604082019050919050565b60006020820190508181036000830152614a30816149f4565b9050919050565b7f45524332303a20617070726f76652066726f6d20746865207a65726f2061646460008201527f7265737300000000000000000000000000000000000000000000000000000000602082015250565b6000614a93602483613eb7565b9150614a9e82614a37565b604082019050919050565b60006020820190508181036000830152614ac281614a86565b9050919050565b7f45524332303a20617070726f766520746f20746865207a65726f20616464726560008201527f7373000000000000000000000000000000000000000000000000000000000000602082015250565b6000614b25602283613eb7565b9150614b3082614ac9565b604082019050919050565b60006020820190508181036000830152614b5481614b18565b9050919050565b7f4f776e61626c653a2063616c6c6572206973206e6f7420746865206f776e6572600082015250565b6000614b91602083613eb7565b9150614b9c82614b5b565b602082019050919050565b60006020820190508181036000830152614bc081614b84565b9050919050565b7f45524332303a20696e73756666696369656e7420616c6c6f77616e6365000000600082015250565b6000614bfd601d83613eb7565b9150614c0882614bc7565b602082019050919050565b60006020820190508181036000830152614c2c81614bf0565b9050919050565b7f45524332303a207472616e736665722066726f6d20746865207a65726f20616460008201527f6472657373000000000000000000000000000000000000000000000000000000602082015250565b6000614c8f602583613eb7565b9150614c9a82614c33565b604082019050919050565b60006020820190508181036000830152614cbe81614c82565b9050919050565b7f45524332303a207472616e7366657220746f20746865207a65726f206164647260008201527f6573730000000000000000000000000000000000000000000000000000000000602082015250565b6000614d21602383613eb7565b9150614d2c82614cc5565b604082019050919050565b60006020820190508181036000830152614d5081614d14565b9050919050565b7f45524332303a207472616e7366657220616d6f756e742065786365656473206260008201527f616c616e63650000000000000000000000000000000000000000000000000000602082015250565b6000614db3602683613eb7565b9150614dbe82614d57565b604082019050919050565b60006020820190508181036000830152614de281614da6565b9050919050565b6000608082019050614dfe6000830187613e82565b614e0b6020830186613e82565b614e186040830185613e82565b614e256060830184614011565b95945050505050565b600080600080600080600080610100898b031215614e4f57614e4e613f5e565b5b6000614e5d8b828c01614242565b9850506020614e6e8b828c01614242565b9750506040614e7f8b828c01614242565b9650506060614e908b828c01614242565b9550506080614ea18b828c01614242565b94505060a0614eb28b828c01614242565b93505060c0614ec38b828c0161445b565b92505060e0614ed48b828c01614242565b9150509295985092959890939650565b60008060408385031215614efb57614efa613f5e565b5b6000614f098582860161445b565b9250506020614f1a85828601614242565b9150509250929050565b600061010082019050614f3a600083018b614068565b614f47602083018a61409f565b614f546040830189614068565b614f616060830188614068565b614f6e6080830187614068565b614f7b60a0830186614068565b614f8860c0830185614068565b614f9560e0830184614068565b9998505050505050505050565b7f45524332303a206275726e2066726f6d20746865207a65726f2061646472657360008201527f7300000000000000000000000000000000000000000000000000000000000000602082015250565b6000614ffe602183613eb7565b915061500982614fa2565b604082019050919050565b6000602082019050818103600083015261502d81614ff1565b9050919050565b7f45524332303a206275726e20616d6f756e7420657863656564732062616c616e60008201527f6365000000000000000000000000000000000000000000000000000000000000602082015250565b6000615090602283613eb7565b915061509b82615034565b604082019050919050565b600060208201905081810360008301526150bf81615083565b9050919050565b7f45524332303a206d696e7420746f20746865207a65726f206164647265737300600082015250565b60006150fc601f83613eb7565b9150615107826150c6565b602082019050919050565b6000602082019050818103600083015261512b816150ef565b905091905056fea2646970667358221220cfaafff525b824c25ae5efeda3d01900a31fe8ba08c17c38cb22e73a5c5f9f2964736f6c63430008110033",
  "linkReferences": {},
  "deployedLinkReferences": {}
}