{
  "_format": "hh-sol-artifact-1",
  "contractName": "MyVault",
  "sourceName": "contracts/MyVault.sol",
  "abi": [
    {
      "inputs": [],
      "stateMutability": "nonpayable",
      "type": "constructor"
    },
    {
      "anonymous": false,
      "inputs": [
        {
          "indexed": true,
          "internalType": "address",
          "name": "owner",
          "type": "address"
        },
        {
          "indexed": true,
          "internalType": "address",
          "name": "spender",
          "type": "address"
        },
        {
          "indexed": false,
          "internalType": "uint256",
          "name": "value",
          "type": "uint256"
        }
      ],
      "name": "Approval",
      "type": "event"
    },
    {
      "anonymous": false,
      "inputs": [
        {
          "indexed": false,
          "internalType": "address",
          "name": "tokenAddress",
          "type": "address"
        }
      ],
      "name": "NewTokenAdded",
      "type": "event"
    },
    {
      "anonymous": false,
      "inputs": [
        {
          "indexed": true,
          "internalType": "address",
          "name": "previousOwner",
          "type": "address"
        },
        {
          "indexed": true,
          "internalType": "address",
          "name": "newOwner",
          "type": "address"
        }
      ],
      "name": "OwnershipTransferred",
      "type": "event"
    },
    {
      "anonymous": false,
      "inputs": [
        {
          "indexed": false,
          "internalType": "address",
          "name": "tokenAddress",
          "type": "address"
        }
      ],
      "name": "TokenRemoved",
      "type": "event"
    },
    {
      "anonymous": false,
      "inputs": [
        {
          "indexed": true,
          "internalType": "address",
          "name": "from",
          "type": "address"
        },
        {
          "indexed": true,
          "internalType": "address",
          "name": "to",
          "type": "address"
        },
        {
          "indexed": false,
          "internalType": "uint256",
          "name": "value",
          "type": "uint256"
        }
      ],
      "name": "Transfer",
      "type": "event"
    },
    {
      "inputs": [],
      "name": "GMX_controller",
      "outputs": [
        {
          "internalType": "address",
          "name": "",
          "type": "address"
        }
      ],
      "stateMutability": "view",
      "type": "function"
    },
    {
      "inputs": [],
      "name": "USDC",
      "outputs": [
        {
          "internalType": "address",
          "name": "",
          "type": "address"
        }
      ],
      "stateMutability": "view",
      "type": "function"
    },
    {
      "inputs": [],
      "name": "WETH",
      "outputs": [
        {
          "internalType": "address",
          "name": "",
          "type": "address"
        }
      ],
      "stateMutability": "view",
      "type": "function"
    },
    {
      "inputs": [
        {
          "internalType": "address",
          "name": "tokenAddress",
          "type": "address"
        }
      ],
      "name": "acceptToken",
      "outputs": [],
      "stateMutability": "nonpayable",
      "type": "function"
    },
    {
      "inputs": [
        {
          "internalType": "address",
          "name": "owner",
          "type": "address"
        },
        {
          "internalType": "address",
          "name": "spender",
          "type": "address"
        }
      ],
      "name": "allowance",
      "outputs": [
        {
          "internalType": "uint256",
          "name": "",
          "type": "uint256"
        }
      ],
      "stateMutability": "view",
      "type": "function"
    },
    {
      "inputs": [
        {
          "internalType": "address",
          "name": "spender",
          "type": "address"
        },
        {
          "internalType": "uint256",
          "name": "amount",
          "type": "uint256"
        }
      ],
      "name": "approve",
      "outputs": [
        {
          "internalType": "bool",
          "name": "",
          "type": "bool"
        }
      ],
      "stateMutability": "nonpayable",
      "type": "function"
    },
    {
      "inputs": [
        {
          "internalType": "address",
          "name": "account",
          "type": "address"
        }
      ],
      "name": "balanceOf",
      "outputs": [
        {
          "internalType": "uint256",
          "name": "",
          "type": "uint256"
        }
      ],
      "stateMutability": "view",
      "type": "function"
    },
    {
      "inputs": [],
      "name": "collateral",
      "outputs": [
        {
          "internalType": "uint256",
          "name": "",
          "type": "uint256"
        }
      ],
      "stateMutability": "view",
      "type": "function"
    },
    {
      "inputs": [],
      "name": "decimals",
      "outputs": [
        {
          "internalType": "uint8",
          "name": "",
          "type": "uint8"
        }
      ],
      "stateMutability": "view",
      "type": "function"
    },
    {
      "inputs": [
        {
          "internalType": "address",
          "name": "spender",
          "type": "address"
        },
        {
          "internalType": "uint256",
          "name": "subtractedValue",
          "type": "uint256"
        }
      ],
      "name": "decreaseAllowance",
      "outputs": [
        {
          "internalType": "bool",
          "name": "",
          "type": "bool"
        }
      ],
      "stateMutability": "nonpayable",
      "type": "function"
    },
    {
      "inputs": [],
      "name": "deltavalue",
      "outputs": [
        {
          "internalType": "uint256",
          "name": "",
          "type": "uint256"
        }
      ],
      "stateMutability": "view",
      "type": "function"
    },
    {
      "inputs": [
        {
          "internalType": "address",
          "name": "tokenAddress",
          "type": "address"
        },
        {
          "internalType": "uint256",
          "name": "_amount",
          "type": "uint256"
        }
      ],
      "name": "deposit",
      "outputs": [],
      "stateMutability": "payable",
      "type": "function"
    },
    {
      "inputs": [],
      "name": "exposition",
      "outputs": [
        {
          "internalType": "uint8",
          "name": "",
          "type": "uint8"
        }
      ],
      "stateMutability": "view",
      "type": "function"
    },
    {
      "inputs": [],
      "name": "getExposition",
      "outputs": [
        {
          "internalType": "uint8",
          "name": "",
          "type": "uint8"
        }
      ],
      "stateMutability": "view",
      "type": "function"
    },
    {
      "inputs": [],
      "name": "getGMX_controller",
      "outputs": [
        {
          "internalType": "address",
          "name": "",
          "type": "address"
        }
      ],
      "stateMutability": "view",
      "type": "function"
    },
    {
      "inputs": [],
      "name": "getNetAssetValue",
      "outputs": [
        {
          "internalType": "uint256",
          "name": "",
          "type": "uint256"
        }
      ],
      "stateMutability": "view",
      "type": "function"
    },
    {
      "inputs": [],
      "name": "gmxVault",
      "outputs": [
        {
          "internalType": "address",
          "name": "",
          "type": "address"
        }
      ],
      "stateMutability": "view",
      "type": "function"
    },
    {
      "inputs": [
        {
          "internalType": "address",
          "name": "spender",
          "type": "address"
        },
        {
          "internalType": "uint256",
          "name": "addedValue",
          "type": "uint256"
        }
      ],
      "name": "increaseAllowance",
      "outputs": [
        {
          "internalType": "bool",
          "name": "",
          "type": "bool"
        }
      ],
      "stateMutability": "nonpayable",
      "type": "function"
    },
    {
      "inputs": [
        {
          "internalType": "address",
          "name": "tokenAddress",
          "type": "address"
        }
      ],
      "name": "isAccepted",
      "outputs": [
        {
          "internalType": "bool",
          "name": "",
          "type": "bool"
        }
      ],
      "stateMutability": "view",
      "type": "function"
    },
    {
      "inputs": [],
      "name": "liquidatePositions",
      "outputs": [],
      "stateMutability": "payable",
      "type": "function"
    },
    {
      "inputs": [],
      "name": "name",
      "outputs": [
        {
          "internalType": "string",
          "name": "",
          "type": "string"
        }
      ],
      "stateMutability": "view",
      "type": "function"
    },
    {
      "inputs": [],
      "name": "netAssetValue",
      "outputs": [
        {
          "internalType": "uint256",
          "name": "",
          "type": "uint256"
        }
      ],
      "stateMutability": "view",
      "type": "function"
    },
    {
      "inputs": [],
      "name": "openPosition",
      "outputs": [],
      "stateMutability": "payable",
      "type": "function"
    },
    {
      "inputs": [],
      "name": "owner",
      "outputs": [
        {
          "internalType": "address",
          "name": "",
          "type": "address"
        }
      ],
      "stateMutability": "view",
      "type": "function"
    },
    {
      "inputs": [
        {
          "internalType": "address",
          "name": "tokenAddress",
          "type": "address"
        }
      ],
      "name": "removeToken",
      "outputs": [],
      "stateMutability": "nonpayable",
      "type": "function"
    },
    {
      "inputs": [],
      "name": "renounceOwnership",
      "outputs": [],
      "stateMutability": "nonpayable",
      "type": "function"
    },
    {
      "inputs": [
        {
          "internalType": "uint8",
          "name": "_exposition",
          "type": "uint8"
        }
      ],
      "name": "setExposition",
      "outputs": [],
      "stateMutability": "nonpayable",
      "type": "function"
    },
    {
      "inputs": [
        {
          "internalType": "address",
          "name": "_addr",
          "type": "address"
        }
      ],
      "name": "setGMX_controller",
      "outputs": [],
      "stateMutability": "nonpayable",
      "type": "function"
    },
    {
      "inputs": [],
      "name": "setNetAssetValue",
      "outputs": [],
      "stateMutability": "nonpayable",
      "type": "function"
    },
    {
      "inputs": [],
      "name": "symbol",
      "outputs": [
        {
          "internalType": "string",
          "name": "",
          "type": "string"
        }
      ],
      "stateMutability": "view",
      "type": "function"
    },
    {
      "inputs": [
        {
          "internalType": "address",
          "name": "",
          "type": "address"
        }
      ],
      "name": "tokenAccepted",
      "outputs": [
        {
          "internalType": "bool",
          "name": "",
          "type": "bool"
        }
      ],
      "stateMutability": "view",
      "type": "function"
    },
    {
      "inputs": [],
      "name": "totalSupply",
      "outputs": [
        {
          "internalType": "uint256",
          "name": "",
          "type": "uint256"
        }
      ],
      "stateMutability": "view",
      "type": "function"
    },
    {
      "inputs": [
        {
          "internalType": "address",
          "name": "to",
          "type": "address"
        },
        {
          "internalType": "uint256",
          "name": "amount",
          "type": "uint256"
        }
      ],
      "name": "transfer",
      "outputs": [
        {
          "internalType": "bool",
          "name": "",
          "type": "bool"
        }
      ],
      "stateMutability": "nonpayable",
      "type": "function"
    },
    {
      "inputs": [
        {
          "internalType": "address",
          "name": "from",
          "type": "address"
        },
        {
          "internalType": "address",
          "name": "to",
          "type": "address"
        },
        {
          "internalType": "uint256",
          "name": "amount",
          "type": "uint256"
        }
      ],
      "name": "transferFrom",
      "outputs": [
        {
          "internalType": "bool",
          "name": "",
          "type": "bool"
        }
      ],
      "stateMutability": "nonpayable",
      "type": "function"
    },
    {
      "inputs": [
        {
          "internalType": "address",
          "name": "newOwner",
          "type": "address"
        }
      ],
      "name": "transferOwnership",
      "outputs": [],
      "stateMutability": "nonpayable",
      "type": "function"
    },
    {
      "inputs": [],
      "name": "vaultValue",
      "outputs": [
        {
          "internalType": "uint256",
          "name": "",
          "type": "uint256"
        }
      ],
      "stateMutability": "view",
      "type": "function"
    }
  ],
  "bytecode": "0x6080604052600b80547482af49447d8a07e3bd95bd0d56f35241523fbab100610100600160a81b0319909116179055600c80546001600160a01b031990811673ff970a61a04b1ca14834a43f5de4533ebddb5cc817909155600d805490911673489ee077994b6658eafa855c308275ead8097c4a1790553480156200008357600080fd5b5060405180604001604052806008815260200167506f6c79706c757360c01b815250604051806040016040528060038152602001620504c560ec1b815250620000db620000d56200015060201b60201c565b62000154565b6004620000e983826200031a565b506005620000f882826200031a565b505050620001333362000110620001a460201b60201c565b620001209060ff16600a620004fb565b6200012d90606462000510565b620001a9565b6007805460ff60a01b19169055600b805460ff1916905562000540565b3390565b600080546001600160a01b038381166001600160a01b0319831681178455604051919092169283917f8be0079c531659141344cd1fd0a4f28419497f9722a3daafe3b4186f6b6457e09190a35050565b601290565b6001600160a01b038216620002045760405162461bcd60e51b815260206004820152601f60248201527f45524332303a206d696e7420746f20746865207a65726f206164647265737300604482015260640160405180910390fd5b80600360008282546200021891906200052a565b90915550506001600160a01b0382166000818152600160209081526040808320805486019055518481527fddf252ad1be2c89b69c2b068fc378daa952ba7f163c4a11628f55a4df523b3ef910160405180910390a35050565b505050565b634e487b7160e01b600052604160045260246000fd5b600181811c90821680620002a157607f821691505b602082108103620002c257634e487b7160e01b600052602260045260246000fd5b50919050565b601f8211156200027157600081815260208120601f850160051c81016020861015620002f15750805b601f850160051c820191505b818110156200031257828155600101620002fd565b505050505050565b81516001600160401b0381111562000336576200033662000276565b6200034e816200034784546200028c565b84620002c8565b602080601f8311600181146200038657600084156200036d5750858301515b600019600386901b1c1916600185901b17855562000312565b600085815260208120601f198616915b82811015620003b75788860151825594840194600190910190840162000396565b5085821015620003d65787850151600019600388901b60f8161c191681555b5050505050600190811b01905550565b634e487b7160e01b600052601160045260246000fd5b600181815b808511156200043d578160001904821115620004215762000421620003e6565b808516156200042f57918102915b93841c939080029062000401565b509250929050565b6000826200045657506001620004f5565b816200046557506000620004f5565b81600181146200047e57600281146200048957620004a9565b6001915050620004f5565b60ff8411156200049d576200049d620003e6565b50506001821b620004f5565b5060208310610133831016604e8410600b8410161715620004ce575081810a620004f5565b620004da8383620003fc565b8060001904821115620004f157620004f1620003e6565b0290505b92915050565b600062000509838362000445565b9392505050565b8082028115828204841417620004f557620004f5620003e6565b80820180821115620004f557620004f5620003e6565b611d3480620005506000396000f3fe6080604052600436106101cf5760003560e01c806389a30271116100f8578063ad5c464811610090578063ad5c4648146104f6578063aedf795e1461051b578063b3b3453e1461054b578063d6e452121461056b578063d8dfeb4514610580578063dd62ed3e14610596578063de9257cd146105b6578063e6f091f9146105d5578063f2fde38b1461060e57600080fd5b806389a30271146103f75780638c21c9e1146104175780638cd3f0641461042d5780638da5cb5b1461044d57806395d89b411461046b5780639ecbfa4214610480578063a3673b38146104a0578063a457c2d7146104b6578063a9059cbb146104d657600080fd5b8063350245c21161016b578063350245c214610314578063395093511461031c57806347e7ef241461033c578063481d6ee91461034f5780635fa7b5841461036f5780636639a81d1461038f5780636780a7d4146103a457806370a08231146103ac578063715018a6146103e257600080fd5b80630677a2a5146101d457806306fdde0314610204578063095ea7b31461022657806311af7d951461025657806318160ddd146102785780631b2b573c146102975780631cd2f7c8146102ad57806323b872dd146102e0578063313ce56714610300575b600080fd5b3480156101e057600080fd5b506007546001600160a01b03165b6040516101fb91906119ca565b60405180910390f35b34801561021057600080fd5b5061021961062e565b6040516101fb91906119de565b34801561023257600080fd5b50610246610241366004611a48565b6106c0565b60405190151581526020016101fb565b34801561026257600080fd5b50610276610271366004611a72565b6106da565b005b34801561028457600080fd5b506003545b6040519081526020016101fb565b3480156102a357600080fd5b5061028960095481565b3480156102b957600080fd5b506007546102ce90600160a01b900460ff1681565b60405160ff90911681526020016101fb565b3480156102ec57600080fd5b506102466102fb366004611a94565b610711565b34801561030c57600080fd5b5060126102ce565b610276610735565b34801561032857600080fd5b50610246610337366004611a48565b610a34565b61027661034a366004611a48565b610a56565b34801561035b57600080fd5b5061027661036a366004611ad0565b610da6565b34801561037b57600080fd5b5061027661038a366004611a72565b610ecc565b34801561039b57600080fd5b50600a54610289565b610276610f8d565b3480156103b857600080fd5b506102896103c7366004611a72565b6001600160a01b031660009081526001602052604090205490565b3480156103ee57600080fd5b50610276611094565b34801561040357600080fd5b50600c546101ee906001600160a01b031681565b34801561042357600080fd5b5061028960065481565b34801561043957600080fd5b50610276610448366004611a72565b6110a8565b34801561045957600080fd5b506000546001600160a01b03166101ee565b34801561047757600080fd5b50610219611162565b34801561048c57600080fd5b506007546101ee906001600160a01b031681565b3480156104ac57600080fd5b50610289600a5481565b3480156104c257600080fd5b506102466104d1366004611a48565b611171565b3480156104e257600080fd5b506102466104f1366004611a48565b6111ec565b34801561050257600080fd5b50600b546101ee9061010090046001600160a01b031681565b34801561052757600080fd5b50610246610536366004611a72565b600e6020526000908152604090205460ff1681565b34801561055757600080fd5b50600d546101ee906001600160a01b031681565b34801561057757600080fd5b506102766111fa565b34801561058c57600080fd5b5061028960085481565b3480156105a257600080fd5b506102896105b1366004611af3565b611475565b3480156105c257600080fd5b50600754600160a01b900460ff166102ce565b3480156105e157600080fd5b506102466105f0366004611a72565b6001600160a01b03166000908152600e602052604090205460ff1690565b34801561061a57600080fd5b50610276610629366004611a72565b6114a0565b60606004805461063d90611b26565b80601f016020809104026020016040519081016040528092919081815260200182805461066990611b26565b80156106b65780601f1061068b576101008083540402835291602001916106b6565b820191906000526020600020905b81548152906001019060200180831161069957829003601f168201915b5050505050905090565b6000336106ce818585611516565b60019150505b92915050565b6106e261163a565b600780546001600160a01b0319166001600160a01b0392909216919091179055600b805460ff19166001179055565b60003361071f858285611694565b61072a85858561170e565b506001949350505050565b61073d61163a565b600b5460ff16151560011461076d5760405162461bcd60e51b815260040161076490611b60565b60405180910390fd5b600c546040516370a0823160e01b8152600f916001600160a01b0316906370a082319061079e9030906004016119ca565b602060405180830381865afa1580156107bb573d6000803e3d6000fd5b505050506040513d601f19601f820116820180604052508101906107df9190611bb5565b116108445760405162461bcd60e51b815260206004820152602f60248201527f416d6f756e7420746f20736d616c6c20746f206f70656e206120706f7369746960448201526e1bdb8b081b5a5b9a5b5d5b480c4d49608a1b6064820152608401610764565b600754600090600160a01b900460ff16600114610862576000610865565b60015b600c546007546040516370a0823160e01b81529293506001600160a01b039182169263095ea7b3929091169083906370a08231906108a79030906004016119ca565b602060405180830381865afa1580156108c4573d6000803e3d6000fd5b505050506040513d601f19601f820116820180604052508101906108e89190611bb5565b6040516001600160e01b031960e085901b1681526001600160a01b03909216600483015260248201526044016020604051808303816000875af1158015610933573d6000803e3d6000fd5b505050506040513d601f19601f820116820180604052508101906109579190611bde565b50600754600c546040516370a0823160e01b81526001600160a01b0392831692631c5ecc069234929116906370a08231906109969030906004016119ca565b602060405180830381865afa1580156109b3573d6000803e3d6000fd5b505050506040513d601f19601f820116820180604052508101906109d79190611bb5565b6040516001600160e01b031960e085901b168152600481019190915284151560248201526044015b6000604051808303818588803b158015610a1857600080fd5b505af1158015610a2c573d6000803e3d6000fd5b505050505050565b6000336106ce818585610a478383611475565b610a519190611c0f565b611516565b6001600160a01b0382166000908152600e602052604090205460ff16610ab85760405162461bcd60e51b8152602060048201526017602482015276151bdad95b881b9bdd081e595d081cdd5c1c1bdc9d1959604a1b6044820152606401610764565b60008111610b085760405162461bcd60e51b815260206004820152601e60248201527f416d6f756e7420746f206465706f736974206973206d616e6461746f727900006044820152606401610764565b60008190506000306001600160a01b03166318160ddd6040518163ffffffff1660e01b8152600401602060405180830381865afa158015610b4d573d6000803e3d6000fd5b505050506040513d601f19601f82011682018060405250810190610b719190611bb5565b9050600081600003610b84575081610ba9565b670de0b6b3a76400006006819055610b9c8385611c22565b610ba69190611c39565b90505b610bb333826118b9565b6040516323b872dd60e01b8152336004820152306024820152604481018490526001600160a01b038616906323b872dd906064016020604051808303816000875af1158015610c06573d6000803e3d6000fd5b505050506040513d601f19601f82011682018060405250810190610c2a9190611bde565b5060075460405163095ea7b360e01b81526001600160a01b039182166004820152602481018690529086169063095ea7b3906044016020604051808303816000875af1158015610c7e573d6000803e3d6000fd5b505050506040513d601f19601f82011682018060405250810190610ca29190611bde565b50600754600160a01b900460ff16600103610d2357600754604051630e2f660360e11b815260048101869052600160248201526001600160a01b0390911690631c5ecc069034906044016000604051808303818588803b158015610d0557600080fd5b505af1158015610d19573d6000803e3d6000fd5b5050505050610d9f565b600754600160a01b900460ff16600203610d9f57600754604051630e2f660360e11b815260048101869052600060248201526001600160a01b0390911690631c5ecc069034906044016000604051808303818588803b158015610d8557600080fd5b505af1158015610d99573d6000803e3d6000fd5b50505050505b5050505050565b610dae61163a565b60ff81161580610dc157508060ff166001145b80610dcf57508060ff166002145b610e3a5760405162461bcd60e51b815260206004820152603660248201527f56616c7565206d757374206265203020666f72206e65757472616c2c203120666044820152751bdc88131bdb99c81bdc880c88199bdc8814da1bdc9d60521b6064820152608401610764565b60075460ff808316600160a01b9092041603610eac5760405162461bcd60e51b815260206004820152602b60248201527f52657665727465642062656361757365206578706f736974696f6e206861732060448201526a1b9bdd0818da185b99d95960aa1b6064820152608401610764565b6007805460ff909216600160a01b0260ff60a01b19909216919091179055565b610ed461163a565b6001600160a01b0381166000908152600e602052604090205460ff16610f325760405162461bcd60e51b8152602060048201526013602482015272151bdad95b881b9bdd081e595d081859191959606a1b6044820152606401610764565b6001600160a01b0381166000908152600e602052604090819020805460ff19169055517f4c910b69fe65a61f7531b9c5042b2329ca7179c77290aa7e2eb3afa3c8511fd390610f829083906119ca565b60405180910390a150565b610f9561163a565b600b5460ff161515600114610fbc5760405162461bcd60e51b815260040161076490611b60565b600754600160a01b900460ff1660000361103e5760405162461bcd60e51b815260206004820152603b60248201527f4578706f736974696f6e206973203020796f752073686f756c64206e6f74206860448201527f617665206120706f736974696f6e20746f206c697175696461746500000000006064820152608401610764565b600754600090600160a01b900460ff1660011461105c57600061105f565b60015b600754604051637cb1759760e01b815282151560048201529192506001600160a01b031690637cb175979034906024016109ff565b61109c61163a565b6110a6600061197a565b565b6110b061163a565b6001600160a01b0381166000908152600e602052604090205460ff161561110f5760405162461bcd60e51b8152602060048201526013602482015272151bdad95b88185b1c9958591e481859191959606a1b6044820152606401610764565b6001600160a01b0381166000908152600e602052604090819020805460ff19166001179055517fae340411f33c346ae24187433a8df6e508be40cf0deb3949d51cea12df7fa02190610f829083906119ca565b60606005805461063d90611b26565b6000338161117f8286611475565b9050838110156111df5760405162461bcd60e51b815260206004820152602560248201527f45524332303a2064656372656173656420616c6c6f77616e63652062656c6f77604482015264207a65726f60d81b6064820152608401610764565b61072a8286868403611516565b6000336106ce81858561170e565b61120261163a565b600b5460ff1615156001146112295760405162461bcd60e51b815260040161076490611b60565b600754600090600160a01b900460ff1660011461124757600061124a565b60015b600754909150600160a01b900460ff166000036112e25760006008819055600955600c546040516370a0823160e01b81526001600160a01b03909116906370a082319061129b9030906004016119ca565b602060405180830381865afa1580156112b8573d6000803e3d6000fd5b505050506040513d601f19601f820116820180604052508101906112dc9190611bb5565b600a5550565b600754600160a01b900460ff166001036113b457600d54600754600b54604051634a3f088d60e01b815260009384936001600160a01b0391821693634a3f088d9361134193928316926101009092049091169081908990600401611c5b565b610100604051808303816000875af1158015611361573d6000803e3d6000fd5b505050506040513d601f19601f820116820180604052508101906113859190611c85565b97505050505050925050816008819055508060098190555080826113a99190611c0f565b600a55506114729050565b600d54600754600c54600b54604051634a3f088d60e01b815260009485946001600160a01b0391821694634a3f088d94611404949284169391821692610100909104909116908990600401611c5b565b610100604051808303816000875af1158015611424573d6000803e3d6000fd5b505050506040513d601f19601f820116820180604052508101906114489190611c85565b975050505050509250508160088190555080600981905550808261146c9190611ceb565b600a5550505b50565b6001600160a01b03918216600090815260026020908152604080832093909416825291909152205490565b6114a861163a565b6001600160a01b03811661150d5760405162461bcd60e51b815260206004820152602660248201527f4f776e61626c653a206e6577206f776e657220697320746865207a65726f206160448201526564647265737360d01b6064820152608401610764565b6114728161197a565b6001600160a01b0383166115785760405162461bcd60e51b8152602060048201526024808201527f45524332303a20617070726f76652066726f6d20746865207a65726f206164646044820152637265737360e01b6064820152608401610764565b6001600160a01b0382166115d95760405162461bcd60e51b815260206004820152602260248201527f45524332303a20617070726f766520746f20746865207a65726f206164647265604482015261737360f01b6064820152608401610764565b6001600160a01b0383811660008181526002602090815260408083209487168084529482529182902085905590518481527f8c5be1e5ebec7d5bd14f71427d1e84f3dd0314c0f7b2291e5b200ac8c7c3b925910160405180910390a3505050565b6000546001600160a01b031633146110a65760405162461bcd60e51b815260206004820181905260248201527f4f776e61626c653a2063616c6c6572206973206e6f7420746865206f776e65726044820152606401610764565b60006116a08484611475565b9050600019811461170857818110156116fb5760405162461bcd60e51b815260206004820152601d60248201527f45524332303a20696e73756666696369656e7420616c6c6f77616e63650000006044820152606401610764565b6117088484848403611516565b50505050565b6001600160a01b0383166117725760405162461bcd60e51b815260206004820152602560248201527f45524332303a207472616e736665722066726f6d20746865207a65726f206164604482015264647265737360d81b6064820152608401610764565b6001600160a01b0382166117d45760405162461bcd60e51b815260206004820152602360248201527f45524332303a207472616e7366657220746f20746865207a65726f206164647260448201526265737360e81b6064820152608401610764565b6001600160a01b0383166000908152600160205260409020548181101561184c5760405162461bcd60e51b815260206004820152602660248201527f45524332303a207472616e7366657220616d6f756e7420657863656564732062604482015265616c616e636560d01b6064820152608401610764565b6001600160a01b0380851660008181526001602052604080822086860390559286168082529083902080548601905591517fddf252ad1be2c89b69c2b068fc378daa952ba7f163c4a11628f55a4df523b3ef906118ac9086815260200190565b60405180910390a3611708565b6001600160a01b03821661190f5760405162461bcd60e51b815260206004820152601f60248201527f45524332303a206d696e7420746f20746865207a65726f2061646472657373006044820152606401610764565b80600360008282546119219190611c0f565b90915550506001600160a01b0382166000818152600160209081526040808320805486019055518481527fddf252ad1be2c89b69c2b068fc378daa952ba7f163c4a11628f55a4df523b3ef910160405180910390a35050565b600080546001600160a01b038381166001600160a01b0319831681178455604051919092169283917f8be0079c531659141344cd1fd0a4f28419497f9722a3daafe3b4186f6b6457e09190a35050565b6001600160a01b0391909116815260200190565b600060208083528351808285015260005b81811015611a0b578581018301518582016040015282016119ef565b506000604082860101526040601f19601f8301168501019250505092915050565b80356001600160a01b0381168114611a4357600080fd5b919050565b60008060408385031215611a5b57600080fd5b611a6483611a2c565b946020939093013593505050565b600060208284031215611a8457600080fd5b611a8d82611a2c565b9392505050565b600080600060608486031215611aa957600080fd5b611ab284611a2c565b9250611ac060208501611a2c565b9150604084013590509250925092565b600060208284031215611ae257600080fd5b813560ff81168114611a8d57600080fd5b60008060408385031215611b0657600080fd5b611b0f83611a2c565b9150611b1d60208401611a2c565b90509250929050565b600181811c90821680611b3a57607f821691505b602082108103611b5a57634e487b7160e01b600052602260045260246000fd5b50919050565b60208082526035908201527f4e6f7420696e697469616c697a65642c20666972737420796f752068617665206040820152743a379039b2ba1023a6ac1031b7b73a3937b63632b960591b606082015260800190565b600060208284031215611bc757600080fd5b5051919050565b80518015158114611a4357600080fd5b600060208284031215611bf057600080fd5b611a8d82611bce565b634e487b7160e01b600052601160045260246000fd5b808201808211156106d4576106d4611bf9565b80820281158282048414176106d4576106d4611bf9565b600082611c5657634e487b7160e01b600052601260045260246000fd5b500490565b6001600160a01b039485168152928416602084015292166040820152901515606082015260800190565b600080600080600080600080610100898b031215611ca257600080fd5b885197506020890151965060408901519550606089015194506080890151935060a08901519250611cd560c08a01611bce565b915060e089015190509295985092959890939650565b818103818111156106d4576106d4611bf956fea2646970667358221220683aa6c7f8d2acec6f4fed1c147b64b435cc7b8736662f22f2b2cba604df77c264736f6c63430008110033",
  "linkReferences": {},
  "deployedLinkReferences": {}
}