{
  "_format": "hh-sol-artifact-1",
  "contractName": "ECDSA",
  "sourceName": "contracts/libraries/ECDSA.sol",
  "abi": [
    {
      "inputs": [
        {
          "internalType": "bytes32",
          "name": "hash",
          "type": "bytes32"
        },
        {
          "internalType": "bytes",
          "name": "signature",
          "type": "bytes"
        }
      ],
      "name": "recover",
      "outputs": [
        {
          "internalType": "address",
          "name": "",
          "type": "address"
        }
      ],
      "stateMutability": "pure",
      "type": "function"
    },
    {
      "inputs": [
        {
          "internalType": "bytes32",
          "name": "hash",
          "type": "bytes32"
        }
      ],
      "name": "toEthSignedMessageHash",
      "outputs": [
        {
          "internalType": "bytes32",
          "name": "",
          "type": "bytes32"
        }
      ],
      "stateMutability": "pure",
      "type": "function"
    }
  ],
  "bytecode": "0x61048a61003a600b82828239805160001a60731461002d57634e487b7160e01b600052600060045260246000fd5b30600052607381538281f3fe73000000000000000000000000000000000000000030146080604052600436106100405760003560e01c806319045a2514610045578063918a15cf14610075575b600080fd5b61005861005336600461036a565b6100e4565b6040516001600160a01b0390911681526020015b60405180910390f35b6100d6610083366004610425565b6040517f19457468657265756d205369676e6564204d6573736167653a0a3332000000006020820152603c8101829052600090605c01604051602081830303815290604052805190602001209050919050565b60405190815260200161006c565b60008060006100f38585610108565b915091506101008161014d565b509392505050565b600080825160410361013e5760208301516040840151606085015160001a6101328782858561029a565b94509450505050610146565b506000905060025b9250929050565b60008160048111156101615761016161043e565b036101695750565b600181600481111561017d5761017d61043e565b036101ca5760405162461bcd60e51b815260206004820152601860248201527745434453413a20696e76616c6964207369676e617475726560401b60448201526064015b60405180910390fd5b60028160048111156101de576101de61043e565b0361022b5760405162461bcd60e51b815260206004820152601f60248201527f45434453413a20696e76616c6964207369676e6174757265206c656e6774680060448201526064016101c1565b600381600481111561023f5761023f61043e565b036102975760405162461bcd60e51b815260206004820152602260248201527f45434453413a20696e76616c6964207369676e6174757265202773272076616c604482015261756560f01b60648201526084016101c1565b50565b6000806fa2a8918ca85bafe22016d0b997e4df60600160ff1b038311156102c7575060009050600361034b565b6040805160008082526020820180845289905260ff881692820192909252606081018690526080810185905260019060a0016020604051602081039080840390855afa15801561031b573d6000803e3d6000fd5b5050604051601f1901519150506001600160a01b0381166103445760006001925092505061034b565b9150600090505b94509492505050565b634e487b7160e01b600052604160045260246000fd5b6000806040838503121561037d57600080fd5b82359150602083013567ffffffffffffffff8082111561039c57600080fd5b818501915085601f8301126103b057600080fd5b8135818111156103c2576103c2610354565b604051601f8201601f19908116603f011681019083821181831017156103ea576103ea610354565b8160405282815288602084870101111561040357600080fd5b8260208601602083013760006020848301015280955050505050509250929050565b60006020828403121561043757600080fd5b5035919050565b634e487b7160e01b600052602160045260246000fdfea26469706673582212205e90dae4a012ca4e31f7b0b76c7015371c8522946b6b480e6761b8885d21490764736f6c63430008110033",
  "linkReferences": {},
  "deployedLinkReferences": {}
}