{
  "_format": "hh-sol-artifact-1",
  "contractName": "Strat2",
  "sourceName": "contracts/Strat2.sol",
  "abi": [
    {
      "inputs": [],
      "name": "STGLP_USDC",
      "outputs": [
        {
          "internalType": "address",
          "name": "",
          "type": "address"
        }
      ],
      "stateMutability": "view",
      "type": "function"
    },
    {
      "inputs": [],
      "name": "STGLP_USDT",
      "outputs": [
        {
          "internalType": "address",
          "name": "",
          "type": "address"
        }
      ],
      "stateMutability": "view",
      "type": "function"
    },
    {
      "inputs": [],
      "name": "USDC",
      "outputs": [
        {
          "internalType": "address",
          "name": "",
          "type": "address"
        }
      ],
      "stateMutability": "view",
      "type": "function"
    },
    {
      "inputs": [],
      "name": "stacking",
      "outputs": [],
      "stateMutability": "nonpayable",
      "type": "function"
    },
    {
      "inputs": [
        {
          "internalType": "uint256",
          "name": "amount",
          "type": "uint256"
        }
      ],
      "name": "stargateDeposit",
      "outputs": [],
      "stateMutability": "nonpayable",
      "type": "function"
    },
    {
      "inputs": [],
      "name": "stargateLpStaking",
      "outputs": [
        {
          "internalType": "contract IStargateLpStaking",
          "name": "",
          "type": "address"
        }
      ],
      "stateMutability": "view",
      "type": "function"
    },
    {
      "inputs": [],
      "name": "stargateRouter",
      "outputs": [
        {
          "internalType": "contract IStargateRouter",
          "name": "",
          "type": "address"
        }
      ],
      "stateMutability": "view",
      "type": "function"
    }
  ],
  "bytecode": "0x6080604052600080546001600160a01b03199081167353bf833a5d6c4dda888f69c22c88c9f356a4161417825560018054821673ea8dfee1898a7e0a59f7527f076106d7e44c217617815560028054831673ff970a61a04b1ca14834a43f5de4533ebddb5cc817905560038054831673892785f33cdee22a30aef750f285e18c18040c3e1790556004805490921673b6cfcf89a7b22988bfc96632ac2a9d6dab60d641179091556005556006553480156100b857600080fd5b50610706806100c86000396000f3fe608060405234801561001057600080fd5b506004361061006d5760003560e01c80634f5ffd6a146100725780635f4f9e9e146100875780637588c709146100b65780637e2d5759146100c957806389a30271146100dc578063a9e56f3c146100ef578063c62bfd8f14610102575b600080fd5b610085610080366004610602565b61010a565b005b60035461009a906001600160a01b031681565b6040516001600160a01b03909116815260200160405180910390f35b60045461009a906001600160a01b031681565b60015461009a906001600160a01b031681565b60025461009a906001600160a01b031681565b60005461009a906001600160a01b031681565b61008561019a565b600054600254610127916001600160a01b0391821691168361025f565b6000546005546040516321ec87bf60e21b81526004810191909152602481018390523060448201526001600160a01b03909116906387b21efc906064015b600060405180830381600087803b15801561017f57600080fd5b505af1158015610193573d6000803e3d6000fd5b5050505050565b6003546040516370a0823160e01b81523060048201526000916001600160a01b0316906370a0823190602401602060405180830381865afa1580156101e3573d6000803e3d6000fd5b505050506040513d601f19601f82011682018060405250810190610207919061061b565b600154600354919250610227916001600160a01b0390811691168361025f565b600154604051631c57762b60e31b815260006004820152602481018390526001600160a01b039091169063e2bbb15890604401610165565b8015806102d95750604051636eb1769f60e11b81523060048201526001600160a01b03838116602483015284169063dd62ed3e90604401602060405180830381865afa1580156102b3573d6000803e3d6000fd5b505050506040513d601f19601f820116820180604052508101906102d7919061061b565b155b6103495760405162461bcd60e51b815260206004820152603660248201527f5361666545524332303a20617070726f76652066726f6d206e6f6e2d7a65726f60448201527520746f206e6f6e2d7a65726f20616c6c6f77616e636560501b60648201526084015b60405180910390fd5b604080516001600160a01b038416602482015260448082018490528251808303909101815260649091019091526020810180516001600160e01b031663095ea7b360e01b17905261039b9084906103a0565b505050565b60006103f5826040518060400160405280602081526020017f5361666545524332303a206c6f772d6c6576656c2063616c6c206661696c6564815250856001600160a01b03166104729092919063ffffffff16565b80519091501561039b57808060200190518101906104139190610634565b61039b5760405162461bcd60e51b815260206004820152602a60248201527f5361666545524332303a204552433230206f7065726174696f6e20646964206e6044820152691bdd081cdd58d8d9595960b21b6064820152608401610340565b60606104818484600085610489565b949350505050565b6060824710156104ea5760405162461bcd60e51b815260206004820152602660248201527f416464726573733a20696e73756666696369656e742062616c616e636520666f6044820152651c8818d85b1b60d21b6064820152608401610340565b600080866001600160a01b031685876040516105069190610681565b60006040518083038185875af1925050503d8060008114610543576040519150601f19603f3d011682016040523d82523d6000602084013e610548565b606091505b509150915061055987838387610564565b979650505050505050565b606083156105d35782516000036105cc576001600160a01b0385163b6105cc5760405162461bcd60e51b815260206004820152601d60248201527f416464726573733a2063616c6c20746f206e6f6e2d636f6e74726163740000006044820152606401610340565b5081610481565b61048183838151156105e85781518083602001fd5b8060405162461bcd60e51b8152600401610340919061069d565b60006020828403121561061457600080fd5b5035919050565b60006020828403121561062d57600080fd5b5051919050565b60006020828403121561064657600080fd5b8151801515811461065657600080fd5b9392505050565b60005b83811015610678578181015183820152602001610660565b50506000910152565b6000825161069381846020870161065d565b9190910192915050565b60208152600082518060208401526106bc81604085016020870161065d565b601f01601f1916919091016040019291505056fea2646970667358221220105e3933e3b8613d2b07994c6af19b4c82fac724ef53173b0164f70e650a359764736f6c63430008110033",
  "linkReferences": {},
  "deployedLinkReferences": {}
}