{
  "_format": "hh-sol-artifact-1",
  "contractName": "Strat2",
  "sourceName": "contracts/Strat2.sol",
  "abi": [
    {
      "inputs": [],
      "name": "STGLP_USDC",
      "outputs": [
        {
          "internalType": "address",
          "name": "",
          "type": "address"
        }
      ],
      "stateMutability": "view",
      "type": "function"
    },
    {
      "inputs": [],
      "name": "STGLP_USDT",
      "outputs": [
        {
          "internalType": "address",
          "name": "",
          "type": "address"
        }
      ],
      "stateMutability": "view",
      "type": "function"
    },
    {
      "inputs": [],
      "name": "USDC",
      "outputs": [
        {
          "internalType": "address",
          "name": "",
          "type": "address"
        }
      ],
      "stateMutability": "view",
      "type": "function"
    },
    {
      "inputs": [],
      "name": "poolid",
      "outputs": [
        {
          "internalType": "uint8",
          "name": "",
          "type": "uint8"
        }
      ],
      "stateMutability": "view",
      "type": "function"
    },
    {
      "inputs": [
        {
          "internalType": "uint256",
          "name": "amount",
          "type": "uint256"
        }
      ],
      "name": "stargateDeposit",
      "outputs": [],
      "stateMutability": "nonpayable",
      "type": "function"
    },
    {
      "inputs": [],
      "name": "stargateLpStaking",
      "outputs": [
        {
          "internalType": "contract IStargateLpStaking",
          "name": "",
          "type": "address"
        }
      ],
      "stateMutability": "view",
      "type": "function"
    },
    {
      "inputs": [],
      "name": "stargateLpStakingPoolId",
      "outputs": [
        {
          "internalType": "uint8",
          "name": "",
          "type": "uint8"
        }
      ],
      "stateMutability": "view",
      "type": "function"
    },
    {
      "inputs": [],
      "name": "stargateLpStakingPoolid",
      "outputs": [
        {
          "internalType": "uint8",
          "name": "",
          "type": "uint8"
        }
      ],
      "stateMutability": "view",
      "type": "function"
    },
    {
      "inputs": [],
      "name": "stargateLpToken",
      "outputs": [
        {
          "internalType": "address",
          "name": "",
          "type": "address"
        }
      ],
      "stateMutability": "view",
      "type": "function"
    },
    {
      "inputs": [],
      "name": "stargateRouter",
      "outputs": [
        {
          "internalType": "contract IStargateRouter",
          "name": "",
          "type": "address"
        }
      ],
      "stateMutability": "view",
      "type": "function"
    },
    {
      "inputs": [],
      "name": "stargateRouterPoolId",
      "outputs": [
        {
          "internalType": "uint8",
          "name": "",
          "type": "uint8"
        }
      ],
      "stateMutability": "view",
      "type": "function"
    },
    {
      "inputs": [],
      "name": "stgToken",
      "outputs": [
        {
          "internalType": "address",
          "name": "",
          "type": "address"
        }
      ],
      "stateMutability": "view",
      "type": "function"
    },
    {
      "inputs": [],
      "name": "token",
      "outputs": [
        {
          "internalType": "address",
          "name": "",
          "type": "address"
        }
      ],
      "stateMutability": "view",
      "type": "function"
    }
  ],
  "bytecode": "0x6080604052600180546001600160a01b03199081167353bf833a5d6c4dda888f69c22c88c9f356a41614178255600480548216732f6f07cdcf3588944bf4c42ac74ff24bf56e759017905560058054821673ff970a61a04b1ca14834a43f5de4533ebddb5cc817905560068054821673892785f33cdee22a30aef750f285e18c18040c3e1790556007805490911673b6cfcf89a7b22988bfc96632ac2a9d6dab60d64117905560085560006009553480156100b957600080fd5b50610722806100c96000396000f3fe608060405234801561001057600080fd5b50600436106100bf5760003560e01c806389a302711161007c57806389a30271146101685780638fe14eec1461017b5780639afb25de1461018f5780639f591245146101a2578063a9e56f3c146101b6578063fc0c546a146101c9578063fefb191b146101dc57600080fd5b8063398d3a01146100c45780634f5ffd6a146100ef5780635f4f9e9e146101045780637588c7091461012f5780637b0259f7146101425780637e2d575914610155575b600080fd5b6004546100d890600160b81b900460ff1681565b60405160ff90911681526020015b60405180910390f35b6101026100fd36600461061e565b6101f0565b005b600654610117906001600160a01b031681565b6040516001600160a01b0390911681526020016100e6565b600754610117906001600160a01b031681565b600254610117906001600160a01b031681565b600054610117906001600160a01b031681565b600554610117906001600160a01b031681565b6004546100d890600160a81b900460ff1681565b600454610117906001600160a01b031681565b6004546100d890600160a01b900460ff1681565b600154610117906001600160a01b031681565b600354610117906001600160a01b031681565b6004546100d890600160b01b900460ff1681565b60015460055461020d916001600160a01b0391821691168361027b565b600180546040516321ec87bf60e21b81526004810192909252602482018390523060448301526001600160a01b0316906387b21efc90606401600060405180830381600087803b15801561026057600080fd5b505af1158015610274573d6000803e3d6000fd5b5050505050565b8015806102f55750604051636eb1769f60e11b81523060048201526001600160a01b03838116602483015284169063dd62ed3e90604401602060405180830381865afa1580156102cf573d6000803e3d6000fd5b505050506040513d601f19601f820116820180604052508101906102f39190610637565b155b6103655760405162461bcd60e51b815260206004820152603660248201527f5361666545524332303a20617070726f76652066726f6d206e6f6e2d7a65726f60448201527520746f206e6f6e2d7a65726f20616c6c6f77616e636560501b60648201526084015b60405180910390fd5b604080516001600160a01b038416602482015260448082018490528251808303909101815260649091019091526020810180516001600160e01b031663095ea7b360e01b1790526103b79084906103bc565b505050565b6000610411826040518060400160405280602081526020017f5361666545524332303a206c6f772d6c6576656c2063616c6c206661696c6564815250856001600160a01b031661048e9092919063ffffffff16565b8051909150156103b7578080602001905181019061042f9190610650565b6103b75760405162461bcd60e51b815260206004820152602a60248201527f5361666545524332303a204552433230206f7065726174696f6e20646964206e6044820152691bdd081cdd58d8d9595960b21b606482015260840161035c565b606061049d84846000856104a5565b949350505050565b6060824710156105065760405162461bcd60e51b815260206004820152602660248201527f416464726573733a20696e73756666696369656e742062616c616e636520666f6044820152651c8818d85b1b60d21b606482015260840161035c565b600080866001600160a01b03168587604051610522919061069d565b60006040518083038185875af1925050503d806000811461055f576040519150601f19603f3d011682016040523d82523d6000602084013e610564565b606091505b509150915061057587838387610580565b979650505050505050565b606083156105ef5782516000036105e8576001600160a01b0385163b6105e85760405162461bcd60e51b815260206004820152601d60248201527f416464726573733a2063616c6c20746f206e6f6e2d636f6e7472616374000000604482015260640161035c565b508161049d565b61049d83838151156106045781518083602001fd5b8060405162461bcd60e51b815260040161035c91906106b9565b60006020828403121561063057600080fd5b5035919050565b60006020828403121561064957600080fd5b5051919050565b60006020828403121561066257600080fd5b8151801515811461067257600080fd5b9392505050565b60005b8381101561069457818101518382015260200161067c565b50506000910152565b600082516106af818460208701610679565b9190910192915050565b60208152600082518060208401526106d8816040850160208701610679565b601f01601f1916919091016040019291505056fea264697066735822122083047def5c93cbf815eeff919abd028db4d7865c628c4cb9b837e2f814cad81064736f6c63430008110033",
  "linkReferences": {},
  "deployedLinkReferences": {}
}